{
	"contracts/ZombieFactory.sol": {
		"ZombieFactory": {
			"abi": [
				{
					"anonymous": false,
					"inputs": [
						{
							"indexed": false,
							"internalType": "uint256",
							"name": "zombieId",
							"type": "uint256"
						},
						{
							"indexed": false,
							"internalType": "string",
							"name": "name",
							"type": "string"
						},
						{
							"indexed": false,
							"internalType": "uint256",
							"name": "dna",
							"type": "uint256"
						}
					],
					"name": "NewZombie",
					"type": "event"
				},
				{
					"anonymous": false,
					"inputs": [
						{
							"indexed": true,
							"internalType": "address",
							"name": "previousOwner",
							"type": "address"
						},
						{
							"indexed": true,
							"internalType": "address",
							"name": "newOwner",
							"type": "address"
						}
					],
					"name": "OwnershipTransferred",
					"type": "event"
				},
				{
					"inputs": [
						{
							"internalType": "string",
							"name": "_name",
							"type": "string"
						}
					],
					"name": "createRandomZombie",
					"outputs": [],
					"stateMutability": "nonpayable",
					"type": "function"
				},
				{
					"inputs": [],
					"name": "owner",
					"outputs": [
						{
							"internalType": "address",
							"name": "",
							"type": "address"
						}
					],
					"stateMutability": "view",
					"type": "function"
				},
				{
					"inputs": [],
					"name": "renounceOwnership",
					"outputs": [],
					"stateMutability": "nonpayable",
					"type": "function"
				},
				{
					"inputs": [
						{
							"internalType": "address",
							"name": "newOwner",
							"type": "address"
						}
					],
					"name": "transferOwnership",
					"outputs": [],
					"stateMutability": "nonpayable",
					"type": "function"
				},
				{
					"inputs": [
						{
							"internalType": "uint256",
							"name": "",
							"type": "uint256"
						}
					],
					"name": "zombieToOwner",
					"outputs": [
						{
							"internalType": "address",
							"name": "",
							"type": "address"
						}
					],
					"stateMutability": "view",
					"type": "function"
				},
				{
					"inputs": [
						{
							"internalType": "uint256",
							"name": "",
							"type": "uint256"
						}
					],
					"name": "zombies",
					"outputs": [
						{
							"internalType": "string",
							"name": "name",
							"type": "string"
						},
						{
							"internalType": "uint256",
							"name": "dna",
							"type": "uint256"
						},
						{
							"internalType": "uint32",
							"name": "level",
							"type": "uint32"
						},
						{
							"internalType": "uint32",
							"name": "readyTime",
							"type": "uint32"
						},
						{
							"internalType": "uint16",
							"name": "winCount",
							"type": "uint16"
						},
						{
							"internalType": "uint16",
							"name": "lossCount",
							"type": "uint16"
						}
					],
					"stateMutability": "view",
					"type": "function"
				}
			],
			"devdoc": {
				"kind": "dev",
				"methods": {
					"owner()": {
						"details": "Returns the address of the current owner."
					},
					"renounceOwnership()": {
						"details": "Leaves the contract without owner. It will not be possible to call `onlyOwner` functions anymore. Can only be called by the current owner. NOTE: Renouncing ownership will leave the contract without an owner, thereby removing any functionality that is only available to the owner."
					},
					"transferOwnership(address)": {
						"details": "Transfers ownership of the contract to a new account (`newOwner`). Can only be called by the current owner."
					}
				},
				"version": 1
			},
			"evm": {
				"assembly": "    /* \"contracts/ZombieFactory.sol\":181:1519  contract ZombieFactory is Ownable {    ... */\n  mstore(0x40, 0x80)\n    /* \"contracts/ZombieFactory.sol\":329:331  16 */\n  0x10\n    /* \"contracts/ZombieFactory.sol\":312:331  uint dnaDigits = 16 */\n  0x01\n  sstore\n    /* \"contracts/ZombieFactory.sol\":361:370  dnaDigits */\n  sload(0x01)\n    /* \"contracts/ZombieFactory.sol\":355:357  10 */\n  0x0a\n    /* \"contracts/ZombieFactory.sol\":355:370  10 ** dnaDigits */\n  tag_1\n  swap2\n  swap1\n  tag_2\n  jump\t// in\ntag_1:\n    /* \"contracts/ZombieFactory.sol\":337:370  uint dnaModulus = 10 ** dnaDigits */\n  0x02\n  sstore\n    /* \"contracts/ZombieFactory.sol\":396:402  1 days */\n  0x015180\n    /* \"contracts/ZombieFactory.sol\":376:402  uint cooldownTime = 1 days */\n  0x03\n  sstore\n    /* \"contracts/ZombieFactory.sol\":181:1519  contract ZombieFactory is Ownable {    ... */\n  callvalue\n  dup1\n  iszero\n  tag_3\n  jumpi\n  0x00\n  dup1\n  revert\ntag_3:\n  pop\n    /* \"@openzeppelin/contracts/access/Ownable.sol\":936:968  _transferOwnership(_msgSender()) */\n  tag_6\n    /* \"@openzeppelin/contracts/access/Ownable.sol\":955:967  _msgSender() */\n  tag_7\n    /* \"@openzeppelin/contracts/access/Ownable.sol\":955:965  _msgSender */\n  shl(0x20, tag_8)\n    /* \"@openzeppelin/contracts/access/Ownable.sol\":955:967  _msgSender() */\n  0x20\n  shr\n  jump\t// in\ntag_7:\n    /* \"@openzeppelin/contracts/access/Ownable.sol\":936:954  _transferOwnership */\n  shl(0x20, tag_9)\n    /* \"@openzeppelin/contracts/access/Ownable.sol\":936:968  _transferOwnership(_msgSender()) */\n  0x20\n  shr\n  jump\t// in\ntag_6:\n    /* \"contracts/ZombieFactory.sol\":181:1519  contract ZombieFactory is Ownable {    ... */\n  jump(tag_10)\n    /* \"@openzeppelin/contracts/utils/Context.sol\":640:736  function _msgSender() internal view virtual returns (address) {... */\ntag_8:\n    /* \"@openzeppelin/contracts/utils/Context.sol\":693:700  address */\n  0x00\n    /* \"@openzeppelin/contracts/utils/Context.sol\":719:729  msg.sender */\n  caller\n    /* \"@openzeppelin/contracts/utils/Context.sol\":712:729  return msg.sender */\n  swap1\n  pop\n    /* \"@openzeppelin/contracts/utils/Context.sol\":640:736  function _msgSender() internal view virtual returns (address) {... */\n  swap1\n  jump\t// out\n    /* \"@openzeppelin/contracts/access/Ownable.sol\":2433:2620  function _transferOwnership(address newOwner) internal virtual {... */\ntag_9:\n    /* \"@openzeppelin/contracts/access/Ownable.sol\":2506:2522  address oldOwner */\n  0x00\n    /* \"@openzeppelin/contracts/access/Ownable.sol\":2525:2531  _owner */\n  dup1\n  0x00\n  swap1\n  sload\n  swap1\n  0x0100\n  exp\n  swap1\n  div\n  0xffffffffffffffffffffffffffffffffffffffff\n  and\n    /* \"@openzeppelin/contracts/access/Ownable.sol\":2506:2531  address oldOwner = _owner */\n  swap1\n  pop\n    /* \"@openzeppelin/contracts/access/Ownable.sol\":2550:2558  newOwner */\n  dup2\n    /* \"@openzeppelin/contracts/access/Ownable.sol\":2541:2547  _owner */\n  0x00\n  dup1\n    /* \"@openzeppelin/contracts/access/Ownable.sol\":2541:2558  _owner = newOwner */\n  0x0100\n  exp\n  dup2\n  sload\n  dup2\n  0xffffffffffffffffffffffffffffffffffffffff\n  mul\n  not\n  and\n  swap1\n  dup4\n  0xffffffffffffffffffffffffffffffffffffffff\n  and\n  mul\n  or\n  swap1\n  sstore\n  pop\n    /* \"@openzeppelin/contracts/access/Ownable.sol\":2604:2612  newOwner */\n  dup2\n    /* \"@openzeppelin/contracts/access/Ownable.sol\":2573:2613  OwnershipTransferred(oldOwner, newOwner) */\n  0xffffffffffffffffffffffffffffffffffffffff\n  and\n    /* \"@openzeppelin/contracts/access/Ownable.sol\":2594:2602  oldOwner */\n  dup2\n    /* \"@openzeppelin/contracts/access/Ownable.sol\":2573:2613  OwnershipTransferred(oldOwner, newOwner) */\n  0xffffffffffffffffffffffffffffffffffffffff\n  and\n  0x8be0079c531659141344cd1fd0a4f28419497f9722a3daafe3b4186f6b6457e0\n  mload(0x40)\n  mload(0x40)\n  dup1\n  swap2\n  sub\n  swap1\n  log3\n    /* \"@openzeppelin/contracts/access/Ownable.sol\":2496:2620  {... */\n  pop\n    /* \"@openzeppelin/contracts/access/Ownable.sol\":2433:2620  function _transferOwnership(address newOwner) internal virtual {... */\n  pop\n  jump\t// out\n    /* \"#utility.yul\":7:187   */\ntag_13:\n    /* \"#utility.yul\":55:132   */\n  0x4e487b7100000000000000000000000000000000000000000000000000000000\n    /* \"#utility.yul\":52:53   */\n  0x00\n    /* \"#utility.yul\":45:133   */\n  mstore\n    /* \"#utility.yul\":152:156   */\n  0x11\n    /* \"#utility.yul\":149:150   */\n  0x04\n    /* \"#utility.yul\":142:157   */\n  mstore\n    /* \"#utility.yul\":176:180   */\n  0x24\n    /* \"#utility.yul\":173:174   */\n  0x00\n    /* \"#utility.yul\":166:181   */\n  revert\n    /* \"#utility.yul\":193:295   */\ntag_14:\n    /* \"#utility.yul\":235:243   */\n  0x00\n    /* \"#utility.yul\":282:287   */\n  dup2\n    /* \"#utility.yul\":279:280   */\n  0x01\n    /* \"#utility.yul\":275:288   */\n  shr\n    /* \"#utility.yul\":254:288   */\n  swap1\n  pop\n    /* \"#utility.yul\":193:295   */\n  swap2\n  swap1\n  pop\n  jump\t// out\n    /* \"#utility.yul\":301:1149   */\ntag_15:\n    /* \"#utility.yul\":362:367   */\n  0x00\n    /* \"#utility.yul\":369:373   */\n  dup1\n    /* \"#utility.yul\":393:399   */\n  dup3\n    /* \"#utility.yul\":384:399   */\n  swap2\n  pop\n    /* \"#utility.yul\":417:422   */\n  dup4\n    /* \"#utility.yul\":408:422   */\n  swap1\n  pop\n    /* \"#utility.yul\":431:1143   */\ntag_22:\n    /* \"#utility.yul\":452:453   */\n  0x01\n    /* \"#utility.yul\":442:450   */\n  dup6\n    /* \"#utility.yul\":439:454   */\n  gt\n    /* \"#utility.yul\":431:1143   */\n  iszero\n  tag_24\n  jumpi\n    /* \"#utility.yul\":547:551   */\n  dup1\n    /* \"#utility.yul\":542:545   */\n  dup7\n    /* \"#utility.yul\":538:552   */\n  div\n    /* \"#utility.yul\":532:536   */\n  dup2\n    /* \"#utility.yul\":529:553   */\n  gt\n    /* \"#utility.yul\":526:576   */\n  iszero\n  tag_25\n  jumpi\n    /* \"#utility.yul\":556:574   */\n  tag_26\n  tag_13\n  jump\t// in\ntag_26:\n    /* \"#utility.yul\":526:576   */\ntag_25:\n    /* \"#utility.yul\":606:607   */\n  0x01\n    /* \"#utility.yul\":596:604   */\n  dup6\n    /* \"#utility.yul\":592:608   */\n  and\n    /* \"#utility.yul\":589:1040   */\n  iszero\n  tag_27\n  jumpi\n    /* \"#utility.yul\":1021:1025   */\n  dup1\n    /* \"#utility.yul\":1014:1019   */\n  dup3\n    /* \"#utility.yul\":1010:1026   */\n  mul\n    /* \"#utility.yul\":1001:1026   */\n  swap2\n  pop\n    /* \"#utility.yul\":589:1040   */\ntag_27:\n    /* \"#utility.yul\":1071:1075   */\n  dup1\n    /* \"#utility.yul\":1065:1069   */\n  dup2\n    /* \"#utility.yul\":1061:1076   */\n  mul\n    /* \"#utility.yul\":1053:1076   */\n  swap1\n  pop\n    /* \"#utility.yul\":1101:1133   */\n  tag_28\n    /* \"#utility.yul\":1124:1132   */\n  dup6\n    /* \"#utility.yul\":1101:1133   */\n  tag_14\n  jump\t// in\ntag_28:\n    /* \"#utility.yul\":1089:1133   */\n  swap5\n  pop\n    /* \"#utility.yul\":431:1143   */\n  jump(tag_22)\ntag_24:\n    /* \"#utility.yul\":301:1149   */\n  swap5\n  pop\n  swap5\n  swap3\n  pop\n  pop\n  pop\n  jump\t// out\n    /* \"#utility.yul\":1155:2228   */\ntag_16:\n    /* \"#utility.yul\":1209:1214   */\n  0x00\n    /* \"#utility.yul\":1400:1408   */\n  dup3\n    /* \"#utility.yul\":1390:1430   */\n  tag_30\n  jumpi\n    /* \"#utility.yul\":1421:1422   */\n  0x01\n    /* \"#utility.yul\":1412:1422   */\n  swap1\n  pop\n    /* \"#utility.yul\":1423:1428   */\n  jump(tag_29)\n    /* \"#utility.yul\":1390:1430   */\ntag_30:\n    /* \"#utility.yul\":1449:1453   */\n  dup2\n    /* \"#utility.yul\":1439:1475   */\n  tag_31\n  jumpi\n    /* \"#utility.yul\":1466:1467   */\n  0x00\n    /* \"#utility.yul\":1457:1467   */\n  swap1\n  pop\n    /* \"#utility.yul\":1468:1473   */\n  jump(tag_29)\n    /* \"#utility.yul\":1439:1475   */\ntag_31:\n    /* \"#utility.yul\":1535:1539   */\n  dup2\n    /* \"#utility.yul\":1583:1584   */\n  0x01\n    /* \"#utility.yul\":1578:1605   */\n  dup2\n  eq\n  tag_33\n  jumpi\n    /* \"#utility.yul\":1619:1620   */\n  0x02\n    /* \"#utility.yul\":1614:1805   */\n  dup2\n  eq\n  tag_34\n  jumpi\n    /* \"#utility.yul\":1528:1805   */\n  jump(tag_32)\n    /* \"#utility.yul\":1578:1605   */\ntag_33:\n    /* \"#utility.yul\":1596:1597   */\n  0x01\n    /* \"#utility.yul\":1587:1597   */\n  swap2\n  pop\n    /* \"#utility.yul\":1598:1603   */\n  pop\n  jump(tag_29)\n    /* \"#utility.yul\":1614:1805   */\ntag_34:\n    /* \"#utility.yul\":1659:1662   */\n  0xff\n    /* \"#utility.yul\":1649:1657   */\n  dup5\n    /* \"#utility.yul\":1646:1663   */\n  gt\n    /* \"#utility.yul\":1643:1686   */\n  iszero\n  tag_35\n  jumpi\n    /* \"#utility.yul\":1666:1684   */\n  tag_36\n  tag_13\n  jump\t// in\ntag_36:\n    /* \"#utility.yul\":1643:1686   */\ntag_35:\n    /* \"#utility.yul\":1715:1723   */\n  dup4\n    /* \"#utility.yul\":1712:1713   */\n  0x02\n    /* \"#utility.yul\":1708:1724   */\n  exp\n    /* \"#utility.yul\":1699:1724   */\n  swap2\n  pop\n    /* \"#utility.yul\":1750:1753   */\n  dup5\n    /* \"#utility.yul\":1743:1748   */\n  dup3\n    /* \"#utility.yul\":1740:1754   */\n  gt\n    /* \"#utility.yul\":1737:1777   */\n  iszero\n  tag_37\n  jumpi\n    /* \"#utility.yul\":1757:1775   */\n  tag_38\n  tag_13\n  jump\t// in\ntag_38:\n    /* \"#utility.yul\":1737:1777   */\ntag_37:\n    /* \"#utility.yul\":1790:1795   */\n  pop\n  jump(tag_29)\n    /* \"#utility.yul\":1528:1805   */\ntag_32:\n  pop\n    /* \"#utility.yul\":1914:1916   */\n  0x20\n    /* \"#utility.yul\":1904:1912   */\n  dup4\n    /* \"#utility.yul\":1901:1917   */\n  lt\n    /* \"#utility.yul\":1895:1898   */\n  0x0133\n    /* \"#utility.yul\":1889:1893   */\n  dup4\n    /* \"#utility.yul\":1886:1899   */\n  lt\n    /* \"#utility.yul\":1882:1918   */\n  and\n    /* \"#utility.yul\":1864:1866   */\n  0x4e\n    /* \"#utility.yul\":1854:1862   */\n  dup5\n    /* \"#utility.yul\":1851:1867   */\n  lt\n    /* \"#utility.yul\":1846:1848   */\n  0x0b\n    /* \"#utility.yul\":1840:1844   */\n  dup5\n    /* \"#utility.yul\":1837:1849   */\n  lt\n    /* \"#utility.yul\":1833:1868   */\n  and\n    /* \"#utility.yul\":1817:1928   */\n  or\n    /* \"#utility.yul\":1814:2060   */\n  iszero\n  tag_39\n  jumpi\n    /* \"#utility.yul\":1970:1978   */\n  dup3\n    /* \"#utility.yul\":1964:1968   */\n  dup3\n    /* \"#utility.yul\":1960:1979   */\n  exp\n    /* \"#utility.yul\":1951:1979   */\n  swap1\n  pop\n    /* \"#utility.yul\":2005:2008   */\n  dup4\n    /* \"#utility.yul\":1998:2003   */\n  dup2\n    /* \"#utility.yul\":1995:2009   */\n  gt\n    /* \"#utility.yul\":1992:2032   */\n  iszero\n  tag_40\n  jumpi\n    /* \"#utility.yul\":2012:2030   */\n  tag_41\n  tag_13\n  jump\t// in\ntag_41:\n    /* \"#utility.yul\":1992:2032   */\ntag_40:\n    /* \"#utility.yul\":2045:2050   */\n  jump(tag_29)\n    /* \"#utility.yul\":1814:2060   */\ntag_39:\n    /* \"#utility.yul\":2085:2127   */\n  tag_42\n    /* \"#utility.yul\":2123:2126   */\n  dup5\n    /* \"#utility.yul\":2113:2121   */\n  dup5\n    /* \"#utility.yul\":2107:2111   */\n  dup5\n    /* \"#utility.yul\":2104:2105   */\n  0x01\n    /* \"#utility.yul\":2085:2127   */\n  tag_15\n  jump\t// in\ntag_42:\n    /* \"#utility.yul\":2070:2127   */\n  swap3\n  pop\n  swap1\n  pop\n    /* \"#utility.yul\":2159:2163   */\n  dup2\n    /* \"#utility.yul\":2154:2157   */\n  dup5\n    /* \"#utility.yul\":2150:2164   */\n  div\n    /* \"#utility.yul\":2143:2148   */\n  dup2\n    /* \"#utility.yul\":2140:2165   */\n  gt\n    /* \"#utility.yul\":2137:2188   */\n  iszero\n  tag_43\n  jumpi\n    /* \"#utility.yul\":2168:2186   */\n  tag_44\n  tag_13\n  jump\t// in\ntag_44:\n    /* \"#utility.yul\":2137:2188   */\ntag_43:\n    /* \"#utility.yul\":2217:2221   */\n  dup2\n    /* \"#utility.yul\":2210:2215   */\n  dup2\n    /* \"#utility.yul\":2206:2222   */\n  mul\n    /* \"#utility.yul\":2197:2222   */\n  swap1\n  pop\n    /* \"#utility.yul\":1155:2228   */\ntag_29:\n  swap4\n  swap3\n  pop\n  pop\n  pop\n  jump\t// out\n    /* \"#utility.yul\":2234:2311   */\ntag_17:\n    /* \"#utility.yul\":2271:2278   */\n  0x00\n    /* \"#utility.yul\":2300:2305   */\n  dup2\n    /* \"#utility.yul\":2289:2305   */\n  swap1\n  pop\n    /* \"#utility.yul\":2234:2311   */\n  swap2\n  swap1\n  pop\n  jump\t// out\n    /* \"#utility.yul\":2317:2602   */\ntag_2:\n    /* \"#utility.yul\":2377:2382   */\n  0x00\n    /* \"#utility.yul\":2401:2424   */\n  tag_47\n    /* \"#utility.yul\":2419:2423   */\n  dup3\n    /* \"#utility.yul\":2401:2424   */\n  tag_17\n  jump\t// in\ntag_47:\n    /* \"#utility.yul\":2393:2424   */\n  swap2\n  pop\n    /* \"#utility.yul\":2445:2472   */\n  tag_48\n    /* \"#utility.yul\":2463:2471   */\n  dup4\n    /* \"#utility.yul\":2445:2472   */\n  tag_17\n  jump\t// in\ntag_48:\n    /* \"#utility.yul\":2433:2472   */\n  swap3\n  pop\n    /* \"#utility.yul\":2491:2595   */\n  tag_49\n    /* \"#utility.yul\":2528:2594   */\n  0xffffffffffffffffffffffffffffffffffffffffffffffffffffffffffffffff\n    /* \"#utility.yul\":2518:2526   */\n  dup5\n    /* \"#utility.yul\":2512:2516   */\n  dup5\n    /* \"#utility.yul\":2491:2595   */\n  tag_16\n  jump\t// in\ntag_49:\n    /* \"#utility.yul\":2482:2595   */\n  swap1\n  pop\n    /* \"#utility.yul\":2317:2602   */\n  swap3\n  swap2\n  pop\n  pop\n  jump\t// out\n    /* \"contracts/ZombieFactory.sol\":181:1519  contract ZombieFactory is Ownable {    ... */\ntag_10:\n  dataSize(sub_0)\n  dup1\n  dataOffset(sub_0)\n  0x00\n  codecopy\n  0x00\n  return\nstop\n\nsub_0: assembly {\n        /* \"contracts/ZombieFactory.sol\":181:1519  contract ZombieFactory is Ownable {    ... */\n      mstore(0x40, 0x80)\n      callvalue\n      dup1\n      iszero\n      tag_1\n      jumpi\n      0x00\n      dup1\n      revert\n    tag_1:\n      pop\n      jumpi(tag_2, lt(calldatasize, 0x04))\n      shr(0xe0, calldataload(0x00))\n      dup1\n      0x2052465e\n      eq\n      tag_3\n      jumpi\n      dup1\n      0x528b7b8f\n      eq\n      tag_4\n      jumpi\n      dup1\n      0x715018a6\n      eq\n      tag_5\n      jumpi\n      dup1\n      0x7bff0a01\n      eq\n      tag_6\n      jumpi\n      dup1\n      0x8da5cb5b\n      eq\n      tag_7\n      jumpi\n      dup1\n      0xf2fde38b\n      eq\n      tag_8\n      jumpi\n    tag_2:\n      0x00\n      dup1\n      revert\n        /* \"contracts/ZombieFactory.sol\":562:585  Zombie[] public zombies */\n    tag_3:\n      tag_9\n      0x04\n      dup1\n      calldatasize\n      sub\n      dup2\n      add\n      swap1\n      tag_10\n      swap2\n      swap1\n      tag_11\n      jump\t// in\n    tag_10:\n      tag_12\n      jump\t// in\n    tag_9:\n      mload(0x40)\n      tag_13\n      swap7\n      swap6\n      swap5\n      swap4\n      swap3\n      swap2\n      swap1\n      tag_14\n      jump\t// in\n    tag_13:\n      mload(0x40)\n      dup1\n      swap2\n      sub\n      swap1\n      return\n        /* \"contracts/ZombieFactory.sol\":592:638  mapping (uint => address) public zombieToOwner */\n    tag_4:\n      tag_15\n      0x04\n      dup1\n      calldatasize\n      sub\n      dup2\n      add\n      swap1\n      tag_16\n      swap2\n      swap1\n      tag_11\n      jump\t// in\n    tag_16:\n      tag_17\n      jump\t// in\n    tag_15:\n      mload(0x40)\n      tag_18\n      swap2\n      swap1\n      tag_19\n      jump\t// in\n    tag_18:\n      mload(0x40)\n      dup1\n      swap2\n      sub\n      swap1\n      return\n        /* \"@openzeppelin/contracts/access/Ownable.sol\":1831:1932  function renounceOwnership() public virtual onlyOwner {... */\n    tag_5:\n      tag_20\n      tag_21\n      jump\t// in\n    tag_20:\n      stop\n        /* \"contracts/ZombieFactory.sol\":1261:1517  function createRandomZombie(string memory _name) public {... */\n    tag_6:\n      tag_22\n      0x04\n      dup1\n      calldatasize\n      sub\n      dup2\n      add\n      swap1\n      tag_23\n      swap2\n      swap1\n      tag_24\n      jump\t// in\n    tag_23:\n      tag_25\n      jump\t// in\n    tag_22:\n      stop\n        /* \"@openzeppelin/contracts/access/Ownable.sol\":1201:1286  function owner() public view virtual returns (address) {... */\n    tag_7:\n      tag_26\n      tag_27\n      jump\t// in\n    tag_26:\n      mload(0x40)\n      tag_28\n      swap2\n      swap1\n      tag_19\n      jump\t// in\n    tag_28:\n      mload(0x40)\n      dup1\n      swap2\n      sub\n      swap1\n      return\n        /* \"@openzeppelin/contracts/access/Ownable.sol\":2081:2279  function transferOwnership(address newOwner) public virtual onlyOwner {... */\n    tag_8:\n      tag_29\n      0x04\n      dup1\n      calldatasize\n      sub\n      dup2\n      add\n      swap1\n      tag_30\n      swap2\n      swap1\n      tag_31\n      jump\t// in\n    tag_30:\n      tag_32\n      jump\t// in\n    tag_29:\n      stop\n        /* \"contracts/ZombieFactory.sol\":562:585  Zombie[] public zombies */\n    tag_12:\n      0x04\n      dup2\n      dup2\n      sload\n      dup2\n      lt\n      tag_33\n      jumpi\n      0x00\n      dup1\n      revert\n    tag_33:\n      swap1\n      0x00\n      mstore\n      keccak256(0x00, 0x20)\n      swap1\n      0x03\n      mul\n      add\n      0x00\n      swap2\n      pop\n      swap1\n      pop\n      dup1\n      0x00\n      add\n      dup1\n      sload\n      tag_35\n      swap1\n      tag_36\n      jump\t// in\n    tag_35:\n      dup1\n      0x1f\n      add\n      0x20\n      dup1\n      swap2\n      div\n      mul\n      0x20\n      add\n      mload(0x40)\n      swap1\n      dup2\n      add\n      0x40\n      mstore\n      dup1\n      swap3\n      swap2\n      swap1\n      dup2\n      dup2\n      mstore\n      0x20\n      add\n      dup3\n      dup1\n      sload\n      tag_37\n      swap1\n      tag_36\n      jump\t// in\n    tag_37:\n      dup1\n      iszero\n      tag_38\n      jumpi\n      dup1\n      0x1f\n      lt\n      tag_39\n      jumpi\n      0x0100\n      dup1\n      dup4\n      sload\n      div\n      mul\n      dup4\n      mstore\n      swap2\n      0x20\n      add\n      swap2\n      jump(tag_38)\n    tag_39:\n      dup3\n      add\n      swap2\n      swap1\n      0x00\n      mstore\n      keccak256(0x00, 0x20)\n      swap1\n    tag_40:\n      dup2\n      sload\n      dup2\n      mstore\n      swap1\n      0x01\n      add\n      swap1\n      0x20\n      add\n      dup1\n      dup4\n      gt\n      tag_40\n      jumpi\n      dup3\n      swap1\n      sub\n      0x1f\n      and\n      dup3\n      add\n      swap2\n    tag_38:\n      pop\n      pop\n      pop\n      pop\n      pop\n      swap1\n      dup1\n      0x01\n      add\n      sload\n      swap1\n      dup1\n      0x02\n      add\n      0x00\n      swap1\n      sload\n      swap1\n      0x0100\n      exp\n      swap1\n      div\n      0xffffffff\n      and\n      swap1\n      dup1\n      0x02\n      add\n      0x04\n      swap1\n      sload\n      swap1\n      0x0100\n      exp\n      swap1\n      div\n      0xffffffff\n      and\n      swap1\n      dup1\n      0x02\n      add\n      0x08\n      swap1\n      sload\n      swap1\n      0x0100\n      exp\n      swap1\n      div\n      0xffff\n      and\n      swap1\n      dup1\n      0x02\n      add\n      0x0a\n      swap1\n      sload\n      swap1\n      0x0100\n      exp\n      swap1\n      div\n      0xffff\n      and\n      swap1\n      pop\n      dup7\n      jump\t// out\n        /* \"contracts/ZombieFactory.sol\":592:638  mapping (uint => address) public zombieToOwner */\n    tag_17:\n      mstore(0x20, 0x05)\n      dup1\n      0x00\n      mstore\n      keccak256(0x00, 0x40)\n      0x00\n      swap2\n      pop\n      sload\n      swap1\n      0x0100\n      exp\n      swap1\n      div\n      0xffffffffffffffffffffffffffffffffffffffff\n      and\n      dup2\n      jump\t// out\n        /* \"@openzeppelin/contracts/access/Ownable.sol\":1831:1932  function renounceOwnership() public virtual onlyOwner {... */\n    tag_21:\n        /* \"@openzeppelin/contracts/access/Ownable.sol\":1094:1107  _checkOwner() */\n      tag_42\n        /* \"@openzeppelin/contracts/access/Ownable.sol\":1094:1105  _checkOwner */\n      tag_43\n        /* \"@openzeppelin/contracts/access/Ownable.sol\":1094:1107  _checkOwner() */\n      jump\t// in\n    tag_42:\n        /* \"@openzeppelin/contracts/access/Ownable.sol\":1895:1925  _transferOwnership(address(0)) */\n      tag_45\n        /* \"@openzeppelin/contracts/access/Ownable.sol\":1922:1923  0 */\n      0x00\n        /* \"@openzeppelin/contracts/access/Ownable.sol\":1895:1913  _transferOwnership */\n      tag_46\n        /* \"@openzeppelin/contracts/access/Ownable.sol\":1895:1925  _transferOwnership(address(0)) */\n      jump\t// in\n    tag_45:\n        /* \"@openzeppelin/contracts/access/Ownable.sol\":1831:1932  function renounceOwnership() public virtual onlyOwner {... */\n      jump\t// out\n        /* \"contracts/ZombieFactory.sol\":1261:1517  function createRandomZombie(string memory _name) public {... */\n    tag_25:\n        /* \"contracts/ZombieFactory.sol\":1367:1368  0 */\n      0x00\n        /* \"contracts/ZombieFactory.sol\":1335:1351  ownerZombieCount */\n      0x06\n        /* \"contracts/ZombieFactory.sol\":1335:1363  ownerZombieCount[msg.sender] */\n      0x00\n        /* \"contracts/ZombieFactory.sol\":1352:1362  msg.sender */\n      caller\n        /* \"contracts/ZombieFactory.sol\":1335:1363  ownerZombieCount[msg.sender] */\n      0xffffffffffffffffffffffffffffffffffffffff\n      and\n      0xffffffffffffffffffffffffffffffffffffffff\n      and\n      dup2\n      mstore\n      0x20\n      add\n      swap1\n      dup2\n      mstore\n      0x20\n      add\n      0x00\n      keccak256\n      sload\n        /* \"contracts/ZombieFactory.sol\":1335:1368  ownerZombieCount[msg.sender] == 0 */\n      eq\n        /* \"contracts/ZombieFactory.sol\":1327:1369  require(ownerZombieCount[msg.sender] == 0) */\n      tag_48\n      jumpi\n      0x00\n      dup1\n      revert\n    tag_48:\n        /* \"contracts/ZombieFactory.sol\":1388:1400  uint randDna */\n      0x00\n        /* \"contracts/ZombieFactory.sol\":1403:1428  _generateRandomDna(_name) */\n      tag_49\n        /* \"contracts/ZombieFactory.sol\":1422:1427  _name */\n      dup3\n        /* \"contracts/ZombieFactory.sol\":1403:1421  _generateRandomDna */\n      tag_50\n        /* \"contracts/ZombieFactory.sol\":1403:1428  _generateRandomDna(_name) */\n      jump\t// in\n    tag_49:\n        /* \"contracts/ZombieFactory.sol\":1388:1428  uint randDna = _generateRandomDna(_name) */\n      swap1\n      pop\n        /* \"contracts/ZombieFactory.sol\":1468:1471  100 */\n      0x64\n        /* \"contracts/ZombieFactory.sol\":1458:1465  randDna */\n      dup2\n        /* \"contracts/ZombieFactory.sol\":1458:1471  randDna % 100 */\n      tag_51\n      swap2\n      swap1\n      tag_52\n      jump\t// in\n    tag_51:\n        /* \"contracts/ZombieFactory.sol\":1448:1455  randDna */\n      dup2\n        /* \"contracts/ZombieFactory.sol\":1448:1471  randDna - randDna % 100 */\n      tag_53\n      swap2\n      swap1\n      tag_54\n      jump\t// in\n    tag_53:\n        /* \"contracts/ZombieFactory.sol\":1438:1471  randDna = randDna - randDna % 100 */\n      swap1\n      pop\n        /* \"contracts/ZombieFactory.sol\":1481:1510  _createZombie(_name, randDna) */\n      tag_55\n        /* \"contracts/ZombieFactory.sol\":1495:1500  _name */\n      dup3\n        /* \"contracts/ZombieFactory.sol\":1502:1509  randDna */\n      dup3\n        /* \"contracts/ZombieFactory.sol\":1481:1494  _createZombie */\n      tag_56\n        /* \"contracts/ZombieFactory.sol\":1481:1510  _createZombie(_name, randDna) */\n      jump\t// in\n    tag_55:\n        /* \"contracts/ZombieFactory.sol\":1317:1517  {... */\n      pop\n        /* \"contracts/ZombieFactory.sol\":1261:1517  function createRandomZombie(string memory _name) public {... */\n      pop\n      jump\t// out\n        /* \"@openzeppelin/contracts/access/Ownable.sol\":1201:1286  function owner() public view virtual returns (address) {... */\n    tag_27:\n        /* \"@openzeppelin/contracts/access/Ownable.sol\":1247:1254  address */\n      0x00\n        /* \"@openzeppelin/contracts/access/Ownable.sol\":1273:1279  _owner */\n      dup1\n      0x00\n      swap1\n      sload\n      swap1\n      0x0100\n      exp\n      swap1\n      div\n      0xffffffffffffffffffffffffffffffffffffffff\n      and\n        /* \"@openzeppelin/contracts/access/Ownable.sol\":1266:1279  return _owner */\n      swap1\n      pop\n        /* \"@openzeppelin/contracts/access/Ownable.sol\":1201:1286  function owner() public view virtual returns (address) {... */\n      swap1\n      jump\t// out\n        /* \"@openzeppelin/contracts/access/Ownable.sol\":2081:2279  function transferOwnership(address newOwner) public virtual onlyOwner {... */\n    tag_32:\n        /* \"@openzeppelin/contracts/access/Ownable.sol\":1094:1107  _checkOwner() */\n      tag_59\n        /* \"@openzeppelin/contracts/access/Ownable.sol\":1094:1105  _checkOwner */\n      tag_43\n        /* \"@openzeppelin/contracts/access/Ownable.sol\":1094:1107  _checkOwner() */\n      jump\t// in\n    tag_59:\n        /* \"@openzeppelin/contracts/access/Ownable.sol\":2189:2190  0 */\n      0x00\n        /* \"@openzeppelin/contracts/access/Ownable.sol\":2169:2191  newOwner != address(0) */\n      0xffffffffffffffffffffffffffffffffffffffff\n      and\n        /* \"@openzeppelin/contracts/access/Ownable.sol\":2169:2177  newOwner */\n      dup2\n        /* \"@openzeppelin/contracts/access/Ownable.sol\":2169:2191  newOwner != address(0) */\n      0xffffffffffffffffffffffffffffffffffffffff\n      and\n      sub\n        /* \"@openzeppelin/contracts/access/Ownable.sol\":2161:2234  require(newOwner != address(0), \"Ownable: new owner is the zero address\") */\n      tag_61\n      jumpi\n      mload(0x40)\n      0x08c379a000000000000000000000000000000000000000000000000000000000\n      dup2\n      mstore\n      0x04\n      add\n      tag_62\n      swap1\n      tag_63\n      jump\t// in\n    tag_62:\n      mload(0x40)\n      dup1\n      swap2\n      sub\n      swap1\n      revert\n    tag_61:\n        /* \"@openzeppelin/contracts/access/Ownable.sol\":2244:2272  _transferOwnership(newOwner) */\n      tag_64\n        /* \"@openzeppelin/contracts/access/Ownable.sol\":2263:2271  newOwner */\n      dup2\n        /* \"@openzeppelin/contracts/access/Ownable.sol\":2244:2262  _transferOwnership */\n      tag_46\n        /* \"@openzeppelin/contracts/access/Ownable.sol\":2244:2272  _transferOwnership(newOwner) */\n      jump\t// in\n    tag_64:\n        /* \"@openzeppelin/contracts/access/Ownable.sol\":2081:2279  function transferOwnership(address newOwner) public virtual onlyOwner {... */\n      pop\n      jump\t// out\n        /* \"@openzeppelin/contracts/access/Ownable.sol\":1359:1489  function _checkOwner() internal view virtual {... */\n    tag_43:\n        /* \"@openzeppelin/contracts/access/Ownable.sol\":1433:1445  _msgSender() */\n      tag_66\n        /* \"@openzeppelin/contracts/access/Ownable.sol\":1433:1443  _msgSender */\n      tag_67\n        /* \"@openzeppelin/contracts/access/Ownable.sol\":1433:1445  _msgSender() */\n      jump\t// in\n    tag_66:\n        /* \"@openzeppelin/contracts/access/Ownable.sol\":1422:1445  owner() == _msgSender() */\n      0xffffffffffffffffffffffffffffffffffffffff\n      and\n        /* \"@openzeppelin/contracts/access/Ownable.sol\":1422:1429  owner() */\n      tag_68\n        /* \"@openzeppelin/contracts/access/Ownable.sol\":1422:1427  owner */\n      tag_27\n        /* \"@openzeppelin/contracts/access/Ownable.sol\":1422:1429  owner() */\n      jump\t// in\n    tag_68:\n        /* \"@openzeppelin/contracts/access/Ownable.sol\":1422:1445  owner() == _msgSender() */\n      0xffffffffffffffffffffffffffffffffffffffff\n      and\n      eq\n        /* \"@openzeppelin/contracts/access/Ownable.sol\":1414:1482  require(owner() == _msgSender(), \"Ownable: caller is not the owner\") */\n      tag_69\n      jumpi\n      mload(0x40)\n      0x08c379a000000000000000000000000000000000000000000000000000000000\n      dup2\n      mstore\n      0x04\n      add\n      tag_70\n      swap1\n      tag_71\n      jump\t// in\n    tag_70:\n      mload(0x40)\n      dup1\n      swap2\n      sub\n      swap1\n      revert\n    tag_69:\n        /* \"@openzeppelin/contracts/access/Ownable.sol\":1359:1489  function _checkOwner() internal view virtual {... */\n      jump\t// out\n        /* \"@openzeppelin/contracts/access/Ownable.sol\":2433:2620  function _transferOwnership(address newOwner) internal virtual {... */\n    tag_46:\n        /* \"@openzeppelin/contracts/access/Ownable.sol\":2506:2522  address oldOwner */\n      0x00\n        /* \"@openzeppelin/contracts/access/Ownable.sol\":2525:2531  _owner */\n      dup1\n      0x00\n      swap1\n      sload\n      swap1\n      0x0100\n      exp\n      swap1\n      div\n      0xffffffffffffffffffffffffffffffffffffffff\n      and\n        /* \"@openzeppelin/contracts/access/Ownable.sol\":2506:2531  address oldOwner = _owner */\n      swap1\n      pop\n        /* \"@openzeppelin/contracts/access/Ownable.sol\":2550:2558  newOwner */\n      dup2\n        /* \"@openzeppelin/contracts/access/Ownable.sol\":2541:2547  _owner */\n      0x00\n      dup1\n        /* \"@openzeppelin/contracts/access/Ownable.sol\":2541:2558  _owner = newOwner */\n      0x0100\n      exp\n      dup2\n      sload\n      dup2\n      0xffffffffffffffffffffffffffffffffffffffff\n      mul\n      not\n      and\n      swap1\n      dup4\n      0xffffffffffffffffffffffffffffffffffffffff\n      and\n      mul\n      or\n      swap1\n      sstore\n      pop\n        /* \"@openzeppelin/contracts/access/Ownable.sol\":2604:2612  newOwner */\n      dup2\n        /* \"@openzeppelin/contracts/access/Ownable.sol\":2573:2613  OwnershipTransferred(oldOwner, newOwner) */\n      0xffffffffffffffffffffffffffffffffffffffff\n      and\n        /* \"@openzeppelin/contracts/access/Ownable.sol\":2594:2602  oldOwner */\n      dup2\n        /* \"@openzeppelin/contracts/access/Ownable.sol\":2573:2613  OwnershipTransferred(oldOwner, newOwner) */\n      0xffffffffffffffffffffffffffffffffffffffff\n      and\n      0x8be0079c531659141344cd1fd0a4f28419497f9722a3daafe3b4186f6b6457e0\n      mload(0x40)\n      mload(0x40)\n      dup1\n      swap2\n      sub\n      swap1\n      log3\n        /* \"@openzeppelin/contracts/access/Ownable.sol\":2496:2620  {... */\n      pop\n        /* \"@openzeppelin/contracts/access/Ownable.sol\":2433:2620  function _transferOwnership(address newOwner) internal virtual {... */\n      pop\n      jump\t// out\n        /* \"contracts/ZombieFactory.sol\":1068:1255  function _generateRandomDna(string memory _str) private view returns (uint) {... */\n    tag_50:\n        /* \"contracts/ZombieFactory.sol\":1138:1142  uint */\n      0x00\n        /* \"contracts/ZombieFactory.sol\":1154:1163  uint rand */\n      dup1\n        /* \"contracts/ZombieFactory.sol\":1198:1202  _str */\n      dup3\n        /* \"contracts/ZombieFactory.sol\":1181:1203  abi.encodePacked(_str) */\n      add(0x20, mload(0x40))\n      tag_74\n      swap2\n      swap1\n      tag_75\n      jump\t// in\n    tag_74:\n      mload(0x40)\n      0x20\n      dup2\n      dup4\n      sub\n      sub\n      dup2\n      mstore\n      swap1\n      0x40\n      mstore\n        /* \"contracts/ZombieFactory.sol\":1171:1204  keccak256(abi.encodePacked(_str)) */\n      dup1\n      mload\n      swap1\n      0x20\n      add\n      keccak256\n        /* \"contracts/ZombieFactory.sol\":1166:1205  uint(keccak256(abi.encodePacked(_str))) */\n      0x00\n      shr\n        /* \"contracts/ZombieFactory.sol\":1154:1205  uint rand = uint(keccak256(abi.encodePacked(_str))) */\n      swap1\n      pop\n        /* \"contracts/ZombieFactory.sol\":1238:1248  dnaModulus */\n      sload(0x02)\n        /* \"contracts/ZombieFactory.sol\":1231:1235  rand */\n      dup2\n        /* \"contracts/ZombieFactory.sol\":1231:1248  rand % dnaModulus */\n      tag_76\n      swap2\n      swap1\n      tag_52\n      jump\t// in\n    tag_76:\n        /* \"contracts/ZombieFactory.sol\":1224:1248  return rand % dnaModulus */\n      swap2\n      pop\n      pop\n        /* \"contracts/ZombieFactory.sol\":1068:1255  function _generateRandomDna(string memory _str) private view returns (uint) {... */\n      swap2\n      swap1\n      pop\n      jump\t// out\n        /* \"contracts/ZombieFactory.sol\":693:1062  function _createZombie(string memory _name, uint _dna) internal {... */\n    tag_56:\n        /* \"contracts/ZombieFactory.sol\":767:774  zombies */\n      0x04\n        /* \"contracts/ZombieFactory.sol\":780:848  Zombie(_name, _dna, 1, uint32(block.timestamp + cooldownTime), 0, 0) */\n      mload(0x40)\n      dup1\n      0xc0\n      add\n      0x40\n      mstore\n      dup1\n        /* \"contracts/ZombieFactory.sol\":787:792  _name */\n      dup5\n        /* \"contracts/ZombieFactory.sol\":780:848  Zombie(_name, _dna, 1, uint32(block.timestamp + cooldownTime), 0, 0) */\n      dup2\n      mstore\n      0x20\n      add\n        /* \"contracts/ZombieFactory.sol\":794:798  _dna */\n      dup4\n        /* \"contracts/ZombieFactory.sol\":780:848  Zombie(_name, _dna, 1, uint32(block.timestamp + cooldownTime), 0, 0) */\n      dup2\n      mstore\n      0x20\n      add\n        /* \"contracts/ZombieFactory.sol\":800:801  1 */\n      0x01\n        /* \"contracts/ZombieFactory.sol\":780:848  Zombie(_name, _dna, 1, uint32(block.timestamp + cooldownTime), 0, 0) */\n      0xffffffff\n      and\n      dup2\n      mstore\n      0x20\n      add\n        /* \"contracts/ZombieFactory.sol\":828:840  cooldownTime */\n      sload(0x03)\n        /* \"contracts/ZombieFactory.sol\":810:825  block.timestamp */\n      timestamp\n        /* \"contracts/ZombieFactory.sol\":810:840  block.timestamp + cooldownTime */\n      tag_78\n      swap2\n      swap1\n      tag_79\n      jump\t// in\n    tag_78:\n        /* \"contracts/ZombieFactory.sol\":780:848  Zombie(_name, _dna, 1, uint32(block.timestamp + cooldownTime), 0, 0) */\n      0xffffffff\n      and\n      dup2\n      mstore\n      0x20\n      add\n        /* \"contracts/ZombieFactory.sol\":843:844  0 */\n      0x00\n        /* \"contracts/ZombieFactory.sol\":780:848  Zombie(_name, _dna, 1, uint32(block.timestamp + cooldownTime), 0, 0) */\n      0xffff\n      and\n      dup2\n      mstore\n      0x20\n      add\n        /* \"contracts/ZombieFactory.sol\":846:847  0 */\n      0x00\n        /* \"contracts/ZombieFactory.sol\":780:848  Zombie(_name, _dna, 1, uint32(block.timestamp + cooldownTime), 0, 0) */\n      0xffff\n      and\n      dup2\n      mstore\n      pop\n        /* \"contracts/ZombieFactory.sol\":767:849  zombies.push(Zombie(_name, _dna, 1, uint32(block.timestamp + cooldownTime), 0, 0)) */\n      swap1\n      dup1\n      0x01\n      dup2\n      sload\n      add\n      dup1\n      dup3\n      sstore\n      dup1\n      swap2\n      pop\n      pop\n      0x01\n      swap1\n      sub\n      swap1\n      0x00\n      mstore\n      keccak256(0x00, 0x20)\n      swap1\n      0x03\n      mul\n      add\n      0x00\n      swap1\n      swap2\n      swap1\n      swap2\n      swap1\n      swap2\n      pop\n      0x00\n      dup3\n      add\n      mload\n      dup2\n      0x00\n      add\n      swap1\n      dup2\n      tag_81\n      swap2\n      swap1\n      tag_82\n      jump\t// in\n    tag_81:\n      pop\n      0x20\n      dup3\n      add\n      mload\n      dup2\n      0x01\n      add\n      sstore\n      0x40\n      dup3\n      add\n      mload\n      dup2\n      0x02\n      add\n      exp(0x0100, 0x00)\n      dup2\n      sload\n      dup2\n      0xffffffff\n      mul\n      not\n      and\n      swap1\n      dup4\n      0xffffffff\n      and\n      mul\n      or\n      swap1\n      sstore\n      pop\n      0x60\n      dup3\n      add\n      mload\n      dup2\n      0x02\n      add\n      exp(0x0100, 0x04)\n      dup2\n      sload\n      dup2\n      0xffffffff\n      mul\n      not\n      and\n      swap1\n      dup4\n      0xffffffff\n      and\n      mul\n      or\n      swap1\n      sstore\n      pop\n      0x80\n      dup3\n      add\n      mload\n      dup2\n      0x02\n      add\n      exp(0x0100, 0x08)\n      dup2\n      sload\n      dup2\n      0xffff\n      mul\n      not\n      and\n      swap1\n      dup4\n      0xffff\n      and\n      mul\n      or\n      swap1\n      sstore\n      pop\n      0xa0\n      dup3\n      add\n      mload\n      dup2\n      0x02\n      add\n      exp(0x0100, 0x0a)\n      dup2\n      sload\n      dup2\n      0xffff\n      mul\n      not\n      and\n      swap1\n      dup4\n      0xffff\n      and\n      mul\n      or\n      swap1\n      sstore\n      pop\n      pop\n      pop\n        /* \"contracts/ZombieFactory.sol\":860:867  uint id */\n      0x00\n        /* \"contracts/ZombieFactory.sol\":887:888  1 */\n      0x01\n        /* \"contracts/ZombieFactory.sol\":870:877  zombies */\n      0x04\n        /* \"contracts/ZombieFactory.sol\":870:884  zombies.length */\n      dup1\n      sload\n      swap1\n      pop\n        /* \"contracts/ZombieFactory.sol\":870:888  zombies.length - 1 */\n      tag_83\n      swap2\n      swap1\n      tag_54\n      jump\t// in\n    tag_83:\n        /* \"contracts/ZombieFactory.sol\":860:888  uint id = zombies.length - 1 */\n      swap1\n      pop\n        /* \"contracts/ZombieFactory.sol\":927:937  msg.sender */\n      caller\n        /* \"contracts/ZombieFactory.sol\":907:920  zombieToOwner */\n      0x05\n        /* \"contracts/ZombieFactory.sol\":907:924  zombieToOwner[id] */\n      0x00\n        /* \"contracts/ZombieFactory.sol\":921:923  id */\n      dup4\n        /* \"contracts/ZombieFactory.sol\":907:924  zombieToOwner[id] */\n      dup2\n      mstore\n      0x20\n      add\n      swap1\n      dup2\n      mstore\n      0x20\n      add\n      0x00\n      keccak256\n      0x00\n        /* \"contracts/ZombieFactory.sol\":907:937  zombieToOwner[id] = msg.sender */\n      0x0100\n      exp\n      dup2\n      sload\n      dup2\n      0xffffffffffffffffffffffffffffffffffffffff\n      mul\n      not\n      and\n      swap1\n      dup4\n      0xffffffffffffffffffffffffffffffffffffffff\n      and\n      mul\n      or\n      swap1\n      sstore\n      pop\n        /* \"contracts/ZombieFactory.sol\":978:1013  ownerZombieCount[msg.sender].add(1) */\n      tag_84\n        /* \"contracts/ZombieFactory.sol\":1011:1012  1 */\n      0x01\n        /* \"contracts/ZombieFactory.sol\":978:994  ownerZombieCount */\n      0x06\n        /* \"contracts/ZombieFactory.sol\":978:1006  ownerZombieCount[msg.sender] */\n      0x00\n        /* \"contracts/ZombieFactory.sol\":995:1005  msg.sender */\n      caller\n        /* \"contracts/ZombieFactory.sol\":978:1006  ownerZombieCount[msg.sender] */\n      0xffffffffffffffffffffffffffffffffffffffff\n      and\n      0xffffffffffffffffffffffffffffffffffffffff\n      and\n      dup2\n      mstore\n      0x20\n      add\n      swap1\n      dup2\n      mstore\n      0x20\n      add\n      0x00\n      keccak256\n      sload\n        /* \"contracts/ZombieFactory.sol\":978:1010  ownerZombieCount[msg.sender].add */\n      tag_85\n      swap1\n        /* \"contracts/ZombieFactory.sol\":978:1013  ownerZombieCount[msg.sender].add(1) */\n      swap2\n      swap1\n      0xffffffff\n      and\n      jump\t// in\n    tag_84:\n        /* \"contracts/ZombieFactory.sol\":947:963  ownerZombieCount */\n      0x06\n        /* \"contracts/ZombieFactory.sol\":947:975  ownerZombieCount[msg.sender] */\n      0x00\n        /* \"contracts/ZombieFactory.sol\":964:974  msg.sender */\n      caller\n        /* \"contracts/ZombieFactory.sol\":947:975  ownerZombieCount[msg.sender] */\n      0xffffffffffffffffffffffffffffffffffffffff\n      and\n      0xffffffffffffffffffffffffffffffffffffffff\n      and\n      dup2\n      mstore\n      0x20\n      add\n      swap1\n      dup2\n      mstore\n      0x20\n      add\n      0x00\n      keccak256\n        /* \"contracts/ZombieFactory.sol\":947:1013  ownerZombieCount[msg.sender] = ownerZombieCount[msg.sender].add(1) */\n      dup2\n      swap1\n      sstore\n      pop\n        /* \"contracts/ZombieFactory.sol\":1029:1055  NewZombie(id, _name, _dna) */\n      0x88f026aacbbecc90c18411df4b1185fd8d9be2470f1962f192bf84a27d0704b7\n        /* \"contracts/ZombieFactory.sol\":1039:1041  id */\n      dup2\n        /* \"contracts/ZombieFactory.sol\":1043:1048  _name */\n      dup5\n        /* \"contracts/ZombieFactory.sol\":1050:1054  _dna */\n      dup5\n        /* \"contracts/ZombieFactory.sol\":1029:1055  NewZombie(id, _name, _dna) */\n      mload(0x40)\n      tag_86\n      swap4\n      swap3\n      swap2\n      swap1\n      tag_87\n      jump\t// in\n    tag_86:\n      mload(0x40)\n      dup1\n      swap2\n      sub\n      swap1\n      log1\n        /* \"contracts/ZombieFactory.sol\":757:1062  {... */\n      pop\n        /* \"contracts/ZombieFactory.sol\":693:1062  function _createZombie(string memory _name, uint _dna) internal {... */\n      pop\n      pop\n      jump\t// out\n        /* \"@openzeppelin/contracts/utils/Context.sol\":640:736  function _msgSender() internal view virtual returns (address) {... */\n    tag_67:\n        /* \"@openzeppelin/contracts/utils/Context.sol\":693:700  address */\n      0x00\n        /* \"@openzeppelin/contracts/utils/Context.sol\":719:729  msg.sender */\n      caller\n        /* \"@openzeppelin/contracts/utils/Context.sol\":712:729  return msg.sender */\n      swap1\n      pop\n        /* \"@openzeppelin/contracts/utils/Context.sol\":640:736  function _msgSender() internal view virtual returns (address) {... */\n      swap1\n      jump\t// out\n        /* \"@openzeppelin/contracts/utils/math/SafeMath.sol\":2755:2851  function add(uint256 a, uint256 b) internal pure returns (uint256) {... */\n    tag_85:\n        /* \"@openzeppelin/contracts/utils/math/SafeMath.sol\":2813:2820  uint256 */\n      0x00\n        /* \"@openzeppelin/contracts/utils/math/SafeMath.sol\":2843:2844  b */\n      dup2\n        /* \"@openzeppelin/contracts/utils/math/SafeMath.sol\":2839:2840  a */\n      dup4\n        /* \"@openzeppelin/contracts/utils/math/SafeMath.sol\":2839:2844  a + b */\n      tag_90\n      swap2\n      swap1\n      tag_79\n      jump\t// in\n    tag_90:\n        /* \"@openzeppelin/contracts/utils/math/SafeMath.sol\":2832:2844  return a + b */\n      swap1\n      pop\n        /* \"@openzeppelin/contracts/utils/math/SafeMath.sol\":2755:2851  function add(uint256 a, uint256 b) internal pure returns (uint256) {... */\n      swap3\n      swap2\n      pop\n      pop\n      jump\t// out\n        /* \"#utility.yul\":7:82   */\n    tag_91:\n        /* \"#utility.yul\":40:46   */\n      0x00\n        /* \"#utility.yul\":73:75   */\n      0x40\n        /* \"#utility.yul\":67:76   */\n      mload\n        /* \"#utility.yul\":57:76   */\n      swap1\n      pop\n        /* \"#utility.yul\":7:82   */\n      swap1\n      jump\t// out\n        /* \"#utility.yul\":88:205   */\n    tag_92:\n        /* \"#utility.yul\":197:198   */\n      0x00\n        /* \"#utility.yul\":194:195   */\n      dup1\n        /* \"#utility.yul\":187:199   */\n      revert\n        /* \"#utility.yul\":211:328   */\n    tag_93:\n        /* \"#utility.yul\":320:321   */\n      0x00\n        /* \"#utility.yul\":317:318   */\n      dup1\n        /* \"#utility.yul\":310:322   */\n      revert\n        /* \"#utility.yul\":334:411   */\n    tag_94:\n        /* \"#utility.yul\":371:378   */\n      0x00\n        /* \"#utility.yul\":400:405   */\n      dup2\n        /* \"#utility.yul\":389:405   */\n      swap1\n      pop\n        /* \"#utility.yul\":334:411   */\n      swap2\n      swap1\n      pop\n      jump\t// out\n        /* \"#utility.yul\":417:539   */\n    tag_95:\n        /* \"#utility.yul\":490:514   */\n      tag_151\n        /* \"#utility.yul\":508:513   */\n      dup2\n        /* \"#utility.yul\":490:514   */\n      tag_94\n      jump\t// in\n    tag_151:\n        /* \"#utility.yul\":483:488   */\n      dup2\n        /* \"#utility.yul\":480:515   */\n      eq\n        /* \"#utility.yul\":470:533   */\n      tag_152\n      jumpi\n        /* \"#utility.yul\":529:530   */\n      0x00\n        /* \"#utility.yul\":526:527   */\n      dup1\n        /* \"#utility.yul\":519:531   */\n      revert\n        /* \"#utility.yul\":470:533   */\n    tag_152:\n        /* \"#utility.yul\":417:539   */\n      pop\n      jump\t// out\n        /* \"#utility.yul\":545:684   */\n    tag_96:\n        /* \"#utility.yul\":591:596   */\n      0x00\n        /* \"#utility.yul\":629:635   */\n      dup2\n        /* \"#utility.yul\":616:636   */\n      calldataload\n        /* \"#utility.yul\":607:636   */\n      swap1\n      pop\n        /* \"#utility.yul\":645:678   */\n      tag_154\n        /* \"#utility.yul\":672:677   */\n      dup2\n        /* \"#utility.yul\":645:678   */\n      tag_95\n      jump\t// in\n    tag_154:\n        /* \"#utility.yul\":545:684   */\n      swap3\n      swap2\n      pop\n      pop\n      jump\t// out\n        /* \"#utility.yul\":690:1019   */\n    tag_11:\n        /* \"#utility.yul\":749:755   */\n      0x00\n        /* \"#utility.yul\":798:800   */\n      0x20\n        /* \"#utility.yul\":786:795   */\n      dup3\n        /* \"#utility.yul\":777:784   */\n      dup5\n        /* \"#utility.yul\":773:796   */\n      sub\n        /* \"#utility.yul\":769:801   */\n      slt\n        /* \"#utility.yul\":766:885   */\n      iszero\n      tag_156\n      jumpi\n        /* \"#utility.yul\":804:883   */\n      tag_157\n      tag_92\n      jump\t// in\n    tag_157:\n        /* \"#utility.yul\":766:885   */\n    tag_156:\n        /* \"#utility.yul\":924:925   */\n      0x00\n        /* \"#utility.yul\":949:1002   */\n      tag_158\n        /* \"#utility.yul\":994:1001   */\n      dup5\n        /* \"#utility.yul\":985:991   */\n      dup3\n        /* \"#utility.yul\":974:983   */\n      dup6\n        /* \"#utility.yul\":970:992   */\n      add\n        /* \"#utility.yul\":949:1002   */\n      tag_96\n      jump\t// in\n    tag_158:\n        /* \"#utility.yul\":939:1002   */\n      swap2\n      pop\n        /* \"#utility.yul\":895:1012   */\n      pop\n        /* \"#utility.yul\":690:1019   */\n      swap3\n      swap2\n      pop\n      pop\n      jump\t// out\n        /* \"#utility.yul\":1025:1124   */\n    tag_97:\n        /* \"#utility.yul\":1077:1083   */\n      0x00\n        /* \"#utility.yul\":1111:1116   */\n      dup2\n        /* \"#utility.yul\":1105:1117   */\n      mload\n        /* \"#utility.yul\":1095:1117   */\n      swap1\n      pop\n        /* \"#utility.yul\":1025:1124   */\n      swap2\n      swap1\n      pop\n      jump\t// out\n        /* \"#utility.yul\":1130:1299   */\n    tag_98:\n        /* \"#utility.yul\":1214:1225   */\n      0x00\n        /* \"#utility.yul\":1248:1254   */\n      dup3\n        /* \"#utility.yul\":1243:1246   */\n      dup3\n        /* \"#utility.yul\":1236:1255   */\n      mstore\n        /* \"#utility.yul\":1288:1292   */\n      0x20\n        /* \"#utility.yul\":1283:1286   */\n      dup3\n        /* \"#utility.yul\":1279:1293   */\n      add\n        /* \"#utility.yul\":1264:1293   */\n      swap1\n      pop\n        /* \"#utility.yul\":1130:1299   */\n      swap3\n      swap2\n      pop\n      pop\n      jump\t// out\n        /* \"#utility.yul\":1305:1551   */\n    tag_99:\n        /* \"#utility.yul\":1386:1387   */\n      0x00\n        /* \"#utility.yul\":1396:1509   */\n    tag_162:\n        /* \"#utility.yul\":1410:1416   */\n      dup4\n        /* \"#utility.yul\":1407:1408   */\n      dup2\n        /* \"#utility.yul\":1404:1417   */\n      lt\n        /* \"#utility.yul\":1396:1509   */\n      iszero\n      tag_164\n      jumpi\n        /* \"#utility.yul\":1495:1496   */\n      dup1\n        /* \"#utility.yul\":1490:1493   */\n      dup3\n        /* \"#utility.yul\":1486:1497   */\n      add\n        /* \"#utility.yul\":1480:1498   */\n      mload\n        /* \"#utility.yul\":1476:1477   */\n      dup2\n        /* \"#utility.yul\":1471:1474   */\n      dup5\n        /* \"#utility.yul\":1467:1478   */\n      add\n        /* \"#utility.yul\":1460:1499   */\n      mstore\n        /* \"#utility.yul\":1432:1434   */\n      0x20\n        /* \"#utility.yul\":1429:1430   */\n      dup2\n        /* \"#utility.yul\":1425:1435   */\n      add\n        /* \"#utility.yul\":1420:1435   */\n      swap1\n      pop\n        /* \"#utility.yul\":1396:1509   */\n      jump(tag_162)\n    tag_164:\n        /* \"#utility.yul\":1543:1544   */\n      0x00\n        /* \"#utility.yul\":1534:1540   */\n      dup5\n        /* \"#utility.yul\":1529:1532   */\n      dup5\n        /* \"#utility.yul\":1525:1541   */\n      add\n        /* \"#utility.yul\":1518:1545   */\n      mstore\n        /* \"#utility.yul\":1367:1551   */\n      pop\n        /* \"#utility.yul\":1305:1551   */\n      pop\n      pop\n      pop\n      jump\t// out\n        /* \"#utility.yul\":1557:1659   */\n    tag_100:\n        /* \"#utility.yul\":1598:1604   */\n      0x00\n        /* \"#utility.yul\":1649:1651   */\n      0x1f\n        /* \"#utility.yul\":1645:1652   */\n      not\n        /* \"#utility.yul\":1640:1642   */\n      0x1f\n        /* \"#utility.yul\":1633:1638   */\n      dup4\n        /* \"#utility.yul\":1629:1643   */\n      add\n        /* \"#utility.yul\":1625:1653   */\n      and\n        /* \"#utility.yul\":1615:1653   */\n      swap1\n      pop\n        /* \"#utility.yul\":1557:1659   */\n      swap2\n      swap1\n      pop\n      jump\t// out\n        /* \"#utility.yul\":1665:2042   */\n    tag_101:\n        /* \"#utility.yul\":1753:1756   */\n      0x00\n        /* \"#utility.yul\":1781:1820   */\n      tag_167\n        /* \"#utility.yul\":1814:1819   */\n      dup3\n        /* \"#utility.yul\":1781:1820   */\n      tag_97\n      jump\t// in\n    tag_167:\n        /* \"#utility.yul\":1836:1907   */\n      tag_168\n        /* \"#utility.yul\":1900:1906   */\n      dup2\n        /* \"#utility.yul\":1895:1898   */\n      dup6\n        /* \"#utility.yul\":1836:1907   */\n      tag_98\n      jump\t// in\n    tag_168:\n        /* \"#utility.yul\":1829:1907   */\n      swap4\n      pop\n        /* \"#utility.yul\":1916:1981   */\n      tag_169\n        /* \"#utility.yul\":1974:1980   */\n      dup2\n        /* \"#utility.yul\":1969:1972   */\n      dup6\n        /* \"#utility.yul\":1962:1966   */\n      0x20\n        /* \"#utility.yul\":1955:1960   */\n      dup7\n        /* \"#utility.yul\":1951:1967   */\n      add\n        /* \"#utility.yul\":1916:1981   */\n      tag_99\n      jump\t// in\n    tag_169:\n        /* \"#utility.yul\":2006:2035   */\n      tag_170\n        /* \"#utility.yul\":2028:2034   */\n      dup2\n        /* \"#utility.yul\":2006:2035   */\n      tag_100\n      jump\t// in\n    tag_170:\n        /* \"#utility.yul\":2001:2004   */\n      dup5\n        /* \"#utility.yul\":1997:2036   */\n      add\n        /* \"#utility.yul\":1990:2036   */\n      swap2\n      pop\n        /* \"#utility.yul\":1757:2042   */\n      pop\n        /* \"#utility.yul\":1665:2042   */\n      swap3\n      swap2\n      pop\n      pop\n      jump\t// out\n        /* \"#utility.yul\":2048:2166   */\n    tag_102:\n        /* \"#utility.yul\":2135:2159   */\n      tag_172\n        /* \"#utility.yul\":2153:2158   */\n      dup2\n        /* \"#utility.yul\":2135:2159   */\n      tag_94\n      jump\t// in\n    tag_172:\n        /* \"#utility.yul\":2130:2133   */\n      dup3\n        /* \"#utility.yul\":2123:2160   */\n      mstore\n        /* \"#utility.yul\":2048:2166   */\n      pop\n      pop\n      jump\t// out\n        /* \"#utility.yul\":2172:2265   */\n    tag_103:\n        /* \"#utility.yul\":2208:2215   */\n      0x00\n        /* \"#utility.yul\":2248:2258   */\n      0xffffffff\n        /* \"#utility.yul\":2241:2246   */\n      dup3\n        /* \"#utility.yul\":2237:2259   */\n      and\n        /* \"#utility.yul\":2226:2259   */\n      swap1\n      pop\n        /* \"#utility.yul\":2172:2265   */\n      swap2\n      swap1\n      pop\n      jump\t// out\n        /* \"#utility.yul\":2271:2386   */\n    tag_104:\n        /* \"#utility.yul\":2356:2379   */\n      tag_175\n        /* \"#utility.yul\":2373:2378   */\n      dup2\n        /* \"#utility.yul\":2356:2379   */\n      tag_103\n      jump\t// in\n    tag_175:\n        /* \"#utility.yul\":2351:2354   */\n      dup3\n        /* \"#utility.yul\":2344:2380   */\n      mstore\n        /* \"#utility.yul\":2271:2386   */\n      pop\n      pop\n      jump\t// out\n        /* \"#utility.yul\":2392:2481   */\n    tag_105:\n        /* \"#utility.yul\":2428:2435   */\n      0x00\n        /* \"#utility.yul\":2468:2474   */\n      0xffff\n        /* \"#utility.yul\":2461:2466   */\n      dup3\n        /* \"#utility.yul\":2457:2475   */\n      and\n        /* \"#utility.yul\":2446:2475   */\n      swap1\n      pop\n        /* \"#utility.yul\":2392:2481   */\n      swap2\n      swap1\n      pop\n      jump\t// out\n        /* \"#utility.yul\":2487:2602   */\n    tag_106:\n        /* \"#utility.yul\":2572:2595   */\n      tag_178\n        /* \"#utility.yul\":2589:2594   */\n      dup2\n        /* \"#utility.yul\":2572:2595   */\n      tag_105\n      jump\t// in\n    tag_178:\n        /* \"#utility.yul\":2567:2570   */\n      dup3\n        /* \"#utility.yul\":2560:2596   */\n      mstore\n        /* \"#utility.yul\":2487:2602   */\n      pop\n      pop\n      jump\t// out\n        /* \"#utility.yul\":2608:3458   */\n    tag_14:\n        /* \"#utility.yul\":2853:2857   */\n      0x00\n        /* \"#utility.yul\":2891:2894   */\n      0xc0\n        /* \"#utility.yul\":2880:2889   */\n      dup3\n        /* \"#utility.yul\":2876:2895   */\n      add\n        /* \"#utility.yul\":2868:2895   */\n      swap1\n      pop\n        /* \"#utility.yul\":2941:2950   */\n      dup2\n        /* \"#utility.yul\":2935:2939   */\n      dup2\n        /* \"#utility.yul\":2931:2951   */\n      sub\n        /* \"#utility.yul\":2927:2928   */\n      0x00\n        /* \"#utility.yul\":2916:2925   */\n      dup4\n        /* \"#utility.yul\":2912:2929   */\n      add\n        /* \"#utility.yul\":2905:2952   */\n      mstore\n        /* \"#utility.yul\":2969:3047   */\n      tag_180\n        /* \"#utility.yul\":3042:3046   */\n      dup2\n        /* \"#utility.yul\":3033:3039   */\n      dup10\n        /* \"#utility.yul\":2969:3047   */\n      tag_101\n      jump\t// in\n    tag_180:\n        /* \"#utility.yul\":2961:3047   */\n      swap1\n      pop\n        /* \"#utility.yul\":3057:3129   */\n      tag_181\n        /* \"#utility.yul\":3125:3127   */\n      0x20\n        /* \"#utility.yul\":3114:3123   */\n      dup4\n        /* \"#utility.yul\":3110:3128   */\n      add\n        /* \"#utility.yul\":3101:3107   */\n      dup9\n        /* \"#utility.yul\":3057:3129   */\n      tag_102\n      jump\t// in\n    tag_181:\n        /* \"#utility.yul\":3139:3209   */\n      tag_182\n        /* \"#utility.yul\":3205:3207   */\n      0x40\n        /* \"#utility.yul\":3194:3203   */\n      dup4\n        /* \"#utility.yul\":3190:3208   */\n      add\n        /* \"#utility.yul\":3181:3187   */\n      dup8\n        /* \"#utility.yul\":3139:3209   */\n      tag_104\n      jump\t// in\n    tag_182:\n        /* \"#utility.yul\":3219:3289   */\n      tag_183\n        /* \"#utility.yul\":3285:3287   */\n      0x60\n        /* \"#utility.yul\":3274:3283   */\n      dup4\n        /* \"#utility.yul\":3270:3288   */\n      add\n        /* \"#utility.yul\":3261:3267   */\n      dup7\n        /* \"#utility.yul\":3219:3289   */\n      tag_104\n      jump\t// in\n    tag_183:\n        /* \"#utility.yul\":3299:3370   */\n      tag_184\n        /* \"#utility.yul\":3365:3368   */\n      0x80\n        /* \"#utility.yul\":3354:3363   */\n      dup4\n        /* \"#utility.yul\":3350:3369   */\n      add\n        /* \"#utility.yul\":3341:3347   */\n      dup6\n        /* \"#utility.yul\":3299:3370   */\n      tag_106\n      jump\t// in\n    tag_184:\n        /* \"#utility.yul\":3380:3451   */\n      tag_185\n        /* \"#utility.yul\":3446:3449   */\n      0xa0\n        /* \"#utility.yul\":3435:3444   */\n      dup4\n        /* \"#utility.yul\":3431:3450   */\n      add\n        /* \"#utility.yul\":3422:3428   */\n      dup5\n        /* \"#utility.yul\":3380:3451   */\n      tag_106\n      jump\t// in\n    tag_185:\n        /* \"#utility.yul\":2608:3458   */\n      swap8\n      swap7\n      pop\n      pop\n      pop\n      pop\n      pop\n      pop\n      pop\n      jump\t// out\n        /* \"#utility.yul\":3464:3590   */\n    tag_107:\n        /* \"#utility.yul\":3501:3508   */\n      0x00\n        /* \"#utility.yul\":3541:3583   */\n      0xffffffffffffffffffffffffffffffffffffffff\n        /* \"#utility.yul\":3534:3539   */\n      dup3\n        /* \"#utility.yul\":3530:3584   */\n      and\n        /* \"#utility.yul\":3519:3584   */\n      swap1\n      pop\n        /* \"#utility.yul\":3464:3590   */\n      swap2\n      swap1\n      pop\n      jump\t// out\n        /* \"#utility.yul\":3596:3692   */\n    tag_108:\n        /* \"#utility.yul\":3633:3640   */\n      0x00\n        /* \"#utility.yul\":3662:3686   */\n      tag_188\n        /* \"#utility.yul\":3680:3685   */\n      dup3\n        /* \"#utility.yul\":3662:3686   */\n      tag_107\n      jump\t// in\n    tag_188:\n        /* \"#utility.yul\":3651:3686   */\n      swap1\n      pop\n        /* \"#utility.yul\":3596:3692   */\n      swap2\n      swap1\n      pop\n      jump\t// out\n        /* \"#utility.yul\":3698:3816   */\n    tag_109:\n        /* \"#utility.yul\":3785:3809   */\n      tag_190\n        /* \"#utility.yul\":3803:3808   */\n      dup2\n        /* \"#utility.yul\":3785:3809   */\n      tag_108\n      jump\t// in\n    tag_190:\n        /* \"#utility.yul\":3780:3783   */\n      dup3\n        /* \"#utility.yul\":3773:3810   */\n      mstore\n        /* \"#utility.yul\":3698:3816   */\n      pop\n      pop\n      jump\t// out\n        /* \"#utility.yul\":3822:4044   */\n    tag_19:\n        /* \"#utility.yul\":3915:3919   */\n      0x00\n        /* \"#utility.yul\":3953:3955   */\n      0x20\n        /* \"#utility.yul\":3942:3951   */\n      dup3\n        /* \"#utility.yul\":3938:3956   */\n      add\n        /* \"#utility.yul\":3930:3956   */\n      swap1\n      pop\n        /* \"#utility.yul\":3966:4037   */\n      tag_192\n        /* \"#utility.yul\":4034:4035   */\n      0x00\n        /* \"#utility.yul\":4023:4032   */\n      dup4\n        /* \"#utility.yul\":4019:4036   */\n      add\n        /* \"#utility.yul\":4010:4016   */\n      dup5\n        /* \"#utility.yul\":3966:4037   */\n      tag_109\n      jump\t// in\n    tag_192:\n        /* \"#utility.yul\":3822:4044   */\n      swap3\n      swap2\n      pop\n      pop\n      jump\t// out\n        /* \"#utility.yul\":4050:4167   */\n    tag_110:\n        /* \"#utility.yul\":4159:4160   */\n      0x00\n        /* \"#utility.yul\":4156:4157   */\n      dup1\n        /* \"#utility.yul\":4149:4161   */\n      revert\n        /* \"#utility.yul\":4173:4290   */\n    tag_111:\n        /* \"#utility.yul\":4282:4283   */\n      0x00\n        /* \"#utility.yul\":4279:4280   */\n      dup1\n        /* \"#utility.yul\":4272:4284   */\n      revert\n        /* \"#utility.yul\":4296:4476   */\n    tag_112:\n        /* \"#utility.yul\":4344:4421   */\n      0x4e487b7100000000000000000000000000000000000000000000000000000000\n        /* \"#utility.yul\":4341:4342   */\n      0x00\n        /* \"#utility.yul\":4334:4422   */\n      mstore\n        /* \"#utility.yul\":4441:4445   */\n      0x41\n        /* \"#utility.yul\":4438:4439   */\n      0x04\n        /* \"#utility.yul\":4431:4446   */\n      mstore\n        /* \"#utility.yul\":4465:4469   */\n      0x24\n        /* \"#utility.yul\":4462:4463   */\n      0x00\n        /* \"#utility.yul\":4455:4470   */\n      revert\n        /* \"#utility.yul\":4482:4763   */\n    tag_113:\n        /* \"#utility.yul\":4565:4592   */\n      tag_197\n        /* \"#utility.yul\":4587:4591   */\n      dup3\n        /* \"#utility.yul\":4565:4592   */\n      tag_100\n      jump\t// in\n    tag_197:\n        /* \"#utility.yul\":4557:4563   */\n      dup2\n        /* \"#utility.yul\":4553:4593   */\n      add\n        /* \"#utility.yul\":4695:4701   */\n      dup2\n        /* \"#utility.yul\":4683:4693   */\n      dup2\n        /* \"#utility.yul\":4680:4702   */\n      lt\n        /* \"#utility.yul\":4659:4677   */\n      0xffffffffffffffff\n        /* \"#utility.yul\":4647:4657   */\n      dup3\n        /* \"#utility.yul\":4644:4678   */\n      gt\n        /* \"#utility.yul\":4641:4703   */\n      or\n        /* \"#utility.yul\":4638:4726   */\n      iszero\n      tag_198\n      jumpi\n        /* \"#utility.yul\":4706:4724   */\n      tag_199\n      tag_112\n      jump\t// in\n    tag_199:\n        /* \"#utility.yul\":4638:4726   */\n    tag_198:\n        /* \"#utility.yul\":4746:4756   */\n      dup1\n        /* \"#utility.yul\":4742:4744   */\n      0x40\n        /* \"#utility.yul\":4735:4757   */\n      mstore\n        /* \"#utility.yul\":4525:4763   */\n      pop\n        /* \"#utility.yul\":4482:4763   */\n      pop\n      pop\n      jump\t// out\n        /* \"#utility.yul\":4769:4898   */\n    tag_114:\n        /* \"#utility.yul\":4803:4809   */\n      0x00\n        /* \"#utility.yul\":4830:4850   */\n      tag_201\n      tag_91\n      jump\t// in\n    tag_201:\n        /* \"#utility.yul\":4820:4850   */\n      swap1\n      pop\n        /* \"#utility.yul\":4859:4892   */\n      tag_202\n        /* \"#utility.yul\":4887:4891   */\n      dup3\n        /* \"#utility.yul\":4879:4885   */\n      dup3\n        /* \"#utility.yul\":4859:4892   */\n      tag_113\n      jump\t// in\n    tag_202:\n        /* \"#utility.yul\":4769:4898   */\n      swap2\n      swap1\n      pop\n      jump\t// out\n        /* \"#utility.yul\":4904:5212   */\n    tag_115:\n        /* \"#utility.yul\":4966:4970   */\n      0x00\n        /* \"#utility.yul\":5056:5074   */\n      0xffffffffffffffff\n        /* \"#utility.yul\":5048:5054   */\n      dup3\n        /* \"#utility.yul\":5045:5075   */\n      gt\n        /* \"#utility.yul\":5042:5098   */\n      iszero\n      tag_204\n      jumpi\n        /* \"#utility.yul\":5078:5096   */\n      tag_205\n      tag_112\n      jump\t// in\n    tag_205:\n        /* \"#utility.yul\":5042:5098   */\n    tag_204:\n        /* \"#utility.yul\":5116:5145   */\n      tag_206\n        /* \"#utility.yul\":5138:5144   */\n      dup3\n        /* \"#utility.yul\":5116:5145   */\n      tag_100\n      jump\t// in\n    tag_206:\n        /* \"#utility.yul\":5108:5145   */\n      swap1\n      pop\n        /* \"#utility.yul\":5200:5204   */\n      0x20\n        /* \"#utility.yul\":5194:5198   */\n      dup2\n        /* \"#utility.yul\":5190:5205   */\n      add\n        /* \"#utility.yul\":5182:5205   */\n      swap1\n      pop\n        /* \"#utility.yul\":4904:5212   */\n      swap2\n      swap1\n      pop\n      jump\t// out\n        /* \"#utility.yul\":5218:5364   */\n    tag_116:\n        /* \"#utility.yul\":5315:5321   */\n      dup3\n        /* \"#utility.yul\":5310:5313   */\n      dup2\n        /* \"#utility.yul\":5305:5308   */\n      dup4\n        /* \"#utility.yul\":5292:5322   */\n      calldatacopy\n        /* \"#utility.yul\":5356:5357   */\n      0x00\n        /* \"#utility.yul\":5347:5353   */\n      dup4\n        /* \"#utility.yul\":5342:5345   */\n      dup4\n        /* \"#utility.yul\":5338:5354   */\n      add\n        /* \"#utility.yul\":5331:5358   */\n      mstore\n        /* \"#utility.yul\":5218:5364   */\n      pop\n      pop\n      pop\n      jump\t// out\n        /* \"#utility.yul\":5370:5795   */\n    tag_117:\n        /* \"#utility.yul\":5448:5453   */\n      0x00\n        /* \"#utility.yul\":5473:5539   */\n      tag_209\n        /* \"#utility.yul\":5489:5538   */\n      tag_210\n        /* \"#utility.yul\":5531:5537   */\n      dup5\n        /* \"#utility.yul\":5489:5538   */\n      tag_115\n      jump\t// in\n    tag_210:\n        /* \"#utility.yul\":5473:5539   */\n      tag_114\n      jump\t// in\n    tag_209:\n        /* \"#utility.yul\":5464:5539   */\n      swap1\n      pop\n        /* \"#utility.yul\":5562:5568   */\n      dup3\n        /* \"#utility.yul\":5555:5560   */\n      dup2\n        /* \"#utility.yul\":5548:5569   */\n      mstore\n        /* \"#utility.yul\":5600:5604   */\n      0x20\n        /* \"#utility.yul\":5593:5598   */\n      dup2\n        /* \"#utility.yul\":5589:5605   */\n      add\n        /* \"#utility.yul\":5638:5641   */\n      dup5\n        /* \"#utility.yul\":5629:5635   */\n      dup5\n        /* \"#utility.yul\":5624:5627   */\n      dup5\n        /* \"#utility.yul\":5620:5636   */\n      add\n        /* \"#utility.yul\":5617:5642   */\n      gt\n        /* \"#utility.yul\":5614:5726   */\n      iszero\n      tag_211\n      jumpi\n        /* \"#utility.yul\":5645:5724   */\n      tag_212\n      tag_111\n      jump\t// in\n    tag_212:\n        /* \"#utility.yul\":5614:5726   */\n    tag_211:\n        /* \"#utility.yul\":5735:5789   */\n      tag_213\n        /* \"#utility.yul\":5782:5788   */\n      dup5\n        /* \"#utility.yul\":5777:5780   */\n      dup3\n        /* \"#utility.yul\":5772:5775   */\n      dup6\n        /* \"#utility.yul\":5735:5789   */\n      tag_116\n      jump\t// in\n    tag_213:\n        /* \"#utility.yul\":5454:5795   */\n      pop\n        /* \"#utility.yul\":5370:5795   */\n      swap4\n      swap3\n      pop\n      pop\n      pop\n      jump\t// out\n        /* \"#utility.yul\":5815:6155   */\n    tag_118:\n        /* \"#utility.yul\":5871:5876   */\n      0x00\n        /* \"#utility.yul\":5920:5923   */\n      dup3\n        /* \"#utility.yul\":5913:5917   */\n      0x1f\n        /* \"#utility.yul\":5905:5911   */\n      dup4\n        /* \"#utility.yul\":5901:5918   */\n      add\n        /* \"#utility.yul\":5897:5924   */\n      slt\n        /* \"#utility.yul\":5887:6009   */\n      tag_215\n      jumpi\n        /* \"#utility.yul\":5928:6007   */\n      tag_216\n      tag_110\n      jump\t// in\n    tag_216:\n        /* \"#utility.yul\":5887:6009   */\n    tag_215:\n        /* \"#utility.yul\":6045:6051   */\n      dup2\n        /* \"#utility.yul\":6032:6052   */\n      calldataload\n        /* \"#utility.yul\":6070:6149   */\n      tag_217\n        /* \"#utility.yul\":6145:6148   */\n      dup5\n        /* \"#utility.yul\":6137:6143   */\n      dup3\n        /* \"#utility.yul\":6130:6134   */\n      0x20\n        /* \"#utility.yul\":6122:6128   */\n      dup7\n        /* \"#utility.yul\":6118:6135   */\n      add\n        /* \"#utility.yul\":6070:6149   */\n      tag_117\n      jump\t// in\n    tag_217:\n        /* \"#utility.yul\":6061:6149   */\n      swap2\n      pop\n        /* \"#utility.yul\":5877:6155   */\n      pop\n        /* \"#utility.yul\":5815:6155   */\n      swap3\n      swap2\n      pop\n      pop\n      jump\t// out\n        /* \"#utility.yul\":6161:6670   */\n    tag_24:\n        /* \"#utility.yul\":6230:6236   */\n      0x00\n        /* \"#utility.yul\":6279:6281   */\n      0x20\n        /* \"#utility.yul\":6267:6276   */\n      dup3\n        /* \"#utility.yul\":6258:6265   */\n      dup5\n        /* \"#utility.yul\":6254:6277   */\n      sub\n        /* \"#utility.yul\":6250:6282   */\n      slt\n        /* \"#utility.yul\":6247:6366   */\n      iszero\n      tag_219\n      jumpi\n        /* \"#utility.yul\":6285:6364   */\n      tag_220\n      tag_92\n      jump\t// in\n    tag_220:\n        /* \"#utility.yul\":6247:6366   */\n    tag_219:\n        /* \"#utility.yul\":6433:6434   */\n      0x00\n        /* \"#utility.yul\":6422:6431   */\n      dup3\n        /* \"#utility.yul\":6418:6435   */\n      add\n        /* \"#utility.yul\":6405:6436   */\n      calldataload\n        /* \"#utility.yul\":6463:6481   */\n      0xffffffffffffffff\n        /* \"#utility.yul\":6455:6461   */\n      dup2\n        /* \"#utility.yul\":6452:6482   */\n      gt\n        /* \"#utility.yul\":6449:6566   */\n      iszero\n      tag_221\n      jumpi\n        /* \"#utility.yul\":6485:6564   */\n      tag_222\n      tag_93\n      jump\t// in\n    tag_222:\n        /* \"#utility.yul\":6449:6566   */\n    tag_221:\n        /* \"#utility.yul\":6590:6653   */\n      tag_223\n        /* \"#utility.yul\":6645:6652   */\n      dup5\n        /* \"#utility.yul\":6636:6642   */\n      dup3\n        /* \"#utility.yul\":6625:6634   */\n      dup6\n        /* \"#utility.yul\":6621:6643   */\n      add\n        /* \"#utility.yul\":6590:6653   */\n      tag_118\n      jump\t// in\n    tag_223:\n        /* \"#utility.yul\":6580:6653   */\n      swap2\n      pop\n        /* \"#utility.yul\":6376:6663   */\n      pop\n        /* \"#utility.yul\":6161:6670   */\n      swap3\n      swap2\n      pop\n      pop\n      jump\t// out\n        /* \"#utility.yul\":6676:6798   */\n    tag_119:\n        /* \"#utility.yul\":6749:6773   */\n      tag_225\n        /* \"#utility.yul\":6767:6772   */\n      dup2\n        /* \"#utility.yul\":6749:6773   */\n      tag_108\n      jump\t// in\n    tag_225:\n        /* \"#utility.yul\":6742:6747   */\n      dup2\n        /* \"#utility.yul\":6739:6774   */\n      eq\n        /* \"#utility.yul\":6729:6792   */\n      tag_226\n      jumpi\n        /* \"#utility.yul\":6788:6789   */\n      0x00\n        /* \"#utility.yul\":6785:6786   */\n      dup1\n        /* \"#utility.yul\":6778:6790   */\n      revert\n        /* \"#utility.yul\":6729:6792   */\n    tag_226:\n        /* \"#utility.yul\":6676:6798   */\n      pop\n      jump\t// out\n        /* \"#utility.yul\":6804:6943   */\n    tag_120:\n        /* \"#utility.yul\":6850:6855   */\n      0x00\n        /* \"#utility.yul\":6888:6894   */\n      dup2\n        /* \"#utility.yul\":6875:6895   */\n      calldataload\n        /* \"#utility.yul\":6866:6895   */\n      swap1\n      pop\n        /* \"#utility.yul\":6904:6937   */\n      tag_228\n        /* \"#utility.yul\":6931:6936   */\n      dup2\n        /* \"#utility.yul\":6904:6937   */\n      tag_119\n      jump\t// in\n    tag_228:\n        /* \"#utility.yul\":6804:6943   */\n      swap3\n      swap2\n      pop\n      pop\n      jump\t// out\n        /* \"#utility.yul\":6949:7278   */\n    tag_31:\n        /* \"#utility.yul\":7008:7014   */\n      0x00\n        /* \"#utility.yul\":7057:7059   */\n      0x20\n        /* \"#utility.yul\":7045:7054   */\n      dup3\n        /* \"#utility.yul\":7036:7043   */\n      dup5\n        /* \"#utility.yul\":7032:7055   */\n      sub\n        /* \"#utility.yul\":7028:7060   */\n      slt\n        /* \"#utility.yul\":7025:7144   */\n      iszero\n      tag_230\n      jumpi\n        /* \"#utility.yul\":7063:7142   */\n      tag_231\n      tag_92\n      jump\t// in\n    tag_231:\n        /* \"#utility.yul\":7025:7144   */\n    tag_230:\n        /* \"#utility.yul\":7183:7184   */\n      0x00\n        /* \"#utility.yul\":7208:7261   */\n      tag_232\n        /* \"#utility.yul\":7253:7260   */\n      dup5\n        /* \"#utility.yul\":7244:7250   */\n      dup3\n        /* \"#utility.yul\":7233:7242   */\n      dup6\n        /* \"#utility.yul\":7229:7251   */\n      add\n        /* \"#utility.yul\":7208:7261   */\n      tag_120\n      jump\t// in\n    tag_232:\n        /* \"#utility.yul\":7198:7261   */\n      swap2\n      pop\n        /* \"#utility.yul\":7154:7271   */\n      pop\n        /* \"#utility.yul\":6949:7278   */\n      swap3\n      swap2\n      pop\n      pop\n      jump\t// out\n        /* \"#utility.yul\":7284:7464   */\n    tag_121:\n        /* \"#utility.yul\":7332:7409   */\n      0x4e487b7100000000000000000000000000000000000000000000000000000000\n        /* \"#utility.yul\":7329:7330   */\n      0x00\n        /* \"#utility.yul\":7322:7410   */\n      mstore\n        /* \"#utility.yul\":7429:7433   */\n      0x22\n        /* \"#utility.yul\":7426:7427   */\n      0x04\n        /* \"#utility.yul\":7419:7434   */\n      mstore\n        /* \"#utility.yul\":7453:7457   */\n      0x24\n        /* \"#utility.yul\":7450:7451   */\n      0x00\n        /* \"#utility.yul\":7443:7458   */\n      revert\n        /* \"#utility.yul\":7470:7790   */\n    tag_36:\n        /* \"#utility.yul\":7514:7520   */\n      0x00\n        /* \"#utility.yul\":7551:7552   */\n      0x02\n        /* \"#utility.yul\":7545:7549   */\n      dup3\n        /* \"#utility.yul\":7541:7553   */\n      div\n        /* \"#utility.yul\":7531:7553   */\n      swap1\n      pop\n        /* \"#utility.yul\":7598:7599   */\n      0x01\n        /* \"#utility.yul\":7592:7596   */\n      dup3\n        /* \"#utility.yul\":7588:7600   */\n      and\n        /* \"#utility.yul\":7619:7637   */\n      dup1\n        /* \"#utility.yul\":7609:7690   */\n      tag_235\n      jumpi\n        /* \"#utility.yul\":7675:7679   */\n      0x7f\n        /* \"#utility.yul\":7667:7673   */\n      dup3\n        /* \"#utility.yul\":7663:7680   */\n      and\n        /* \"#utility.yul\":7653:7680   */\n      swap2\n      pop\n        /* \"#utility.yul\":7609:7690   */\n    tag_235:\n        /* \"#utility.yul\":7737:7739   */\n      0x20\n        /* \"#utility.yul\":7729:7735   */\n      dup3\n        /* \"#utility.yul\":7726:7740   */\n      lt\n        /* \"#utility.yul\":7706:7724   */\n      dup2\n        /* \"#utility.yul\":7703:7741   */\n      sub\n        /* \"#utility.yul\":7700:7784   */\n      tag_236\n      jumpi\n        /* \"#utility.yul\":7756:7774   */\n      tag_237\n      tag_121\n      jump\t// in\n    tag_237:\n        /* \"#utility.yul\":7700:7784   */\n    tag_236:\n        /* \"#utility.yul\":7521:7790   */\n      pop\n        /* \"#utility.yul\":7470:7790   */\n      swap2\n      swap1\n      pop\n      jump\t// out\n        /* \"#utility.yul\":7796:7976   */\n    tag_122:\n        /* \"#utility.yul\":7844:7921   */\n      0x4e487b7100000000000000000000000000000000000000000000000000000000\n        /* \"#utility.yul\":7841:7842   */\n      0x00\n        /* \"#utility.yul\":7834:7922   */\n      mstore\n        /* \"#utility.yul\":7941:7945   */\n      0x12\n        /* \"#utility.yul\":7938:7939   */\n      0x04\n        /* \"#utility.yul\":7931:7946   */\n      mstore\n        /* \"#utility.yul\":7965:7969   */\n      0x24\n        /* \"#utility.yul\":7962:7963   */\n      0x00\n        /* \"#utility.yul\":7955:7970   */\n      revert\n        /* \"#utility.yul\":7982:8158   */\n    tag_52:\n        /* \"#utility.yul\":8014:8015   */\n      0x00\n        /* \"#utility.yul\":8031:8051   */\n      tag_240\n        /* \"#utility.yul\":8049:8050   */\n      dup3\n        /* \"#utility.yul\":8031:8051   */\n      tag_94\n      jump\t// in\n    tag_240:\n        /* \"#utility.yul\":8026:8051   */\n      swap2\n      pop\n        /* \"#utility.yul\":8065:8085   */\n      tag_241\n        /* \"#utility.yul\":8083:8084   */\n      dup4\n        /* \"#utility.yul\":8065:8085   */\n      tag_94\n      jump\t// in\n    tag_241:\n        /* \"#utility.yul\":8060:8085   */\n      swap3\n      pop\n        /* \"#utility.yul\":8104:8105   */\n      dup3\n        /* \"#utility.yul\":8094:8129   */\n      tag_242\n      jumpi\n        /* \"#utility.yul\":8109:8127   */\n      tag_243\n      tag_122\n      jump\t// in\n    tag_243:\n        /* \"#utility.yul\":8094:8129   */\n    tag_242:\n        /* \"#utility.yul\":8150:8151   */\n      dup3\n        /* \"#utility.yul\":8147:8148   */\n      dup3\n        /* \"#utility.yul\":8143:8152   */\n      mod\n        /* \"#utility.yul\":8138:8152   */\n      swap1\n      pop\n        /* \"#utility.yul\":7982:8158   */\n      swap3\n      swap2\n      pop\n      pop\n      jump\t// out\n        /* \"#utility.yul\":8164:8344   */\n    tag_123:\n        /* \"#utility.yul\":8212:8289   */\n      0x4e487b7100000000000000000000000000000000000000000000000000000000\n        /* \"#utility.yul\":8209:8210   */\n      0x00\n        /* \"#utility.yul\":8202:8290   */\n      mstore\n        /* \"#utility.yul\":8309:8313   */\n      0x11\n        /* \"#utility.yul\":8306:8307   */\n      0x04\n        /* \"#utility.yul\":8299:8314   */\n      mstore\n        /* \"#utility.yul\":8333:8337   */\n      0x24\n        /* \"#utility.yul\":8330:8331   */\n      0x00\n        /* \"#utility.yul\":8323:8338   */\n      revert\n        /* \"#utility.yul\":8350:8544   */\n    tag_54:\n        /* \"#utility.yul\":8390:8394   */\n      0x00\n        /* \"#utility.yul\":8410:8430   */\n      tag_246\n        /* \"#utility.yul\":8428:8429   */\n      dup3\n        /* \"#utility.yul\":8410:8430   */\n      tag_94\n      jump\t// in\n    tag_246:\n        /* \"#utility.yul\":8405:8430   */\n      swap2\n      pop\n        /* \"#utility.yul\":8444:8464   */\n      tag_247\n        /* \"#utility.yul\":8462:8463   */\n      dup4\n        /* \"#utility.yul\":8444:8464   */\n      tag_94\n      jump\t// in\n    tag_247:\n        /* \"#utility.yul\":8439:8464   */\n      swap3\n      pop\n        /* \"#utility.yul\":8488:8489   */\n      dup3\n        /* \"#utility.yul\":8485:8486   */\n      dup3\n        /* \"#utility.yul\":8481:8490   */\n      sub\n        /* \"#utility.yul\":8473:8490   */\n      swap1\n      pop\n        /* \"#utility.yul\":8512:8513   */\n      dup2\n        /* \"#utility.yul\":8506:8510   */\n      dup2\n        /* \"#utility.yul\":8503:8514   */\n      gt\n        /* \"#utility.yul\":8500:8537   */\n      iszero\n      tag_248\n      jumpi\n        /* \"#utility.yul\":8517:8535   */\n      tag_249\n      tag_123\n      jump\t// in\n    tag_249:\n        /* \"#utility.yul\":8500:8537   */\n    tag_248:\n        /* \"#utility.yul\":8350:8544   */\n      swap3\n      swap2\n      pop\n      pop\n      jump\t// out\n        /* \"#utility.yul\":8550:8775   */\n    tag_124:\n        /* \"#utility.yul\":8690:8724   */\n      0x4f776e61626c653a206e6577206f776e657220697320746865207a65726f2061\n        /* \"#utility.yul\":8686:8687   */\n      0x00\n        /* \"#utility.yul\":8678:8684   */\n      dup3\n        /* \"#utility.yul\":8674:8688   */\n      add\n        /* \"#utility.yul\":8667:8725   */\n      mstore\n        /* \"#utility.yul\":8759:8767   */\n      0x6464726573730000000000000000000000000000000000000000000000000000\n        /* \"#utility.yul\":8754:8756   */\n      0x20\n        /* \"#utility.yul\":8746:8752   */\n      dup3\n        /* \"#utility.yul\":8742:8757   */\n      add\n        /* \"#utility.yul\":8735:8768   */\n      mstore\n        /* \"#utility.yul\":8550:8775   */\n      pop\n      jump\t// out\n        /* \"#utility.yul\":8781:9147   */\n    tag_125:\n        /* \"#utility.yul\":8923:8926   */\n      0x00\n        /* \"#utility.yul\":8944:9011   */\n      tag_252\n        /* \"#utility.yul\":9008:9010   */\n      0x26\n        /* \"#utility.yul\":9003:9006   */\n      dup4\n        /* \"#utility.yul\":8944:9011   */\n      tag_98\n      jump\t// in\n    tag_252:\n        /* \"#utility.yul\":8937:9011   */\n      swap2\n      pop\n        /* \"#utility.yul\":9020:9113   */\n      tag_253\n        /* \"#utility.yul\":9109:9112   */\n      dup3\n        /* \"#utility.yul\":9020:9113   */\n      tag_124\n      jump\t// in\n    tag_253:\n        /* \"#utility.yul\":9138:9140   */\n      0x40\n        /* \"#utility.yul\":9133:9136   */\n      dup3\n        /* \"#utility.yul\":9129:9141   */\n      add\n        /* \"#utility.yul\":9122:9141   */\n      swap1\n      pop\n        /* \"#utility.yul\":8781:9147   */\n      swap2\n      swap1\n      pop\n      jump\t// out\n        /* \"#utility.yul\":9153:9572   */\n    tag_63:\n        /* \"#utility.yul\":9319:9323   */\n      0x00\n        /* \"#utility.yul\":9357:9359   */\n      0x20\n        /* \"#utility.yul\":9346:9355   */\n      dup3\n        /* \"#utility.yul\":9342:9360   */\n      add\n        /* \"#utility.yul\":9334:9360   */\n      swap1\n      pop\n        /* \"#utility.yul\":9406:9415   */\n      dup2\n        /* \"#utility.yul\":9400:9404   */\n      dup2\n        /* \"#utility.yul\":9396:9416   */\n      sub\n        /* \"#utility.yul\":9392:9393   */\n      0x00\n        /* \"#utility.yul\":9381:9390   */\n      dup4\n        /* \"#utility.yul\":9377:9394   */\n      add\n        /* \"#utility.yul\":9370:9417   */\n      mstore\n        /* \"#utility.yul\":9434:9565   */\n      tag_255\n        /* \"#utility.yul\":9560:9564   */\n      dup2\n        /* \"#utility.yul\":9434:9565   */\n      tag_125\n      jump\t// in\n    tag_255:\n        /* \"#utility.yul\":9426:9565   */\n      swap1\n      pop\n        /* \"#utility.yul\":9153:9572   */\n      swap2\n      swap1\n      pop\n      jump\t// out\n        /* \"#utility.yul\":9578:9760   */\n    tag_126:\n        /* \"#utility.yul\":9718:9752   */\n      0x4f776e61626c653a2063616c6c6572206973206e6f7420746865206f776e6572\n        /* \"#utility.yul\":9714:9715   */\n      0x00\n        /* \"#utility.yul\":9706:9712   */\n      dup3\n        /* \"#utility.yul\":9702:9716   */\n      add\n        /* \"#utility.yul\":9695:9753   */\n      mstore\n        /* \"#utility.yul\":9578:9760   */\n      pop\n      jump\t// out\n        /* \"#utility.yul\":9766:10132   */\n    tag_127:\n        /* \"#utility.yul\":9908:9911   */\n      0x00\n        /* \"#utility.yul\":9929:9996   */\n      tag_258\n        /* \"#utility.yul\":9993:9995   */\n      0x20\n        /* \"#utility.yul\":9988:9991   */\n      dup4\n        /* \"#utility.yul\":9929:9996   */\n      tag_98\n      jump\t// in\n    tag_258:\n        /* \"#utility.yul\":9922:9996   */\n      swap2\n      pop\n        /* \"#utility.yul\":10005:10098   */\n      tag_259\n        /* \"#utility.yul\":10094:10097   */\n      dup3\n        /* \"#utility.yul\":10005:10098   */\n      tag_126\n      jump\t// in\n    tag_259:\n        /* \"#utility.yul\":10123:10125   */\n      0x20\n        /* \"#utility.yul\":10118:10121   */\n      dup3\n        /* \"#utility.yul\":10114:10126   */\n      add\n        /* \"#utility.yul\":10107:10126   */\n      swap1\n      pop\n        /* \"#utility.yul\":9766:10132   */\n      swap2\n      swap1\n      pop\n      jump\t// out\n        /* \"#utility.yul\":10138:10557   */\n    tag_71:\n        /* \"#utility.yul\":10304:10308   */\n      0x00\n        /* \"#utility.yul\":10342:10344   */\n      0x20\n        /* \"#utility.yul\":10331:10340   */\n      dup3\n        /* \"#utility.yul\":10327:10345   */\n      add\n        /* \"#utility.yul\":10319:10345   */\n      swap1\n      pop\n        /* \"#utility.yul\":10391:10400   */\n      dup2\n        /* \"#utility.yul\":10385:10389   */\n      dup2\n        /* \"#utility.yul\":10381:10401   */\n      sub\n        /* \"#utility.yul\":10377:10378   */\n      0x00\n        /* \"#utility.yul\":10366:10375   */\n      dup4\n        /* \"#utility.yul\":10362:10379   */\n      add\n        /* \"#utility.yul\":10355:10402   */\n      mstore\n        /* \"#utility.yul\":10419:10550   */\n      tag_261\n        /* \"#utility.yul\":10545:10549   */\n      dup2\n        /* \"#utility.yul\":10419:10550   */\n      tag_127\n      jump\t// in\n    tag_261:\n        /* \"#utility.yul\":10411:10550   */\n      swap1\n      pop\n        /* \"#utility.yul\":10138:10557   */\n      swap2\n      swap1\n      pop\n      jump\t// out\n        /* \"#utility.yul\":10563:10711   */\n    tag_128:\n        /* \"#utility.yul\":10665:10676   */\n      0x00\n        /* \"#utility.yul\":10702:10705   */\n      dup2\n        /* \"#utility.yul\":10687:10705   */\n      swap1\n      pop\n        /* \"#utility.yul\":10563:10711   */\n      swap3\n      swap2\n      pop\n      pop\n      jump\t// out\n        /* \"#utility.yul\":10717:11107   */\n    tag_129:\n        /* \"#utility.yul\":10823:10826   */\n      0x00\n        /* \"#utility.yul\":10851:10890   */\n      tag_264\n        /* \"#utility.yul\":10884:10889   */\n      dup3\n        /* \"#utility.yul\":10851:10890   */\n      tag_97\n      jump\t// in\n    tag_264:\n        /* \"#utility.yul\":10906:10995   */\n      tag_265\n        /* \"#utility.yul\":10988:10994   */\n      dup2\n        /* \"#utility.yul\":10983:10986   */\n      dup6\n        /* \"#utility.yul\":10906:10995   */\n      tag_128\n      jump\t// in\n    tag_265:\n        /* \"#utility.yul\":10899:10995   */\n      swap4\n      pop\n        /* \"#utility.yul\":11004:11069   */\n      tag_266\n        /* \"#utility.yul\":11062:11068   */\n      dup2\n        /* \"#utility.yul\":11057:11060   */\n      dup6\n        /* \"#utility.yul\":11050:11054   */\n      0x20\n        /* \"#utility.yul\":11043:11048   */\n      dup7\n        /* \"#utility.yul\":11039:11055   */\n      add\n        /* \"#utility.yul\":11004:11069   */\n      tag_99\n      jump\t// in\n    tag_266:\n        /* \"#utility.yul\":11094:11100   */\n      dup1\n        /* \"#utility.yul\":11089:11092   */\n      dup5\n        /* \"#utility.yul\":11085:11101   */\n      add\n        /* \"#utility.yul\":11078:11101   */\n      swap2\n      pop\n        /* \"#utility.yul\":10827:11107   */\n      pop\n        /* \"#utility.yul\":10717:11107   */\n      swap3\n      swap2\n      pop\n      pop\n      jump\t// out\n        /* \"#utility.yul\":11113:11388   */\n    tag_75:\n        /* \"#utility.yul\":11245:11248   */\n      0x00\n        /* \"#utility.yul\":11267:11362   */\n      tag_268\n        /* \"#utility.yul\":11358:11361   */\n      dup3\n        /* \"#utility.yul\":11349:11355   */\n      dup5\n        /* \"#utility.yul\":11267:11362   */\n      tag_129\n      jump\t// in\n    tag_268:\n        /* \"#utility.yul\":11260:11362   */\n      swap2\n      pop\n        /* \"#utility.yul\":11379:11382   */\n      dup2\n        /* \"#utility.yul\":11372:11382   */\n      swap1\n      pop\n        /* \"#utility.yul\":11113:11388   */\n      swap3\n      swap2\n      pop\n      pop\n      jump\t// out\n        /* \"#utility.yul\":11394:11585   */\n    tag_79:\n        /* \"#utility.yul\":11434:11437   */\n      0x00\n        /* \"#utility.yul\":11453:11473   */\n      tag_270\n        /* \"#utility.yul\":11471:11472   */\n      dup3\n        /* \"#utility.yul\":11453:11473   */\n      tag_94\n      jump\t// in\n    tag_270:\n        /* \"#utility.yul\":11448:11473   */\n      swap2\n      pop\n        /* \"#utility.yul\":11487:11507   */\n      tag_271\n        /* \"#utility.yul\":11505:11506   */\n      dup4\n        /* \"#utility.yul\":11487:11507   */\n      tag_94\n      jump\t// in\n    tag_271:\n        /* \"#utility.yul\":11482:11507   */\n      swap3\n      pop\n        /* \"#utility.yul\":11530:11531   */\n      dup3\n        /* \"#utility.yul\":11527:11528   */\n      dup3\n        /* \"#utility.yul\":11523:11532   */\n      add\n        /* \"#utility.yul\":11516:11532   */\n      swap1\n      pop\n        /* \"#utility.yul\":11551:11554   */\n      dup1\n        /* \"#utility.yul\":11548:11549   */\n      dup3\n        /* \"#utility.yul\":11545:11555   */\n      gt\n        /* \"#utility.yul\":11542:11578   */\n      iszero\n      tag_272\n      jumpi\n        /* \"#utility.yul\":11558:11576   */\n      tag_273\n      tag_123\n      jump\t// in\n    tag_273:\n        /* \"#utility.yul\":11542:11578   */\n    tag_272:\n        /* \"#utility.yul\":11394:11585   */\n      swap3\n      swap2\n      pop\n      pop\n      jump\t// out\n        /* \"#utility.yul\":11591:11732   */\n    tag_130:\n        /* \"#utility.yul\":11640:11644   */\n      0x00\n        /* \"#utility.yul\":11663:11666   */\n      dup2\n        /* \"#utility.yul\":11655:11666   */\n      swap1\n      pop\n        /* \"#utility.yul\":11686:11689   */\n      dup2\n        /* \"#utility.yul\":11683:11684   */\n      0x00\n        /* \"#utility.yul\":11676:11690   */\n      mstore\n        /* \"#utility.yul\":11720:11724   */\n      0x20\n        /* \"#utility.yul\":11717:11718   */\n      0x00\n        /* \"#utility.yul\":11707:11725   */\n      keccak256\n        /* \"#utility.yul\":11699:11725   */\n      swap1\n      pop\n        /* \"#utility.yul\":11591:11732   */\n      swap2\n      swap1\n      pop\n      jump\t// out\n        /* \"#utility.yul\":11738:11831   */\n    tag_131:\n        /* \"#utility.yul\":11775:11781   */\n      0x00\n        /* \"#utility.yul\":11822:11824   */\n      0x20\n        /* \"#utility.yul\":11817:11819   */\n      0x1f\n        /* \"#utility.yul\":11810:11815   */\n      dup4\n        /* \"#utility.yul\":11806:11820   */\n      add\n        /* \"#utility.yul\":11802:11825   */\n      div\n        /* \"#utility.yul\":11792:11825   */\n      swap1\n      pop\n        /* \"#utility.yul\":11738:11831   */\n      swap2\n      swap1\n      pop\n      jump\t// out\n        /* \"#utility.yul\":11837:11944   */\n    tag_132:\n        /* \"#utility.yul\":11881:11889   */\n      0x00\n        /* \"#utility.yul\":11931:11936   */\n      dup3\n        /* \"#utility.yul\":11925:11929   */\n      dup3\n        /* \"#utility.yul\":11921:11937   */\n      shl\n        /* \"#utility.yul\":11900:11937   */\n      swap1\n      pop\n        /* \"#utility.yul\":11837:11944   */\n      swap3\n      swap2\n      pop\n      pop\n      jump\t// out\n        /* \"#utility.yul\":11950:12343   */\n    tag_133:\n        /* \"#utility.yul\":12019:12025   */\n      0x00\n        /* \"#utility.yul\":12069:12070   */\n      0x08\n        /* \"#utility.yul\":12057:12067   */\n      dup4\n        /* \"#utility.yul\":12053:12071   */\n      mul\n        /* \"#utility.yul\":12092:12189   */\n      tag_278\n        /* \"#utility.yul\":12122:12188   */\n      0xffffffffffffffffffffffffffffffffffffffffffffffffffffffffffffffff\n        /* \"#utility.yul\":12111:12120   */\n      dup3\n        /* \"#utility.yul\":12092:12189   */\n      tag_132\n      jump\t// in\n    tag_278:\n        /* \"#utility.yul\":12210:12249   */\n      tag_279\n        /* \"#utility.yul\":12240:12248   */\n      dup7\n        /* \"#utility.yul\":12229:12238   */\n      dup4\n        /* \"#utility.yul\":12210:12249   */\n      tag_132\n      jump\t// in\n    tag_279:\n        /* \"#utility.yul\":12198:12249   */\n      swap6\n      pop\n        /* \"#utility.yul\":12282:12286   */\n      dup1\n        /* \"#utility.yul\":12278:12287   */\n      not\n        /* \"#utility.yul\":12271:12276   */\n      dup5\n        /* \"#utility.yul\":12267:12288   */\n      and\n        /* \"#utility.yul\":12258:12288   */\n      swap4\n      pop\n        /* \"#utility.yul\":12331:12335   */\n      dup1\n        /* \"#utility.yul\":12321:12329   */\n      dup7\n        /* \"#utility.yul\":12317:12336   */\n      and\n        /* \"#utility.yul\":12310:12315   */\n      dup5\n        /* \"#utility.yul\":12307:12337   */\n      or\n        /* \"#utility.yul\":12297:12337   */\n      swap3\n      pop\n        /* \"#utility.yul\":12026:12343   */\n      pop\n      pop\n        /* \"#utility.yul\":11950:12343   */\n      swap4\n      swap3\n      pop\n      pop\n      pop\n      jump\t// out\n        /* \"#utility.yul\":12349:12409   */\n    tag_134:\n        /* \"#utility.yul\":12377:12380   */\n      0x00\n        /* \"#utility.yul\":12398:12403   */\n      dup2\n        /* \"#utility.yul\":12391:12403   */\n      swap1\n      pop\n        /* \"#utility.yul\":12349:12409   */\n      swap2\n      swap1\n      pop\n      jump\t// out\n        /* \"#utility.yul\":12415:12557   */\n    tag_135:\n        /* \"#utility.yul\":12465:12474   */\n      0x00\n        /* \"#utility.yul\":12498:12551   */\n      tag_282\n        /* \"#utility.yul\":12516:12550   */\n      tag_283\n        /* \"#utility.yul\":12525:12549   */\n      tag_284\n        /* \"#utility.yul\":12543:12548   */\n      dup5\n        /* \"#utility.yul\":12525:12549   */\n      tag_94\n      jump\t// in\n    tag_284:\n        /* \"#utility.yul\":12516:12550   */\n      tag_134\n      jump\t// in\n    tag_283:\n        /* \"#utility.yul\":12498:12551   */\n      tag_94\n      jump\t// in\n    tag_282:\n        /* \"#utility.yul\":12485:12551   */\n      swap1\n      pop\n        /* \"#utility.yul\":12415:12557   */\n      swap2\n      swap1\n      pop\n      jump\t// out\n        /* \"#utility.yul\":12563:12638   */\n    tag_136:\n        /* \"#utility.yul\":12606:12609   */\n      0x00\n        /* \"#utility.yul\":12627:12632   */\n      dup2\n        /* \"#utility.yul\":12620:12632   */\n      swap1\n      pop\n        /* \"#utility.yul\":12563:12638   */\n      swap2\n      swap1\n      pop\n      jump\t// out\n        /* \"#utility.yul\":12644:12913   */\n    tag_137:\n        /* \"#utility.yul\":12754:12793   */\n      tag_287\n        /* \"#utility.yul\":12785:12792   */\n      dup4\n        /* \"#utility.yul\":12754:12793   */\n      tag_135\n      jump\t// in\n    tag_287:\n        /* \"#utility.yul\":12815:12906   */\n      tag_288\n        /* \"#utility.yul\":12864:12905   */\n      tag_289\n        /* \"#utility.yul\":12888:12904   */\n      dup3\n        /* \"#utility.yul\":12864:12905   */\n      tag_136\n      jump\t// in\n    tag_289:\n        /* \"#utility.yul\":12856:12862   */\n      dup5\n        /* \"#utility.yul\":12849:12853   */\n      dup5\n        /* \"#utility.yul\":12843:12854   */\n      sload\n        /* \"#utility.yul\":12815:12906   */\n      tag_133\n      jump\t// in\n    tag_288:\n        /* \"#utility.yul\":12809:12813   */\n      dup3\n        /* \"#utility.yul\":12802:12907   */\n      sstore\n        /* \"#utility.yul\":12720:12913   */\n      pop\n        /* \"#utility.yul\":12644:12913   */\n      pop\n      pop\n      pop\n      jump\t// out\n        /* \"#utility.yul\":12919:12992   */\n    tag_138:\n        /* \"#utility.yul\":12964:12967   */\n      0x00\n        /* \"#utility.yul\":12919:12992   */\n      swap1\n      jump\t// out\n        /* \"#utility.yul\":12998:13187   */\n    tag_139:\n        /* \"#utility.yul\":13075:13107   */\n      tag_292\n      tag_138\n      jump\t// in\n    tag_292:\n        /* \"#utility.yul\":13116:13181   */\n      tag_293\n        /* \"#utility.yul\":13174:13180   */\n      dup2\n        /* \"#utility.yul\":13166:13172   */\n      dup5\n        /* \"#utility.yul\":13160:13164   */\n      dup5\n        /* \"#utility.yul\":13116:13181   */\n      tag_137\n      jump\t// in\n    tag_293:\n        /* \"#utility.yul\":13051:13187   */\n      pop\n        /* \"#utility.yul\":12998:13187   */\n      pop\n      pop\n      jump\t// out\n        /* \"#utility.yul\":13193:13379   */\n    tag_140:\n        /* \"#utility.yul\":13253:13373   */\n    tag_295:\n        /* \"#utility.yul\":13270:13273   */\n      dup2\n        /* \"#utility.yul\":13263:13268   */\n      dup2\n        /* \"#utility.yul\":13260:13274   */\n      lt\n        /* \"#utility.yul\":13253:13373   */\n      iszero\n      tag_297\n      jumpi\n        /* \"#utility.yul\":13324:13363   */\n      tag_298\n        /* \"#utility.yul\":13361:13362   */\n      0x00\n        /* \"#utility.yul\":13354:13359   */\n      dup3\n        /* \"#utility.yul\":13324:13363   */\n      tag_139\n      jump\t// in\n    tag_298:\n        /* \"#utility.yul\":13297:13298   */\n      0x01\n        /* \"#utility.yul\":13290:13295   */\n      dup2\n        /* \"#utility.yul\":13286:13299   */\n      add\n        /* \"#utility.yul\":13277:13299   */\n      swap1\n      pop\n        /* \"#utility.yul\":13253:13373   */\n      jump(tag_295)\n    tag_297:\n        /* \"#utility.yul\":13193:13379   */\n      pop\n      pop\n      jump\t// out\n        /* \"#utility.yul\":13385:13928   */\n    tag_141:\n        /* \"#utility.yul\":13486:13488   */\n      0x1f\n        /* \"#utility.yul\":13481:13484   */\n      dup3\n        /* \"#utility.yul\":13478:13489   */\n      gt\n        /* \"#utility.yul\":13475:13921   */\n      iszero\n      tag_300\n      jumpi\n        /* \"#utility.yul\":13520:13558   */\n      tag_301\n        /* \"#utility.yul\":13552:13557   */\n      dup2\n        /* \"#utility.yul\":13520:13558   */\n      tag_130\n      jump\t// in\n    tag_301:\n        /* \"#utility.yul\":13604:13633   */\n      tag_302\n        /* \"#utility.yul\":13622:13632   */\n      dup5\n        /* \"#utility.yul\":13604:13633   */\n      tag_131\n      jump\t// in\n    tag_302:\n        /* \"#utility.yul\":13594:13602   */\n      dup2\n        /* \"#utility.yul\":13590:13634   */\n      add\n        /* \"#utility.yul\":13787:13789   */\n      0x20\n        /* \"#utility.yul\":13775:13785   */\n      dup6\n        /* \"#utility.yul\":13772:13790   */\n      lt\n        /* \"#utility.yul\":13769:13818   */\n      iszero\n      tag_303\n      jumpi\n        /* \"#utility.yul\":13808:13816   */\n      dup2\n        /* \"#utility.yul\":13793:13816   */\n      swap1\n      pop\n        /* \"#utility.yul\":13769:13818   */\n    tag_303:\n        /* \"#utility.yul\":13831:13911   */\n      tag_304\n        /* \"#utility.yul\":13887:13909   */\n      tag_305\n        /* \"#utility.yul\":13905:13908   */\n      dup6\n        /* \"#utility.yul\":13887:13909   */\n      tag_131\n      jump\t// in\n    tag_305:\n        /* \"#utility.yul\":13877:13885   */\n      dup4\n        /* \"#utility.yul\":13873:13910   */\n      add\n        /* \"#utility.yul\":13860:13871   */\n      dup3\n        /* \"#utility.yul\":13831:13911   */\n      tag_140\n      jump\t// in\n    tag_304:\n        /* \"#utility.yul\":13490:13921   */\n      pop\n      pop\n        /* \"#utility.yul\":13475:13921   */\n    tag_300:\n        /* \"#utility.yul\":13385:13928   */\n      pop\n      pop\n      pop\n      jump\t// out\n        /* \"#utility.yul\":13934:14051   */\n    tag_142:\n        /* \"#utility.yul\":13988:13996   */\n      0x00\n        /* \"#utility.yul\":14038:14043   */\n      dup3\n        /* \"#utility.yul\":14032:14036   */\n      dup3\n        /* \"#utility.yul\":14028:14044   */\n      shr\n        /* \"#utility.yul\":14007:14044   */\n      swap1\n      pop\n        /* \"#utility.yul\":13934:14051   */\n      swap3\n      swap2\n      pop\n      pop\n      jump\t// out\n        /* \"#utility.yul\":14057:14226   */\n    tag_143:\n        /* \"#utility.yul\":14101:14107   */\n      0x00\n        /* \"#utility.yul\":14134:14185   */\n      tag_308\n        /* \"#utility.yul\":14182:14183   */\n      0x00\n        /* \"#utility.yul\":14178:14184   */\n      not\n        /* \"#utility.yul\":14170:14175   */\n      dup5\n        /* \"#utility.yul\":14167:14168   */\n      0x08\n        /* \"#utility.yul\":14163:14176   */\n      mul\n        /* \"#utility.yul\":14134:14185   */\n      tag_142\n      jump\t// in\n    tag_308:\n        /* \"#utility.yul\":14130:14186   */\n      not\n        /* \"#utility.yul\":14215:14219   */\n      dup1\n        /* \"#utility.yul\":14209:14213   */\n      dup4\n        /* \"#utility.yul\":14205:14220   */\n      and\n        /* \"#utility.yul\":14195:14220   */\n      swap2\n      pop\n        /* \"#utility.yul\":14108:14226   */\n      pop\n        /* \"#utility.yul\":14057:14226   */\n      swap3\n      swap2\n      pop\n      pop\n      jump\t// out\n        /* \"#utility.yul\":14231:14526   */\n    tag_144:\n        /* \"#utility.yul\":14307:14311   */\n      0x00\n        /* \"#utility.yul\":14453:14482   */\n      tag_310\n        /* \"#utility.yul\":14478:14481   */\n      dup4\n        /* \"#utility.yul\":14472:14476   */\n      dup4\n        /* \"#utility.yul\":14453:14482   */\n      tag_143\n      jump\t// in\n    tag_310:\n        /* \"#utility.yul\":14445:14482   */\n      swap2\n      pop\n        /* \"#utility.yul\":14515:14518   */\n      dup3\n        /* \"#utility.yul\":14512:14513   */\n      0x02\n        /* \"#utility.yul\":14508:14519   */\n      mul\n        /* \"#utility.yul\":14502:14506   */\n      dup3\n        /* \"#utility.yul\":14499:14520   */\n      or\n        /* \"#utility.yul\":14491:14520   */\n      swap1\n      pop\n        /* \"#utility.yul\":14231:14526   */\n      swap3\n      swap2\n      pop\n      pop\n      jump\t// out\n        /* \"#utility.yul\":14531:15926   */\n    tag_82:\n        /* \"#utility.yul\":14648:14685   */\n      tag_312\n        /* \"#utility.yul\":14681:14684   */\n      dup3\n        /* \"#utility.yul\":14648:14685   */\n      tag_97\n      jump\t// in\n    tag_312:\n        /* \"#utility.yul\":14750:14768   */\n      0xffffffffffffffff\n        /* \"#utility.yul\":14742:14748   */\n      dup2\n        /* \"#utility.yul\":14739:14769   */\n      gt\n        /* \"#utility.yul\":14736:14792   */\n      iszero\n      tag_313\n      jumpi\n        /* \"#utility.yul\":14772:14790   */\n      tag_314\n      tag_112\n      jump\t// in\n    tag_314:\n        /* \"#utility.yul\":14736:14792   */\n    tag_313:\n        /* \"#utility.yul\":14816:14854   */\n      tag_315\n        /* \"#utility.yul\":14848:14852   */\n      dup3\n        /* \"#utility.yul\":14842:14853   */\n      sload\n        /* \"#utility.yul\":14816:14854   */\n      tag_36\n      jump\t// in\n    tag_315:\n        /* \"#utility.yul\":14901:14968   */\n      tag_316\n        /* \"#utility.yul\":14961:14967   */\n      dup3\n        /* \"#utility.yul\":14953:14959   */\n      dup3\n        /* \"#utility.yul\":14947:14951   */\n      dup6\n        /* \"#utility.yul\":14901:14968   */\n      tag_141\n      jump\t// in\n    tag_316:\n        /* \"#utility.yul\":14995:14996   */\n      0x00\n        /* \"#utility.yul\":15019:15023   */\n      0x20\n        /* \"#utility.yul\":15006:15023   */\n      swap1\n      pop\n        /* \"#utility.yul\":15051:15053   */\n      0x1f\n        /* \"#utility.yul\":15043:15049   */\n      dup4\n        /* \"#utility.yul\":15040:15054   */\n      gt\n        /* \"#utility.yul\":15068:15069   */\n      0x01\n        /* \"#utility.yul\":15063:15681   */\n      dup2\n      eq\n      tag_318\n      jumpi\n        /* \"#utility.yul\":15725:15726   */\n      0x00\n        /* \"#utility.yul\":15742:15748   */\n      dup5\n        /* \"#utility.yul\":15739:15816   */\n      iszero\n      tag_319\n      jumpi\n        /* \"#utility.yul\":15791:15800   */\n      dup3\n        /* \"#utility.yul\":15786:15789   */\n      dup8\n        /* \"#utility.yul\":15782:15801   */\n      add\n        /* \"#utility.yul\":15776:15802   */\n      mload\n        /* \"#utility.yul\":15767:15802   */\n      swap1\n      pop\n        /* \"#utility.yul\":15739:15816   */\n    tag_319:\n        /* \"#utility.yul\":15842:15909   */\n      tag_320\n        /* \"#utility.yul\":15902:15908   */\n      dup6\n        /* \"#utility.yul\":15895:15900   */\n      dup3\n        /* \"#utility.yul\":15842:15909   */\n      tag_144\n      jump\t// in\n    tag_320:\n        /* \"#utility.yul\":15836:15840   */\n      dup7\n        /* \"#utility.yul\":15829:15910   */\n      sstore\n        /* \"#utility.yul\":15698:15920   */\n      pop\n        /* \"#utility.yul\":15033:15920   */\n      jump(tag_317)\n        /* \"#utility.yul\":15063:15681   */\n    tag_318:\n        /* \"#utility.yul\":15115:15119   */\n      0x1f\n        /* \"#utility.yul\":15111:15120   */\n      not\n        /* \"#utility.yul\":15103:15109   */\n      dup5\n        /* \"#utility.yul\":15099:15121   */\n      and\n        /* \"#utility.yul\":15149:15186   */\n      tag_321\n        /* \"#utility.yul\":15181:15185   */\n      dup7\n        /* \"#utility.yul\":15149:15186   */\n      tag_130\n      jump\t// in\n    tag_321:\n        /* \"#utility.yul\":15208:15209   */\n      0x00\n        /* \"#utility.yul\":15222:15430   */\n    tag_322:\n        /* \"#utility.yul\":15236:15243   */\n      dup3\n        /* \"#utility.yul\":15233:15234   */\n      dup2\n        /* \"#utility.yul\":15230:15244   */\n      lt\n        /* \"#utility.yul\":15222:15430   */\n      iszero\n      tag_324\n      jumpi\n        /* \"#utility.yul\":15315:15324   */\n      dup5\n        /* \"#utility.yul\":15310:15313   */\n      dup10\n        /* \"#utility.yul\":15306:15325   */\n      add\n        /* \"#utility.yul\":15300:15326   */\n      mload\n        /* \"#utility.yul\":15292:15298   */\n      dup3\n        /* \"#utility.yul\":15285:15327   */\n      sstore\n        /* \"#utility.yul\":15366:15367   */\n      0x01\n        /* \"#utility.yul\":15358:15364   */\n      dup3\n        /* \"#utility.yul\":15354:15368   */\n      add\n        /* \"#utility.yul\":15344:15368   */\n      swap2\n      pop\n        /* \"#utility.yul\":15413:15415   */\n      0x20\n        /* \"#utility.yul\":15402:15411   */\n      dup6\n        /* \"#utility.yul\":15398:15416   */\n      add\n        /* \"#utility.yul\":15385:15416   */\n      swap5\n      pop\n        /* \"#utility.yul\":15259:15263   */\n      0x20\n        /* \"#utility.yul\":15256:15257   */\n      dup2\n        /* \"#utility.yul\":15252:15264   */\n      add\n        /* \"#utility.yul\":15247:15264   */\n      swap1\n      pop\n        /* \"#utility.yul\":15222:15430   */\n      jump(tag_322)\n    tag_324:\n        /* \"#utility.yul\":15458:15464   */\n      dup7\n        /* \"#utility.yul\":15449:15456   */\n      dup4\n        /* \"#utility.yul\":15446:15465   */\n      lt\n        /* \"#utility.yul\":15443:15622   */\n      iszero\n      tag_325\n      jumpi\n        /* \"#utility.yul\":15516:15525   */\n      dup5\n        /* \"#utility.yul\":15511:15514   */\n      dup10\n        /* \"#utility.yul\":15507:15526   */\n      add\n        /* \"#utility.yul\":15501:15527   */\n      mload\n        /* \"#utility.yul\":15559:15607   */\n      tag_326\n        /* \"#utility.yul\":15601:15605   */\n      0x1f\n        /* \"#utility.yul\":15593:15599   */\n      dup10\n        /* \"#utility.yul\":15589:15606   */\n      and\n        /* \"#utility.yul\":15578:15587   */\n      dup3\n        /* \"#utility.yul\":15559:15607   */\n      tag_143\n      jump\t// in\n    tag_326:\n        /* \"#utility.yul\":15551:15557   */\n      dup4\n        /* \"#utility.yul\":15544:15608   */\n      sstore\n        /* \"#utility.yul\":15466:15622   */\n      pop\n        /* \"#utility.yul\":15443:15622   */\n    tag_325:\n        /* \"#utility.yul\":15668:15669   */\n      0x01\n        /* \"#utility.yul\":15664:15665   */\n      0x02\n        /* \"#utility.yul\":15656:15662   */\n      dup9\n        /* \"#utility.yul\":15652:15666   */\n      mul\n        /* \"#utility.yul\":15648:15670   */\n      add\n        /* \"#utility.yul\":15642:15646   */\n      dup9\n        /* \"#utility.yul\":15635:15671   */\n      sstore\n        /* \"#utility.yul\":15070:15681   */\n      pop\n      pop\n      pop\n        /* \"#utility.yul\":15033:15920   */\n    tag_317:\n      pop\n        /* \"#utility.yul\":14623:15926   */\n      pop\n      pop\n      pop\n        /* \"#utility.yul\":14531:15926   */\n      pop\n      pop\n      jump\t// out\n        /* \"#utility.yul\":15932:16465   */\n    tag_87:\n        /* \"#utility.yul\":16101:16105   */\n      0x00\n        /* \"#utility.yul\":16139:16141   */\n      0x60\n        /* \"#utility.yul\":16128:16137   */\n      dup3\n        /* \"#utility.yul\":16124:16142   */\n      add\n        /* \"#utility.yul\":16116:16142   */\n      swap1\n      pop\n        /* \"#utility.yul\":16152:16223   */\n      tag_328\n        /* \"#utility.yul\":16220:16221   */\n      0x00\n        /* \"#utility.yul\":16209:16218   */\n      dup4\n        /* \"#utility.yul\":16205:16222   */\n      add\n        /* \"#utility.yul\":16196:16202   */\n      dup7\n        /* \"#utility.yul\":16152:16223   */\n      tag_102\n      jump\t// in\n    tag_328:\n        /* \"#utility.yul\":16270:16279   */\n      dup2\n        /* \"#utility.yul\":16264:16268   */\n      dup2\n        /* \"#utility.yul\":16260:16280   */\n      sub\n        /* \"#utility.yul\":16255:16257   */\n      0x20\n        /* \"#utility.yul\":16244:16253   */\n      dup4\n        /* \"#utility.yul\":16240:16258   */\n      add\n        /* \"#utility.yul\":16233:16281   */\n      mstore\n        /* \"#utility.yul\":16298:16376   */\n      tag_329\n        /* \"#utility.yul\":16371:16375   */\n      dup2\n        /* \"#utility.yul\":16362:16368   */\n      dup6\n        /* \"#utility.yul\":16298:16376   */\n      tag_101\n      jump\t// in\n    tag_329:\n        /* \"#utility.yul\":16290:16376   */\n      swap1\n      pop\n        /* \"#utility.yul\":16386:16458   */\n      tag_330\n        /* \"#utility.yul\":16454:16456   */\n      0x40\n        /* \"#utility.yul\":16443:16452   */\n      dup4\n        /* \"#utility.yul\":16439:16457   */\n      add\n        /* \"#utility.yul\":16430:16436   */\n      dup5\n        /* \"#utility.yul\":16386:16458   */\n      tag_102\n      jump\t// in\n    tag_330:\n        /* \"#utility.yul\":15932:16465   */\n      swap5\n      swap4\n      pop\n      pop\n      pop\n      pop\n      jump\t// out\n\n    auxdata: 0xa2646970667358221220539a0f5ac344dcf0c1d850724974b75c351f68a2f9f38b87d33571c3954c1e4a64736f6c63430008110033\n}\n",
				"bytecode": {
					"linkReferences": {},
					"object": "60806040526010600155600154600a6200001a9190620002b1565b600255620151806003553480156200003157600080fd5b5062000052620000466200005860201b60201c565b6200006060201b60201c565b62000302565b600033905090565b60008060009054906101000a900473ffffffffffffffffffffffffffffffffffffffff169050816000806101000a81548173ffffffffffffffffffffffffffffffffffffffff021916908373ffffffffffffffffffffffffffffffffffffffff1602179055508173ffffffffffffffffffffffffffffffffffffffff168173ffffffffffffffffffffffffffffffffffffffff167f8be0079c531659141344cd1fd0a4f28419497f9722a3daafe3b4186f6b6457e060405160405180910390a35050565b7f4e487b7100000000000000000000000000000000000000000000000000000000600052601160045260246000fd5b60008160011c9050919050565b6000808291508390505b6001851115620001b2578086048111156200018a576200018962000124565b5b60018516156200019a5780820291505b8081029050620001aa8562000153565b94506200016a565b94509492505050565b600082620001cd5760019050620002a0565b81620001dd5760009050620002a0565b8160018114620001f65760028114620002015762000237565b6001915050620002a0565b60ff84111562000216576200021562000124565b5b8360020a91508482111562000230576200022f62000124565b5b50620002a0565b5060208310610133831016604e8410600b8410161715620002715782820a9050838111156200026b576200026a62000124565b5b620002a0565b62000280848484600162000160565b925090508184048111156200029a576200029962000124565b5b81810290505b9392505050565b6000819050919050565b6000620002be82620002a7565b9150620002cb83620002a7565b9250620002fa7fffffffffffffffffffffffffffffffffffffffffffffffffffffffffffffffff8484620001bb565b905092915050565b61114c80620003126000396000f3fe608060405234801561001057600080fd5b50600436106100625760003560e01c80632052465e14610067578063528b7b8f1461009c578063715018a6146100cc5780637bff0a01146100d65780638da5cb5b146100f2578063f2fde38b14610110575b600080fd5b610081600480360381019061007c919061080f565b61012c565b60405161009396959493929190610917565b60405180910390f35b6100b660048036038101906100b1919061080f565b61023c565b6040516100c391906109c0565b60405180910390f35b6100d461026f565b005b6100f060048036038101906100eb9190610b10565b610283565b005b6100fa610304565b60405161010791906109c0565b60405180910390f35b61012a60048036038101906101259190610b85565b61032d565b005b6004818154811061013c57600080fd5b906000526020600020906003020160009150905080600001805461015f90610be1565b80601f016020809104026020016040519081016040528092919081815260200182805461018b90610be1565b80156101d85780601f106101ad576101008083540402835291602001916101d8565b820191906000526020600020905b8154815290600101906020018083116101bb57829003601f168201915b5050505050908060010154908060020160009054906101000a900463ffffffff16908060020160049054906101000a900463ffffffff16908060020160089054906101000a900461ffff169080600201600a9054906101000a900461ffff16905086565b60056020528060005260406000206000915054906101000a900473ffffffffffffffffffffffffffffffffffffffff1681565b6102776103b0565b610281600061042e565b565b6000600660003373ffffffffffffffffffffffffffffffffffffffff1673ffffffffffffffffffffffffffffffffffffffff16815260200190815260200160002054146102cf57600080fd5b60006102da826104f2565b90506064816102e99190610c41565b816102f49190610ca1565b90506103008282610537565b5050565b60008060009054906101000a900473ffffffffffffffffffffffffffffffffffffffff16905090565b6103356103b0565b600073ffffffffffffffffffffffffffffffffffffffff168173ffffffffffffffffffffffffffffffffffffffff16036103a4576040517f08c379a000000000000000000000000000000000000000000000000000000000815260040161039b90610d47565b60405180910390fd5b6103ad8161042e565b50565b6103b86107a7565b73ffffffffffffffffffffffffffffffffffffffff166103d6610304565b73ffffffffffffffffffffffffffffffffffffffff161461042c576040517f08c379a000000000000000000000000000000000000000000000000000000000815260040161042390610db3565b60405180910390fd5b565b60008060009054906101000a900473ffffffffffffffffffffffffffffffffffffffff169050816000806101000a81548173ffffffffffffffffffffffffffffffffffffffff021916908373ffffffffffffffffffffffffffffffffffffffff1602179055508173ffffffffffffffffffffffffffffffffffffffff168173ffffffffffffffffffffffffffffffffffffffff167f8be0079c531659141344cd1fd0a4f28419497f9722a3daafe3b4186f6b6457e060405160405180910390a35050565b600080826040516020016105069190610e0f565b6040516020818303038152906040528051906020012060001c90506002548161052f9190610c41565b915050919050565b60046040518060c00160405280848152602001838152602001600163ffffffff1681526020016003544261056b9190610e26565b63ffffffff168152602001600061ffff168152602001600061ffff16815250908060018154018082558091505060019003906000526020600020906003020160009091909190915060008201518160000190816105c89190611006565b506020820151816001015560408201518160020160006101000a81548163ffffffff021916908363ffffffff16021790555060608201518160020160046101000a81548163ffffffff021916908363ffffffff16021790555060808201518160020160086101000a81548161ffff021916908361ffff16021790555060a082015181600201600a6101000a81548161ffff021916908361ffff16021790555050506000600160048054905061067d9190610ca1565b9050336005600083815260200190815260200160002060006101000a81548173ffffffffffffffffffffffffffffffffffffffff021916908373ffffffffffffffffffffffffffffffffffffffff1602179055506107246001600660003373ffffffffffffffffffffffffffffffffffffffff1673ffffffffffffffffffffffffffffffffffffffff168152602001908152602001600020546107af90919063ffffffff16565b600660003373ffffffffffffffffffffffffffffffffffffffff1673ffffffffffffffffffffffffffffffffffffffff168152602001908152602001600020819055507f88f026aacbbecc90c18411df4b1185fd8d9be2470f1962f192bf84a27d0704b781848460405161079a939291906110d8565b60405180910390a1505050565b600033905090565b600081836107bd9190610e26565b905092915050565b6000604051905090565b600080fd5b600080fd5b6000819050919050565b6107ec816107d9565b81146107f757600080fd5b50565b600081359050610809816107e3565b92915050565b600060208284031215610825576108246107cf565b5b6000610833848285016107fa565b91505092915050565b600081519050919050565b600082825260208201905092915050565b60005b8381101561087657808201518184015260208101905061085b565b60008484015250505050565b6000601f19601f8301169050919050565b600061089e8261083c565b6108a88185610847565b93506108b8818560208601610858565b6108c181610882565b840191505092915050565b6108d5816107d9565b82525050565b600063ffffffff82169050919050565b6108f4816108db565b82525050565b600061ffff82169050919050565b610911816108fa565b82525050565b600060c08201905081810360008301526109318189610893565b905061094060208301886108cc565b61094d60408301876108eb565b61095a60608301866108eb565b6109676080830185610908565b61097460a0830184610908565b979650505050505050565b600073ffffffffffffffffffffffffffffffffffffffff82169050919050565b60006109aa8261097f565b9050919050565b6109ba8161099f565b82525050565b60006020820190506109d560008301846109b1565b92915050565b600080fd5b600080fd5b7f4e487b7100000000000000000000000000000000000000000000000000000000600052604160045260246000fd5b610a1d82610882565b810181811067ffffffffffffffff82111715610a3c57610a3b6109e5565b5b80604052505050565b6000610a4f6107c5565b9050610a5b8282610a14565b919050565b600067ffffffffffffffff821115610a7b57610a7a6109e5565b5b610a8482610882565b9050602081019050919050565b82818337600083830152505050565b6000610ab3610aae84610a60565b610a45565b905082815260208101848484011115610acf57610ace6109e0565b5b610ada848285610a91565b509392505050565b600082601f830112610af757610af66109db565b5b8135610b07848260208601610aa0565b91505092915050565b600060208284031215610b2657610b256107cf565b5b600082013567ffffffffffffffff811115610b4457610b436107d4565b5b610b5084828501610ae2565b91505092915050565b610b628161099f565b8114610b6d57600080fd5b50565b600081359050610b7f81610b59565b92915050565b600060208284031215610b9b57610b9a6107cf565b5b6000610ba984828501610b70565b91505092915050565b7f4e487b7100000000000000000000000000000000000000000000000000000000600052602260045260246000fd5b60006002820490506001821680610bf957607f821691505b602082108103610c0c57610c0b610bb2565b5b50919050565b7f4e487b7100000000000000000000000000000000000000000000000000000000600052601260045260246000fd5b6000610c4c826107d9565b9150610c57836107d9565b925082610c6757610c66610c12565b5b828206905092915050565b7f4e487b7100000000000000000000000000000000000000000000000000000000600052601160045260246000fd5b6000610cac826107d9565b9150610cb7836107d9565b9250828203905081811115610ccf57610cce610c72565b5b92915050565b7f4f776e61626c653a206e6577206f776e657220697320746865207a65726f206160008201527f6464726573730000000000000000000000000000000000000000000000000000602082015250565b6000610d31602683610847565b9150610d3c82610cd5565b604082019050919050565b60006020820190508181036000830152610d6081610d24565b9050919050565b7f4f776e61626c653a2063616c6c6572206973206e6f7420746865206f776e6572600082015250565b6000610d9d602083610847565b9150610da882610d67565b602082019050919050565b60006020820190508181036000830152610dcc81610d90565b9050919050565b600081905092915050565b6000610de98261083c565b610df38185610dd3565b9350610e03818560208601610858565b80840191505092915050565b6000610e1b8284610dde565b915081905092915050565b6000610e31826107d9565b9150610e3c836107d9565b9250828201905080821115610e5457610e53610c72565b5b92915050565b60008190508160005260206000209050919050565b60006020601f8301049050919050565b600082821b905092915050565b600060088302610ebc7fffffffffffffffffffffffffffffffffffffffffffffffffffffffffffffffff82610e7f565b610ec68683610e7f565b95508019841693508086168417925050509392505050565b6000819050919050565b6000610f03610efe610ef9846107d9565b610ede565b6107d9565b9050919050565b6000819050919050565b610f1d83610ee8565b610f31610f2982610f0a565b848454610e8c565b825550505050565b600090565b610f46610f39565b610f51818484610f14565b505050565b5b81811015610f7557610f6a600082610f3e565b600181019050610f57565b5050565b601f821115610fba57610f8b81610e5a565b610f9484610e6f565b81016020851015610fa3578190505b610fb7610faf85610e6f565b830182610f56565b50505b505050565b600082821c905092915050565b6000610fdd60001984600802610fbf565b1980831691505092915050565b6000610ff68383610fcc565b9150826002028217905092915050565b61100f8261083c565b67ffffffffffffffff811115611028576110276109e5565b5b6110328254610be1565b61103d828285610f79565b600060209050601f831160018114611070576000841561105e578287015190505b6110688582610fea565b8655506110d0565b601f19841661107e86610e5a565b60005b828110156110a657848901518255600182019150602085019450602081019050611081565b868310156110c357848901516110bf601f891682610fcc565b8355505b6001600288020188555050505b505050505050565b60006060820190506110ed60008301866108cc565b81810360208301526110ff8185610893565b905061110e60408301846108cc565b94935050505056fea2646970667358221220539a0f5ac344dcf0c1d850724974b75c351f68a2f9f38b87d33571c3954c1e4a64736f6c63430008110033",
					"opcodes": "PUSH1 0x80 PUSH1 0x40 MSTORE PUSH1 0x10 PUSH1 0x1 SSTORE PUSH1 0x1 SLOAD PUSH1 0xA PUSH3 0x1A SWAP2 SWAP1 PUSH3 0x2B1 JUMP JUMPDEST PUSH1 0x2 SSTORE PUSH3 0x15180 PUSH1 0x3 SSTORE CALLVALUE DUP1 ISZERO PUSH3 0x31 JUMPI PUSH1 0x0 DUP1 REVERT JUMPDEST POP PUSH3 0x52 PUSH3 0x46 PUSH3 0x58 PUSH1 0x20 SHL PUSH1 0x20 SHR JUMP JUMPDEST PUSH3 0x60 PUSH1 0x20 SHL PUSH1 0x20 SHR JUMP JUMPDEST PUSH3 0x302 JUMP JUMPDEST PUSH1 0x0 CALLER SWAP1 POP SWAP1 JUMP JUMPDEST PUSH1 0x0 DUP1 PUSH1 0x0 SWAP1 SLOAD SWAP1 PUSH2 0x100 EXP SWAP1 DIV PUSH20 0xFFFFFFFFFFFFFFFFFFFFFFFFFFFFFFFFFFFFFFFF AND SWAP1 POP DUP2 PUSH1 0x0 DUP1 PUSH2 0x100 EXP DUP2 SLOAD DUP2 PUSH20 0xFFFFFFFFFFFFFFFFFFFFFFFFFFFFFFFFFFFFFFFF MUL NOT AND SWAP1 DUP4 PUSH20 0xFFFFFFFFFFFFFFFFFFFFFFFFFFFFFFFFFFFFFFFF AND MUL OR SWAP1 SSTORE POP DUP2 PUSH20 0xFFFFFFFFFFFFFFFFFFFFFFFFFFFFFFFFFFFFFFFF AND DUP2 PUSH20 0xFFFFFFFFFFFFFFFFFFFFFFFFFFFFFFFFFFFFFFFF AND PUSH32 0x8BE0079C531659141344CD1FD0A4F28419497F9722A3DAAFE3B4186F6B6457E0 PUSH1 0x40 MLOAD PUSH1 0x40 MLOAD DUP1 SWAP2 SUB SWAP1 LOG3 POP POP JUMP JUMPDEST PUSH32 0x4E487B7100000000000000000000000000000000000000000000000000000000 PUSH1 0x0 MSTORE PUSH1 0x11 PUSH1 0x4 MSTORE PUSH1 0x24 PUSH1 0x0 REVERT JUMPDEST PUSH1 0x0 DUP2 PUSH1 0x1 SHR SWAP1 POP SWAP2 SWAP1 POP JUMP JUMPDEST PUSH1 0x0 DUP1 DUP3 SWAP2 POP DUP4 SWAP1 POP JUMPDEST PUSH1 0x1 DUP6 GT ISZERO PUSH3 0x1B2 JUMPI DUP1 DUP7 DIV DUP2 GT ISZERO PUSH3 0x18A JUMPI PUSH3 0x189 PUSH3 0x124 JUMP JUMPDEST JUMPDEST PUSH1 0x1 DUP6 AND ISZERO PUSH3 0x19A JUMPI DUP1 DUP3 MUL SWAP2 POP JUMPDEST DUP1 DUP2 MUL SWAP1 POP PUSH3 0x1AA DUP6 PUSH3 0x153 JUMP JUMPDEST SWAP5 POP PUSH3 0x16A JUMP JUMPDEST SWAP5 POP SWAP5 SWAP3 POP POP POP JUMP JUMPDEST PUSH1 0x0 DUP3 PUSH3 0x1CD JUMPI PUSH1 0x1 SWAP1 POP PUSH3 0x2A0 JUMP JUMPDEST DUP2 PUSH3 0x1DD JUMPI PUSH1 0x0 SWAP1 POP PUSH3 0x2A0 JUMP JUMPDEST DUP2 PUSH1 0x1 DUP2 EQ PUSH3 0x1F6 JUMPI PUSH1 0x2 DUP2 EQ PUSH3 0x201 JUMPI PUSH3 0x237 JUMP JUMPDEST PUSH1 0x1 SWAP2 POP POP PUSH3 0x2A0 JUMP JUMPDEST PUSH1 0xFF DUP5 GT ISZERO PUSH3 0x216 JUMPI PUSH3 0x215 PUSH3 0x124 JUMP JUMPDEST JUMPDEST DUP4 PUSH1 0x2 EXP SWAP2 POP DUP5 DUP3 GT ISZERO PUSH3 0x230 JUMPI PUSH3 0x22F PUSH3 0x124 JUMP JUMPDEST JUMPDEST POP PUSH3 0x2A0 JUMP JUMPDEST POP PUSH1 0x20 DUP4 LT PUSH2 0x133 DUP4 LT AND PUSH1 0x4E DUP5 LT PUSH1 0xB DUP5 LT AND OR ISZERO PUSH3 0x271 JUMPI DUP3 DUP3 EXP SWAP1 POP DUP4 DUP2 GT ISZERO PUSH3 0x26B JUMPI PUSH3 0x26A PUSH3 0x124 JUMP JUMPDEST JUMPDEST PUSH3 0x2A0 JUMP JUMPDEST PUSH3 0x280 DUP5 DUP5 DUP5 PUSH1 0x1 PUSH3 0x160 JUMP JUMPDEST SWAP3 POP SWAP1 POP DUP2 DUP5 DIV DUP2 GT ISZERO PUSH3 0x29A JUMPI PUSH3 0x299 PUSH3 0x124 JUMP JUMPDEST JUMPDEST DUP2 DUP2 MUL SWAP1 POP JUMPDEST SWAP4 SWAP3 POP POP POP JUMP JUMPDEST PUSH1 0x0 DUP2 SWAP1 POP SWAP2 SWAP1 POP JUMP JUMPDEST PUSH1 0x0 PUSH3 0x2BE DUP3 PUSH3 0x2A7 JUMP JUMPDEST SWAP2 POP PUSH3 0x2CB DUP4 PUSH3 0x2A7 JUMP JUMPDEST SWAP3 POP PUSH3 0x2FA PUSH32 0xFFFFFFFFFFFFFFFFFFFFFFFFFFFFFFFFFFFFFFFFFFFFFFFFFFFFFFFFFFFFFFFF DUP5 DUP5 PUSH3 0x1BB JUMP JUMPDEST SWAP1 POP SWAP3 SWAP2 POP POP JUMP JUMPDEST PUSH2 0x114C DUP1 PUSH3 0x312 PUSH1 0x0 CODECOPY PUSH1 0x0 RETURN INVALID PUSH1 0x80 PUSH1 0x40 MSTORE CALLVALUE DUP1 ISZERO PUSH2 0x10 JUMPI PUSH1 0x0 DUP1 REVERT JUMPDEST POP PUSH1 0x4 CALLDATASIZE LT PUSH2 0x62 JUMPI PUSH1 0x0 CALLDATALOAD PUSH1 0xE0 SHR DUP1 PUSH4 0x2052465E EQ PUSH2 0x67 JUMPI DUP1 PUSH4 0x528B7B8F EQ PUSH2 0x9C JUMPI DUP1 PUSH4 0x715018A6 EQ PUSH2 0xCC JUMPI DUP1 PUSH4 0x7BFF0A01 EQ PUSH2 0xD6 JUMPI DUP1 PUSH4 0x8DA5CB5B EQ PUSH2 0xF2 JUMPI DUP1 PUSH4 0xF2FDE38B EQ PUSH2 0x110 JUMPI JUMPDEST PUSH1 0x0 DUP1 REVERT JUMPDEST PUSH2 0x81 PUSH1 0x4 DUP1 CALLDATASIZE SUB DUP2 ADD SWAP1 PUSH2 0x7C SWAP2 SWAP1 PUSH2 0x80F JUMP JUMPDEST PUSH2 0x12C JUMP JUMPDEST PUSH1 0x40 MLOAD PUSH2 0x93 SWAP7 SWAP6 SWAP5 SWAP4 SWAP3 SWAP2 SWAP1 PUSH2 0x917 JUMP JUMPDEST PUSH1 0x40 MLOAD DUP1 SWAP2 SUB SWAP1 RETURN JUMPDEST PUSH2 0xB6 PUSH1 0x4 DUP1 CALLDATASIZE SUB DUP2 ADD SWAP1 PUSH2 0xB1 SWAP2 SWAP1 PUSH2 0x80F JUMP JUMPDEST PUSH2 0x23C JUMP JUMPDEST PUSH1 0x40 MLOAD PUSH2 0xC3 SWAP2 SWAP1 PUSH2 0x9C0 JUMP JUMPDEST PUSH1 0x40 MLOAD DUP1 SWAP2 SUB SWAP1 RETURN JUMPDEST PUSH2 0xD4 PUSH2 0x26F JUMP JUMPDEST STOP JUMPDEST PUSH2 0xF0 PUSH1 0x4 DUP1 CALLDATASIZE SUB DUP2 ADD SWAP1 PUSH2 0xEB SWAP2 SWAP1 PUSH2 0xB10 JUMP JUMPDEST PUSH2 0x283 JUMP JUMPDEST STOP JUMPDEST PUSH2 0xFA PUSH2 0x304 JUMP JUMPDEST PUSH1 0x40 MLOAD PUSH2 0x107 SWAP2 SWAP1 PUSH2 0x9C0 JUMP JUMPDEST PUSH1 0x40 MLOAD DUP1 SWAP2 SUB SWAP1 RETURN JUMPDEST PUSH2 0x12A PUSH1 0x4 DUP1 CALLDATASIZE SUB DUP2 ADD SWAP1 PUSH2 0x125 SWAP2 SWAP1 PUSH2 0xB85 JUMP JUMPDEST PUSH2 0x32D JUMP JUMPDEST STOP JUMPDEST PUSH1 0x4 DUP2 DUP2 SLOAD DUP2 LT PUSH2 0x13C JUMPI PUSH1 0x0 DUP1 REVERT JUMPDEST SWAP1 PUSH1 0x0 MSTORE PUSH1 0x20 PUSH1 0x0 KECCAK256 SWAP1 PUSH1 0x3 MUL ADD PUSH1 0x0 SWAP2 POP SWAP1 POP DUP1 PUSH1 0x0 ADD DUP1 SLOAD PUSH2 0x15F SWAP1 PUSH2 0xBE1 JUMP JUMPDEST DUP1 PUSH1 0x1F ADD PUSH1 0x20 DUP1 SWAP2 DIV MUL PUSH1 0x20 ADD PUSH1 0x40 MLOAD SWAP1 DUP2 ADD PUSH1 0x40 MSTORE DUP1 SWAP3 SWAP2 SWAP1 DUP2 DUP2 MSTORE PUSH1 0x20 ADD DUP3 DUP1 SLOAD PUSH2 0x18B SWAP1 PUSH2 0xBE1 JUMP JUMPDEST DUP1 ISZERO PUSH2 0x1D8 JUMPI DUP1 PUSH1 0x1F LT PUSH2 0x1AD JUMPI PUSH2 0x100 DUP1 DUP4 SLOAD DIV MUL DUP4 MSTORE SWAP2 PUSH1 0x20 ADD SWAP2 PUSH2 0x1D8 JUMP JUMPDEST DUP3 ADD SWAP2 SWAP1 PUSH1 0x0 MSTORE PUSH1 0x20 PUSH1 0x0 KECCAK256 SWAP1 JUMPDEST DUP2 SLOAD DUP2 MSTORE SWAP1 PUSH1 0x1 ADD SWAP1 PUSH1 0x20 ADD DUP1 DUP4 GT PUSH2 0x1BB JUMPI DUP3 SWAP1 SUB PUSH1 0x1F AND DUP3 ADD SWAP2 JUMPDEST POP POP POP POP POP SWAP1 DUP1 PUSH1 0x1 ADD SLOAD SWAP1 DUP1 PUSH1 0x2 ADD PUSH1 0x0 SWAP1 SLOAD SWAP1 PUSH2 0x100 EXP SWAP1 DIV PUSH4 0xFFFFFFFF AND SWAP1 DUP1 PUSH1 0x2 ADD PUSH1 0x4 SWAP1 SLOAD SWAP1 PUSH2 0x100 EXP SWAP1 DIV PUSH4 0xFFFFFFFF AND SWAP1 DUP1 PUSH1 0x2 ADD PUSH1 0x8 SWAP1 SLOAD SWAP1 PUSH2 0x100 EXP SWAP1 DIV PUSH2 0xFFFF AND SWAP1 DUP1 PUSH1 0x2 ADD PUSH1 0xA SWAP1 SLOAD SWAP1 PUSH2 0x100 EXP SWAP1 DIV PUSH2 0xFFFF AND SWAP1 POP DUP7 JUMP JUMPDEST PUSH1 0x5 PUSH1 0x20 MSTORE DUP1 PUSH1 0x0 MSTORE PUSH1 0x40 PUSH1 0x0 KECCAK256 PUSH1 0x0 SWAP2 POP SLOAD SWAP1 PUSH2 0x100 EXP SWAP1 DIV PUSH20 0xFFFFFFFFFFFFFFFFFFFFFFFFFFFFFFFFFFFFFFFF AND DUP2 JUMP JUMPDEST PUSH2 0x277 PUSH2 0x3B0 JUMP JUMPDEST PUSH2 0x281 PUSH1 0x0 PUSH2 0x42E JUMP JUMPDEST JUMP JUMPDEST PUSH1 0x0 PUSH1 0x6 PUSH1 0x0 CALLER PUSH20 0xFFFFFFFFFFFFFFFFFFFFFFFFFFFFFFFFFFFFFFFF AND PUSH20 0xFFFFFFFFFFFFFFFFFFFFFFFFFFFFFFFFFFFFFFFF AND DUP2 MSTORE PUSH1 0x20 ADD SWAP1 DUP2 MSTORE PUSH1 0x20 ADD PUSH1 0x0 KECCAK256 SLOAD EQ PUSH2 0x2CF JUMPI PUSH1 0x0 DUP1 REVERT JUMPDEST PUSH1 0x0 PUSH2 0x2DA DUP3 PUSH2 0x4F2 JUMP JUMPDEST SWAP1 POP PUSH1 0x64 DUP2 PUSH2 0x2E9 SWAP2 SWAP1 PUSH2 0xC41 JUMP JUMPDEST DUP2 PUSH2 0x2F4 SWAP2 SWAP1 PUSH2 0xCA1 JUMP JUMPDEST SWAP1 POP PUSH2 0x300 DUP3 DUP3 PUSH2 0x537 JUMP JUMPDEST POP POP JUMP JUMPDEST PUSH1 0x0 DUP1 PUSH1 0x0 SWAP1 SLOAD SWAP1 PUSH2 0x100 EXP SWAP1 DIV PUSH20 0xFFFFFFFFFFFFFFFFFFFFFFFFFFFFFFFFFFFFFFFF AND SWAP1 POP SWAP1 JUMP JUMPDEST PUSH2 0x335 PUSH2 0x3B0 JUMP JUMPDEST PUSH1 0x0 PUSH20 0xFFFFFFFFFFFFFFFFFFFFFFFFFFFFFFFFFFFFFFFF AND DUP2 PUSH20 0xFFFFFFFFFFFFFFFFFFFFFFFFFFFFFFFFFFFFFFFF AND SUB PUSH2 0x3A4 JUMPI PUSH1 0x40 MLOAD PUSH32 0x8C379A000000000000000000000000000000000000000000000000000000000 DUP2 MSTORE PUSH1 0x4 ADD PUSH2 0x39B SWAP1 PUSH2 0xD47 JUMP JUMPDEST PUSH1 0x40 MLOAD DUP1 SWAP2 SUB SWAP1 REVERT JUMPDEST PUSH2 0x3AD DUP2 PUSH2 0x42E JUMP JUMPDEST POP JUMP JUMPDEST PUSH2 0x3B8 PUSH2 0x7A7 JUMP JUMPDEST PUSH20 0xFFFFFFFFFFFFFFFFFFFFFFFFFFFFFFFFFFFFFFFF AND PUSH2 0x3D6 PUSH2 0x304 JUMP JUMPDEST PUSH20 0xFFFFFFFFFFFFFFFFFFFFFFFFFFFFFFFFFFFFFFFF AND EQ PUSH2 0x42C JUMPI PUSH1 0x40 MLOAD PUSH32 0x8C379A000000000000000000000000000000000000000000000000000000000 DUP2 MSTORE PUSH1 0x4 ADD PUSH2 0x423 SWAP1 PUSH2 0xDB3 JUMP JUMPDEST PUSH1 0x40 MLOAD DUP1 SWAP2 SUB SWAP1 REVERT JUMPDEST JUMP JUMPDEST PUSH1 0x0 DUP1 PUSH1 0x0 SWAP1 SLOAD SWAP1 PUSH2 0x100 EXP SWAP1 DIV PUSH20 0xFFFFFFFFFFFFFFFFFFFFFFFFFFFFFFFFFFFFFFFF AND SWAP1 POP DUP2 PUSH1 0x0 DUP1 PUSH2 0x100 EXP DUP2 SLOAD DUP2 PUSH20 0xFFFFFFFFFFFFFFFFFFFFFFFFFFFFFFFFFFFFFFFF MUL NOT AND SWAP1 DUP4 PUSH20 0xFFFFFFFFFFFFFFFFFFFFFFFFFFFFFFFFFFFFFFFF AND MUL OR SWAP1 SSTORE POP DUP2 PUSH20 0xFFFFFFFFFFFFFFFFFFFFFFFFFFFFFFFFFFFFFFFF AND DUP2 PUSH20 0xFFFFFFFFFFFFFFFFFFFFFFFFFFFFFFFFFFFFFFFF AND PUSH32 0x8BE0079C531659141344CD1FD0A4F28419497F9722A3DAAFE3B4186F6B6457E0 PUSH1 0x40 MLOAD PUSH1 0x40 MLOAD DUP1 SWAP2 SUB SWAP1 LOG3 POP POP JUMP JUMPDEST PUSH1 0x0 DUP1 DUP3 PUSH1 0x40 MLOAD PUSH1 0x20 ADD PUSH2 0x506 SWAP2 SWAP1 PUSH2 0xE0F JUMP JUMPDEST PUSH1 0x40 MLOAD PUSH1 0x20 DUP2 DUP4 SUB SUB DUP2 MSTORE SWAP1 PUSH1 0x40 MSTORE DUP1 MLOAD SWAP1 PUSH1 0x20 ADD KECCAK256 PUSH1 0x0 SHR SWAP1 POP PUSH1 0x2 SLOAD DUP2 PUSH2 0x52F SWAP2 SWAP1 PUSH2 0xC41 JUMP JUMPDEST SWAP2 POP POP SWAP2 SWAP1 POP JUMP JUMPDEST PUSH1 0x4 PUSH1 0x40 MLOAD DUP1 PUSH1 0xC0 ADD PUSH1 0x40 MSTORE DUP1 DUP5 DUP2 MSTORE PUSH1 0x20 ADD DUP4 DUP2 MSTORE PUSH1 0x20 ADD PUSH1 0x1 PUSH4 0xFFFFFFFF AND DUP2 MSTORE PUSH1 0x20 ADD PUSH1 0x3 SLOAD TIMESTAMP PUSH2 0x56B SWAP2 SWAP1 PUSH2 0xE26 JUMP JUMPDEST PUSH4 0xFFFFFFFF AND DUP2 MSTORE PUSH1 0x20 ADD PUSH1 0x0 PUSH2 0xFFFF AND DUP2 MSTORE PUSH1 0x20 ADD PUSH1 0x0 PUSH2 0xFFFF AND DUP2 MSTORE POP SWAP1 DUP1 PUSH1 0x1 DUP2 SLOAD ADD DUP1 DUP3 SSTORE DUP1 SWAP2 POP POP PUSH1 0x1 SWAP1 SUB SWAP1 PUSH1 0x0 MSTORE PUSH1 0x20 PUSH1 0x0 KECCAK256 SWAP1 PUSH1 0x3 MUL ADD PUSH1 0x0 SWAP1 SWAP2 SWAP1 SWAP2 SWAP1 SWAP2 POP PUSH1 0x0 DUP3 ADD MLOAD DUP2 PUSH1 0x0 ADD SWAP1 DUP2 PUSH2 0x5C8 SWAP2 SWAP1 PUSH2 0x1006 JUMP JUMPDEST POP PUSH1 0x20 DUP3 ADD MLOAD DUP2 PUSH1 0x1 ADD SSTORE PUSH1 0x40 DUP3 ADD MLOAD DUP2 PUSH1 0x2 ADD PUSH1 0x0 PUSH2 0x100 EXP DUP2 SLOAD DUP2 PUSH4 0xFFFFFFFF MUL NOT AND SWAP1 DUP4 PUSH4 0xFFFFFFFF AND MUL OR SWAP1 SSTORE POP PUSH1 0x60 DUP3 ADD MLOAD DUP2 PUSH1 0x2 ADD PUSH1 0x4 PUSH2 0x100 EXP DUP2 SLOAD DUP2 PUSH4 0xFFFFFFFF MUL NOT AND SWAP1 DUP4 PUSH4 0xFFFFFFFF AND MUL OR SWAP1 SSTORE POP PUSH1 0x80 DUP3 ADD MLOAD DUP2 PUSH1 0x2 ADD PUSH1 0x8 PUSH2 0x100 EXP DUP2 SLOAD DUP2 PUSH2 0xFFFF MUL NOT AND SWAP1 DUP4 PUSH2 0xFFFF AND MUL OR SWAP1 SSTORE POP PUSH1 0xA0 DUP3 ADD MLOAD DUP2 PUSH1 0x2 ADD PUSH1 0xA PUSH2 0x100 EXP DUP2 SLOAD DUP2 PUSH2 0xFFFF MUL NOT AND SWAP1 DUP4 PUSH2 0xFFFF AND MUL OR SWAP1 SSTORE POP POP POP PUSH1 0x0 PUSH1 0x1 PUSH1 0x4 DUP1 SLOAD SWAP1 POP PUSH2 0x67D SWAP2 SWAP1 PUSH2 0xCA1 JUMP JUMPDEST SWAP1 POP CALLER PUSH1 0x5 PUSH1 0x0 DUP4 DUP2 MSTORE PUSH1 0x20 ADD SWAP1 DUP2 MSTORE PUSH1 0x20 ADD PUSH1 0x0 KECCAK256 PUSH1 0x0 PUSH2 0x100 EXP DUP2 SLOAD DUP2 PUSH20 0xFFFFFFFFFFFFFFFFFFFFFFFFFFFFFFFFFFFFFFFF MUL NOT AND SWAP1 DUP4 PUSH20 0xFFFFFFFFFFFFFFFFFFFFFFFFFFFFFFFFFFFFFFFF AND MUL OR SWAP1 SSTORE POP PUSH2 0x724 PUSH1 0x1 PUSH1 0x6 PUSH1 0x0 CALLER PUSH20 0xFFFFFFFFFFFFFFFFFFFFFFFFFFFFFFFFFFFFFFFF AND PUSH20 0xFFFFFFFFFFFFFFFFFFFFFFFFFFFFFFFFFFFFFFFF AND DUP2 MSTORE PUSH1 0x20 ADD SWAP1 DUP2 MSTORE PUSH1 0x20 ADD PUSH1 0x0 KECCAK256 SLOAD PUSH2 0x7AF SWAP1 SWAP2 SWAP1 PUSH4 0xFFFFFFFF AND JUMP JUMPDEST PUSH1 0x6 PUSH1 0x0 CALLER PUSH20 0xFFFFFFFFFFFFFFFFFFFFFFFFFFFFFFFFFFFFFFFF AND PUSH20 0xFFFFFFFFFFFFFFFFFFFFFFFFFFFFFFFFFFFFFFFF AND DUP2 MSTORE PUSH1 0x20 ADD SWAP1 DUP2 MSTORE PUSH1 0x20 ADD PUSH1 0x0 KECCAK256 DUP2 SWAP1 SSTORE POP PUSH32 0x88F026AACBBECC90C18411DF4B1185FD8D9BE2470F1962F192BF84A27D0704B7 DUP2 DUP5 DUP5 PUSH1 0x40 MLOAD PUSH2 0x79A SWAP4 SWAP3 SWAP2 SWAP1 PUSH2 0x10D8 JUMP JUMPDEST PUSH1 0x40 MLOAD DUP1 SWAP2 SUB SWAP1 LOG1 POP POP POP JUMP JUMPDEST PUSH1 0x0 CALLER SWAP1 POP SWAP1 JUMP JUMPDEST PUSH1 0x0 DUP2 DUP4 PUSH2 0x7BD SWAP2 SWAP1 PUSH2 0xE26 JUMP JUMPDEST SWAP1 POP SWAP3 SWAP2 POP POP JUMP JUMPDEST PUSH1 0x0 PUSH1 0x40 MLOAD SWAP1 POP SWAP1 JUMP JUMPDEST PUSH1 0x0 DUP1 REVERT JUMPDEST PUSH1 0x0 DUP1 REVERT JUMPDEST PUSH1 0x0 DUP2 SWAP1 POP SWAP2 SWAP1 POP JUMP JUMPDEST PUSH2 0x7EC DUP2 PUSH2 0x7D9 JUMP JUMPDEST DUP2 EQ PUSH2 0x7F7 JUMPI PUSH1 0x0 DUP1 REVERT JUMPDEST POP JUMP JUMPDEST PUSH1 0x0 DUP2 CALLDATALOAD SWAP1 POP PUSH2 0x809 DUP2 PUSH2 0x7E3 JUMP JUMPDEST SWAP3 SWAP2 POP POP JUMP JUMPDEST PUSH1 0x0 PUSH1 0x20 DUP3 DUP5 SUB SLT ISZERO PUSH2 0x825 JUMPI PUSH2 0x824 PUSH2 0x7CF JUMP JUMPDEST JUMPDEST PUSH1 0x0 PUSH2 0x833 DUP5 DUP3 DUP6 ADD PUSH2 0x7FA JUMP JUMPDEST SWAP2 POP POP SWAP3 SWAP2 POP POP JUMP JUMPDEST PUSH1 0x0 DUP2 MLOAD SWAP1 POP SWAP2 SWAP1 POP JUMP JUMPDEST PUSH1 0x0 DUP3 DUP3 MSTORE PUSH1 0x20 DUP3 ADD SWAP1 POP SWAP3 SWAP2 POP POP JUMP JUMPDEST PUSH1 0x0 JUMPDEST DUP4 DUP2 LT ISZERO PUSH2 0x876 JUMPI DUP1 DUP3 ADD MLOAD DUP2 DUP5 ADD MSTORE PUSH1 0x20 DUP2 ADD SWAP1 POP PUSH2 0x85B JUMP JUMPDEST PUSH1 0x0 DUP5 DUP5 ADD MSTORE POP POP POP POP JUMP JUMPDEST PUSH1 0x0 PUSH1 0x1F NOT PUSH1 0x1F DUP4 ADD AND SWAP1 POP SWAP2 SWAP1 POP JUMP JUMPDEST PUSH1 0x0 PUSH2 0x89E DUP3 PUSH2 0x83C JUMP JUMPDEST PUSH2 0x8A8 DUP2 DUP6 PUSH2 0x847 JUMP JUMPDEST SWAP4 POP PUSH2 0x8B8 DUP2 DUP6 PUSH1 0x20 DUP7 ADD PUSH2 0x858 JUMP JUMPDEST PUSH2 0x8C1 DUP2 PUSH2 0x882 JUMP JUMPDEST DUP5 ADD SWAP2 POP POP SWAP3 SWAP2 POP POP JUMP JUMPDEST PUSH2 0x8D5 DUP2 PUSH2 0x7D9 JUMP JUMPDEST DUP3 MSTORE POP POP JUMP JUMPDEST PUSH1 0x0 PUSH4 0xFFFFFFFF DUP3 AND SWAP1 POP SWAP2 SWAP1 POP JUMP JUMPDEST PUSH2 0x8F4 DUP2 PUSH2 0x8DB JUMP JUMPDEST DUP3 MSTORE POP POP JUMP JUMPDEST PUSH1 0x0 PUSH2 0xFFFF DUP3 AND SWAP1 POP SWAP2 SWAP1 POP JUMP JUMPDEST PUSH2 0x911 DUP2 PUSH2 0x8FA JUMP JUMPDEST DUP3 MSTORE POP POP JUMP JUMPDEST PUSH1 0x0 PUSH1 0xC0 DUP3 ADD SWAP1 POP DUP2 DUP2 SUB PUSH1 0x0 DUP4 ADD MSTORE PUSH2 0x931 DUP2 DUP10 PUSH2 0x893 JUMP JUMPDEST SWAP1 POP PUSH2 0x940 PUSH1 0x20 DUP4 ADD DUP9 PUSH2 0x8CC JUMP JUMPDEST PUSH2 0x94D PUSH1 0x40 DUP4 ADD DUP8 PUSH2 0x8EB JUMP JUMPDEST PUSH2 0x95A PUSH1 0x60 DUP4 ADD DUP7 PUSH2 0x8EB JUMP JUMPDEST PUSH2 0x967 PUSH1 0x80 DUP4 ADD DUP6 PUSH2 0x908 JUMP JUMPDEST PUSH2 0x974 PUSH1 0xA0 DUP4 ADD DUP5 PUSH2 0x908 JUMP JUMPDEST SWAP8 SWAP7 POP POP POP POP POP POP POP JUMP JUMPDEST PUSH1 0x0 PUSH20 0xFFFFFFFFFFFFFFFFFFFFFFFFFFFFFFFFFFFFFFFF DUP3 AND SWAP1 POP SWAP2 SWAP1 POP JUMP JUMPDEST PUSH1 0x0 PUSH2 0x9AA DUP3 PUSH2 0x97F JUMP JUMPDEST SWAP1 POP SWAP2 SWAP1 POP JUMP JUMPDEST PUSH2 0x9BA DUP2 PUSH2 0x99F JUMP JUMPDEST DUP3 MSTORE POP POP JUMP JUMPDEST PUSH1 0x0 PUSH1 0x20 DUP3 ADD SWAP1 POP PUSH2 0x9D5 PUSH1 0x0 DUP4 ADD DUP5 PUSH2 0x9B1 JUMP JUMPDEST SWAP3 SWAP2 POP POP JUMP JUMPDEST PUSH1 0x0 DUP1 REVERT JUMPDEST PUSH1 0x0 DUP1 REVERT JUMPDEST PUSH32 0x4E487B7100000000000000000000000000000000000000000000000000000000 PUSH1 0x0 MSTORE PUSH1 0x41 PUSH1 0x4 MSTORE PUSH1 0x24 PUSH1 0x0 REVERT JUMPDEST PUSH2 0xA1D DUP3 PUSH2 0x882 JUMP JUMPDEST DUP2 ADD DUP2 DUP2 LT PUSH8 0xFFFFFFFFFFFFFFFF DUP3 GT OR ISZERO PUSH2 0xA3C JUMPI PUSH2 0xA3B PUSH2 0x9E5 JUMP JUMPDEST JUMPDEST DUP1 PUSH1 0x40 MSTORE POP POP POP JUMP JUMPDEST PUSH1 0x0 PUSH2 0xA4F PUSH2 0x7C5 JUMP JUMPDEST SWAP1 POP PUSH2 0xA5B DUP3 DUP3 PUSH2 0xA14 JUMP JUMPDEST SWAP2 SWAP1 POP JUMP JUMPDEST PUSH1 0x0 PUSH8 0xFFFFFFFFFFFFFFFF DUP3 GT ISZERO PUSH2 0xA7B JUMPI PUSH2 0xA7A PUSH2 0x9E5 JUMP JUMPDEST JUMPDEST PUSH2 0xA84 DUP3 PUSH2 0x882 JUMP JUMPDEST SWAP1 POP PUSH1 0x20 DUP2 ADD SWAP1 POP SWAP2 SWAP1 POP JUMP JUMPDEST DUP3 DUP2 DUP4 CALLDATACOPY PUSH1 0x0 DUP4 DUP4 ADD MSTORE POP POP POP JUMP JUMPDEST PUSH1 0x0 PUSH2 0xAB3 PUSH2 0xAAE DUP5 PUSH2 0xA60 JUMP JUMPDEST PUSH2 0xA45 JUMP JUMPDEST SWAP1 POP DUP3 DUP2 MSTORE PUSH1 0x20 DUP2 ADD DUP5 DUP5 DUP5 ADD GT ISZERO PUSH2 0xACF JUMPI PUSH2 0xACE PUSH2 0x9E0 JUMP JUMPDEST JUMPDEST PUSH2 0xADA DUP5 DUP3 DUP6 PUSH2 0xA91 JUMP JUMPDEST POP SWAP4 SWAP3 POP POP POP JUMP JUMPDEST PUSH1 0x0 DUP3 PUSH1 0x1F DUP4 ADD SLT PUSH2 0xAF7 JUMPI PUSH2 0xAF6 PUSH2 0x9DB JUMP JUMPDEST JUMPDEST DUP2 CALLDATALOAD PUSH2 0xB07 DUP5 DUP3 PUSH1 0x20 DUP7 ADD PUSH2 0xAA0 JUMP JUMPDEST SWAP2 POP POP SWAP3 SWAP2 POP POP JUMP JUMPDEST PUSH1 0x0 PUSH1 0x20 DUP3 DUP5 SUB SLT ISZERO PUSH2 0xB26 JUMPI PUSH2 0xB25 PUSH2 0x7CF JUMP JUMPDEST JUMPDEST PUSH1 0x0 DUP3 ADD CALLDATALOAD PUSH8 0xFFFFFFFFFFFFFFFF DUP2 GT ISZERO PUSH2 0xB44 JUMPI PUSH2 0xB43 PUSH2 0x7D4 JUMP JUMPDEST JUMPDEST PUSH2 0xB50 DUP5 DUP3 DUP6 ADD PUSH2 0xAE2 JUMP JUMPDEST SWAP2 POP POP SWAP3 SWAP2 POP POP JUMP JUMPDEST PUSH2 0xB62 DUP2 PUSH2 0x99F JUMP JUMPDEST DUP2 EQ PUSH2 0xB6D JUMPI PUSH1 0x0 DUP1 REVERT JUMPDEST POP JUMP JUMPDEST PUSH1 0x0 DUP2 CALLDATALOAD SWAP1 POP PUSH2 0xB7F DUP2 PUSH2 0xB59 JUMP JUMPDEST SWAP3 SWAP2 POP POP JUMP JUMPDEST PUSH1 0x0 PUSH1 0x20 DUP3 DUP5 SUB SLT ISZERO PUSH2 0xB9B JUMPI PUSH2 0xB9A PUSH2 0x7CF JUMP JUMPDEST JUMPDEST PUSH1 0x0 PUSH2 0xBA9 DUP5 DUP3 DUP6 ADD PUSH2 0xB70 JUMP JUMPDEST SWAP2 POP POP SWAP3 SWAP2 POP POP JUMP JUMPDEST PUSH32 0x4E487B7100000000000000000000000000000000000000000000000000000000 PUSH1 0x0 MSTORE PUSH1 0x22 PUSH1 0x4 MSTORE PUSH1 0x24 PUSH1 0x0 REVERT JUMPDEST PUSH1 0x0 PUSH1 0x2 DUP3 DIV SWAP1 POP PUSH1 0x1 DUP3 AND DUP1 PUSH2 0xBF9 JUMPI PUSH1 0x7F DUP3 AND SWAP2 POP JUMPDEST PUSH1 0x20 DUP3 LT DUP2 SUB PUSH2 0xC0C JUMPI PUSH2 0xC0B PUSH2 0xBB2 JUMP JUMPDEST JUMPDEST POP SWAP2 SWAP1 POP JUMP JUMPDEST PUSH32 0x4E487B7100000000000000000000000000000000000000000000000000000000 PUSH1 0x0 MSTORE PUSH1 0x12 PUSH1 0x4 MSTORE PUSH1 0x24 PUSH1 0x0 REVERT JUMPDEST PUSH1 0x0 PUSH2 0xC4C DUP3 PUSH2 0x7D9 JUMP JUMPDEST SWAP2 POP PUSH2 0xC57 DUP4 PUSH2 0x7D9 JUMP JUMPDEST SWAP3 POP DUP3 PUSH2 0xC67 JUMPI PUSH2 0xC66 PUSH2 0xC12 JUMP JUMPDEST JUMPDEST DUP3 DUP3 MOD SWAP1 POP SWAP3 SWAP2 POP POP JUMP JUMPDEST PUSH32 0x4E487B7100000000000000000000000000000000000000000000000000000000 PUSH1 0x0 MSTORE PUSH1 0x11 PUSH1 0x4 MSTORE PUSH1 0x24 PUSH1 0x0 REVERT JUMPDEST PUSH1 0x0 PUSH2 0xCAC DUP3 PUSH2 0x7D9 JUMP JUMPDEST SWAP2 POP PUSH2 0xCB7 DUP4 PUSH2 0x7D9 JUMP JUMPDEST SWAP3 POP DUP3 DUP3 SUB SWAP1 POP DUP2 DUP2 GT ISZERO PUSH2 0xCCF JUMPI PUSH2 0xCCE PUSH2 0xC72 JUMP JUMPDEST JUMPDEST SWAP3 SWAP2 POP POP JUMP JUMPDEST PUSH32 0x4F776E61626C653A206E6577206F776E657220697320746865207A65726F2061 PUSH1 0x0 DUP3 ADD MSTORE PUSH32 0x6464726573730000000000000000000000000000000000000000000000000000 PUSH1 0x20 DUP3 ADD MSTORE POP JUMP JUMPDEST PUSH1 0x0 PUSH2 0xD31 PUSH1 0x26 DUP4 PUSH2 0x847 JUMP JUMPDEST SWAP2 POP PUSH2 0xD3C DUP3 PUSH2 0xCD5 JUMP JUMPDEST PUSH1 0x40 DUP3 ADD SWAP1 POP SWAP2 SWAP1 POP JUMP JUMPDEST PUSH1 0x0 PUSH1 0x20 DUP3 ADD SWAP1 POP DUP2 DUP2 SUB PUSH1 0x0 DUP4 ADD MSTORE PUSH2 0xD60 DUP2 PUSH2 0xD24 JUMP JUMPDEST SWAP1 POP SWAP2 SWAP1 POP JUMP JUMPDEST PUSH32 0x4F776E61626C653A2063616C6C6572206973206E6F7420746865206F776E6572 PUSH1 0x0 DUP3 ADD MSTORE POP JUMP JUMPDEST PUSH1 0x0 PUSH2 0xD9D PUSH1 0x20 DUP4 PUSH2 0x847 JUMP JUMPDEST SWAP2 POP PUSH2 0xDA8 DUP3 PUSH2 0xD67 JUMP JUMPDEST PUSH1 0x20 DUP3 ADD SWAP1 POP SWAP2 SWAP1 POP JUMP JUMPDEST PUSH1 0x0 PUSH1 0x20 DUP3 ADD SWAP1 POP DUP2 DUP2 SUB PUSH1 0x0 DUP4 ADD MSTORE PUSH2 0xDCC DUP2 PUSH2 0xD90 JUMP JUMPDEST SWAP1 POP SWAP2 SWAP1 POP JUMP JUMPDEST PUSH1 0x0 DUP2 SWAP1 POP SWAP3 SWAP2 POP POP JUMP JUMPDEST PUSH1 0x0 PUSH2 0xDE9 DUP3 PUSH2 0x83C JUMP JUMPDEST PUSH2 0xDF3 DUP2 DUP6 PUSH2 0xDD3 JUMP JUMPDEST SWAP4 POP PUSH2 0xE03 DUP2 DUP6 PUSH1 0x20 DUP7 ADD PUSH2 0x858 JUMP JUMPDEST DUP1 DUP5 ADD SWAP2 POP POP SWAP3 SWAP2 POP POP JUMP JUMPDEST PUSH1 0x0 PUSH2 0xE1B DUP3 DUP5 PUSH2 0xDDE JUMP JUMPDEST SWAP2 POP DUP2 SWAP1 POP SWAP3 SWAP2 POP POP JUMP JUMPDEST PUSH1 0x0 PUSH2 0xE31 DUP3 PUSH2 0x7D9 JUMP JUMPDEST SWAP2 POP PUSH2 0xE3C DUP4 PUSH2 0x7D9 JUMP JUMPDEST SWAP3 POP DUP3 DUP3 ADD SWAP1 POP DUP1 DUP3 GT ISZERO PUSH2 0xE54 JUMPI PUSH2 0xE53 PUSH2 0xC72 JUMP JUMPDEST JUMPDEST SWAP3 SWAP2 POP POP JUMP JUMPDEST PUSH1 0x0 DUP2 SWAP1 POP DUP2 PUSH1 0x0 MSTORE PUSH1 0x20 PUSH1 0x0 KECCAK256 SWAP1 POP SWAP2 SWAP1 POP JUMP JUMPDEST PUSH1 0x0 PUSH1 0x20 PUSH1 0x1F DUP4 ADD DIV SWAP1 POP SWAP2 SWAP1 POP JUMP JUMPDEST PUSH1 0x0 DUP3 DUP3 SHL SWAP1 POP SWAP3 SWAP2 POP POP JUMP JUMPDEST PUSH1 0x0 PUSH1 0x8 DUP4 MUL PUSH2 0xEBC PUSH32 0xFFFFFFFFFFFFFFFFFFFFFFFFFFFFFFFFFFFFFFFFFFFFFFFFFFFFFFFFFFFFFFFF DUP3 PUSH2 0xE7F JUMP JUMPDEST PUSH2 0xEC6 DUP7 DUP4 PUSH2 0xE7F JUMP JUMPDEST SWAP6 POP DUP1 NOT DUP5 AND SWAP4 POP DUP1 DUP7 AND DUP5 OR SWAP3 POP POP POP SWAP4 SWAP3 POP POP POP JUMP JUMPDEST PUSH1 0x0 DUP2 SWAP1 POP SWAP2 SWAP1 POP JUMP JUMPDEST PUSH1 0x0 PUSH2 0xF03 PUSH2 0xEFE PUSH2 0xEF9 DUP5 PUSH2 0x7D9 JUMP JUMPDEST PUSH2 0xEDE JUMP JUMPDEST PUSH2 0x7D9 JUMP JUMPDEST SWAP1 POP SWAP2 SWAP1 POP JUMP JUMPDEST PUSH1 0x0 DUP2 SWAP1 POP SWAP2 SWAP1 POP JUMP JUMPDEST PUSH2 0xF1D DUP4 PUSH2 0xEE8 JUMP JUMPDEST PUSH2 0xF31 PUSH2 0xF29 DUP3 PUSH2 0xF0A JUMP JUMPDEST DUP5 DUP5 SLOAD PUSH2 0xE8C JUMP JUMPDEST DUP3 SSTORE POP POP POP POP JUMP JUMPDEST PUSH1 0x0 SWAP1 JUMP JUMPDEST PUSH2 0xF46 PUSH2 0xF39 JUMP JUMPDEST PUSH2 0xF51 DUP2 DUP5 DUP5 PUSH2 0xF14 JUMP JUMPDEST POP POP POP JUMP JUMPDEST JUMPDEST DUP2 DUP2 LT ISZERO PUSH2 0xF75 JUMPI PUSH2 0xF6A PUSH1 0x0 DUP3 PUSH2 0xF3E JUMP JUMPDEST PUSH1 0x1 DUP2 ADD SWAP1 POP PUSH2 0xF57 JUMP JUMPDEST POP POP JUMP JUMPDEST PUSH1 0x1F DUP3 GT ISZERO PUSH2 0xFBA JUMPI PUSH2 0xF8B DUP2 PUSH2 0xE5A JUMP JUMPDEST PUSH2 0xF94 DUP5 PUSH2 0xE6F JUMP JUMPDEST DUP2 ADD PUSH1 0x20 DUP6 LT ISZERO PUSH2 0xFA3 JUMPI DUP2 SWAP1 POP JUMPDEST PUSH2 0xFB7 PUSH2 0xFAF DUP6 PUSH2 0xE6F JUMP JUMPDEST DUP4 ADD DUP3 PUSH2 0xF56 JUMP JUMPDEST POP POP JUMPDEST POP POP POP JUMP JUMPDEST PUSH1 0x0 DUP3 DUP3 SHR SWAP1 POP SWAP3 SWAP2 POP POP JUMP JUMPDEST PUSH1 0x0 PUSH2 0xFDD PUSH1 0x0 NOT DUP5 PUSH1 0x8 MUL PUSH2 0xFBF JUMP JUMPDEST NOT DUP1 DUP4 AND SWAP2 POP POP SWAP3 SWAP2 POP POP JUMP JUMPDEST PUSH1 0x0 PUSH2 0xFF6 DUP4 DUP4 PUSH2 0xFCC JUMP JUMPDEST SWAP2 POP DUP3 PUSH1 0x2 MUL DUP3 OR SWAP1 POP SWAP3 SWAP2 POP POP JUMP JUMPDEST PUSH2 0x100F DUP3 PUSH2 0x83C JUMP JUMPDEST PUSH8 0xFFFFFFFFFFFFFFFF DUP2 GT ISZERO PUSH2 0x1028 JUMPI PUSH2 0x1027 PUSH2 0x9E5 JUMP JUMPDEST JUMPDEST PUSH2 0x1032 DUP3 SLOAD PUSH2 0xBE1 JUMP JUMPDEST PUSH2 0x103D DUP3 DUP3 DUP6 PUSH2 0xF79 JUMP JUMPDEST PUSH1 0x0 PUSH1 0x20 SWAP1 POP PUSH1 0x1F DUP4 GT PUSH1 0x1 DUP2 EQ PUSH2 0x1070 JUMPI PUSH1 0x0 DUP5 ISZERO PUSH2 0x105E JUMPI DUP3 DUP8 ADD MLOAD SWAP1 POP JUMPDEST PUSH2 0x1068 DUP6 DUP3 PUSH2 0xFEA JUMP JUMPDEST DUP7 SSTORE POP PUSH2 0x10D0 JUMP JUMPDEST PUSH1 0x1F NOT DUP5 AND PUSH2 0x107E DUP7 PUSH2 0xE5A JUMP JUMPDEST PUSH1 0x0 JUMPDEST DUP3 DUP2 LT ISZERO PUSH2 0x10A6 JUMPI DUP5 DUP10 ADD MLOAD DUP3 SSTORE PUSH1 0x1 DUP3 ADD SWAP2 POP PUSH1 0x20 DUP6 ADD SWAP5 POP PUSH1 0x20 DUP2 ADD SWAP1 POP PUSH2 0x1081 JUMP JUMPDEST DUP7 DUP4 LT ISZERO PUSH2 0x10C3 JUMPI DUP5 DUP10 ADD MLOAD PUSH2 0x10BF PUSH1 0x1F DUP10 AND DUP3 PUSH2 0xFCC JUMP JUMPDEST DUP4 SSTORE POP JUMPDEST PUSH1 0x1 PUSH1 0x2 DUP9 MUL ADD DUP9 SSTORE POP POP POP JUMPDEST POP POP POP POP POP POP JUMP JUMPDEST PUSH1 0x0 PUSH1 0x60 DUP3 ADD SWAP1 POP PUSH2 0x10ED PUSH1 0x0 DUP4 ADD DUP7 PUSH2 0x8CC JUMP JUMPDEST DUP2 DUP2 SUB PUSH1 0x20 DUP4 ADD MSTORE PUSH2 0x10FF DUP2 DUP6 PUSH2 0x893 JUMP JUMPDEST SWAP1 POP PUSH2 0x110E PUSH1 0x40 DUP4 ADD DUP5 PUSH2 0x8CC JUMP JUMPDEST SWAP5 SWAP4 POP POP POP POP JUMP INVALID LOG2 PUSH5 0x6970667358 0x22 SLT KECCAK256 MSTORE8 SWAP11 0xF GAS 0xC3 DIFFICULTY 0xDC CREATE 0xC1 0xD8 POP PUSH19 0x4974B75C351F68A2F9F38B87D33571C3954C1E 0x4A PUSH5 0x736F6C6343 STOP ADDMOD GT STOP CALLER "
				},
				"gasEstimates": {
					"creation": {
						"codeDepositCost": "885600",
						"executionCost": "infinite",
						"totalCost": "infinite"
					},
					"external": {
						"createRandomZombie(string)": "infinite",
						"owner()": "2588",
						"renounceOwnership()": "30420",
						"transferOwnership(address)": "30832",
						"zombieToOwner(uint256)": "2839",
						"zombies(uint256)": "infinite"
					},
					"internal": {
						"_createZombie(string memory,uint256)": "infinite",
						"_generateRandomDna(string memory)": "infinite"
					}
				},
				"methodIdentifiers": {
					"createRandomZombie(string)": "7bff0a01",
					"owner()": "8da5cb5b",
					"renounceOwnership()": "715018a6",
					"transferOwnership(address)": "f2fde38b",
					"zombieToOwner(uint256)": "528b7b8f",
					"zombies(uint256)": "2052465e"
				}
			},
			"storageLayout": {
				"storage": [
					{
						"astId": 7,
						"contract": "contracts/ZombieFactory.sol:ZombieFactory",
						"label": "_owner",
						"offset": 0,
						"slot": "0",
						"type": "t_address"
					},
					{
						"astId": 465,
						"contract": "contracts/ZombieFactory.sol:ZombieFactory",
						"label": "dnaDigits",
						"offset": 0,
						"slot": "1",
						"type": "t_uint256"
					},
					{
						"astId": 470,
						"contract": "contracts/ZombieFactory.sol:ZombieFactory",
						"label": "dnaModulus",
						"offset": 0,
						"slot": "2",
						"type": "t_uint256"
					},
					{
						"astId": 473,
						"contract": "contracts/ZombieFactory.sol:ZombieFactory",
						"label": "cooldownTime",
						"offset": 0,
						"slot": "3",
						"type": "t_uint256"
					},
					{
						"astId": 490,
						"contract": "contracts/ZombieFactory.sol:ZombieFactory",
						"label": "zombies",
						"offset": 0,
						"slot": "4",
						"type": "t_array(t_struct(Zombie)486_storage)dyn_storage"
					},
					{
						"astId": 494,
						"contract": "contracts/ZombieFactory.sol:ZombieFactory",
						"label": "zombieToOwner",
						"offset": 0,
						"slot": "5",
						"type": "t_mapping(t_uint256,t_address)"
					},
					{
						"astId": 498,
						"contract": "contracts/ZombieFactory.sol:ZombieFactory",
						"label": "ownerZombieCount",
						"offset": 0,
						"slot": "6",
						"type": "t_mapping(t_address,t_uint256)"
					}
				],
				"types": {
					"t_address": {
						"encoding": "inplace",
						"label": "address",
						"numberOfBytes": "20"
					},
					"t_array(t_struct(Zombie)486_storage)dyn_storage": {
						"base": "t_struct(Zombie)486_storage",
						"encoding": "dynamic_array",
						"label": "struct ZombieFactory.Zombie[]",
						"numberOfBytes": "32"
					},
					"t_mapping(t_address,t_uint256)": {
						"encoding": "mapping",
						"key": "t_address",
						"label": "mapping(address => uint256)",
						"numberOfBytes": "32",
						"value": "t_uint256"
					},
					"t_mapping(t_uint256,t_address)": {
						"encoding": "mapping",
						"key": "t_uint256",
						"label": "mapping(uint256 => address)",
						"numberOfBytes": "32",
						"value": "t_address"
					},
					"t_string_storage": {
						"encoding": "bytes",
						"label": "string",
						"numberOfBytes": "32"
					},
					"t_struct(Zombie)486_storage": {
						"encoding": "inplace",
						"label": "struct ZombieFactory.Zombie",
						"members": [
							{
								"astId": 475,
								"contract": "contracts/ZombieFactory.sol:ZombieFactory",
								"label": "name",
								"offset": 0,
								"slot": "0",
								"type": "t_string_storage"
							},
							{
								"astId": 477,
								"contract": "contracts/ZombieFactory.sol:ZombieFactory",
								"label": "dna",
								"offset": 0,
								"slot": "1",
								"type": "t_uint256"
							},
							{
								"astId": 479,
								"contract": "contracts/ZombieFactory.sol:ZombieFactory",
								"label": "level",
								"offset": 0,
								"slot": "2",
								"type": "t_uint32"
							},
							{
								"astId": 481,
								"contract": "contracts/ZombieFactory.sol:ZombieFactory",
								"label": "readyTime",
								"offset": 4,
								"slot": "2",
								"type": "t_uint32"
							},
							{
								"astId": 483,
								"contract": "contracts/ZombieFactory.sol:ZombieFactory",
								"label": "winCount",
								"offset": 8,
								"slot": "2",
								"type": "t_uint16"
							},
							{
								"astId": 485,
								"contract": "contracts/ZombieFactory.sol:ZombieFactory",
								"label": "lossCount",
								"offset": 10,
								"slot": "2",
								"type": "t_uint16"
							}
						],
						"numberOfBytes": "96"
					},
					"t_uint16": {
						"encoding": "inplace",
						"label": "uint16",
						"numberOfBytes": "2"
					},
					"t_uint256": {
						"encoding": "inplace",
						"label": "uint256",
						"numberOfBytes": "32"
					},
					"t_uint32": {
						"encoding": "inplace",
						"label": "uint32",
						"numberOfBytes": "4"
					}
				}
			},
			"userdoc": {
				"kind": "user",
				"methods": {},
				"version": 1
			}
		}
	}
}