{
	"data": {
		"bytecode": {
			"linkReferences": {},
			"object": "60806040526010600155600154600a6200001a9190620002c6565b6002556201518060035566038d7ea4c6800060085560006009556046600a553480156200004657600080fd5b50620000676200005b6200006d60201b60201c565b6200007560201b60201c565b62000317565b600033905090565b60008060009054906101000a900473ffffffffffffffffffffffffffffffffffffffff169050816000806101000a81548173ffffffffffffffffffffffffffffffffffffffff021916908373ffffffffffffffffffffffffffffffffffffffff1602179055508173ffffffffffffffffffffffffffffffffffffffff168173ffffffffffffffffffffffffffffffffffffffff167f8be0079c531659141344cd1fd0a4f28419497f9722a3daafe3b4186f6b6457e060405160405180910390a35050565b7f4e487b7100000000000000000000000000000000000000000000000000000000600052601160045260246000fd5b60008160011c9050919050565b6000808291508390505b6001851115620001c7578086048111156200019f576200019e62000139565b5b6001851615620001af5780820291505b8081029050620001bf8562000168565b94506200017f565b94509492505050565b600082620001e25760019050620002b5565b81620001f25760009050620002b5565b81600181146200020b576002811462000216576200024c565b6001915050620002b5565b60ff8411156200022b576200022a62000139565b5b8360020a91508482111562000245576200024462000139565b5b50620002b5565b5060208310610133831016604e8410600b8410161715620002865782820a90508381111562000280576200027f62000139565b5b620002b5565b62000295848484600162000175565b92509050818404811115620002af57620002ae62000139565b5b81810290505b9392505050565b6000819050919050565b6000620002d382620002bc565b9150620002e083620002bc565b92506200030f7fffffffffffffffffffffffffffffffffffffffffffffffffffffffffffffffff8484620001d0565b905092915050565b61298e80620003276000396000f3fe6080604052600436106101145760003560e01c80635faf2880116100a05780638da5cb5b116100645780638da5cb5b14610375578063c39cbef1146103a0578063ccf670f8146103c9578063e1fa7638146103f2578063f2fde38b1461041b57610114565b80635faf2880146102925780636352211e146102bb57806370a08231146102f8578063715018a6146103355780637bff0a011461034c57610114565b806323b872dd116100e757806323b872dd146101bc5780633ccfd60b146101d85780634412e104146101ef578063528b7b8f1461022c5780635f4623f11461026957610114565b8063095ea7b3146101195780630ce90ec21461013557806317a7f4cc146101515780632052465e1461017a575b600080fd5b610133600480360381019061012e9190611a6b565b610444565b005b61014f600480360381019061014a9190611aab565b610562565b005b34801561015d57600080fd5b5061017860048036038101906101739190611ad8565b610605565b005b34801561018657600080fd5b506101a1600480360381019061019c9190611aab565b610723565b6040516101b396959493929190611bf3565b60405180910390f35b6101d660048036038101906101d19190611c5b565b610833565b005b3480156101e457600080fd5b506101ed610917565b005b3480156101fb57600080fd5b5061021660048036038101906102119190611cae565b610975565b6040516102239190611d99565b60405180910390f35b34801561023857600080fd5b50610253600480360381019061024e9190611aab565b610acf565b6040516102609190611dca565b60405180910390f35b34801561027557600080fd5b50610290600480360381019061028b9190611cae565b610b02565b005b34801561029e57600080fd5b506102b960048036038101906102b49190611ad8565b610b4e565b005b3480156102c757600080fd5b506102e260048036038101906102dd9190611aab565b610c36565b6040516102ef9190611dca565b60405180910390f35b34801561030457600080fd5b5061031f600480360381019061031a9190611cae565b610c73565b60405161032c9190611de5565b60405180910390f35b34801561034157600080fd5b5061034a610cbc565b005b34801561035857600080fd5b50610373600480360381019061036e9190611f35565b610cd0565b005b34801561038157600080fd5b5061038a610d51565b6040516103979190611dca565b60405180910390f35b3480156103ac57600080fd5b506103c760048036038101906103c29190611fde565b610d7a565b005b3480156103d557600080fd5b506103f060048036038101906103eb9190611aab565b610e6e565b005b3480156103fe57600080fd5b5061041960048036038101906104149190611ad8565b610e80565b005b34801561042757600080fd5b50610442600480360381019061043d9190611cae565b61111a565b005b806005600082815260200190815260200160002060009054906101000a900473ffffffffffffffffffffffffffffffffffffffff1673ffffffffffffffffffffffffffffffffffffffff163373ffffffffffffffffffffffffffffffffffffffff16146104b057600080fd5b82600b600084815260200190815260200160002060006101000a81548173ffffffffffffffffffffffffffffffffffffffff021916908373ffffffffffffffffffffffffffffffffffffffff160217905550818373ffffffffffffffffffffffffffffffffffffffff163373ffffffffffffffffffffffffffffffffffffffff167f8c5be1e5ebec7d5bd14f71427d1e84f3dd0314c0f7b2291e5b200ac8c7c3b92560405160405180910390a4505050565b600854341461057057600080fd5b6105bf6001600483815481106105895761058861203e565b5b906000526020600020906003020160020160009054906101000a900463ffffffff1663ffffffff1661119d90919063ffffffff16565b600482815481106105d3576105d261203e565b5b906000526020600020906003020160020160006101000a81548163ffffffff021916908363ffffffff16021790555050565b6000600760009054906101000a900473ffffffffffffffffffffffffffffffffffffffff1673ffffffffffffffffffffffffffffffffffffffff1663e98b7f4d836040518263ffffffff1660e01b81526004016106629190611de5565b61014060405180830381865afa158015610680573d6000803e3d6000fd5b505050506040513d601f19601f820116820180604052508101906106a491906120ba565b9091929394959697985090919293949596975090919293949596509091929394955090919293945090919293509091925090915090508091505061071e83826040518060400160405280600581526020017f6b697474790000000000000000000000000000000000000000000000000000008152506111b3565b505050565b6004818154811061073357600080fd5b9060005260206000209060030201600091509050806000018054610756906121c8565b80601f0160208091040260200160405190810160405280929190818152602001828054610782906121c8565b80156107cf5780601f106107a4576101008083540402835291602001916107cf565b820191906000526020600020905b8154815290600101906020018083116107b257829003601f168201915b5050505050908060010154908060020160009054906101000a900463ffffffff16908060020160049054906101000a900463ffffffff16908060020160089054906101000a900461ffff169080600201600a9054906101000a900461ffff16905086565b3373ffffffffffffffffffffffffffffffffffffffff166005600083815260200190815260200160002060009054906101000a900473ffffffffffffffffffffffffffffffffffffffff1673ffffffffffffffffffffffffffffffffffffffff1614806108fe57503373ffffffffffffffffffffffffffffffffffffffff16600b600083815260200190815260200160002060009054906101000a900473ffffffffffffffffffffffffffffffffffffffff1673ffffffffffffffffffffffffffffffffffffffff16145b61090757600080fd5b61091283838361133d565b505050565b61091f61151b565b6000610929610d51565b90508073ffffffffffffffffffffffffffffffffffffffff166108fc479081150290604051600060405180830381858888f19350505050158015610971573d6000803e3d6000fd5b5050565b60606000600660008473ffffffffffffffffffffffffffffffffffffffff1673ffffffffffffffffffffffffffffffffffffffff1681526020019081526020016000205467ffffffffffffffff8111156109d2576109d1611e0a565b5b604051908082528060200260200182016040528015610a005781602001602082028036833780820191505090505b5090506000805b600480549050811015610ac4578473ffffffffffffffffffffffffffffffffffffffff166005600083815260200190815260200160002060009054906101000a900473ffffffffffffffffffffffffffffffffffffffff1673ffffffffffffffffffffffffffffffffffffffff1603610ab15780838381518110610a8e57610a8d61203e565b5b602002602001018181525050610aae60018361119d90919063ffffffff16565b91505b8080610abc90612228565b915050610a07565b508192505050919050565b60056020528060005260406000206000915054906101000a900473ffffffffffffffffffffffffffffffffffffffff1681565b610b0a61151b565b80600760006101000a81548173ffffffffffffffffffffffffffffffffffffffff021916908373ffffffffffffffffffffffffffffffffffffffff16021790555050565b6014828160048281548110610b6657610b6561203e565b5b906000526020600020906003020160020160009054906101000a900463ffffffff1663ffffffff161015610b9957600080fd5b836005600082815260200190815260200160002060009054906101000a900473ffffffffffffffffffffffffffffffffffffffff1673ffffffffffffffffffffffffffffffffffffffff163373ffffffffffffffffffffffffffffffffffffffff1614610c0557600080fd5b8360048681548110610c1a57610c1961203e565b5b9060005260206000209060030201600101819055505050505050565b60006005600083815260200190815260200160002060009054906101000a900473ffffffffffffffffffffffffffffffffffffffff169050919050565b6000600660008373ffffffffffffffffffffffffffffffffffffffff1673ffffffffffffffffffffffffffffffffffffffff168152602001908152602001600020549050919050565b610cc461151b565b610cce6000611599565b565b6000600660003373ffffffffffffffffffffffffffffffffffffffff1673ffffffffffffffffffffffffffffffffffffffff1681526020019081526020016000205414610d1c57600080fd5b6000610d278261165d565b9050606481610d36919061229f565b81610d4191906122d0565b9050610d4d82826116a2565b5050565b60008060009054906101000a900473ffffffffffffffffffffffffffffffffffffffff16905090565b6002838160048281548110610d9257610d9161203e565b5b906000526020600020906003020160020160009054906101000a900463ffffffff1663ffffffff161015610dc557600080fd5b846005600082815260200190815260200160002060009054906101000a900473ffffffffffffffffffffffffffffffffffffffff1673ffffffffffffffffffffffffffffffffffffffff163373ffffffffffffffffffffffffffffffffffffffff1614610e3157600080fd5b848460048881548110610e4757610e4661203e565b5b90600052602060002090600302016000019182610e659291906124bb565b50505050505050565b610e7661151b565b8060088190555050565b816005600082815260200190815260200160002060009054906101000a900473ffffffffffffffffffffffffffffffffffffffff1673ffffffffffffffffffffffffffffffffffffffff163373ffffffffffffffffffffffffffffffffffffffff1614610eec57600080fd5b600060048481548110610f0257610f0161203e565b5b90600052602060002090600302019050600060048481548110610f2857610f2761203e565b5b906000526020600020906003020190506000610f446064611912565b9050600a54811161107857610f7960018460020160089054906101000a900461ffff1661ffff1661119d90919063ffffffff16565b8360020160086101000a81548161ffff021916908361ffff160217905550610fc560018460020160009054906101000a900463ffffffff1663ffffffff1661119d90919063ffffffff16565b8360020160006101000a81548163ffffffff021916908363ffffffff160217905550611011600183600201600a9054906101000a900461ffff1661ffff1661119d90919063ffffffff16565b82600201600a6101000a81548161ffff021916908361ffff1602179055506110738683600101546040518060400160405280600681526020017f7a6f6d62696500000000000000000000000000000000000000000000000000008152506111b3565b611112565b6110a2600184600201600a9054906101000a900461ffff1661ffff1661119d90919063ffffffff16565b83600201600a6101000a81548161ffff021916908361ffff1602179055506110ea60018360020160089054906101000a900461ffff1661ffff1661119d90919063ffffffff16565b8260020160086101000a81548161ffff021916908361ffff16021790555061111183611972565b5b505050505050565b61112261151b565b600073ffffffffffffffffffffffffffffffffffffffff168173ffffffffffffffffffffffffffffffffffffffff1603611191576040517f08c379a0000000000000000000000000000000000000000000000000000000008152600401611188906125fd565b60405180910390fd5b61119a81611599565b50565b600081836111ab919061261d565b905092915050565b826005600082815260200190815260200160002060009054906101000a900473ffffffffffffffffffffffffffffffffffffffff1673ffffffffffffffffffffffffffffffffffffffff163373ffffffffffffffffffffffffffffffffffffffff161461121f57600080fd5b6000600485815481106112355761123461203e565b5b9060005260206000209060030201905060025484611253919061229f565b935060006002858360010154611269919061261d565b6112739190612651565b9050604051602001611284906126d9565b60405160208183030381529060405280519060200120846040516020016112ab919061271f565b60405160208183030381529060405280519060200120036112ed5760636064826112d5919061229f565b826112e091906122d0565b6112ea919061261d565b90505b61132c6040518060400160405280600681526020017f4e6f4e616d650000000000000000000000000000000000000000000000000000815250826116a2565b61133582611972565b505050505050565b6113906001600660008573ffffffffffffffffffffffffffffffffffffffff1673ffffffffffffffffffffffffffffffffffffffff1681526020019081526020016000205461119d90919063ffffffff16565b600660008473ffffffffffffffffffffffffffffffffffffffff1673ffffffffffffffffffffffffffffffffffffffff168152602001908152602001600020819055506114266001600660008673ffffffffffffffffffffffffffffffffffffffff1673ffffffffffffffffffffffffffffffffffffffff168152602001908152602001600020546119a590919063ffffffff16565b600660008573ffffffffffffffffffffffffffffffffffffffff1673ffffffffffffffffffffffffffffffffffffffff16815260200190815260200160002081905550816005600083815260200190815260200160002060006101000a81548173ffffffffffffffffffffffffffffffffffffffff021916908373ffffffffffffffffffffffffffffffffffffffff160217905550808273ffffffffffffffffffffffffffffffffffffffff168473ffffffffffffffffffffffffffffffffffffffff167fddf252ad1be2c89b69c2b068fc378daa952ba7f163c4a11628f55a4df523b3ef60405160405180910390a4505050565b6115236119bb565b73ffffffffffffffffffffffffffffffffffffffff16611541610d51565b73ffffffffffffffffffffffffffffffffffffffff1614611597576040517f08c379a000000000000000000000000000000000000000000000000000000000815260040161158e90612782565b60405180910390fd5b565b60008060009054906101000a900473ffffffffffffffffffffffffffffffffffffffff169050816000806101000a81548173ffffffffffffffffffffffffffffffffffffffff021916908373ffffffffffffffffffffffffffffffffffffffff1602179055508173ffffffffffffffffffffffffffffffffffffffff168173ffffffffffffffffffffffffffffffffffffffff167f8be0079c531659141344cd1fd0a4f28419497f9722a3daafe3b4186f6b6457e060405160405180910390a35050565b60008082604051602001611671919061271f565b6040516020818303038152906040528051906020012060001c90506002548161169a919061229f565b915050919050565b60046040518060c00160405280848152602001838152602001600163ffffffff168152602001600354426116d6919061261d565b63ffffffff168152602001600061ffff168152602001600061ffff168152509080600181540180825580915050600190039060005260206000209060030201600090919091909150600082015181600001908161173391906127a2565b506020820151816001015560408201518160020160006101000a81548163ffffffff021916908363ffffffff16021790555060608201518160020160046101000a81548163ffffffff021916908363ffffffff16021790555060808201518160020160086101000a81548161ffff021916908361ffff16021790555060a082015181600201600a6101000a81548161ffff021916908361ffff1602179055505050600060016004805490506117e891906122d0565b9050336005600083815260200190815260200160002060006101000a81548173ffffffffffffffffffffffffffffffffffffffff021916908373ffffffffffffffffffffffffffffffffffffffff16021790555061188f6001600660003373ffffffffffffffffffffffffffffffffffffffff1673ffffffffffffffffffffffffffffffffffffffff1681526020019081526020016000205461119d90919063ffffffff16565b600660003373ffffffffffffffffffffffffffffffffffffffff1673ffffffffffffffffffffffffffffffffffffffff168152602001908152602001600020819055507f88f026aacbbecc90c18411df4b1185fd8d9be2470f1962f192bf84a27d0704b781848460405161190593929190612874565b60405180910390a1505050565b600061192a600160095461119d90919063ffffffff16565b6009819055508142336009546040516020016119489392919061291b565b6040516020818303038152906040528051906020012060001c61196b919061229f565b9050919050565b60035442611980919061261d565b8160020160046101000a81548163ffffffff021916908363ffffffff16021790555050565b600081836119b391906122d0565b905092915050565b600033905090565b6000604051905090565b600080fd5b600080fd5b600073ffffffffffffffffffffffffffffffffffffffff82169050919050565b6000611a02826119d7565b9050919050565b611a12816119f7565b8114611a1d57600080fd5b50565b600081359050611a2f81611a09565b92915050565b6000819050919050565b611a4881611a35565b8114611a5357600080fd5b50565b600081359050611a6581611a3f565b92915050565b60008060408385031215611a8257611a816119cd565b5b6000611a9085828601611a20565b9250506020611aa185828601611a56565b9150509250929050565b600060208284031215611ac157611ac06119cd565b5b6000611acf84828501611a56565b91505092915050565b60008060408385031215611aef57611aee6119cd565b5b6000611afd85828601611a56565b9250506020611b0e85828601611a56565b9150509250929050565b600081519050919050565b600082825260208201905092915050565b60005b83811015611b52578082015181840152602081019050611b37565b60008484015250505050565b6000601f19601f8301169050919050565b6000611b7a82611b18565b611b848185611b23565b9350611b94818560208601611b34565b611b9d81611b5e565b840191505092915050565b611bb181611a35565b82525050565b600063ffffffff82169050919050565b611bd081611bb7565b82525050565b600061ffff82169050919050565b611bed81611bd6565b82525050565b600060c0820190508181036000830152611c0d8189611b6f565b9050611c1c6020830188611ba8565b611c296040830187611bc7565b611c366060830186611bc7565b611c436080830185611be4565b611c5060a0830184611be4565b979650505050505050565b600080600060608486031215611c7457611c736119cd565b5b6000611c8286828701611a20565b9350506020611c9386828701611a20565b9250506040611ca486828701611a56565b9150509250925092565b600060208284031215611cc457611cc36119cd565b5b6000611cd284828501611a20565b91505092915050565b600081519050919050565b600082825260208201905092915050565b6000819050602082019050919050565b611d1081611a35565b82525050565b6000611d228383611d07565b60208301905092915050565b6000602082019050919050565b6000611d4682611cdb565b611d508185611ce6565b9350611d5b83611cf7565b8060005b83811015611d8c578151611d738882611d16565b9750611d7e83611d2e565b925050600181019050611d5f565b5085935050505092915050565b60006020820190508181036000830152611db38184611d3b565b905092915050565b611dc4816119f7565b82525050565b6000602082019050611ddf6000830184611dbb565b92915050565b6000602082019050611dfa6000830184611ba8565b92915050565b600080fd5b600080fd5b7f4e487b7100000000000000000000000000000000000000000000000000000000600052604160045260246000fd5b611e4282611b5e565b810181811067ffffffffffffffff82111715611e6157611e60611e0a565b5b80604052505050565b6000611e746119c3565b9050611e808282611e39565b919050565b600067ffffffffffffffff821115611ea057611e9f611e0a565b5b611ea982611b5e565b9050602081019050919050565b82818337600083830152505050565b6000611ed8611ed384611e85565b611e6a565b905082815260208101848484011115611ef457611ef3611e05565b5b611eff848285611eb6565b509392505050565b600082601f830112611f1c57611f1b611e00565b5b8135611f2c848260208601611ec5565b91505092915050565b600060208284031215611f4b57611f4a6119cd565b5b600082013567ffffffffffffffff811115611f6957611f686119d2565b5b611f7584828501611f07565b91505092915050565b600080fd5b600080fd5b60008083601f840112611f9e57611f9d611e00565b5b8235905067ffffffffffffffff811115611fbb57611fba611f7e565b5b602083019150836001820283011115611fd757611fd6611f83565b5b9250929050565b600080600060408486031215611ff757611ff66119cd565b5b600061200586828701611a56565b935050602084013567ffffffffffffffff811115612026576120256119d2565b5b61203286828701611f88565b92509250509250925092565b7f4e487b7100000000000000000000000000000000000000000000000000000000600052603260045260246000fd5b60008115159050919050565b6120828161206d565b811461208d57600080fd5b50565b60008151905061209f81612079565b92915050565b6000815190506120b481611a3f565b92915050565b6000806000806000806000806000806101408b8d0312156120de576120dd6119cd565b5b60006120ec8d828e01612090565b9a505060206120fd8d828e01612090565b995050604061210e8d828e016120a5565b985050606061211f8d828e016120a5565b97505060806121308d828e016120a5565b96505060a06121418d828e016120a5565b95505060c06121528d828e016120a5565b94505060e06121638d828e016120a5565b9350506101006121758d828e016120a5565b9250506101206121878d828e016120a5565b9150509295989b9194979a5092959850565b7f4e487b7100000000000000000000000000000000000000000000000000000000600052602260045260246000fd5b600060028204905060018216806121e057607f821691505b6020821081036121f3576121f2612199565b5b50919050565b7f4e487b7100000000000000000000000000000000000000000000000000000000600052601160045260246000fd5b600061223382611a35565b91507fffffffffffffffffffffffffffffffffffffffffffffffffffffffffffffffff8203612265576122646121f9565b5b600182019050919050565b7f4e487b7100000000000000000000000000000000000000000000000000000000600052601260045260246000fd5b60006122aa82611a35565b91506122b583611a35565b9250826122c5576122c4612270565b5b828206905092915050565b60006122db82611a35565b91506122e683611a35565b92508282039050818111156122fe576122fd6121f9565b5b92915050565b600082905092915050565b60008190508160005260206000209050919050565b60006020601f8301049050919050565b600082821b905092915050565b6000600883026123717fffffffffffffffffffffffffffffffffffffffffffffffffffffffffffffffff82612334565b61237b8683612334565b95508019841693508086168417925050509392505050565b6000819050919050565b60006123b86123b36123ae84611a35565b612393565b611a35565b9050919050565b6000819050919050565b6123d28361239d565b6123e66123de826123bf565b848454612341565b825550505050565b600090565b6123fb6123ee565b6124068184846123c9565b505050565b5b8181101561242a5761241f6000826123f3565b60018101905061240c565b5050565b601f82111561246f576124408161230f565b61244984612324565b81016020851015612458578190505b61246c61246485612324565b83018261240b565b50505b505050565b600082821c905092915050565b600061249260001984600802612474565b1980831691505092915050565b60006124ab8383612481565b9150826002028217905092915050565b6124c58383612304565b67ffffffffffffffff8111156124de576124dd611e0a565b5b6124e882546121c8565b6124f382828561242e565b6000601f8311600181146125225760008415612510578287013590505b61251a858261249f565b865550612582565b601f1984166125308661230f565b60005b8281101561255857848901358255600182019150602085019450602081019050612533565b868310156125755784890135612571601f891682612481565b8355505b6001600288020188555050505b50505050505050565b7f4f776e61626c653a206e6577206f776e657220697320746865207a65726f206160008201527f6464726573730000000000000000000000000000000000000000000000000000602082015250565b60006125e7602683611b23565b91506125f28261258b565b604082019050919050565b60006020820190508181036000830152612616816125da565b9050919050565b600061262882611a35565b915061263383611a35565b925082820190508082111561264b5761264a6121f9565b5b92915050565b600061265c82611a35565b915061266783611a35565b92508261267757612676612270565b5b828204905092915050565b600081905092915050565b7f6b69747479000000000000000000000000000000000000000000000000000000600082015250565b60006126c3600583612682565b91506126ce8261268d565b600582019050919050565b60006126e4826126b6565b9150819050919050565b60006126f982611b18565b6127038185612682565b9350612713818560208601611b34565b80840191505092915050565b600061272b82846126ee565b915081905092915050565b7f4f776e61626c653a2063616c6c6572206973206e6f7420746865206f776e6572600082015250565b600061276c602083611b23565b915061277782612736565b602082019050919050565b6000602082019050818103600083015261279b8161275f565b9050919050565b6127ab82611b18565b67ffffffffffffffff8111156127c4576127c3611e0a565b5b6127ce82546121c8565b6127d982828561242e565b600060209050601f83116001811461280c57600084156127fa578287015190505b612804858261249f565b86555061286c565b601f19841661281a8661230f565b60005b828110156128425784890151825560018201915060208501945060208101905061281d565b8683101561285f578489015161285b601f891682612481565b8355505b6001600288020188555050505b505050505050565b60006060820190506128896000830186611ba8565b818103602083015261289b8185611b6f565b90506128aa6040830184611ba8565b949350505050565b6000819050919050565b6128cd6128c882611a35565b6128b2565b82525050565b60008160601b9050919050565b60006128eb826128d3565b9050919050565b60006128fd826128e0565b9050919050565b612915612910826119f7565b6128f2565b82525050565b600061292782866128bc565b6020820191506129378285612904565b60148201915061294782846128bc565b60208201915081905094935050505056fea26469706673582212202216a78822ad4b909754a9b328aa335a11bcbc08ad8b1e5a8ce51334c007315964736f6c63430008110033",
			"opcodes": "PUSH1 0x80 PUSH1 0x40 MSTORE PUSH1 0x10 PUSH1 0x1 SSTORE PUSH1 0x1 SLOAD PUSH1 0xA PUSH3 0x1A SWAP2 SWAP1 PUSH3 0x2C6 JUMP JUMPDEST PUSH1 0x2 SSTORE PUSH3 0x15180 PUSH1 0x3 SSTORE PUSH7 0x38D7EA4C68000 PUSH1 0x8 SSTORE PUSH1 0x0 PUSH1 0x9 SSTORE PUSH1 0x46 PUSH1 0xA SSTORE CALLVALUE DUP1 ISZERO PUSH3 0x46 JUMPI PUSH1 0x0 DUP1 REVERT JUMPDEST POP PUSH3 0x67 PUSH3 0x5B PUSH3 0x6D PUSH1 0x20 SHL PUSH1 0x20 SHR JUMP JUMPDEST PUSH3 0x75 PUSH1 0x20 SHL PUSH1 0x20 SHR JUMP JUMPDEST PUSH3 0x317 JUMP JUMPDEST PUSH1 0x0 CALLER SWAP1 POP SWAP1 JUMP JUMPDEST PUSH1 0x0 DUP1 PUSH1 0x0 SWAP1 SLOAD SWAP1 PUSH2 0x100 EXP SWAP1 DIV PUSH20 0xFFFFFFFFFFFFFFFFFFFFFFFFFFFFFFFFFFFFFFFF AND SWAP1 POP DUP2 PUSH1 0x0 DUP1 PUSH2 0x100 EXP DUP2 SLOAD DUP2 PUSH20 0xFFFFFFFFFFFFFFFFFFFFFFFFFFFFFFFFFFFFFFFF MUL NOT AND SWAP1 DUP4 PUSH20 0xFFFFFFFFFFFFFFFFFFFFFFFFFFFFFFFFFFFFFFFF AND MUL OR SWAP1 SSTORE POP DUP2 PUSH20 0xFFFFFFFFFFFFFFFFFFFFFFFFFFFFFFFFFFFFFFFF AND DUP2 PUSH20 0xFFFFFFFFFFFFFFFFFFFFFFFFFFFFFFFFFFFFFFFF AND PUSH32 0x8BE0079C531659141344CD1FD0A4F28419497F9722A3DAAFE3B4186F6B6457E0 PUSH1 0x40 MLOAD PUSH1 0x40 MLOAD DUP1 SWAP2 SUB SWAP1 LOG3 POP POP JUMP JUMPDEST PUSH32 0x4E487B7100000000000000000000000000000000000000000000000000000000 PUSH1 0x0 MSTORE PUSH1 0x11 PUSH1 0x4 MSTORE PUSH1 0x24 PUSH1 0x0 REVERT JUMPDEST PUSH1 0x0 DUP2 PUSH1 0x1 SHR SWAP1 POP SWAP2 SWAP1 POP JUMP JUMPDEST PUSH1 0x0 DUP1 DUP3 SWAP2 POP DUP4 SWAP1 POP JUMPDEST PUSH1 0x1 DUP6 GT ISZERO PUSH3 0x1C7 JUMPI DUP1 DUP7 DIV DUP2 GT ISZERO PUSH3 0x19F JUMPI PUSH3 0x19E PUSH3 0x139 JUMP JUMPDEST JUMPDEST PUSH1 0x1 DUP6 AND ISZERO PUSH3 0x1AF JUMPI DUP1 DUP3 MUL SWAP2 POP JUMPDEST DUP1 DUP2 MUL SWAP1 POP PUSH3 0x1BF DUP6 PUSH3 0x168 JUMP JUMPDEST SWAP5 POP PUSH3 0x17F JUMP JUMPDEST SWAP5 POP SWAP5 SWAP3 POP POP POP JUMP JUMPDEST PUSH1 0x0 DUP3 PUSH3 0x1E2 JUMPI PUSH1 0x1 SWAP1 POP PUSH3 0x2B5 JUMP JUMPDEST DUP2 PUSH3 0x1F2 JUMPI PUSH1 0x0 SWAP1 POP PUSH3 0x2B5 JUMP JUMPDEST DUP2 PUSH1 0x1 DUP2 EQ PUSH3 0x20B JUMPI PUSH1 0x2 DUP2 EQ PUSH3 0x216 JUMPI PUSH3 0x24C JUMP JUMPDEST PUSH1 0x1 SWAP2 POP POP PUSH3 0x2B5 JUMP JUMPDEST PUSH1 0xFF DUP5 GT ISZERO PUSH3 0x22B JUMPI PUSH3 0x22A PUSH3 0x139 JUMP JUMPDEST JUMPDEST DUP4 PUSH1 0x2 EXP SWAP2 POP DUP5 DUP3 GT ISZERO PUSH3 0x245 JUMPI PUSH3 0x244 PUSH3 0x139 JUMP JUMPDEST JUMPDEST POP PUSH3 0x2B5 JUMP JUMPDEST POP PUSH1 0x20 DUP4 LT PUSH2 0x133 DUP4 LT AND PUSH1 0x4E DUP5 LT PUSH1 0xB DUP5 LT AND OR ISZERO PUSH3 0x286 JUMPI DUP3 DUP3 EXP SWAP1 POP DUP4 DUP2 GT ISZERO PUSH3 0x280 JUMPI PUSH3 0x27F PUSH3 0x139 JUMP JUMPDEST JUMPDEST PUSH3 0x2B5 JUMP JUMPDEST PUSH3 0x295 DUP5 DUP5 DUP5 PUSH1 0x1 PUSH3 0x175 JUMP JUMPDEST SWAP3 POP SWAP1 POP DUP2 DUP5 DIV DUP2 GT ISZERO PUSH3 0x2AF JUMPI PUSH3 0x2AE PUSH3 0x139 JUMP JUMPDEST JUMPDEST DUP2 DUP2 MUL SWAP1 POP JUMPDEST SWAP4 SWAP3 POP POP POP JUMP JUMPDEST PUSH1 0x0 DUP2 SWAP1 POP SWAP2 SWAP1 POP JUMP JUMPDEST PUSH1 0x0 PUSH3 0x2D3 DUP3 PUSH3 0x2BC JUMP JUMPDEST SWAP2 POP PUSH3 0x2E0 DUP4 PUSH3 0x2BC JUMP JUMPDEST SWAP3 POP PUSH3 0x30F PUSH32 0xFFFFFFFFFFFFFFFFFFFFFFFFFFFFFFFFFFFFFFFFFFFFFFFFFFFFFFFFFFFFFFFF DUP5 DUP5 PUSH3 0x1D0 JUMP JUMPDEST SWAP1 POP SWAP3 SWAP2 POP POP JUMP JUMPDEST PUSH2 0x298E DUP1 PUSH3 0x327 PUSH1 0x0 CODECOPY PUSH1 0x0 RETURN INVALID PUSH1 0x80 PUSH1 0x40 MSTORE PUSH1 0x4 CALLDATASIZE LT PUSH2 0x114 JUMPI PUSH1 0x0 CALLDATALOAD PUSH1 0xE0 SHR DUP1 PUSH4 0x5FAF2880 GT PUSH2 0xA0 JUMPI DUP1 PUSH4 0x8DA5CB5B GT PUSH2 0x64 JUMPI DUP1 PUSH4 0x8DA5CB5B EQ PUSH2 0x375 JUMPI DUP1 PUSH4 0xC39CBEF1 EQ PUSH2 0x3A0 JUMPI DUP1 PUSH4 0xCCF670F8 EQ PUSH2 0x3C9 JUMPI DUP1 PUSH4 0xE1FA7638 EQ PUSH2 0x3F2 JUMPI DUP1 PUSH4 0xF2FDE38B EQ PUSH2 0x41B JUMPI PUSH2 0x114 JUMP JUMPDEST DUP1 PUSH4 0x5FAF2880 EQ PUSH2 0x292 JUMPI DUP1 PUSH4 0x6352211E EQ PUSH2 0x2BB JUMPI DUP1 PUSH4 0x70A08231 EQ PUSH2 0x2F8 JUMPI DUP1 PUSH4 0x715018A6 EQ PUSH2 0x335 JUMPI DUP1 PUSH4 0x7BFF0A01 EQ PUSH2 0x34C JUMPI PUSH2 0x114 JUMP JUMPDEST DUP1 PUSH4 0x23B872DD GT PUSH2 0xE7 JUMPI DUP1 PUSH4 0x23B872DD EQ PUSH2 0x1BC JUMPI DUP1 PUSH4 0x3CCFD60B EQ PUSH2 0x1D8 JUMPI DUP1 PUSH4 0x4412E104 EQ PUSH2 0x1EF JUMPI DUP1 PUSH4 0x528B7B8F EQ PUSH2 0x22C JUMPI DUP1 PUSH4 0x5F4623F1 EQ PUSH2 0x269 JUMPI PUSH2 0x114 JUMP JUMPDEST DUP1 PUSH4 0x95EA7B3 EQ PUSH2 0x119 JUMPI DUP1 PUSH4 0xCE90EC2 EQ PUSH2 0x135 JUMPI DUP1 PUSH4 0x17A7F4CC EQ PUSH2 0x151 JUMPI DUP1 PUSH4 0x2052465E EQ PUSH2 0x17A JUMPI JUMPDEST PUSH1 0x0 DUP1 REVERT JUMPDEST PUSH2 0x133 PUSH1 0x4 DUP1 CALLDATASIZE SUB DUP2 ADD SWAP1 PUSH2 0x12E SWAP2 SWAP1 PUSH2 0x1A6B JUMP JUMPDEST PUSH2 0x444 JUMP JUMPDEST STOP JUMPDEST PUSH2 0x14F PUSH1 0x4 DUP1 CALLDATASIZE SUB DUP2 ADD SWAP1 PUSH2 0x14A SWAP2 SWAP1 PUSH2 0x1AAB JUMP JUMPDEST PUSH2 0x562 JUMP JUMPDEST STOP JUMPDEST CALLVALUE DUP1 ISZERO PUSH2 0x15D JUMPI PUSH1 0x0 DUP1 REVERT JUMPDEST POP PUSH2 0x178 PUSH1 0x4 DUP1 CALLDATASIZE SUB DUP2 ADD SWAP1 PUSH2 0x173 SWAP2 SWAP1 PUSH2 0x1AD8 JUMP JUMPDEST PUSH2 0x605 JUMP JUMPDEST STOP JUMPDEST CALLVALUE DUP1 ISZERO PUSH2 0x186 JUMPI PUSH1 0x0 DUP1 REVERT JUMPDEST POP PUSH2 0x1A1 PUSH1 0x4 DUP1 CALLDATASIZE SUB DUP2 ADD SWAP1 PUSH2 0x19C SWAP2 SWAP1 PUSH2 0x1AAB JUMP JUMPDEST PUSH2 0x723 JUMP JUMPDEST PUSH1 0x40 MLOAD PUSH2 0x1B3 SWAP7 SWAP6 SWAP5 SWAP4 SWAP3 SWAP2 SWAP1 PUSH2 0x1BF3 JUMP JUMPDEST PUSH1 0x40 MLOAD DUP1 SWAP2 SUB SWAP1 RETURN JUMPDEST PUSH2 0x1D6 PUSH1 0x4 DUP1 CALLDATASIZE SUB DUP2 ADD SWAP1 PUSH2 0x1D1 SWAP2 SWAP1 PUSH2 0x1C5B JUMP JUMPDEST PUSH2 0x833 JUMP JUMPDEST STOP JUMPDEST CALLVALUE DUP1 ISZERO PUSH2 0x1E4 JUMPI PUSH1 0x0 DUP1 REVERT JUMPDEST POP PUSH2 0x1ED PUSH2 0x917 JUMP JUMPDEST STOP JUMPDEST CALLVALUE DUP1 ISZERO PUSH2 0x1FB JUMPI PUSH1 0x0 DUP1 REVERT JUMPDEST POP PUSH2 0x216 PUSH1 0x4 DUP1 CALLDATASIZE SUB DUP2 ADD SWAP1 PUSH2 0x211 SWAP2 SWAP1 PUSH2 0x1CAE JUMP JUMPDEST PUSH2 0x975 JUMP JUMPDEST PUSH1 0x40 MLOAD PUSH2 0x223 SWAP2 SWAP1 PUSH2 0x1D99 JUMP JUMPDEST PUSH1 0x40 MLOAD DUP1 SWAP2 SUB SWAP1 RETURN JUMPDEST CALLVALUE DUP1 ISZERO PUSH2 0x238 JUMPI PUSH1 0x0 DUP1 REVERT JUMPDEST POP PUSH2 0x253 PUSH1 0x4 DUP1 CALLDATASIZE SUB DUP2 ADD SWAP1 PUSH2 0x24E SWAP2 SWAP1 PUSH2 0x1AAB JUMP JUMPDEST PUSH2 0xACF JUMP JUMPDEST PUSH1 0x40 MLOAD PUSH2 0x260 SWAP2 SWAP1 PUSH2 0x1DCA JUMP JUMPDEST PUSH1 0x40 MLOAD DUP1 SWAP2 SUB SWAP1 RETURN JUMPDEST CALLVALUE DUP1 ISZERO PUSH2 0x275 JUMPI PUSH1 0x0 DUP1 REVERT JUMPDEST POP PUSH2 0x290 PUSH1 0x4 DUP1 CALLDATASIZE SUB DUP2 ADD SWAP1 PUSH2 0x28B SWAP2 SWAP1 PUSH2 0x1CAE JUMP JUMPDEST PUSH2 0xB02 JUMP JUMPDEST STOP JUMPDEST CALLVALUE DUP1 ISZERO PUSH2 0x29E JUMPI PUSH1 0x0 DUP1 REVERT JUMPDEST POP PUSH2 0x2B9 PUSH1 0x4 DUP1 CALLDATASIZE SUB DUP2 ADD SWAP1 PUSH2 0x2B4 SWAP2 SWAP1 PUSH2 0x1AD8 JUMP JUMPDEST PUSH2 0xB4E JUMP JUMPDEST STOP JUMPDEST CALLVALUE DUP1 ISZERO PUSH2 0x2C7 JUMPI PUSH1 0x0 DUP1 REVERT JUMPDEST POP PUSH2 0x2E2 PUSH1 0x4 DUP1 CALLDATASIZE SUB DUP2 ADD SWAP1 PUSH2 0x2DD SWAP2 SWAP1 PUSH2 0x1AAB JUMP JUMPDEST PUSH2 0xC36 JUMP JUMPDEST PUSH1 0x40 MLOAD PUSH2 0x2EF SWAP2 SWAP1 PUSH2 0x1DCA JUMP JUMPDEST PUSH1 0x40 MLOAD DUP1 SWAP2 SUB SWAP1 RETURN JUMPDEST CALLVALUE DUP1 ISZERO PUSH2 0x304 JUMPI PUSH1 0x0 DUP1 REVERT JUMPDEST POP PUSH2 0x31F PUSH1 0x4 DUP1 CALLDATASIZE SUB DUP2 ADD SWAP1 PUSH2 0x31A SWAP2 SWAP1 PUSH2 0x1CAE JUMP JUMPDEST PUSH2 0xC73 JUMP JUMPDEST PUSH1 0x40 MLOAD PUSH2 0x32C SWAP2 SWAP1 PUSH2 0x1DE5 JUMP JUMPDEST PUSH1 0x40 MLOAD DUP1 SWAP2 SUB SWAP1 RETURN JUMPDEST CALLVALUE DUP1 ISZERO PUSH2 0x341 JUMPI PUSH1 0x0 DUP1 REVERT JUMPDEST POP PUSH2 0x34A PUSH2 0xCBC JUMP JUMPDEST STOP JUMPDEST CALLVALUE DUP1 ISZERO PUSH2 0x358 JUMPI PUSH1 0x0 DUP1 REVERT JUMPDEST POP PUSH2 0x373 PUSH1 0x4 DUP1 CALLDATASIZE SUB DUP2 ADD SWAP1 PUSH2 0x36E SWAP2 SWAP1 PUSH2 0x1F35 JUMP JUMPDEST PUSH2 0xCD0 JUMP JUMPDEST STOP JUMPDEST CALLVALUE DUP1 ISZERO PUSH2 0x381 JUMPI PUSH1 0x0 DUP1 REVERT JUMPDEST POP PUSH2 0x38A PUSH2 0xD51 JUMP JUMPDEST PUSH1 0x40 MLOAD PUSH2 0x397 SWAP2 SWAP1 PUSH2 0x1DCA JUMP JUMPDEST PUSH1 0x40 MLOAD DUP1 SWAP2 SUB SWAP1 RETURN JUMPDEST CALLVALUE DUP1 ISZERO PUSH2 0x3AC JUMPI PUSH1 0x0 DUP1 REVERT JUMPDEST POP PUSH2 0x3C7 PUSH1 0x4 DUP1 CALLDATASIZE SUB DUP2 ADD SWAP1 PUSH2 0x3C2 SWAP2 SWAP1 PUSH2 0x1FDE JUMP JUMPDEST PUSH2 0xD7A JUMP JUMPDEST STOP JUMPDEST CALLVALUE DUP1 ISZERO PUSH2 0x3D5 JUMPI PUSH1 0x0 DUP1 REVERT JUMPDEST POP PUSH2 0x3F0 PUSH1 0x4 DUP1 CALLDATASIZE SUB DUP2 ADD SWAP1 PUSH2 0x3EB SWAP2 SWAP1 PUSH2 0x1AAB JUMP JUMPDEST PUSH2 0xE6E JUMP JUMPDEST STOP JUMPDEST CALLVALUE DUP1 ISZERO PUSH2 0x3FE JUMPI PUSH1 0x0 DUP1 REVERT JUMPDEST POP PUSH2 0x419 PUSH1 0x4 DUP1 CALLDATASIZE SUB DUP2 ADD SWAP1 PUSH2 0x414 SWAP2 SWAP1 PUSH2 0x1AD8 JUMP JUMPDEST PUSH2 0xE80 JUMP JUMPDEST STOP JUMPDEST CALLVALUE DUP1 ISZERO PUSH2 0x427 JUMPI PUSH1 0x0 DUP1 REVERT JUMPDEST POP PUSH2 0x442 PUSH1 0x4 DUP1 CALLDATASIZE SUB DUP2 ADD SWAP1 PUSH2 0x43D SWAP2 SWAP1 PUSH2 0x1CAE JUMP JUMPDEST PUSH2 0x111A JUMP JUMPDEST STOP JUMPDEST DUP1 PUSH1 0x5 PUSH1 0x0 DUP3 DUP2 MSTORE PUSH1 0x20 ADD SWAP1 DUP2 MSTORE PUSH1 0x20 ADD PUSH1 0x0 KECCAK256 PUSH1 0x0 SWAP1 SLOAD SWAP1 PUSH2 0x100 EXP SWAP1 DIV PUSH20 0xFFFFFFFFFFFFFFFFFFFFFFFFFFFFFFFFFFFFFFFF AND PUSH20 0xFFFFFFFFFFFFFFFFFFFFFFFFFFFFFFFFFFFFFFFF AND CALLER PUSH20 0xFFFFFFFFFFFFFFFFFFFFFFFFFFFFFFFFFFFFFFFF AND EQ PUSH2 0x4B0 JUMPI PUSH1 0x0 DUP1 REVERT JUMPDEST DUP3 PUSH1 0xB PUSH1 0x0 DUP5 DUP2 MSTORE PUSH1 0x20 ADD SWAP1 DUP2 MSTORE PUSH1 0x20 ADD PUSH1 0x0 KECCAK256 PUSH1 0x0 PUSH2 0x100 EXP DUP2 SLOAD DUP2 PUSH20 0xFFFFFFFFFFFFFFFFFFFFFFFFFFFFFFFFFFFFFFFF MUL NOT AND SWAP1 DUP4 PUSH20 0xFFFFFFFFFFFFFFFFFFFFFFFFFFFFFFFFFFFFFFFF AND MUL OR SWAP1 SSTORE POP DUP2 DUP4 PUSH20 0xFFFFFFFFFFFFFFFFFFFFFFFFFFFFFFFFFFFFFFFF AND CALLER PUSH20 0xFFFFFFFFFFFFFFFFFFFFFFFFFFFFFFFFFFFFFFFF AND PUSH32 0x8C5BE1E5EBEC7D5BD14F71427D1E84F3DD0314C0F7B2291E5B200AC8C7C3B925 PUSH1 0x40 MLOAD PUSH1 0x40 MLOAD DUP1 SWAP2 SUB SWAP1 LOG4 POP POP POP JUMP JUMPDEST PUSH1 0x8 SLOAD CALLVALUE EQ PUSH2 0x570 JUMPI PUSH1 0x0 DUP1 REVERT JUMPDEST PUSH2 0x5BF PUSH1 0x1 PUSH1 0x4 DUP4 DUP2 SLOAD DUP2 LT PUSH2 0x589 JUMPI PUSH2 0x588 PUSH2 0x203E JUMP JUMPDEST JUMPDEST SWAP1 PUSH1 0x0 MSTORE PUSH1 0x20 PUSH1 0x0 KECCAK256 SWAP1 PUSH1 0x3 MUL ADD PUSH1 0x2 ADD PUSH1 0x0 SWAP1 SLOAD SWAP1 PUSH2 0x100 EXP SWAP1 DIV PUSH4 0xFFFFFFFF AND PUSH4 0xFFFFFFFF AND PUSH2 0x119D SWAP1 SWAP2 SWAP1 PUSH4 0xFFFFFFFF AND JUMP JUMPDEST PUSH1 0x4 DUP3 DUP2 SLOAD DUP2 LT PUSH2 0x5D3 JUMPI PUSH2 0x5D2 PUSH2 0x203E JUMP JUMPDEST JUMPDEST SWAP1 PUSH1 0x0 MSTORE PUSH1 0x20 PUSH1 0x0 KECCAK256 SWAP1 PUSH1 0x3 MUL ADD PUSH1 0x2 ADD PUSH1 0x0 PUSH2 0x100 EXP DUP2 SLOAD DUP2 PUSH4 0xFFFFFFFF MUL NOT AND SWAP1 DUP4 PUSH4 0xFFFFFFFF AND MUL OR SWAP1 SSTORE POP POP JUMP JUMPDEST PUSH1 0x0 PUSH1 0x7 PUSH1 0x0 SWAP1 SLOAD SWAP1 PUSH2 0x100 EXP SWAP1 DIV PUSH20 0xFFFFFFFFFFFFFFFFFFFFFFFFFFFFFFFFFFFFFFFF AND PUSH20 0xFFFFFFFFFFFFFFFFFFFFFFFFFFFFFFFFFFFFFFFF AND PUSH4 0xE98B7F4D DUP4 PUSH1 0x40 MLOAD DUP3 PUSH4 0xFFFFFFFF AND PUSH1 0xE0 SHL DUP2 MSTORE PUSH1 0x4 ADD PUSH2 0x662 SWAP2 SWAP1 PUSH2 0x1DE5 JUMP JUMPDEST PUSH2 0x140 PUSH1 0x40 MLOAD DUP1 DUP4 SUB DUP2 DUP7 GAS STATICCALL ISZERO DUP1 ISZERO PUSH2 0x680 JUMPI RETURNDATASIZE PUSH1 0x0 DUP1 RETURNDATACOPY RETURNDATASIZE PUSH1 0x0 REVERT JUMPDEST POP POP POP POP PUSH1 0x40 MLOAD RETURNDATASIZE PUSH1 0x1F NOT PUSH1 0x1F DUP3 ADD AND DUP3 ADD DUP1 PUSH1 0x40 MSTORE POP DUP2 ADD SWAP1 PUSH2 0x6A4 SWAP2 SWAP1 PUSH2 0x20BA JUMP JUMPDEST SWAP1 SWAP2 SWAP3 SWAP4 SWAP5 SWAP6 SWAP7 SWAP8 SWAP9 POP SWAP1 SWAP2 SWAP3 SWAP4 SWAP5 SWAP6 SWAP7 SWAP8 POP SWAP1 SWAP2 SWAP3 SWAP4 SWAP5 SWAP6 SWAP7 POP SWAP1 SWAP2 SWAP3 SWAP4 SWAP5 SWAP6 POP SWAP1 SWAP2 SWAP3 SWAP4 SWAP5 POP SWAP1 SWAP2 SWAP3 SWAP4 POP SWAP1 SWAP2 SWAP3 POP SWAP1 SWAP2 POP SWAP1 POP DUP1 SWAP2 POP POP PUSH2 0x71E DUP4 DUP3 PUSH1 0x40 MLOAD DUP1 PUSH1 0x40 ADD PUSH1 0x40 MSTORE DUP1 PUSH1 0x5 DUP2 MSTORE PUSH1 0x20 ADD PUSH32 0x6B69747479000000000000000000000000000000000000000000000000000000 DUP2 MSTORE POP PUSH2 0x11B3 JUMP JUMPDEST POP POP POP JUMP JUMPDEST PUSH1 0x4 DUP2 DUP2 SLOAD DUP2 LT PUSH2 0x733 JUMPI PUSH1 0x0 DUP1 REVERT JUMPDEST SWAP1 PUSH1 0x0 MSTORE PUSH1 0x20 PUSH1 0x0 KECCAK256 SWAP1 PUSH1 0x3 MUL ADD PUSH1 0x0 SWAP2 POP SWAP1 POP DUP1 PUSH1 0x0 ADD DUP1 SLOAD PUSH2 0x756 SWAP1 PUSH2 0x21C8 JUMP JUMPDEST DUP1 PUSH1 0x1F ADD PUSH1 0x20 DUP1 SWAP2 DIV MUL PUSH1 0x20 ADD PUSH1 0x40 MLOAD SWAP1 DUP2 ADD PUSH1 0x40 MSTORE DUP1 SWAP3 SWAP2 SWAP1 DUP2 DUP2 MSTORE PUSH1 0x20 ADD DUP3 DUP1 SLOAD PUSH2 0x782 SWAP1 PUSH2 0x21C8 JUMP JUMPDEST DUP1 ISZERO PUSH2 0x7CF JUMPI DUP1 PUSH1 0x1F LT PUSH2 0x7A4 JUMPI PUSH2 0x100 DUP1 DUP4 SLOAD DIV MUL DUP4 MSTORE SWAP2 PUSH1 0x20 ADD SWAP2 PUSH2 0x7CF JUMP JUMPDEST DUP3 ADD SWAP2 SWAP1 PUSH1 0x0 MSTORE PUSH1 0x20 PUSH1 0x0 KECCAK256 SWAP1 JUMPDEST DUP2 SLOAD DUP2 MSTORE SWAP1 PUSH1 0x1 ADD SWAP1 PUSH1 0x20 ADD DUP1 DUP4 GT PUSH2 0x7B2 JUMPI DUP3 SWAP1 SUB PUSH1 0x1F AND DUP3 ADD SWAP2 JUMPDEST POP POP POP POP POP SWAP1 DUP1 PUSH1 0x1 ADD SLOAD SWAP1 DUP1 PUSH1 0x2 ADD PUSH1 0x0 SWAP1 SLOAD SWAP1 PUSH2 0x100 EXP SWAP1 DIV PUSH4 0xFFFFFFFF AND SWAP1 DUP1 PUSH1 0x2 ADD PUSH1 0x4 SWAP1 SLOAD SWAP1 PUSH2 0x100 EXP SWAP1 DIV PUSH4 0xFFFFFFFF AND SWAP1 DUP1 PUSH1 0x2 ADD PUSH1 0x8 SWAP1 SLOAD SWAP1 PUSH2 0x100 EXP SWAP1 DIV PUSH2 0xFFFF AND SWAP1 DUP1 PUSH1 0x2 ADD PUSH1 0xA SWAP1 SLOAD SWAP1 PUSH2 0x100 EXP SWAP1 DIV PUSH2 0xFFFF AND SWAP1 POP DUP7 JUMP JUMPDEST CALLER PUSH20 0xFFFFFFFFFFFFFFFFFFFFFFFFFFFFFFFFFFFFFFFF AND PUSH1 0x5 PUSH1 0x0 DUP4 DUP2 MSTORE PUSH1 0x20 ADD SWAP1 DUP2 MSTORE PUSH1 0x20 ADD PUSH1 0x0 KECCAK256 PUSH1 0x0 SWAP1 SLOAD SWAP1 PUSH2 0x100 EXP SWAP1 DIV PUSH20 0xFFFFFFFFFFFFFFFFFFFFFFFFFFFFFFFFFFFFFFFF AND PUSH20 0xFFFFFFFFFFFFFFFFFFFFFFFFFFFFFFFFFFFFFFFF AND EQ DUP1 PUSH2 0x8FE JUMPI POP CALLER PUSH20 0xFFFFFFFFFFFFFFFFFFFFFFFFFFFFFFFFFFFFFFFF AND PUSH1 0xB PUSH1 0x0 DUP4 DUP2 MSTORE PUSH1 0x20 ADD SWAP1 DUP2 MSTORE PUSH1 0x20 ADD PUSH1 0x0 KECCAK256 PUSH1 0x0 SWAP1 SLOAD SWAP1 PUSH2 0x100 EXP SWAP1 DIV PUSH20 0xFFFFFFFFFFFFFFFFFFFFFFFFFFFFFFFFFFFFFFFF AND PUSH20 0xFFFFFFFFFFFFFFFFFFFFFFFFFFFFFFFFFFFFFFFF AND EQ JUMPDEST PUSH2 0x907 JUMPI PUSH1 0x0 DUP1 REVERT JUMPDEST PUSH2 0x912 DUP4 DUP4 DUP4 PUSH2 0x133D JUMP JUMPDEST POP POP POP JUMP JUMPDEST PUSH2 0x91F PUSH2 0x151B JUMP JUMPDEST PUSH1 0x0 PUSH2 0x929 PUSH2 0xD51 JUMP JUMPDEST SWAP1 POP DUP1 PUSH20 0xFFFFFFFFFFFFFFFFFFFFFFFFFFFFFFFFFFFFFFFF AND PUSH2 0x8FC SELFBALANCE SWAP1 DUP2 ISZERO MUL SWAP1 PUSH1 0x40 MLOAD PUSH1 0x0 PUSH1 0x40 MLOAD DUP1 DUP4 SUB DUP2 DUP6 DUP9 DUP9 CALL SWAP4 POP POP POP POP ISZERO DUP1 ISZERO PUSH2 0x971 JUMPI RETURNDATASIZE PUSH1 0x0 DUP1 RETURNDATACOPY RETURNDATASIZE PUSH1 0x0 REVERT JUMPDEST POP POP JUMP JUMPDEST PUSH1 0x60 PUSH1 0x0 PUSH1 0x6 PUSH1 0x0 DUP5 PUSH20 0xFFFFFFFFFFFFFFFFFFFFFFFFFFFFFFFFFFFFFFFF AND PUSH20 0xFFFFFFFFFFFFFFFFFFFFFFFFFFFFFFFFFFFFFFFF AND DUP2 MSTORE PUSH1 0x20 ADD SWAP1 DUP2 MSTORE PUSH1 0x20 ADD PUSH1 0x0 KECCAK256 SLOAD PUSH8 0xFFFFFFFFFFFFFFFF DUP2 GT ISZERO PUSH2 0x9D2 JUMPI PUSH2 0x9D1 PUSH2 0x1E0A JUMP JUMPDEST JUMPDEST PUSH1 0x40 MLOAD SWAP1 DUP1 DUP3 MSTORE DUP1 PUSH1 0x20 MUL PUSH1 0x20 ADD DUP3 ADD PUSH1 0x40 MSTORE DUP1 ISZERO PUSH2 0xA00 JUMPI DUP2 PUSH1 0x20 ADD PUSH1 0x20 DUP3 MUL DUP1 CALLDATASIZE DUP4 CALLDATACOPY DUP1 DUP3 ADD SWAP2 POP POP SWAP1 POP JUMPDEST POP SWAP1 POP PUSH1 0x0 DUP1 JUMPDEST PUSH1 0x4 DUP1 SLOAD SWAP1 POP DUP2 LT ISZERO PUSH2 0xAC4 JUMPI DUP5 PUSH20 0xFFFFFFFFFFFFFFFFFFFFFFFFFFFFFFFFFFFFFFFF AND PUSH1 0x5 PUSH1 0x0 DUP4 DUP2 MSTORE PUSH1 0x20 ADD SWAP1 DUP2 MSTORE PUSH1 0x20 ADD PUSH1 0x0 KECCAK256 PUSH1 0x0 SWAP1 SLOAD SWAP1 PUSH2 0x100 EXP SWAP1 DIV PUSH20 0xFFFFFFFFFFFFFFFFFFFFFFFFFFFFFFFFFFFFFFFF AND PUSH20 0xFFFFFFFFFFFFFFFFFFFFFFFFFFFFFFFFFFFFFFFF AND SUB PUSH2 0xAB1 JUMPI DUP1 DUP4 DUP4 DUP2 MLOAD DUP2 LT PUSH2 0xA8E JUMPI PUSH2 0xA8D PUSH2 0x203E JUMP JUMPDEST JUMPDEST PUSH1 0x20 MUL PUSH1 0x20 ADD ADD DUP2 DUP2 MSTORE POP POP PUSH2 0xAAE PUSH1 0x1 DUP4 PUSH2 0x119D SWAP1 SWAP2 SWAP1 PUSH4 0xFFFFFFFF AND JUMP JUMPDEST SWAP2 POP JUMPDEST DUP1 DUP1 PUSH2 0xABC SWAP1 PUSH2 0x2228 JUMP JUMPDEST SWAP2 POP POP PUSH2 0xA07 JUMP JUMPDEST POP DUP2 SWAP3 POP POP POP SWAP2 SWAP1 POP JUMP JUMPDEST PUSH1 0x5 PUSH1 0x20 MSTORE DUP1 PUSH1 0x0 MSTORE PUSH1 0x40 PUSH1 0x0 KECCAK256 PUSH1 0x0 SWAP2 POP SLOAD SWAP1 PUSH2 0x100 EXP SWAP1 DIV PUSH20 0xFFFFFFFFFFFFFFFFFFFFFFFFFFFFFFFFFFFFFFFF AND DUP2 JUMP JUMPDEST PUSH2 0xB0A PUSH2 0x151B JUMP JUMPDEST DUP1 PUSH1 0x7 PUSH1 0x0 PUSH2 0x100 EXP DUP2 SLOAD DUP2 PUSH20 0xFFFFFFFFFFFFFFFFFFFFFFFFFFFFFFFFFFFFFFFF MUL NOT AND SWAP1 DUP4 PUSH20 0xFFFFFFFFFFFFFFFFFFFFFFFFFFFFFFFFFFFFFFFF AND MUL OR SWAP1 SSTORE POP POP JUMP JUMPDEST PUSH1 0x14 DUP3 DUP2 PUSH1 0x4 DUP3 DUP2 SLOAD DUP2 LT PUSH2 0xB66 JUMPI PUSH2 0xB65 PUSH2 0x203E JUMP JUMPDEST JUMPDEST SWAP1 PUSH1 0x0 MSTORE PUSH1 0x20 PUSH1 0x0 KECCAK256 SWAP1 PUSH1 0x3 MUL ADD PUSH1 0x2 ADD PUSH1 0x0 SWAP1 SLOAD SWAP1 PUSH2 0x100 EXP SWAP1 DIV PUSH4 0xFFFFFFFF AND PUSH4 0xFFFFFFFF AND LT ISZERO PUSH2 0xB99 JUMPI PUSH1 0x0 DUP1 REVERT JUMPDEST DUP4 PUSH1 0x5 PUSH1 0x0 DUP3 DUP2 MSTORE PUSH1 0x20 ADD SWAP1 DUP2 MSTORE PUSH1 0x20 ADD PUSH1 0x0 KECCAK256 PUSH1 0x0 SWAP1 SLOAD SWAP1 PUSH2 0x100 EXP SWAP1 DIV PUSH20 0xFFFFFFFFFFFFFFFFFFFFFFFFFFFFFFFFFFFFFFFF AND PUSH20 0xFFFFFFFFFFFFFFFFFFFFFFFFFFFFFFFFFFFFFFFF AND CALLER PUSH20 0xFFFFFFFFFFFFFFFFFFFFFFFFFFFFFFFFFFFFFFFF AND EQ PUSH2 0xC05 JUMPI PUSH1 0x0 DUP1 REVERT JUMPDEST DUP4 PUSH1 0x4 DUP7 DUP2 SLOAD DUP2 LT PUSH2 0xC1A JUMPI PUSH2 0xC19 PUSH2 0x203E JUMP JUMPDEST JUMPDEST SWAP1 PUSH1 0x0 MSTORE PUSH1 0x20 PUSH1 0x0 KECCAK256 SWAP1 PUSH1 0x3 MUL ADD PUSH1 0x1 ADD DUP2 SWAP1 SSTORE POP POP POP POP POP POP JUMP JUMPDEST PUSH1 0x0 PUSH1 0x5 PUSH1 0x0 DUP4 DUP2 MSTORE PUSH1 0x20 ADD SWAP1 DUP2 MSTORE PUSH1 0x20 ADD PUSH1 0x0 KECCAK256 PUSH1 0x0 SWAP1 SLOAD SWAP1 PUSH2 0x100 EXP SWAP1 DIV PUSH20 0xFFFFFFFFFFFFFFFFFFFFFFFFFFFFFFFFFFFFFFFF AND SWAP1 POP SWAP2 SWAP1 POP JUMP JUMPDEST PUSH1 0x0 PUSH1 0x6 PUSH1 0x0 DUP4 PUSH20 0xFFFFFFFFFFFFFFFFFFFFFFFFFFFFFFFFFFFFFFFF AND PUSH20 0xFFFFFFFFFFFFFFFFFFFFFFFFFFFFFFFFFFFFFFFF AND DUP2 MSTORE PUSH1 0x20 ADD SWAP1 DUP2 MSTORE PUSH1 0x20 ADD PUSH1 0x0 KECCAK256 SLOAD SWAP1 POP SWAP2 SWAP1 POP JUMP JUMPDEST PUSH2 0xCC4 PUSH2 0x151B JUMP JUMPDEST PUSH2 0xCCE PUSH1 0x0 PUSH2 0x1599 JUMP JUMPDEST JUMP JUMPDEST PUSH1 0x0 PUSH1 0x6 PUSH1 0x0 CALLER PUSH20 0xFFFFFFFFFFFFFFFFFFFFFFFFFFFFFFFFFFFFFFFF AND PUSH20 0xFFFFFFFFFFFFFFFFFFFFFFFFFFFFFFFFFFFFFFFF AND DUP2 MSTORE PUSH1 0x20 ADD SWAP1 DUP2 MSTORE PUSH1 0x20 ADD PUSH1 0x0 KECCAK256 SLOAD EQ PUSH2 0xD1C JUMPI PUSH1 0x0 DUP1 REVERT JUMPDEST PUSH1 0x0 PUSH2 0xD27 DUP3 PUSH2 0x165D JUMP JUMPDEST SWAP1 POP PUSH1 0x64 DUP2 PUSH2 0xD36 SWAP2 SWAP1 PUSH2 0x229F JUMP JUMPDEST DUP2 PUSH2 0xD41 SWAP2 SWAP1 PUSH2 0x22D0 JUMP JUMPDEST SWAP1 POP PUSH2 0xD4D DUP3 DUP3 PUSH2 0x16A2 JUMP JUMPDEST POP POP JUMP JUMPDEST PUSH1 0x0 DUP1 PUSH1 0x0 SWAP1 SLOAD SWAP1 PUSH2 0x100 EXP SWAP1 DIV PUSH20 0xFFFFFFFFFFFFFFFFFFFFFFFFFFFFFFFFFFFFFFFF AND SWAP1 POP SWAP1 JUMP JUMPDEST PUSH1 0x2 DUP4 DUP2 PUSH1 0x4 DUP3 DUP2 SLOAD DUP2 LT PUSH2 0xD92 JUMPI PUSH2 0xD91 PUSH2 0x203E JUMP JUMPDEST JUMPDEST SWAP1 PUSH1 0x0 MSTORE PUSH1 0x20 PUSH1 0x0 KECCAK256 SWAP1 PUSH1 0x3 MUL ADD PUSH1 0x2 ADD PUSH1 0x0 SWAP1 SLOAD SWAP1 PUSH2 0x100 EXP SWAP1 DIV PUSH4 0xFFFFFFFF AND PUSH4 0xFFFFFFFF AND LT ISZERO PUSH2 0xDC5 JUMPI PUSH1 0x0 DUP1 REVERT JUMPDEST DUP5 PUSH1 0x5 PUSH1 0x0 DUP3 DUP2 MSTORE PUSH1 0x20 ADD SWAP1 DUP2 MSTORE PUSH1 0x20 ADD PUSH1 0x0 KECCAK256 PUSH1 0x0 SWAP1 SLOAD SWAP1 PUSH2 0x100 EXP SWAP1 DIV PUSH20 0xFFFFFFFFFFFFFFFFFFFFFFFFFFFFFFFFFFFFFFFF AND PUSH20 0xFFFFFFFFFFFFFFFFFFFFFFFFFFFFFFFFFFFFFFFF AND CALLER PUSH20 0xFFFFFFFFFFFFFFFFFFFFFFFFFFFFFFFFFFFFFFFF AND EQ PUSH2 0xE31 JUMPI PUSH1 0x0 DUP1 REVERT JUMPDEST DUP5 DUP5 PUSH1 0x4 DUP9 DUP2 SLOAD DUP2 LT PUSH2 0xE47 JUMPI PUSH2 0xE46 PUSH2 0x203E JUMP JUMPDEST JUMPDEST SWAP1 PUSH1 0x0 MSTORE PUSH1 0x20 PUSH1 0x0 KECCAK256 SWAP1 PUSH1 0x3 MUL ADD PUSH1 0x0 ADD SWAP2 DUP3 PUSH2 0xE65 SWAP3 SWAP2 SWAP1 PUSH2 0x24BB JUMP JUMPDEST POP POP POP POP POP POP POP JUMP JUMPDEST PUSH2 0xE76 PUSH2 0x151B JUMP JUMPDEST DUP1 PUSH1 0x8 DUP2 SWAP1 SSTORE POP POP JUMP JUMPDEST DUP2 PUSH1 0x5 PUSH1 0x0 DUP3 DUP2 MSTORE PUSH1 0x20 ADD SWAP1 DUP2 MSTORE PUSH1 0x20 ADD PUSH1 0x0 KECCAK256 PUSH1 0x0 SWAP1 SLOAD SWAP1 PUSH2 0x100 EXP SWAP1 DIV PUSH20 0xFFFFFFFFFFFFFFFFFFFFFFFFFFFFFFFFFFFFFFFF AND PUSH20 0xFFFFFFFFFFFFFFFFFFFFFFFFFFFFFFFFFFFFFFFF AND CALLER PUSH20 0xFFFFFFFFFFFFFFFFFFFFFFFFFFFFFFFFFFFFFFFF AND EQ PUSH2 0xEEC JUMPI PUSH1 0x0 DUP1 REVERT JUMPDEST PUSH1 0x0 PUSH1 0x4 DUP5 DUP2 SLOAD DUP2 LT PUSH2 0xF02 JUMPI PUSH2 0xF01 PUSH2 0x203E JUMP JUMPDEST JUMPDEST SWAP1 PUSH1 0x0 MSTORE PUSH1 0x20 PUSH1 0x0 KECCAK256 SWAP1 PUSH1 0x3 MUL ADD SWAP1 POP PUSH1 0x0 PUSH1 0x4 DUP5 DUP2 SLOAD DUP2 LT PUSH2 0xF28 JUMPI PUSH2 0xF27 PUSH2 0x203E JUMP JUMPDEST JUMPDEST SWAP1 PUSH1 0x0 MSTORE PUSH1 0x20 PUSH1 0x0 KECCAK256 SWAP1 PUSH1 0x3 MUL ADD SWAP1 POP PUSH1 0x0 PUSH2 0xF44 PUSH1 0x64 PUSH2 0x1912 JUMP JUMPDEST SWAP1 POP PUSH1 0xA SLOAD DUP2 GT PUSH2 0x1078 JUMPI PUSH2 0xF79 PUSH1 0x1 DUP5 PUSH1 0x2 ADD PUSH1 0x8 SWAP1 SLOAD SWAP1 PUSH2 0x100 EXP SWAP1 DIV PUSH2 0xFFFF AND PUSH2 0xFFFF AND PUSH2 0x119D SWAP1 SWAP2 SWAP1 PUSH4 0xFFFFFFFF AND JUMP JUMPDEST DUP4 PUSH1 0x2 ADD PUSH1 0x8 PUSH2 0x100 EXP DUP2 SLOAD DUP2 PUSH2 0xFFFF MUL NOT AND SWAP1 DUP4 PUSH2 0xFFFF AND MUL OR SWAP1 SSTORE POP PUSH2 0xFC5 PUSH1 0x1 DUP5 PUSH1 0x2 ADD PUSH1 0x0 SWAP1 SLOAD SWAP1 PUSH2 0x100 EXP SWAP1 DIV PUSH4 0xFFFFFFFF AND PUSH4 0xFFFFFFFF AND PUSH2 0x119D SWAP1 SWAP2 SWAP1 PUSH4 0xFFFFFFFF AND JUMP JUMPDEST DUP4 PUSH1 0x2 ADD PUSH1 0x0 PUSH2 0x100 EXP DUP2 SLOAD DUP2 PUSH4 0xFFFFFFFF MUL NOT AND SWAP1 DUP4 PUSH4 0xFFFFFFFF AND MUL OR SWAP1 SSTORE POP PUSH2 0x1011 PUSH1 0x1 DUP4 PUSH1 0x2 ADD PUSH1 0xA SWAP1 SLOAD SWAP1 PUSH2 0x100 EXP SWAP1 DIV PUSH2 0xFFFF AND PUSH2 0xFFFF AND PUSH2 0x119D SWAP1 SWAP2 SWAP1 PUSH4 0xFFFFFFFF AND JUMP JUMPDEST DUP3 PUSH1 0x2 ADD PUSH1 0xA PUSH2 0x100 EXP DUP2 SLOAD DUP2 PUSH2 0xFFFF MUL NOT AND SWAP1 DUP4 PUSH2 0xFFFF AND MUL OR SWAP1 SSTORE POP PUSH2 0x1073 DUP7 DUP4 PUSH1 0x1 ADD SLOAD PUSH1 0x40 MLOAD DUP1 PUSH1 0x40 ADD PUSH1 0x40 MSTORE DUP1 PUSH1 0x6 DUP2 MSTORE PUSH1 0x20 ADD PUSH32 0x7A6F6D6269650000000000000000000000000000000000000000000000000000 DUP2 MSTORE POP PUSH2 0x11B3 JUMP JUMPDEST PUSH2 0x1112 JUMP JUMPDEST PUSH2 0x10A2 PUSH1 0x1 DUP5 PUSH1 0x2 ADD PUSH1 0xA SWAP1 SLOAD SWAP1 PUSH2 0x100 EXP SWAP1 DIV PUSH2 0xFFFF AND PUSH2 0xFFFF AND PUSH2 0x119D SWAP1 SWAP2 SWAP1 PUSH4 0xFFFFFFFF AND JUMP JUMPDEST DUP4 PUSH1 0x2 ADD PUSH1 0xA PUSH2 0x100 EXP DUP2 SLOAD DUP2 PUSH2 0xFFFF MUL NOT AND SWAP1 DUP4 PUSH2 0xFFFF AND MUL OR SWAP1 SSTORE POP PUSH2 0x10EA PUSH1 0x1 DUP4 PUSH1 0x2 ADD PUSH1 0x8 SWAP1 SLOAD SWAP1 PUSH2 0x100 EXP SWAP1 DIV PUSH2 0xFFFF AND PUSH2 0xFFFF AND PUSH2 0x119D SWAP1 SWAP2 SWAP1 PUSH4 0xFFFFFFFF AND JUMP JUMPDEST DUP3 PUSH1 0x2 ADD PUSH1 0x8 PUSH2 0x100 EXP DUP2 SLOAD DUP2 PUSH2 0xFFFF MUL NOT AND SWAP1 DUP4 PUSH2 0xFFFF AND MUL OR SWAP1 SSTORE POP PUSH2 0x1111 DUP4 PUSH2 0x1972 JUMP JUMPDEST JUMPDEST POP POP POP POP POP POP JUMP JUMPDEST PUSH2 0x1122 PUSH2 0x151B JUMP JUMPDEST PUSH1 0x0 PUSH20 0xFFFFFFFFFFFFFFFFFFFFFFFFFFFFFFFFFFFFFFFF AND DUP2 PUSH20 0xFFFFFFFFFFFFFFFFFFFFFFFFFFFFFFFFFFFFFFFF AND SUB PUSH2 0x1191 JUMPI PUSH1 0x40 MLOAD PUSH32 0x8C379A000000000000000000000000000000000000000000000000000000000 DUP2 MSTORE PUSH1 0x4 ADD PUSH2 0x1188 SWAP1 PUSH2 0x25FD JUMP JUMPDEST PUSH1 0x40 MLOAD DUP1 SWAP2 SUB SWAP1 REVERT JUMPDEST PUSH2 0x119A DUP2 PUSH2 0x1599 JUMP JUMPDEST POP JUMP JUMPDEST PUSH1 0x0 DUP2 DUP4 PUSH2 0x11AB SWAP2 SWAP1 PUSH2 0x261D JUMP JUMPDEST SWAP1 POP SWAP3 SWAP2 POP POP JUMP JUMPDEST DUP3 PUSH1 0x5 PUSH1 0x0 DUP3 DUP2 MSTORE PUSH1 0x20 ADD SWAP1 DUP2 MSTORE PUSH1 0x20 ADD PUSH1 0x0 KECCAK256 PUSH1 0x0 SWAP1 SLOAD SWAP1 PUSH2 0x100 EXP SWAP1 DIV PUSH20 0xFFFFFFFFFFFFFFFFFFFFFFFFFFFFFFFFFFFFFFFF AND PUSH20 0xFFFFFFFFFFFFFFFFFFFFFFFFFFFFFFFFFFFFFFFF AND CALLER PUSH20 0xFFFFFFFFFFFFFFFFFFFFFFFFFFFFFFFFFFFFFFFF AND EQ PUSH2 0x121F JUMPI PUSH1 0x0 DUP1 REVERT JUMPDEST PUSH1 0x0 PUSH1 0x4 DUP6 DUP2 SLOAD DUP2 LT PUSH2 0x1235 JUMPI PUSH2 0x1234 PUSH2 0x203E JUMP JUMPDEST JUMPDEST SWAP1 PUSH1 0x0 MSTORE PUSH1 0x20 PUSH1 0x0 KECCAK256 SWAP1 PUSH1 0x3 MUL ADD SWAP1 POP PUSH1 0x2 SLOAD DUP5 PUSH2 0x1253 SWAP2 SWAP1 PUSH2 0x229F JUMP JUMPDEST SWAP4 POP PUSH1 0x0 PUSH1 0x2 DUP6 DUP4 PUSH1 0x1 ADD SLOAD PUSH2 0x1269 SWAP2 SWAP1 PUSH2 0x261D JUMP JUMPDEST PUSH2 0x1273 SWAP2 SWAP1 PUSH2 0x2651 JUMP JUMPDEST SWAP1 POP PUSH1 0x40 MLOAD PUSH1 0x20 ADD PUSH2 0x1284 SWAP1 PUSH2 0x26D9 JUMP JUMPDEST PUSH1 0x40 MLOAD PUSH1 0x20 DUP2 DUP4 SUB SUB DUP2 MSTORE SWAP1 PUSH1 0x40 MSTORE DUP1 MLOAD SWAP1 PUSH1 0x20 ADD KECCAK256 DUP5 PUSH1 0x40 MLOAD PUSH1 0x20 ADD PUSH2 0x12AB SWAP2 SWAP1 PUSH2 0x271F JUMP JUMPDEST PUSH1 0x40 MLOAD PUSH1 0x20 DUP2 DUP4 SUB SUB DUP2 MSTORE SWAP1 PUSH1 0x40 MSTORE DUP1 MLOAD SWAP1 PUSH1 0x20 ADD KECCAK256 SUB PUSH2 0x12ED JUMPI PUSH1 0x63 PUSH1 0x64 DUP3 PUSH2 0x12D5 SWAP2 SWAP1 PUSH2 0x229F JUMP JUMPDEST DUP3 PUSH2 0x12E0 SWAP2 SWAP1 PUSH2 0x22D0 JUMP JUMPDEST PUSH2 0x12EA SWAP2 SWAP1 PUSH2 0x261D JUMP JUMPDEST SWAP1 POP JUMPDEST PUSH2 0x132C PUSH1 0x40 MLOAD DUP1 PUSH1 0x40 ADD PUSH1 0x40 MSTORE DUP1 PUSH1 0x6 DUP2 MSTORE PUSH1 0x20 ADD PUSH32 0x4E6F4E616D650000000000000000000000000000000000000000000000000000 DUP2 MSTORE POP DUP3 PUSH2 0x16A2 JUMP JUMPDEST PUSH2 0x1335 DUP3 PUSH2 0x1972 JUMP JUMPDEST POP POP POP POP POP POP JUMP JUMPDEST PUSH2 0x1390 PUSH1 0x1 PUSH1 0x6 PUSH1 0x0 DUP6 PUSH20 0xFFFFFFFFFFFFFFFFFFFFFFFFFFFFFFFFFFFFFFFF AND PUSH20 0xFFFFFFFFFFFFFFFFFFFFFFFFFFFFFFFFFFFFFFFF AND DUP2 MSTORE PUSH1 0x20 ADD SWAP1 DUP2 MSTORE PUSH1 0x20 ADD PUSH1 0x0 KECCAK256 SLOAD PUSH2 0x119D SWAP1 SWAP2 SWAP1 PUSH4 0xFFFFFFFF AND JUMP JUMPDEST PUSH1 0x6 PUSH1 0x0 DUP5 PUSH20 0xFFFFFFFFFFFFFFFFFFFFFFFFFFFFFFFFFFFFFFFF AND PUSH20 0xFFFFFFFFFFFFFFFFFFFFFFFFFFFFFFFFFFFFFFFF AND DUP2 MSTORE PUSH1 0x20 ADD SWAP1 DUP2 MSTORE PUSH1 0x20 ADD PUSH1 0x0 KECCAK256 DUP2 SWAP1 SSTORE POP PUSH2 0x1426 PUSH1 0x1 PUSH1 0x6 PUSH1 0x0 DUP7 PUSH20 0xFFFFFFFFFFFFFFFFFFFFFFFFFFFFFFFFFFFFFFFF AND PUSH20 0xFFFFFFFFFFFFFFFFFFFFFFFFFFFFFFFFFFFFFFFF AND DUP2 MSTORE PUSH1 0x20 ADD SWAP1 DUP2 MSTORE PUSH1 0x20 ADD PUSH1 0x0 KECCAK256 SLOAD PUSH2 0x19A5 SWAP1 SWAP2 SWAP1 PUSH4 0xFFFFFFFF AND JUMP JUMPDEST PUSH1 0x6 PUSH1 0x0 DUP6 PUSH20 0xFFFFFFFFFFFFFFFFFFFFFFFFFFFFFFFFFFFFFFFF AND PUSH20 0xFFFFFFFFFFFFFFFFFFFFFFFFFFFFFFFFFFFFFFFF AND DUP2 MSTORE PUSH1 0x20 ADD SWAP1 DUP2 MSTORE PUSH1 0x20 ADD PUSH1 0x0 KECCAK256 DUP2 SWAP1 SSTORE POP DUP2 PUSH1 0x5 PUSH1 0x0 DUP4 DUP2 MSTORE PUSH1 0x20 ADD SWAP1 DUP2 MSTORE PUSH1 0x20 ADD PUSH1 0x0 KECCAK256 PUSH1 0x0 PUSH2 0x100 EXP DUP2 SLOAD DUP2 PUSH20 0xFFFFFFFFFFFFFFFFFFFFFFFFFFFFFFFFFFFFFFFF MUL NOT AND SWAP1 DUP4 PUSH20 0xFFFFFFFFFFFFFFFFFFFFFFFFFFFFFFFFFFFFFFFF AND MUL OR SWAP1 SSTORE POP DUP1 DUP3 PUSH20 0xFFFFFFFFFFFFFFFFFFFFFFFFFFFFFFFFFFFFFFFF AND DUP5 PUSH20 0xFFFFFFFFFFFFFFFFFFFFFFFFFFFFFFFFFFFFFFFF AND PUSH32 0xDDF252AD1BE2C89B69C2B068FC378DAA952BA7F163C4A11628F55A4DF523B3EF PUSH1 0x40 MLOAD PUSH1 0x40 MLOAD DUP1 SWAP2 SUB SWAP1 LOG4 POP POP POP JUMP JUMPDEST PUSH2 0x1523 PUSH2 0x19BB JUMP JUMPDEST PUSH20 0xFFFFFFFFFFFFFFFFFFFFFFFFFFFFFFFFFFFFFFFF AND PUSH2 0x1541 PUSH2 0xD51 JUMP JUMPDEST PUSH20 0xFFFFFFFFFFFFFFFFFFFFFFFFFFFFFFFFFFFFFFFF AND EQ PUSH2 0x1597 JUMPI PUSH1 0x40 MLOAD PUSH32 0x8C379A000000000000000000000000000000000000000000000000000000000 DUP2 MSTORE PUSH1 0x4 ADD PUSH2 0x158E SWAP1 PUSH2 0x2782 JUMP JUMPDEST PUSH1 0x40 MLOAD DUP1 SWAP2 SUB SWAP1 REVERT JUMPDEST JUMP JUMPDEST PUSH1 0x0 DUP1 PUSH1 0x0 SWAP1 SLOAD SWAP1 PUSH2 0x100 EXP SWAP1 DIV PUSH20 0xFFFFFFFFFFFFFFFFFFFFFFFFFFFFFFFFFFFFFFFF AND SWAP1 POP DUP2 PUSH1 0x0 DUP1 PUSH2 0x100 EXP DUP2 SLOAD DUP2 PUSH20 0xFFFFFFFFFFFFFFFFFFFFFFFFFFFFFFFFFFFFFFFF MUL NOT AND SWAP1 DUP4 PUSH20 0xFFFFFFFFFFFFFFFFFFFFFFFFFFFFFFFFFFFFFFFF AND MUL OR SWAP1 SSTORE POP DUP2 PUSH20 0xFFFFFFFFFFFFFFFFFFFFFFFFFFFFFFFFFFFFFFFF AND DUP2 PUSH20 0xFFFFFFFFFFFFFFFFFFFFFFFFFFFFFFFFFFFFFFFF AND PUSH32 0x8BE0079C531659141344CD1FD0A4F28419497F9722A3DAAFE3B4186F6B6457E0 PUSH1 0x40 MLOAD PUSH1 0x40 MLOAD DUP1 SWAP2 SUB SWAP1 LOG3 POP POP JUMP JUMPDEST PUSH1 0x0 DUP1 DUP3 PUSH1 0x40 MLOAD PUSH1 0x20 ADD PUSH2 0x1671 SWAP2 SWAP1 PUSH2 0x271F JUMP JUMPDEST PUSH1 0x40 MLOAD PUSH1 0x20 DUP2 DUP4 SUB SUB DUP2 MSTORE SWAP1 PUSH1 0x40 MSTORE DUP1 MLOAD SWAP1 PUSH1 0x20 ADD KECCAK256 PUSH1 0x0 SHR SWAP1 POP PUSH1 0x2 SLOAD DUP2 PUSH2 0x169A SWAP2 SWAP1 PUSH2 0x229F JUMP JUMPDEST SWAP2 POP POP SWAP2 SWAP1 POP JUMP JUMPDEST PUSH1 0x4 PUSH1 0x40 MLOAD DUP1 PUSH1 0xC0 ADD PUSH1 0x40 MSTORE DUP1 DUP5 DUP2 MSTORE PUSH1 0x20 ADD DUP4 DUP2 MSTORE PUSH1 0x20 ADD PUSH1 0x1 PUSH4 0xFFFFFFFF AND DUP2 MSTORE PUSH1 0x20 ADD PUSH1 0x3 SLOAD TIMESTAMP PUSH2 0x16D6 SWAP2 SWAP1 PUSH2 0x261D JUMP JUMPDEST PUSH4 0xFFFFFFFF AND DUP2 MSTORE PUSH1 0x20 ADD PUSH1 0x0 PUSH2 0xFFFF AND DUP2 MSTORE PUSH1 0x20 ADD PUSH1 0x0 PUSH2 0xFFFF AND DUP2 MSTORE POP SWAP1 DUP1 PUSH1 0x1 DUP2 SLOAD ADD DUP1 DUP3 SSTORE DUP1 SWAP2 POP POP PUSH1 0x1 SWAP1 SUB SWAP1 PUSH1 0x0 MSTORE PUSH1 0x20 PUSH1 0x0 KECCAK256 SWAP1 PUSH1 0x3 MUL ADD PUSH1 0x0 SWAP1 SWAP2 SWAP1 SWAP2 SWAP1 SWAP2 POP PUSH1 0x0 DUP3 ADD MLOAD DUP2 PUSH1 0x0 ADD SWAP1 DUP2 PUSH2 0x1733 SWAP2 SWAP1 PUSH2 0x27A2 JUMP JUMPDEST POP PUSH1 0x20 DUP3 ADD MLOAD DUP2 PUSH1 0x1 ADD SSTORE PUSH1 0x40 DUP3 ADD MLOAD DUP2 PUSH1 0x2 ADD PUSH1 0x0 PUSH2 0x100 EXP DUP2 SLOAD DUP2 PUSH4 0xFFFFFFFF MUL NOT AND SWAP1 DUP4 PUSH4 0xFFFFFFFF AND MUL OR SWAP1 SSTORE POP PUSH1 0x60 DUP3 ADD MLOAD DUP2 PUSH1 0x2 ADD PUSH1 0x4 PUSH2 0x100 EXP DUP2 SLOAD DUP2 PUSH4 0xFFFFFFFF MUL NOT AND SWAP1 DUP4 PUSH4 0xFFFFFFFF AND MUL OR SWAP1 SSTORE POP PUSH1 0x80 DUP3 ADD MLOAD DUP2 PUSH1 0x2 ADD PUSH1 0x8 PUSH2 0x100 EXP DUP2 SLOAD DUP2 PUSH2 0xFFFF MUL NOT AND SWAP1 DUP4 PUSH2 0xFFFF AND MUL OR SWAP1 SSTORE POP PUSH1 0xA0 DUP3 ADD MLOAD DUP2 PUSH1 0x2 ADD PUSH1 0xA PUSH2 0x100 EXP DUP2 SLOAD DUP2 PUSH2 0xFFFF MUL NOT AND SWAP1 DUP4 PUSH2 0xFFFF AND MUL OR SWAP1 SSTORE POP POP POP PUSH1 0x0 PUSH1 0x1 PUSH1 0x4 DUP1 SLOAD SWAP1 POP PUSH2 0x17E8 SWAP2 SWAP1 PUSH2 0x22D0 JUMP JUMPDEST SWAP1 POP CALLER PUSH1 0x5 PUSH1 0x0 DUP4 DUP2 MSTORE PUSH1 0x20 ADD SWAP1 DUP2 MSTORE PUSH1 0x20 ADD PUSH1 0x0 KECCAK256 PUSH1 0x0 PUSH2 0x100 EXP DUP2 SLOAD DUP2 PUSH20 0xFFFFFFFFFFFFFFFFFFFFFFFFFFFFFFFFFFFFFFFF MUL NOT AND SWAP1 DUP4 PUSH20 0xFFFFFFFFFFFFFFFFFFFFFFFFFFFFFFFFFFFFFFFF AND MUL OR SWAP1 SSTORE POP PUSH2 0x188F PUSH1 0x1 PUSH1 0x6 PUSH1 0x0 CALLER PUSH20 0xFFFFFFFFFFFFFFFFFFFFFFFFFFFFFFFFFFFFFFFF AND PUSH20 0xFFFFFFFFFFFFFFFFFFFFFFFFFFFFFFFFFFFFFFFF AND DUP2 MSTORE PUSH1 0x20 ADD SWAP1 DUP2 MSTORE PUSH1 0x20 ADD PUSH1 0x0 KECCAK256 SLOAD PUSH2 0x119D SWAP1 SWAP2 SWAP1 PUSH4 0xFFFFFFFF AND JUMP JUMPDEST PUSH1 0x6 PUSH1 0x0 CALLER PUSH20 0xFFFFFFFFFFFFFFFFFFFFFFFFFFFFFFFFFFFFFFFF AND PUSH20 0xFFFFFFFFFFFFFFFFFFFFFFFFFFFFFFFFFFFFFFFF AND DUP2 MSTORE PUSH1 0x20 ADD SWAP1 DUP2 MSTORE PUSH1 0x20 ADD PUSH1 0x0 KECCAK256 DUP2 SWAP1 SSTORE POP PUSH32 0x88F026AACBBECC90C18411DF4B1185FD8D9BE2470F1962F192BF84A27D0704B7 DUP2 DUP5 DUP5 PUSH1 0x40 MLOAD PUSH2 0x1905 SWAP4 SWAP3 SWAP2 SWAP1 PUSH2 0x2874 JUMP JUMPDEST PUSH1 0x40 MLOAD DUP1 SWAP2 SUB SWAP1 LOG1 POP POP POP JUMP JUMPDEST PUSH1 0x0 PUSH2 0x192A PUSH1 0x1 PUSH1 0x9 SLOAD PUSH2 0x119D SWAP1 SWAP2 SWAP1 PUSH4 0xFFFFFFFF AND JUMP JUMPDEST PUSH1 0x9 DUP2 SWAP1 SSTORE POP DUP2 TIMESTAMP CALLER PUSH1 0x9 SLOAD PUSH1 0x40 MLOAD PUSH1 0x20 ADD PUSH2 0x1948 SWAP4 SWAP3 SWAP2 SWAP1 PUSH2 0x291B JUMP JUMPDEST PUSH1 0x40 MLOAD PUSH1 0x20 DUP2 DUP4 SUB SUB DUP2 MSTORE SWAP1 PUSH1 0x40 MSTORE DUP1 MLOAD SWAP1 PUSH1 0x20 ADD KECCAK256 PUSH1 0x0 SHR PUSH2 0x196B SWAP2 SWAP1 PUSH2 0x229F JUMP JUMPDEST SWAP1 POP SWAP2 SWAP1 POP JUMP JUMPDEST PUSH1 0x3 SLOAD TIMESTAMP PUSH2 0x1980 SWAP2 SWAP1 PUSH2 0x261D JUMP JUMPDEST DUP2 PUSH1 0x2 ADD PUSH1 0x4 PUSH2 0x100 EXP DUP2 SLOAD DUP2 PUSH4 0xFFFFFFFF MUL NOT AND SWAP1 DUP4 PUSH4 0xFFFFFFFF AND MUL OR SWAP1 SSTORE POP POP JUMP JUMPDEST PUSH1 0x0 DUP2 DUP4 PUSH2 0x19B3 SWAP2 SWAP1 PUSH2 0x22D0 JUMP JUMPDEST SWAP1 POP SWAP3 SWAP2 POP POP JUMP JUMPDEST PUSH1 0x0 CALLER SWAP1 POP SWAP1 JUMP JUMPDEST PUSH1 0x0 PUSH1 0x40 MLOAD SWAP1 POP SWAP1 JUMP JUMPDEST PUSH1 0x0 DUP1 REVERT JUMPDEST PUSH1 0x0 DUP1 REVERT JUMPDEST PUSH1 0x0 PUSH20 0xFFFFFFFFFFFFFFFFFFFFFFFFFFFFFFFFFFFFFFFF DUP3 AND SWAP1 POP SWAP2 SWAP1 POP JUMP JUMPDEST PUSH1 0x0 PUSH2 0x1A02 DUP3 PUSH2 0x19D7 JUMP JUMPDEST SWAP1 POP SWAP2 SWAP1 POP JUMP JUMPDEST PUSH2 0x1A12 DUP2 PUSH2 0x19F7 JUMP JUMPDEST DUP2 EQ PUSH2 0x1A1D JUMPI PUSH1 0x0 DUP1 REVERT JUMPDEST POP JUMP JUMPDEST PUSH1 0x0 DUP2 CALLDATALOAD SWAP1 POP PUSH2 0x1A2F DUP2 PUSH2 0x1A09 JUMP JUMPDEST SWAP3 SWAP2 POP POP JUMP JUMPDEST PUSH1 0x0 DUP2 SWAP1 POP SWAP2 SWAP1 POP JUMP JUMPDEST PUSH2 0x1A48 DUP2 PUSH2 0x1A35 JUMP JUMPDEST DUP2 EQ PUSH2 0x1A53 JUMPI PUSH1 0x0 DUP1 REVERT JUMPDEST POP JUMP JUMPDEST PUSH1 0x0 DUP2 CALLDATALOAD SWAP1 POP PUSH2 0x1A65 DUP2 PUSH2 0x1A3F JUMP JUMPDEST SWAP3 SWAP2 POP POP JUMP JUMPDEST PUSH1 0x0 DUP1 PUSH1 0x40 DUP4 DUP6 SUB SLT ISZERO PUSH2 0x1A82 JUMPI PUSH2 0x1A81 PUSH2 0x19CD JUMP JUMPDEST JUMPDEST PUSH1 0x0 PUSH2 0x1A90 DUP6 DUP3 DUP7 ADD PUSH2 0x1A20 JUMP JUMPDEST SWAP3 POP POP PUSH1 0x20 PUSH2 0x1AA1 DUP6 DUP3 DUP7 ADD PUSH2 0x1A56 JUMP JUMPDEST SWAP2 POP POP SWAP3 POP SWAP3 SWAP1 POP JUMP JUMPDEST PUSH1 0x0 PUSH1 0x20 DUP3 DUP5 SUB SLT ISZERO PUSH2 0x1AC1 JUMPI PUSH2 0x1AC0 PUSH2 0x19CD JUMP JUMPDEST JUMPDEST PUSH1 0x0 PUSH2 0x1ACF DUP5 DUP3 DUP6 ADD PUSH2 0x1A56 JUMP JUMPDEST SWAP2 POP POP SWAP3 SWAP2 POP POP JUMP JUMPDEST PUSH1 0x0 DUP1 PUSH1 0x40 DUP4 DUP6 SUB SLT ISZERO PUSH2 0x1AEF JUMPI PUSH2 0x1AEE PUSH2 0x19CD JUMP JUMPDEST JUMPDEST PUSH1 0x0 PUSH2 0x1AFD DUP6 DUP3 DUP7 ADD PUSH2 0x1A56 JUMP JUMPDEST SWAP3 POP POP PUSH1 0x20 PUSH2 0x1B0E DUP6 DUP3 DUP7 ADD PUSH2 0x1A56 JUMP JUMPDEST SWAP2 POP POP SWAP3 POP SWAP3 SWAP1 POP JUMP JUMPDEST PUSH1 0x0 DUP2 MLOAD SWAP1 POP SWAP2 SWAP1 POP JUMP JUMPDEST PUSH1 0x0 DUP3 DUP3 MSTORE PUSH1 0x20 DUP3 ADD SWAP1 POP SWAP3 SWAP2 POP POP JUMP JUMPDEST PUSH1 0x0 JUMPDEST DUP4 DUP2 LT ISZERO PUSH2 0x1B52 JUMPI DUP1 DUP3 ADD MLOAD DUP2 DUP5 ADD MSTORE PUSH1 0x20 DUP2 ADD SWAP1 POP PUSH2 0x1B37 JUMP JUMPDEST PUSH1 0x0 DUP5 DUP5 ADD MSTORE POP POP POP POP JUMP JUMPDEST PUSH1 0x0 PUSH1 0x1F NOT PUSH1 0x1F DUP4 ADD AND SWAP1 POP SWAP2 SWAP1 POP JUMP JUMPDEST PUSH1 0x0 PUSH2 0x1B7A DUP3 PUSH2 0x1B18 JUMP JUMPDEST PUSH2 0x1B84 DUP2 DUP6 PUSH2 0x1B23 JUMP JUMPDEST SWAP4 POP PUSH2 0x1B94 DUP2 DUP6 PUSH1 0x20 DUP7 ADD PUSH2 0x1B34 JUMP JUMPDEST PUSH2 0x1B9D DUP2 PUSH2 0x1B5E JUMP JUMPDEST DUP5 ADD SWAP2 POP POP SWAP3 SWAP2 POP POP JUMP JUMPDEST PUSH2 0x1BB1 DUP2 PUSH2 0x1A35 JUMP JUMPDEST DUP3 MSTORE POP POP JUMP JUMPDEST PUSH1 0x0 PUSH4 0xFFFFFFFF DUP3 AND SWAP1 POP SWAP2 SWAP1 POP JUMP JUMPDEST PUSH2 0x1BD0 DUP2 PUSH2 0x1BB7 JUMP JUMPDEST DUP3 MSTORE POP POP JUMP JUMPDEST PUSH1 0x0 PUSH2 0xFFFF DUP3 AND SWAP1 POP SWAP2 SWAP1 POP JUMP JUMPDEST PUSH2 0x1BED DUP2 PUSH2 0x1BD6 JUMP JUMPDEST DUP3 MSTORE POP POP JUMP JUMPDEST PUSH1 0x0 PUSH1 0xC0 DUP3 ADD SWAP1 POP DUP2 DUP2 SUB PUSH1 0x0 DUP4 ADD MSTORE PUSH2 0x1C0D DUP2 DUP10 PUSH2 0x1B6F JUMP JUMPDEST SWAP1 POP PUSH2 0x1C1C PUSH1 0x20 DUP4 ADD DUP9 PUSH2 0x1BA8 JUMP JUMPDEST PUSH2 0x1C29 PUSH1 0x40 DUP4 ADD DUP8 PUSH2 0x1BC7 JUMP JUMPDEST PUSH2 0x1C36 PUSH1 0x60 DUP4 ADD DUP7 PUSH2 0x1BC7 JUMP JUMPDEST PUSH2 0x1C43 PUSH1 0x80 DUP4 ADD DUP6 PUSH2 0x1BE4 JUMP JUMPDEST PUSH2 0x1C50 PUSH1 0xA0 DUP4 ADD DUP5 PUSH2 0x1BE4 JUMP JUMPDEST SWAP8 SWAP7 POP POP POP POP POP POP POP JUMP JUMPDEST PUSH1 0x0 DUP1 PUSH1 0x0 PUSH1 0x60 DUP5 DUP7 SUB SLT ISZERO PUSH2 0x1C74 JUMPI PUSH2 0x1C73 PUSH2 0x19CD JUMP JUMPDEST JUMPDEST PUSH1 0x0 PUSH2 0x1C82 DUP7 DUP3 DUP8 ADD PUSH2 0x1A20 JUMP JUMPDEST SWAP4 POP POP PUSH1 0x20 PUSH2 0x1C93 DUP7 DUP3 DUP8 ADD PUSH2 0x1A20 JUMP JUMPDEST SWAP3 POP POP PUSH1 0x40 PUSH2 0x1CA4 DUP7 DUP3 DUP8 ADD PUSH2 0x1A56 JUMP JUMPDEST SWAP2 POP POP SWAP3 POP SWAP3 POP SWAP3 JUMP JUMPDEST PUSH1 0x0 PUSH1 0x20 DUP3 DUP5 SUB SLT ISZERO PUSH2 0x1CC4 JUMPI PUSH2 0x1CC3 PUSH2 0x19CD JUMP JUMPDEST JUMPDEST PUSH1 0x0 PUSH2 0x1CD2 DUP5 DUP3 DUP6 ADD PUSH2 0x1A20 JUMP JUMPDEST SWAP2 POP POP SWAP3 SWAP2 POP POP JUMP JUMPDEST PUSH1 0x0 DUP2 MLOAD SWAP1 POP SWAP2 SWAP1 POP JUMP JUMPDEST PUSH1 0x0 DUP3 DUP3 MSTORE PUSH1 0x20 DUP3 ADD SWAP1 POP SWAP3 SWAP2 POP POP JUMP JUMPDEST PUSH1 0x0 DUP2 SWAP1 POP PUSH1 0x20 DUP3 ADD SWAP1 POP SWAP2 SWAP1 POP JUMP JUMPDEST PUSH2 0x1D10 DUP2 PUSH2 0x1A35 JUMP JUMPDEST DUP3 MSTORE POP POP JUMP JUMPDEST PUSH1 0x0 PUSH2 0x1D22 DUP4 DUP4 PUSH2 0x1D07 JUMP JUMPDEST PUSH1 0x20 DUP4 ADD SWAP1 POP SWAP3 SWAP2 POP POP JUMP JUMPDEST PUSH1 0x0 PUSH1 0x20 DUP3 ADD SWAP1 POP SWAP2 SWAP1 POP JUMP JUMPDEST PUSH1 0x0 PUSH2 0x1D46 DUP3 PUSH2 0x1CDB JUMP JUMPDEST PUSH2 0x1D50 DUP2 DUP6 PUSH2 0x1CE6 JUMP JUMPDEST SWAP4 POP PUSH2 0x1D5B DUP4 PUSH2 0x1CF7 JUMP JUMPDEST DUP1 PUSH1 0x0 JUMPDEST DUP4 DUP2 LT ISZERO PUSH2 0x1D8C JUMPI DUP2 MLOAD PUSH2 0x1D73 DUP9 DUP3 PUSH2 0x1D16 JUMP JUMPDEST SWAP8 POP PUSH2 0x1D7E DUP4 PUSH2 0x1D2E JUMP JUMPDEST SWAP3 POP POP PUSH1 0x1 DUP2 ADD SWAP1 POP PUSH2 0x1D5F JUMP JUMPDEST POP DUP6 SWAP4 POP POP POP POP SWAP3 SWAP2 POP POP JUMP JUMPDEST PUSH1 0x0 PUSH1 0x20 DUP3 ADD SWAP1 POP DUP2 DUP2 SUB PUSH1 0x0 DUP4 ADD MSTORE PUSH2 0x1DB3 DUP2 DUP5 PUSH2 0x1D3B JUMP JUMPDEST SWAP1 POP SWAP3 SWAP2 POP POP JUMP JUMPDEST PUSH2 0x1DC4 DUP2 PUSH2 0x19F7 JUMP JUMPDEST DUP3 MSTORE POP POP JUMP JUMPDEST PUSH1 0x0 PUSH1 0x20 DUP3 ADD SWAP1 POP PUSH2 0x1DDF PUSH1 0x0 DUP4 ADD DUP5 PUSH2 0x1DBB JUMP JUMPDEST SWAP3 SWAP2 POP POP JUMP JUMPDEST PUSH1 0x0 PUSH1 0x20 DUP3 ADD SWAP1 POP PUSH2 0x1DFA PUSH1 0x0 DUP4 ADD DUP5 PUSH2 0x1BA8 JUMP JUMPDEST SWAP3 SWAP2 POP POP JUMP JUMPDEST PUSH1 0x0 DUP1 REVERT JUMPDEST PUSH1 0x0 DUP1 REVERT JUMPDEST PUSH32 0x4E487B7100000000000000000000000000000000000000000000000000000000 PUSH1 0x0 MSTORE PUSH1 0x41 PUSH1 0x4 MSTORE PUSH1 0x24 PUSH1 0x0 REVERT JUMPDEST PUSH2 0x1E42 DUP3 PUSH2 0x1B5E JUMP JUMPDEST DUP2 ADD DUP2 DUP2 LT PUSH8 0xFFFFFFFFFFFFFFFF DUP3 GT OR ISZERO PUSH2 0x1E61 JUMPI PUSH2 0x1E60 PUSH2 0x1E0A JUMP JUMPDEST JUMPDEST DUP1 PUSH1 0x40 MSTORE POP POP POP JUMP JUMPDEST PUSH1 0x0 PUSH2 0x1E74 PUSH2 0x19C3 JUMP JUMPDEST SWAP1 POP PUSH2 0x1E80 DUP3 DUP3 PUSH2 0x1E39 JUMP JUMPDEST SWAP2 SWAP1 POP JUMP JUMPDEST PUSH1 0x0 PUSH8 0xFFFFFFFFFFFFFFFF DUP3 GT ISZERO PUSH2 0x1EA0 JUMPI PUSH2 0x1E9F PUSH2 0x1E0A JUMP JUMPDEST JUMPDEST PUSH2 0x1EA9 DUP3 PUSH2 0x1B5E JUMP JUMPDEST SWAP1 POP PUSH1 0x20 DUP2 ADD SWAP1 POP SWAP2 SWAP1 POP JUMP JUMPDEST DUP3 DUP2 DUP4 CALLDATACOPY PUSH1 0x0 DUP4 DUP4 ADD MSTORE POP POP POP JUMP JUMPDEST PUSH1 0x0 PUSH2 0x1ED8 PUSH2 0x1ED3 DUP5 PUSH2 0x1E85 JUMP JUMPDEST PUSH2 0x1E6A JUMP JUMPDEST SWAP1 POP DUP3 DUP2 MSTORE PUSH1 0x20 DUP2 ADD DUP5 DUP5 DUP5 ADD GT ISZERO PUSH2 0x1EF4 JUMPI PUSH2 0x1EF3 PUSH2 0x1E05 JUMP JUMPDEST JUMPDEST PUSH2 0x1EFF DUP5 DUP3 DUP6 PUSH2 0x1EB6 JUMP JUMPDEST POP SWAP4 SWAP3 POP POP POP JUMP JUMPDEST PUSH1 0x0 DUP3 PUSH1 0x1F DUP4 ADD SLT PUSH2 0x1F1C JUMPI PUSH2 0x1F1B PUSH2 0x1E00 JUMP JUMPDEST JUMPDEST DUP2 CALLDATALOAD PUSH2 0x1F2C DUP5 DUP3 PUSH1 0x20 DUP7 ADD PUSH2 0x1EC5 JUMP JUMPDEST SWAP2 POP POP SWAP3 SWAP2 POP POP JUMP JUMPDEST PUSH1 0x0 PUSH1 0x20 DUP3 DUP5 SUB SLT ISZERO PUSH2 0x1F4B JUMPI PUSH2 0x1F4A PUSH2 0x19CD JUMP JUMPDEST JUMPDEST PUSH1 0x0 DUP3 ADD CALLDATALOAD PUSH8 0xFFFFFFFFFFFFFFFF DUP2 GT ISZERO PUSH2 0x1F69 JUMPI PUSH2 0x1F68 PUSH2 0x19D2 JUMP JUMPDEST JUMPDEST PUSH2 0x1F75 DUP5 DUP3 DUP6 ADD PUSH2 0x1F07 JUMP JUMPDEST SWAP2 POP POP SWAP3 SWAP2 POP POP JUMP JUMPDEST PUSH1 0x0 DUP1 REVERT JUMPDEST PUSH1 0x0 DUP1 REVERT JUMPDEST PUSH1 0x0 DUP1 DUP4 PUSH1 0x1F DUP5 ADD SLT PUSH2 0x1F9E JUMPI PUSH2 0x1F9D PUSH2 0x1E00 JUMP JUMPDEST JUMPDEST DUP3 CALLDATALOAD SWAP1 POP PUSH8 0xFFFFFFFFFFFFFFFF DUP2 GT ISZERO PUSH2 0x1FBB JUMPI PUSH2 0x1FBA PUSH2 0x1F7E JUMP JUMPDEST JUMPDEST PUSH1 0x20 DUP4 ADD SWAP2 POP DUP4 PUSH1 0x1 DUP3 MUL DUP4 ADD GT ISZERO PUSH2 0x1FD7 JUMPI PUSH2 0x1FD6 PUSH2 0x1F83 JUMP JUMPDEST JUMPDEST SWAP3 POP SWAP3 SWAP1 POP JUMP JUMPDEST PUSH1 0x0 DUP1 PUSH1 0x0 PUSH1 0x40 DUP5 DUP7 SUB SLT ISZERO PUSH2 0x1FF7 JUMPI PUSH2 0x1FF6 PUSH2 0x19CD JUMP JUMPDEST JUMPDEST PUSH1 0x0 PUSH2 0x2005 DUP7 DUP3 DUP8 ADD PUSH2 0x1A56 JUMP JUMPDEST SWAP4 POP POP PUSH1 0x20 DUP5 ADD CALLDATALOAD PUSH8 0xFFFFFFFFFFFFFFFF DUP2 GT ISZERO PUSH2 0x2026 JUMPI PUSH2 0x2025 PUSH2 0x19D2 JUMP JUMPDEST JUMPDEST PUSH2 0x2032 DUP7 DUP3 DUP8 ADD PUSH2 0x1F88 JUMP JUMPDEST SWAP3 POP SWAP3 POP POP SWAP3 POP SWAP3 POP SWAP3 JUMP JUMPDEST PUSH32 0x4E487B7100000000000000000000000000000000000000000000000000000000 PUSH1 0x0 MSTORE PUSH1 0x32 PUSH1 0x4 MSTORE PUSH1 0x24 PUSH1 0x0 REVERT JUMPDEST PUSH1 0x0 DUP2 ISZERO ISZERO SWAP1 POP SWAP2 SWAP1 POP JUMP JUMPDEST PUSH2 0x2082 DUP2 PUSH2 0x206D JUMP JUMPDEST DUP2 EQ PUSH2 0x208D JUMPI PUSH1 0x0 DUP1 REVERT JUMPDEST POP JUMP JUMPDEST PUSH1 0x0 DUP2 MLOAD SWAP1 POP PUSH2 0x209F DUP2 PUSH2 0x2079 JUMP JUMPDEST SWAP3 SWAP2 POP POP JUMP JUMPDEST PUSH1 0x0 DUP2 MLOAD SWAP1 POP PUSH2 0x20B4 DUP2 PUSH2 0x1A3F JUMP JUMPDEST SWAP3 SWAP2 POP POP JUMP JUMPDEST PUSH1 0x0 DUP1 PUSH1 0x0 DUP1 PUSH1 0x0 DUP1 PUSH1 0x0 DUP1 PUSH1 0x0 DUP1 PUSH2 0x140 DUP12 DUP14 SUB SLT ISZERO PUSH2 0x20DE JUMPI PUSH2 0x20DD PUSH2 0x19CD JUMP JUMPDEST JUMPDEST PUSH1 0x0 PUSH2 0x20EC DUP14 DUP3 DUP15 ADD PUSH2 0x2090 JUMP JUMPDEST SWAP11 POP POP PUSH1 0x20 PUSH2 0x20FD DUP14 DUP3 DUP15 ADD PUSH2 0x2090 JUMP JUMPDEST SWAP10 POP POP PUSH1 0x40 PUSH2 0x210E DUP14 DUP3 DUP15 ADD PUSH2 0x20A5 JUMP JUMPDEST SWAP9 POP POP PUSH1 0x60 PUSH2 0x211F DUP14 DUP3 DUP15 ADD PUSH2 0x20A5 JUMP JUMPDEST SWAP8 POP POP PUSH1 0x80 PUSH2 0x2130 DUP14 DUP3 DUP15 ADD PUSH2 0x20A5 JUMP JUMPDEST SWAP7 POP POP PUSH1 0xA0 PUSH2 0x2141 DUP14 DUP3 DUP15 ADD PUSH2 0x20A5 JUMP JUMPDEST SWAP6 POP POP PUSH1 0xC0 PUSH2 0x2152 DUP14 DUP3 DUP15 ADD PUSH2 0x20A5 JUMP JUMPDEST SWAP5 POP POP PUSH1 0xE0 PUSH2 0x2163 DUP14 DUP3 DUP15 ADD PUSH2 0x20A5 JUMP JUMPDEST SWAP4 POP POP PUSH2 0x100 PUSH2 0x2175 DUP14 DUP3 DUP15 ADD PUSH2 0x20A5 JUMP JUMPDEST SWAP3 POP POP PUSH2 0x120 PUSH2 0x2187 DUP14 DUP3 DUP15 ADD PUSH2 0x20A5 JUMP JUMPDEST SWAP2 POP POP SWAP3 SWAP6 SWAP9 SWAP12 SWAP2 SWAP5 SWAP8 SWAP11 POP SWAP3 SWAP6 SWAP9 POP JUMP JUMPDEST PUSH32 0x4E487B7100000000000000000000000000000000000000000000000000000000 PUSH1 0x0 MSTORE PUSH1 0x22 PUSH1 0x4 MSTORE PUSH1 0x24 PUSH1 0x0 REVERT JUMPDEST PUSH1 0x0 PUSH1 0x2 DUP3 DIV SWAP1 POP PUSH1 0x1 DUP3 AND DUP1 PUSH2 0x21E0 JUMPI PUSH1 0x7F DUP3 AND SWAP2 POP JUMPDEST PUSH1 0x20 DUP3 LT DUP2 SUB PUSH2 0x21F3 JUMPI PUSH2 0x21F2 PUSH2 0x2199 JUMP JUMPDEST JUMPDEST POP SWAP2 SWAP1 POP JUMP JUMPDEST PUSH32 0x4E487B7100000000000000000000000000000000000000000000000000000000 PUSH1 0x0 MSTORE PUSH1 0x11 PUSH1 0x4 MSTORE PUSH1 0x24 PUSH1 0x0 REVERT JUMPDEST PUSH1 0x0 PUSH2 0x2233 DUP3 PUSH2 0x1A35 JUMP JUMPDEST SWAP2 POP PUSH32 0xFFFFFFFFFFFFFFFFFFFFFFFFFFFFFFFFFFFFFFFFFFFFFFFFFFFFFFFFFFFFFFFF DUP3 SUB PUSH2 0x2265 JUMPI PUSH2 0x2264 PUSH2 0x21F9 JUMP JUMPDEST JUMPDEST PUSH1 0x1 DUP3 ADD SWAP1 POP SWAP2 SWAP1 POP JUMP JUMPDEST PUSH32 0x4E487B7100000000000000000000000000000000000000000000000000000000 PUSH1 0x0 MSTORE PUSH1 0x12 PUSH1 0x4 MSTORE PUSH1 0x24 PUSH1 0x0 REVERT JUMPDEST PUSH1 0x0 PUSH2 0x22AA DUP3 PUSH2 0x1A35 JUMP JUMPDEST SWAP2 POP PUSH2 0x22B5 DUP4 PUSH2 0x1A35 JUMP JUMPDEST SWAP3 POP DUP3 PUSH2 0x22C5 JUMPI PUSH2 0x22C4 PUSH2 0x2270 JUMP JUMPDEST JUMPDEST DUP3 DUP3 MOD SWAP1 POP SWAP3 SWAP2 POP POP JUMP JUMPDEST PUSH1 0x0 PUSH2 0x22DB DUP3 PUSH2 0x1A35 JUMP JUMPDEST SWAP2 POP PUSH2 0x22E6 DUP4 PUSH2 0x1A35 JUMP JUMPDEST SWAP3 POP DUP3 DUP3 SUB SWAP1 POP DUP2 DUP2 GT ISZERO PUSH2 0x22FE JUMPI PUSH2 0x22FD PUSH2 0x21F9 JUMP JUMPDEST JUMPDEST SWAP3 SWAP2 POP POP JUMP JUMPDEST PUSH1 0x0 DUP3 SWAP1 POP SWAP3 SWAP2 POP POP JUMP JUMPDEST PUSH1 0x0 DUP2 SWAP1 POP DUP2 PUSH1 0x0 MSTORE PUSH1 0x20 PUSH1 0x0 KECCAK256 SWAP1 POP SWAP2 SWAP1 POP JUMP JUMPDEST PUSH1 0x0 PUSH1 0x20 PUSH1 0x1F DUP4 ADD DIV SWAP1 POP SWAP2 SWAP1 POP JUMP JUMPDEST PUSH1 0x0 DUP3 DUP3 SHL SWAP1 POP SWAP3 SWAP2 POP POP JUMP JUMPDEST PUSH1 0x0 PUSH1 0x8 DUP4 MUL PUSH2 0x2371 PUSH32 0xFFFFFFFFFFFFFFFFFFFFFFFFFFFFFFFFFFFFFFFFFFFFFFFFFFFFFFFFFFFFFFFF DUP3 PUSH2 0x2334 JUMP JUMPDEST PUSH2 0x237B DUP7 DUP4 PUSH2 0x2334 JUMP JUMPDEST SWAP6 POP DUP1 NOT DUP5 AND SWAP4 POP DUP1 DUP7 AND DUP5 OR SWAP3 POP POP POP SWAP4 SWAP3 POP POP POP JUMP JUMPDEST PUSH1 0x0 DUP2 SWAP1 POP SWAP2 SWAP1 POP JUMP JUMPDEST PUSH1 0x0 PUSH2 0x23B8 PUSH2 0x23B3 PUSH2 0x23AE DUP5 PUSH2 0x1A35 JUMP JUMPDEST PUSH2 0x2393 JUMP JUMPDEST PUSH2 0x1A35 JUMP JUMPDEST SWAP1 POP SWAP2 SWAP1 POP JUMP JUMPDEST PUSH1 0x0 DUP2 SWAP1 POP SWAP2 SWAP1 POP JUMP JUMPDEST PUSH2 0x23D2 DUP4 PUSH2 0x239D JUMP JUMPDEST PUSH2 0x23E6 PUSH2 0x23DE DUP3 PUSH2 0x23BF JUMP JUMPDEST DUP5 DUP5 SLOAD PUSH2 0x2341 JUMP JUMPDEST DUP3 SSTORE POP POP POP POP JUMP JUMPDEST PUSH1 0x0 SWAP1 JUMP JUMPDEST PUSH2 0x23FB PUSH2 0x23EE JUMP JUMPDEST PUSH2 0x2406 DUP2 DUP5 DUP5 PUSH2 0x23C9 JUMP JUMPDEST POP POP POP JUMP JUMPDEST JUMPDEST DUP2 DUP2 LT ISZERO PUSH2 0x242A JUMPI PUSH2 0x241F PUSH1 0x0 DUP3 PUSH2 0x23F3 JUMP JUMPDEST PUSH1 0x1 DUP2 ADD SWAP1 POP PUSH2 0x240C JUMP JUMPDEST POP POP JUMP JUMPDEST PUSH1 0x1F DUP3 GT ISZERO PUSH2 0x246F JUMPI PUSH2 0x2440 DUP2 PUSH2 0x230F JUMP JUMPDEST PUSH2 0x2449 DUP5 PUSH2 0x2324 JUMP JUMPDEST DUP2 ADD PUSH1 0x20 DUP6 LT ISZERO PUSH2 0x2458 JUMPI DUP2 SWAP1 POP JUMPDEST PUSH2 0x246C PUSH2 0x2464 DUP6 PUSH2 0x2324 JUMP JUMPDEST DUP4 ADD DUP3 PUSH2 0x240B JUMP JUMPDEST POP POP JUMPDEST POP POP POP JUMP JUMPDEST PUSH1 0x0 DUP3 DUP3 SHR SWAP1 POP SWAP3 SWAP2 POP POP JUMP JUMPDEST PUSH1 0x0 PUSH2 0x2492 PUSH1 0x0 NOT DUP5 PUSH1 0x8 MUL PUSH2 0x2474 JUMP JUMPDEST NOT DUP1 DUP4 AND SWAP2 POP POP SWAP3 SWAP2 POP POP JUMP JUMPDEST PUSH1 0x0 PUSH2 0x24AB DUP4 DUP4 PUSH2 0x2481 JUMP JUMPDEST SWAP2 POP DUP3 PUSH1 0x2 MUL DUP3 OR SWAP1 POP SWAP3 SWAP2 POP POP JUMP JUMPDEST PUSH2 0x24C5 DUP4 DUP4 PUSH2 0x2304 JUMP JUMPDEST PUSH8 0xFFFFFFFFFFFFFFFF DUP2 GT ISZERO PUSH2 0x24DE JUMPI PUSH2 0x24DD PUSH2 0x1E0A JUMP JUMPDEST JUMPDEST PUSH2 0x24E8 DUP3 SLOAD PUSH2 0x21C8 JUMP JUMPDEST PUSH2 0x24F3 DUP3 DUP3 DUP6 PUSH2 0x242E JUMP JUMPDEST PUSH1 0x0 PUSH1 0x1F DUP4 GT PUSH1 0x1 DUP2 EQ PUSH2 0x2522 JUMPI PUSH1 0x0 DUP5 ISZERO PUSH2 0x2510 JUMPI DUP3 DUP8 ADD CALLDATALOAD SWAP1 POP JUMPDEST PUSH2 0x251A DUP6 DUP3 PUSH2 0x249F JUMP JUMPDEST DUP7 SSTORE POP PUSH2 0x2582 JUMP JUMPDEST PUSH1 0x1F NOT DUP5 AND PUSH2 0x2530 DUP7 PUSH2 0x230F JUMP JUMPDEST PUSH1 0x0 JUMPDEST DUP3 DUP2 LT ISZERO PUSH2 0x2558 JUMPI DUP5 DUP10 ADD CALLDATALOAD DUP3 SSTORE PUSH1 0x1 DUP3 ADD SWAP2 POP PUSH1 0x20 DUP6 ADD SWAP5 POP PUSH1 0x20 DUP2 ADD SWAP1 POP PUSH2 0x2533 JUMP JUMPDEST DUP7 DUP4 LT ISZERO PUSH2 0x2575 JUMPI DUP5 DUP10 ADD CALLDATALOAD PUSH2 0x2571 PUSH1 0x1F DUP10 AND DUP3 PUSH2 0x2481 JUMP JUMPDEST DUP4 SSTORE POP JUMPDEST PUSH1 0x1 PUSH1 0x2 DUP9 MUL ADD DUP9 SSTORE POP POP POP JUMPDEST POP POP POP POP POP POP POP JUMP JUMPDEST PUSH32 0x4F776E61626C653A206E6577206F776E657220697320746865207A65726F2061 PUSH1 0x0 DUP3 ADD MSTORE PUSH32 0x6464726573730000000000000000000000000000000000000000000000000000 PUSH1 0x20 DUP3 ADD MSTORE POP JUMP JUMPDEST PUSH1 0x0 PUSH2 0x25E7 PUSH1 0x26 DUP4 PUSH2 0x1B23 JUMP JUMPDEST SWAP2 POP PUSH2 0x25F2 DUP3 PUSH2 0x258B JUMP JUMPDEST PUSH1 0x40 DUP3 ADD SWAP1 POP SWAP2 SWAP1 POP JUMP JUMPDEST PUSH1 0x0 PUSH1 0x20 DUP3 ADD SWAP1 POP DUP2 DUP2 SUB PUSH1 0x0 DUP4 ADD MSTORE PUSH2 0x2616 DUP2 PUSH2 0x25DA JUMP JUMPDEST SWAP1 POP SWAP2 SWAP1 POP JUMP JUMPDEST PUSH1 0x0 PUSH2 0x2628 DUP3 PUSH2 0x1A35 JUMP JUMPDEST SWAP2 POP PUSH2 0x2633 DUP4 PUSH2 0x1A35 JUMP JUMPDEST SWAP3 POP DUP3 DUP3 ADD SWAP1 POP DUP1 DUP3 GT ISZERO PUSH2 0x264B JUMPI PUSH2 0x264A PUSH2 0x21F9 JUMP JUMPDEST JUMPDEST SWAP3 SWAP2 POP POP JUMP JUMPDEST PUSH1 0x0 PUSH2 0x265C DUP3 PUSH2 0x1A35 JUMP JUMPDEST SWAP2 POP PUSH2 0x2667 DUP4 PUSH2 0x1A35 JUMP JUMPDEST SWAP3 POP DUP3 PUSH2 0x2677 JUMPI PUSH2 0x2676 PUSH2 0x2270 JUMP JUMPDEST JUMPDEST DUP3 DUP3 DIV SWAP1 POP SWAP3 SWAP2 POP POP JUMP JUMPDEST PUSH1 0x0 DUP2 SWAP1 POP SWAP3 SWAP2 POP POP JUMP JUMPDEST PUSH32 0x6B69747479000000000000000000000000000000000000000000000000000000 PUSH1 0x0 DUP3 ADD MSTORE POP JUMP JUMPDEST PUSH1 0x0 PUSH2 0x26C3 PUSH1 0x5 DUP4 PUSH2 0x2682 JUMP JUMPDEST SWAP2 POP PUSH2 0x26CE DUP3 PUSH2 0x268D JUMP JUMPDEST PUSH1 0x5 DUP3 ADD SWAP1 POP SWAP2 SWAP1 POP JUMP JUMPDEST PUSH1 0x0 PUSH2 0x26E4 DUP3 PUSH2 0x26B6 JUMP JUMPDEST SWAP2 POP DUP2 SWAP1 POP SWAP2 SWAP1 POP JUMP JUMPDEST PUSH1 0x0 PUSH2 0x26F9 DUP3 PUSH2 0x1B18 JUMP JUMPDEST PUSH2 0x2703 DUP2 DUP6 PUSH2 0x2682 JUMP JUMPDEST SWAP4 POP PUSH2 0x2713 DUP2 DUP6 PUSH1 0x20 DUP7 ADD PUSH2 0x1B34 JUMP JUMPDEST DUP1 DUP5 ADD SWAP2 POP POP SWAP3 SWAP2 POP POP JUMP JUMPDEST PUSH1 0x0 PUSH2 0x272B DUP3 DUP5 PUSH2 0x26EE JUMP JUMPDEST SWAP2 POP DUP2 SWAP1 POP SWAP3 SWAP2 POP POP JUMP JUMPDEST PUSH32 0x4F776E61626C653A2063616C6C6572206973206E6F7420746865206F776E6572 PUSH1 0x0 DUP3 ADD MSTORE POP JUMP JUMPDEST PUSH1 0x0 PUSH2 0x276C PUSH1 0x20 DUP4 PUSH2 0x1B23 JUMP JUMPDEST SWAP2 POP PUSH2 0x2777 DUP3 PUSH2 0x2736 JUMP JUMPDEST PUSH1 0x20 DUP3 ADD SWAP1 POP SWAP2 SWAP1 POP JUMP JUMPDEST PUSH1 0x0 PUSH1 0x20 DUP3 ADD SWAP1 POP DUP2 DUP2 SUB PUSH1 0x0 DUP4 ADD MSTORE PUSH2 0x279B DUP2 PUSH2 0x275F JUMP JUMPDEST SWAP1 POP SWAP2 SWAP1 POP JUMP JUMPDEST PUSH2 0x27AB DUP3 PUSH2 0x1B18 JUMP JUMPDEST PUSH8 0xFFFFFFFFFFFFFFFF DUP2 GT ISZERO PUSH2 0x27C4 JUMPI PUSH2 0x27C3 PUSH2 0x1E0A JUMP JUMPDEST JUMPDEST PUSH2 0x27CE DUP3 SLOAD PUSH2 0x21C8 JUMP JUMPDEST PUSH2 0x27D9 DUP3 DUP3 DUP6 PUSH2 0x242E JUMP JUMPDEST PUSH1 0x0 PUSH1 0x20 SWAP1 POP PUSH1 0x1F DUP4 GT PUSH1 0x1 DUP2 EQ PUSH2 0x280C JUMPI PUSH1 0x0 DUP5 ISZERO PUSH2 0x27FA JUMPI DUP3 DUP8 ADD MLOAD SWAP1 POP JUMPDEST PUSH2 0x2804 DUP6 DUP3 PUSH2 0x249F JUMP JUMPDEST DUP7 SSTORE POP PUSH2 0x286C JUMP JUMPDEST PUSH1 0x1F NOT DUP5 AND PUSH2 0x281A DUP7 PUSH2 0x230F JUMP JUMPDEST PUSH1 0x0 JUMPDEST DUP3 DUP2 LT ISZERO PUSH2 0x2842 JUMPI DUP5 DUP10 ADD MLOAD DUP3 SSTORE PUSH1 0x1 DUP3 ADD SWAP2 POP PUSH1 0x20 DUP6 ADD SWAP5 POP PUSH1 0x20 DUP2 ADD SWAP1 POP PUSH2 0x281D JUMP JUMPDEST DUP7 DUP4 LT ISZERO PUSH2 0x285F JUMPI DUP5 DUP10 ADD MLOAD PUSH2 0x285B PUSH1 0x1F DUP10 AND DUP3 PUSH2 0x2481 JUMP JUMPDEST DUP4 SSTORE POP JUMPDEST PUSH1 0x1 PUSH1 0x2 DUP9 MUL ADD DUP9 SSTORE POP POP POP JUMPDEST POP POP POP POP POP POP JUMP JUMPDEST PUSH1 0x0 PUSH1 0x60 DUP3 ADD SWAP1 POP PUSH2 0x2889 PUSH1 0x0 DUP4 ADD DUP7 PUSH2 0x1BA8 JUMP JUMPDEST DUP2 DUP2 SUB PUSH1 0x20 DUP4 ADD MSTORE PUSH2 0x289B DUP2 DUP6 PUSH2 0x1B6F JUMP JUMPDEST SWAP1 POP PUSH2 0x28AA PUSH1 0x40 DUP4 ADD DUP5 PUSH2 0x1BA8 JUMP JUMPDEST SWAP5 SWAP4 POP POP POP POP JUMP JUMPDEST PUSH1 0x0 DUP2 SWAP1 POP SWAP2 SWAP1 POP JUMP JUMPDEST PUSH2 0x28CD PUSH2 0x28C8 DUP3 PUSH2 0x1A35 JUMP JUMPDEST PUSH2 0x28B2 JUMP JUMPDEST DUP3 MSTORE POP POP JUMP JUMPDEST PUSH1 0x0 DUP2 PUSH1 0x60 SHL SWAP1 POP SWAP2 SWAP1 POP JUMP JUMPDEST PUSH1 0x0 PUSH2 0x28EB DUP3 PUSH2 0x28D3 JUMP JUMPDEST SWAP1 POP SWAP2 SWAP1 POP JUMP JUMPDEST PUSH1 0x0 PUSH2 0x28FD DUP3 PUSH2 0x28E0 JUMP JUMPDEST SWAP1 POP SWAP2 SWAP1 POP JUMP JUMPDEST PUSH2 0x2915 PUSH2 0x2910 DUP3 PUSH2 0x19F7 JUMP JUMPDEST PUSH2 0x28F2 JUMP JUMPDEST DUP3 MSTORE POP POP JUMP JUMPDEST PUSH1 0x0 PUSH2 0x2927 DUP3 DUP7 PUSH2 0x28BC JUMP JUMPDEST PUSH1 0x20 DUP3 ADD SWAP2 POP PUSH2 0x2937 DUP3 DUP6 PUSH2 0x2904 JUMP JUMPDEST PUSH1 0x14 DUP3 ADD SWAP2 POP PUSH2 0x2947 DUP3 DUP5 PUSH2 0x28BC JUMP JUMPDEST PUSH1 0x20 DUP3 ADD SWAP2 POP DUP2 SWAP1 POP SWAP5 SWAP4 POP POP POP POP JUMP INVALID LOG2 PUSH5 0x6970667358 0x22 SLT KECCAK256 0x22 AND 0xA7 DUP9 0x22 0xAD 0x4B SWAP1 SWAP8 SLOAD 0xA9 0xB3 0x28 0xAA CALLER GAS GT 0xBC 0xBC ADDMOD 0xAD DUP12 0x1E GAS DUP13 0xE5 SGT CALLVALUE 0xC0 SMOD BALANCE MSIZE PUSH5 0x736F6C6343 STOP ADDMOD GT STOP CALLER "
		},
		"gasEstimates": {
			"creation": {
				"codeDepositCost": "2127600",
				"executionCost": "infinite",
				"totalCost": "infinite"
			},
			"external": {
				"approve(address,uint256)": "29148",
				"attack(uint256,uint256)": "infinite",
				"balanceOf(address)": "2908",
				"changeDna(uint256,uint256)": "infinite",
				"changeName(uint256,string)": "infinite",
				"createRandomZombie(string)": "infinite",
				"feedOnKitty(uint256,uint256)": "infinite",
				"getZombiesByOwner(address)": "infinite",
				"levelUp(uint256)": "infinite",
				"owner()": "2544",
				"ownerOf(uint256)": "2910",
				"renounceOwnership()": "30487",
				"setKittyContractAddress(address)": "27097",
				"setLevelUpFee(uint256)": "24850",
				"transferFrom(address,address,uint256)": "infinite",
				"transferOwnership(address)": "30854",
				"withdraw()": "infinite",
				"zombieToOwner(uint256)": "2928",
				"zombies(uint256)": "infinite"
			},
			"internal": {
				"_transfer(address,address,uint256)": "infinite"
			}
		},
		"methodIdentifiers": {
			"approve(address,uint256)": "095ea7b3",
			"attack(uint256,uint256)": "e1fa7638",
			"balanceOf(address)": "70a08231",
			"changeDna(uint256,uint256)": "5faf2880",
			"changeName(uint256,string)": "c39cbef1",
			"createRandomZombie(string)": "7bff0a01",
			"feedOnKitty(uint256,uint256)": "17a7f4cc",
			"getZombiesByOwner(address)": "4412e104",
			"levelUp(uint256)": "0ce90ec2",
			"owner()": "8da5cb5b",
			"ownerOf(uint256)": "6352211e",
			"renounceOwnership()": "715018a6",
			"setKittyContractAddress(address)": "5f4623f1",
			"setLevelUpFee(uint256)": "ccf670f8",
			"transferFrom(address,address,uint256)": "23b872dd",
			"transferOwnership(address)": "f2fde38b",
			"withdraw()": "3ccfd60b",
			"zombieToOwner(uint256)": "528b7b8f",
			"zombies(uint256)": "2052465e"
		}
	},
	"abi": [
		{
			"anonymous": false,
			"inputs": [
				{
					"indexed": true,
					"internalType": "address",
					"name": "_owner",
					"type": "address"
				},
				{
					"indexed": true,
					"internalType": "address",
					"name": "_approved",
					"type": "address"
				},
				{
					"indexed": true,
					"internalType": "uint256",
					"name": "_tokenId",
					"type": "uint256"
				}
			],
			"name": "Approval",
			"type": "event"
		},
		{
			"anonymous": false,
			"inputs": [
				{
					"indexed": false,
					"internalType": "uint256",
					"name": "zombieId",
					"type": "uint256"
				},
				{
					"indexed": false,
					"internalType": "string",
					"name": "name",
					"type": "string"
				},
				{
					"indexed": false,
					"internalType": "uint256",
					"name": "dna",
					"type": "uint256"
				}
			],
			"name": "NewZombie",
			"type": "event"
		},
		{
			"anonymous": false,
			"inputs": [
				{
					"indexed": true,
					"internalType": "address",
					"name": "previousOwner",
					"type": "address"
				},
				{
					"indexed": true,
					"internalType": "address",
					"name": "newOwner",
					"type": "address"
				}
			],
			"name": "OwnershipTransferred",
			"type": "event"
		},
		{
			"anonymous": false,
			"inputs": [
				{
					"indexed": true,
					"internalType": "address",
					"name": "_from",
					"type": "address"
				},
				{
					"indexed": true,
					"internalType": "address",
					"name": "_to",
					"type": "address"
				},
				{
					"indexed": true,
					"internalType": "uint256",
					"name": "_tokenId",
					"type": "uint256"
				}
			],
			"name": "Transfer",
			"type": "event"
		},
		{
			"inputs": [
				{
					"internalType": "address",
					"name": "_approved",
					"type": "address"
				},
				{
					"internalType": "uint256",
					"name": "_tokenId",
					"type": "uint256"
				}
			],
			"name": "approve",
			"outputs": [],
			"stateMutability": "payable",
			"type": "function"
		},
		{
			"inputs": [
				{
					"internalType": "uint256",
					"name": "_zombieId",
					"type": "uint256"
				},
				{
					"internalType": "uint256",
					"name": "_targetId",
					"type": "uint256"
				}
			],
			"name": "attack",
			"outputs": [],
			"stateMutability": "nonpayable",
			"type": "function"
		},
		{
			"inputs": [
				{
					"internalType": "address",
					"name": "_owner",
					"type": "address"
				}
			],
			"name": "balanceOf",
			"outputs": [
				{
					"internalType": "uint256",
					"name": "",
					"type": "uint256"
				}
			],
			"stateMutability": "view",
			"type": "function"
		},
		{
			"inputs": [
				{
					"internalType": "uint256",
					"name": "_zombieId",
					"type": "uint256"
				},
				{
					"internalType": "uint256",
					"name": "_newDna",
					"type": "uint256"
				}
			],
			"name": "changeDna",
			"outputs": [],
			"stateMutability": "nonpayable",
			"type": "function"
		},
		{
			"inputs": [
				{
					"internalType": "uint256",
					"name": "_zombieId",
					"type": "uint256"
				},
				{
					"internalType": "string",
					"name": "_newName",
					"type": "string"
				}
			],
			"name": "changeName",
			"outputs": [],
			"stateMutability": "nonpayable",
			"type": "function"
		},
		{
			"inputs": [
				{
					"internalType": "string",
					"name": "_name",
					"type": "string"
				}
			],
			"name": "createRandomZombie",
			"outputs": [],
			"stateMutability": "nonpayable",
			"type": "function"
		},
		{
			"inputs": [
				{
					"internalType": "uint256",
					"name": "_zombieId",
					"type": "uint256"
				},
				{
					"internalType": "uint256",
					"name": "_kittyId",
					"type": "uint256"
				}
			],
			"name": "feedOnKitty",
			"outputs": [],
			"stateMutability": "nonpayable",
			"type": "function"
		},
		{
			"inputs": [
				{
					"internalType": "address",
					"name": "_owner",
					"type": "address"
				}
			],
			"name": "getZombiesByOwner",
			"outputs": [
				{
					"internalType": "uint256[]",
					"name": "",
					"type": "uint256[]"
				}
			],
			"stateMutability": "view",
			"type": "function"
		},
		{
			"inputs": [
				{
					"internalType": "uint256",
					"name": "_zombieId",
					"type": "uint256"
				}
			],
			"name": "levelUp",
			"outputs": [],
			"stateMutability": "payable",
			"type": "function"
		},
		{
			"inputs": [],
			"name": "owner",
			"outputs": [
				{
					"internalType": "address",
					"name": "",
					"type": "address"
				}
			],
			"stateMutability": "view",
			"type": "function"
		},
		{
			"inputs": [
				{
					"internalType": "uint256",
					"name": "_tokenId",
					"type": "uint256"
				}
			],
			"name": "ownerOf",
			"outputs": [
				{
					"internalType": "address",
					"name": "",
					"type": "address"
				}
			],
			"stateMutability": "view",
			"type": "function"
		},
		{
			"inputs": [],
			"name": "renounceOwnership",
			"outputs": [],
			"stateMutability": "nonpayable",
			"type": "function"
		},
		{
			"inputs": [
				{
					"internalType": "address",
					"name": "_address",
					"type": "address"
				}
			],
			"name": "setKittyContractAddress",
			"outputs": [],
			"stateMutability": "nonpayable",
			"type": "function"
		},
		{
			"inputs": [
				{
					"internalType": "uint256",
					"name": "_fee",
					"type": "uint256"
				}
			],
			"name": "setLevelUpFee",
			"outputs": [],
			"stateMutability": "nonpayable",
			"type": "function"
		},
		{
			"inputs": [
				{
					"internalType": "address",
					"name": "_from",
					"type": "address"
				},
				{
					"internalType": "address",
					"name": "_to",
					"type": "address"
				},
				{
					"internalType": "uint256",
					"name": "_tokenId",
					"type": "uint256"
				}
			],
			"name": "transferFrom",
			"outputs": [],
			"stateMutability": "payable",
			"type": "function"
		},
		{
			"inputs": [
				{
					"internalType": "address",
					"name": "newOwner",
					"type": "address"
				}
			],
			"name": "transferOwnership",
			"outputs": [],
			"stateMutability": "nonpayable",
			"type": "function"
		},
		{
			"inputs": [],
			"name": "withdraw",
			"outputs": [],
			"stateMutability": "nonpayable",
			"type": "function"
		},
		{
			"inputs": [
				{
					"internalType": "uint256",
					"name": "",
					"type": "uint256"
				}
			],
			"name": "zombieToOwner",
			"outputs": [
				{
					"internalType": "address",
					"name": "",
					"type": "address"
				}
			],
			"stateMutability": "view",
			"type": "function"
		},
		{
			"inputs": [
				{
					"internalType": "uint256",
					"name": "",
					"type": "uint256"
				}
			],
			"name": "zombies",
			"outputs": [
				{
					"internalType": "string",
					"name": "name",
					"type": "string"
				},
				{
					"internalType": "uint256",
					"name": "dna",
					"type": "uint256"
				},
				{
					"internalType": "uint32",
					"name": "level",
					"type": "uint32"
				},
				{
					"internalType": "uint32",
					"name": "readyTime",
					"type": "uint32"
				},
				{
					"internalType": "uint16",
					"name": "winCount",
					"type": "uint16"
				},
				{
					"internalType": "uint16",
					"name": "lossCount",
					"type": "uint16"
				}
			],
			"stateMutability": "view",
			"type": "function"
		}
	]
}