{
	"data": {
		"bytecode": {
			"linkReferences": {},
			"object": "60806040526010600155600154600a6200001a9190620002b1565b600255620151806003553480156200003157600080fd5b5062000052620000466200005860201b60201c565b6200006060201b60201c565b62000302565b600033905090565b60008060009054906101000a900473ffffffffffffffffffffffffffffffffffffffff169050816000806101000a81548173ffffffffffffffffffffffffffffffffffffffff021916908373ffffffffffffffffffffffffffffffffffffffff1602179055508173ffffffffffffffffffffffffffffffffffffffff168173ffffffffffffffffffffffffffffffffffffffff167f8be0079c531659141344cd1fd0a4f28419497f9722a3daafe3b4186f6b6457e060405160405180910390a35050565b7f4e487b7100000000000000000000000000000000000000000000000000000000600052601160045260246000fd5b60008160011c9050919050565b6000808291508390505b6001851115620001b2578086048111156200018a576200018962000124565b5b60018516156200019a5780820291505b8081029050620001aa8562000153565b94506200016a565b94509492505050565b600082620001cd5760019050620002a0565b81620001dd5760009050620002a0565b8160018114620001f65760028114620002015762000237565b6001915050620002a0565b60ff84111562000216576200021562000124565b5b8360020a91508482111562000230576200022f62000124565b5b50620002a0565b5060208310610133831016604e8410600b8410161715620002715782820a9050838111156200026b576200026a62000124565b5b620002a0565b62000280848484600162000160565b925090508184048111156200029a576200029962000124565b5b81810290505b9392505050565b6000819050919050565b6000620002be82620002a7565b9150620002cb83620002a7565b9250620002fa7fffffffffffffffffffffffffffffffffffffffffffffffffffffffffffffffff8484620001bb565b905092915050565b61171980620003126000396000f3fe608060405234801561001057600080fd5b50600436106100885760003560e01c8063715018a61161005b578063715018a61461012a5780637bff0a01146101345780638da5cb5b14610150578063f2fde38b1461016e57610088565b806317a7f4cc1461008d5780632052465e146100a9578063528b7b8f146100de5780635f4623f11461010e575b600080fd5b6100a760048036038101906100a29190610b94565b61018a565b005b6100c360048036038101906100be9190610bd4565b6102a8565b6040516100d596959493929190610cdc565b60405180910390f35b6100f860048036038101906100f39190610bd4565b6103b8565b6040516101059190610d85565b60405180910390f35b61012860048036038101906101239190610dcc565b6103eb565b005b610132610437565b005b61014e60048036038101906101499190610f2e565b61044b565b005b6101586104cc565b6040516101659190610d85565b60405180910390f35b61018860048036038101906101839190610dcc565b6104f5565b005b6000600760009054906101000a900473ffffffffffffffffffffffffffffffffffffffff1673ffffffffffffffffffffffffffffffffffffffff1663e98b7f4d836040518263ffffffff1660e01b81526004016101e79190610f77565b61014060405180830381865afa158015610205573d6000803e3d6000fd5b505050506040513d601f19601f820116820180604052508101906102299190610fdf565b909192939495969798509091929394959697509091929394959650909192939495509091929394509091929350909192509091509050809150506102a383826040518060400160405280600581526020017f6b69747479000000000000000000000000000000000000000000000000000000815250610578565b505050565b600481815481106102b857600080fd5b90600052602060002090600302016000915090508060000180546102db906110ed565b80601f0160208091040260200160405190810160405280929190818152602001828054610307906110ed565b80156103545780601f1061032957610100808354040283529160200191610354565b820191906000526020600020905b81548152906001019060200180831161033757829003601f168201915b5050505050908060010154908060020160009054906101000a900463ffffffff16908060020160049054906101000a900463ffffffff16908060020160089054906101000a900461ffff169080600201600a9054906101000a900461ffff16905086565b60056020528060005260406000206000915054906101000a900473ffffffffffffffffffffffffffffffffffffffff1681565b6103f3610702565b80600760006101000a81548173ffffffffffffffffffffffffffffffffffffffff021916908373ffffffffffffffffffffffffffffffffffffffff16021790555050565b61043f610702565b6104496000610780565b565b6000600660003373ffffffffffffffffffffffffffffffffffffffff1673ffffffffffffffffffffffffffffffffffffffff168152602001908152602001600020541461049757600080fd5b60006104a282610844565b90506064816104b1919061114d565b816104bc91906111ad565b90506104c88282610889565b5050565b60008060009054906101000a900473ffffffffffffffffffffffffffffffffffffffff16905090565b6104fd610702565b600073ffffffffffffffffffffffffffffffffffffffff168173ffffffffffffffffffffffffffffffffffffffff160361056c576040517f08c379a000000000000000000000000000000000000000000000000000000000815260040161056390611253565b60405180910390fd5b61057581610780565b50565b826005600082815260200190815260200160002060009054906101000a900473ffffffffffffffffffffffffffffffffffffffff1673ffffffffffffffffffffffffffffffffffffffff163373ffffffffffffffffffffffffffffffffffffffff16146105e457600080fd5b6000600485815481106105fa576105f9611273565b5b9060005260206000209060030201905060025484610618919061114d565b93506000600285836001015461062e91906112a2565b61063891906112d6565b90506040516020016106499061135e565b604051602081830303815290604052805190602001208460405160200161067091906113a4565b60405160208183030381529060405280519060200120036106b257606360648261069a919061114d565b826106a591906111ad565b6106af91906112a2565b90505b6106f16040518060400160405280600681526020017f4e6f4e616d65000000000000000000000000000000000000000000000000000081525082610889565b6106fa82610af9565b505050505050565b61070a610b2c565b73ffffffffffffffffffffffffffffffffffffffff166107286104cc565b73ffffffffffffffffffffffffffffffffffffffff161461077e576040517f08c379a000000000000000000000000000000000000000000000000000000000815260040161077590611407565b60405180910390fd5b565b60008060009054906101000a900473ffffffffffffffffffffffffffffffffffffffff169050816000806101000a81548173ffffffffffffffffffffffffffffffffffffffff021916908373ffffffffffffffffffffffffffffffffffffffff1602179055508173ffffffffffffffffffffffffffffffffffffffff168173ffffffffffffffffffffffffffffffffffffffff167f8be0079c531659141344cd1fd0a4f28419497f9722a3daafe3b4186f6b6457e060405160405180910390a35050565b6000808260405160200161085891906113a4565b6040516020818303038152906040528051906020012060001c905060025481610881919061114d565b915050919050565b60046040518060c00160405280848152602001838152602001600163ffffffff168152602001600354426108bd91906112a2565b63ffffffff168152602001600061ffff168152602001600061ffff168152509080600181540180825580915050600190039060005260206000209060030201600090919091909150600082015181600001908161091a91906115d3565b506020820151816001015560408201518160020160006101000a81548163ffffffff021916908363ffffffff16021790555060608201518160020160046101000a81548163ffffffff021916908363ffffffff16021790555060808201518160020160086101000a81548161ffff021916908361ffff16021790555060a082015181600201600a6101000a81548161ffff021916908361ffff1602179055505050600060016004805490506109cf91906111ad565b9050336005600083815260200190815260200160002060006101000a81548173ffffffffffffffffffffffffffffffffffffffff021916908373ffffffffffffffffffffffffffffffffffffffff160217905550610a766001600660003373ffffffffffffffffffffffffffffffffffffffff1673ffffffffffffffffffffffffffffffffffffffff16815260200190815260200160002054610b3490919063ffffffff16565b600660003373ffffffffffffffffffffffffffffffffffffffff1673ffffffffffffffffffffffffffffffffffffffff168152602001908152602001600020819055507f88f026aacbbecc90c18411df4b1185fd8d9be2470f1962f192bf84a27d0704b7818484604051610aec939291906116a5565b60405180910390a1505050565b60035442610b0791906112a2565b8160020160046101000a81548163ffffffff021916908363ffffffff16021790555050565b600033905090565b60008183610b4291906112a2565b905092915050565b6000604051905090565b600080fd5b600080fd5b6000819050919050565b610b7181610b5e565b8114610b7c57600080fd5b50565b600081359050610b8e81610b68565b92915050565b60008060408385031215610bab57610baa610b54565b5b6000610bb985828601610b7f565b9250506020610bca85828601610b7f565b9150509250929050565b600060208284031215610bea57610be9610b54565b5b6000610bf884828501610b7f565b91505092915050565b600081519050919050565b600082825260208201905092915050565b60005b83811015610c3b578082015181840152602081019050610c20565b60008484015250505050565b6000601f19601f8301169050919050565b6000610c6382610c01565b610c6d8185610c0c565b9350610c7d818560208601610c1d565b610c8681610c47565b840191505092915050565b610c9a81610b5e565b82525050565b600063ffffffff82169050919050565b610cb981610ca0565b82525050565b600061ffff82169050919050565b610cd681610cbf565b82525050565b600060c0820190508181036000830152610cf68189610c58565b9050610d056020830188610c91565b610d126040830187610cb0565b610d1f6060830186610cb0565b610d2c6080830185610ccd565b610d3960a0830184610ccd565b979650505050505050565b600073ffffffffffffffffffffffffffffffffffffffff82169050919050565b6000610d6f82610d44565b9050919050565b610d7f81610d64565b82525050565b6000602082019050610d9a6000830184610d76565b92915050565b610da981610d64565b8114610db457600080fd5b50565b600081359050610dc681610da0565b92915050565b600060208284031215610de257610de1610b54565b5b6000610df084828501610db7565b91505092915050565b600080fd5b600080fd5b7f4e487b7100000000000000000000000000000000000000000000000000000000600052604160045260246000fd5b610e3b82610c47565b810181811067ffffffffffffffff82111715610e5a57610e59610e03565b5b80604052505050565b6000610e6d610b4a565b9050610e798282610e32565b919050565b600067ffffffffffffffff821115610e9957610e98610e03565b5b610ea282610c47565b9050602081019050919050565b82818337600083830152505050565b6000610ed1610ecc84610e7e565b610e63565b905082815260208101848484011115610eed57610eec610dfe565b5b610ef8848285610eaf565b509392505050565b600082601f830112610f1557610f14610df9565b5b8135610f25848260208601610ebe565b91505092915050565b600060208284031215610f4457610f43610b54565b5b600082013567ffffffffffffffff811115610f6257610f61610b59565b5b610f6e84828501610f00565b91505092915050565b6000602082019050610f8c6000830184610c91565b92915050565b60008115159050919050565b610fa781610f92565b8114610fb257600080fd5b50565b600081519050610fc481610f9e565b92915050565b600081519050610fd981610b68565b92915050565b6000806000806000806000806000806101408b8d03121561100357611002610b54565b5b60006110118d828e01610fb5565b9a505060206110228d828e01610fb5565b99505060406110338d828e01610fca565b98505060606110448d828e01610fca565b97505060806110558d828e01610fca565b96505060a06110668d828e01610fca565b95505060c06110778d828e01610fca565b94505060e06110888d828e01610fca565b93505061010061109a8d828e01610fca565b9250506101206110ac8d828e01610fca565b9150509295989b9194979a5092959850565b7f4e487b7100000000000000000000000000000000000000000000000000000000600052602260045260246000fd5b6000600282049050600182168061110557607f821691505b602082108103611118576111176110be565b5b50919050565b7f4e487b7100000000000000000000000000000000000000000000000000000000600052601260045260246000fd5b600061115882610b5e565b915061116383610b5e565b9250826111735761117261111e565b5b828206905092915050565b7f4e487b7100000000000000000000000000000000000000000000000000000000600052601160045260246000fd5b60006111b882610b5e565b91506111c383610b5e565b92508282039050818111156111db576111da61117e565b5b92915050565b7f4f776e61626c653a206e6577206f776e657220697320746865207a65726f206160008201527f6464726573730000000000000000000000000000000000000000000000000000602082015250565b600061123d602683610c0c565b9150611248826111e1565b604082019050919050565b6000602082019050818103600083015261126c81611230565b9050919050565b7f4e487b7100000000000000000000000000000000000000000000000000000000600052603260045260246000fd5b60006112ad82610b5e565b91506112b883610b5e565b92508282019050808211156112d0576112cf61117e565b5b92915050565b60006112e182610b5e565b91506112ec83610b5e565b9250826112fc576112fb61111e565b5b828204905092915050565b600081905092915050565b7f6b69747479000000000000000000000000000000000000000000000000000000600082015250565b6000611348600583611307565b915061135382611312565b600582019050919050565b60006113698261133b565b9150819050919050565b600061137e82610c01565b6113888185611307565b9350611398818560208601610c1d565b80840191505092915050565b60006113b08284611373565b915081905092915050565b7f4f776e61626c653a2063616c6c6572206973206e6f7420746865206f776e6572600082015250565b60006113f1602083610c0c565b91506113fc826113bb565b602082019050919050565b60006020820190508181036000830152611420816113e4565b9050919050565b60008190508160005260206000209050919050565b60006020601f8301049050919050565b600082821b905092915050565b6000600883026114897fffffffffffffffffffffffffffffffffffffffffffffffffffffffffffffffff8261144c565b611493868361144c565b95508019841693508086168417925050509392505050565b6000819050919050565b60006114d06114cb6114c684610b5e565b6114ab565b610b5e565b9050919050565b6000819050919050565b6114ea836114b5565b6114fe6114f6826114d7565b848454611459565b825550505050565b600090565b611513611506565b61151e8184846114e1565b505050565b5b818110156115425761153760008261150b565b600181019050611524565b5050565b601f8211156115875761155881611427565b6115618461143c565b81016020851015611570578190505b61158461157c8561143c565b830182611523565b50505b505050565b600082821c905092915050565b60006115aa6000198460080261158c565b1980831691505092915050565b60006115c38383611599565b9150826002028217905092915050565b6115dc82610c01565b67ffffffffffffffff8111156115f5576115f4610e03565b5b6115ff82546110ed565b61160a828285611546565b600060209050601f83116001811461163d576000841561162b578287015190505b61163585826115b7565b86555061169d565b601f19841661164b86611427565b60005b828110156116735784890151825560018201915060208501945060208101905061164e565b86831015611690578489015161168c601f891682611599565b8355505b6001600288020188555050505b505050505050565b60006060820190506116ba6000830186610c91565b81810360208301526116cc8185610c58565b90506116db6040830184610c91565b94935050505056fea2646970667358221220a994c43f09f24fd1abfc00ad84408ce34c6450e4ef695b0f21a11a694bb0b99e64736f6c63430008110033",
			"opcodes": "PUSH1 0x80 PUSH1 0x40 MSTORE PUSH1 0x10 PUSH1 0x1 SSTORE PUSH1 0x1 SLOAD PUSH1 0xA PUSH3 0x1A SWAP2 SWAP1 PUSH3 0x2B1 JUMP JUMPDEST PUSH1 0x2 SSTORE PUSH3 0x15180 PUSH1 0x3 SSTORE CALLVALUE DUP1 ISZERO PUSH3 0x31 JUMPI PUSH1 0x0 DUP1 REVERT JUMPDEST POP PUSH3 0x52 PUSH3 0x46 PUSH3 0x58 PUSH1 0x20 SHL PUSH1 0x20 SHR JUMP JUMPDEST PUSH3 0x60 PUSH1 0x20 SHL PUSH1 0x20 SHR JUMP JUMPDEST PUSH3 0x302 JUMP JUMPDEST PUSH1 0x0 CALLER SWAP1 POP SWAP1 JUMP JUMPDEST PUSH1 0x0 DUP1 PUSH1 0x0 SWAP1 SLOAD SWAP1 PUSH2 0x100 EXP SWAP1 DIV PUSH20 0xFFFFFFFFFFFFFFFFFFFFFFFFFFFFFFFFFFFFFFFF AND SWAP1 POP DUP2 PUSH1 0x0 DUP1 PUSH2 0x100 EXP DUP2 SLOAD DUP2 PUSH20 0xFFFFFFFFFFFFFFFFFFFFFFFFFFFFFFFFFFFFFFFF MUL NOT AND SWAP1 DUP4 PUSH20 0xFFFFFFFFFFFFFFFFFFFFFFFFFFFFFFFFFFFFFFFF AND MUL OR SWAP1 SSTORE POP DUP2 PUSH20 0xFFFFFFFFFFFFFFFFFFFFFFFFFFFFFFFFFFFFFFFF AND DUP2 PUSH20 0xFFFFFFFFFFFFFFFFFFFFFFFFFFFFFFFFFFFFFFFF AND PUSH32 0x8BE0079C531659141344CD1FD0A4F28419497F9722A3DAAFE3B4186F6B6457E0 PUSH1 0x40 MLOAD PUSH1 0x40 MLOAD DUP1 SWAP2 SUB SWAP1 LOG3 POP POP JUMP JUMPDEST PUSH32 0x4E487B7100000000000000000000000000000000000000000000000000000000 PUSH1 0x0 MSTORE PUSH1 0x11 PUSH1 0x4 MSTORE PUSH1 0x24 PUSH1 0x0 REVERT JUMPDEST PUSH1 0x0 DUP2 PUSH1 0x1 SHR SWAP1 POP SWAP2 SWAP1 POP JUMP JUMPDEST PUSH1 0x0 DUP1 DUP3 SWAP2 POP DUP4 SWAP1 POP JUMPDEST PUSH1 0x1 DUP6 GT ISZERO PUSH3 0x1B2 JUMPI DUP1 DUP7 DIV DUP2 GT ISZERO PUSH3 0x18A JUMPI PUSH3 0x189 PUSH3 0x124 JUMP JUMPDEST JUMPDEST PUSH1 0x1 DUP6 AND ISZERO PUSH3 0x19A JUMPI DUP1 DUP3 MUL SWAP2 POP JUMPDEST DUP1 DUP2 MUL SWAP1 POP PUSH3 0x1AA DUP6 PUSH3 0x153 JUMP JUMPDEST SWAP5 POP PUSH3 0x16A JUMP JUMPDEST SWAP5 POP SWAP5 SWAP3 POP POP POP JUMP JUMPDEST PUSH1 0x0 DUP3 PUSH3 0x1CD JUMPI PUSH1 0x1 SWAP1 POP PUSH3 0x2A0 JUMP JUMPDEST DUP2 PUSH3 0x1DD JUMPI PUSH1 0x0 SWAP1 POP PUSH3 0x2A0 JUMP JUMPDEST DUP2 PUSH1 0x1 DUP2 EQ PUSH3 0x1F6 JUMPI PUSH1 0x2 DUP2 EQ PUSH3 0x201 JUMPI PUSH3 0x237 JUMP JUMPDEST PUSH1 0x1 SWAP2 POP POP PUSH3 0x2A0 JUMP JUMPDEST PUSH1 0xFF DUP5 GT ISZERO PUSH3 0x216 JUMPI PUSH3 0x215 PUSH3 0x124 JUMP JUMPDEST JUMPDEST DUP4 PUSH1 0x2 EXP SWAP2 POP DUP5 DUP3 GT ISZERO PUSH3 0x230 JUMPI PUSH3 0x22F PUSH3 0x124 JUMP JUMPDEST JUMPDEST POP PUSH3 0x2A0 JUMP JUMPDEST POP PUSH1 0x20 DUP4 LT PUSH2 0x133 DUP4 LT AND PUSH1 0x4E DUP5 LT PUSH1 0xB DUP5 LT AND OR ISZERO PUSH3 0x271 JUMPI DUP3 DUP3 EXP SWAP1 POP DUP4 DUP2 GT ISZERO PUSH3 0x26B JUMPI PUSH3 0x26A PUSH3 0x124 JUMP JUMPDEST JUMPDEST PUSH3 0x2A0 JUMP JUMPDEST PUSH3 0x280 DUP5 DUP5 DUP5 PUSH1 0x1 PUSH3 0x160 JUMP JUMPDEST SWAP3 POP SWAP1 POP DUP2 DUP5 DIV DUP2 GT ISZERO PUSH3 0x29A JUMPI PUSH3 0x299 PUSH3 0x124 JUMP JUMPDEST JUMPDEST DUP2 DUP2 MUL SWAP1 POP JUMPDEST SWAP4 SWAP3 POP POP POP JUMP JUMPDEST PUSH1 0x0 DUP2 SWAP1 POP SWAP2 SWAP1 POP JUMP JUMPDEST PUSH1 0x0 PUSH3 0x2BE DUP3 PUSH3 0x2A7 JUMP JUMPDEST SWAP2 POP PUSH3 0x2CB DUP4 PUSH3 0x2A7 JUMP JUMPDEST SWAP3 POP PUSH3 0x2FA PUSH32 0xFFFFFFFFFFFFFFFFFFFFFFFFFFFFFFFFFFFFFFFFFFFFFFFFFFFFFFFFFFFFFFFF DUP5 DUP5 PUSH3 0x1BB JUMP JUMPDEST SWAP1 POP SWAP3 SWAP2 POP POP JUMP JUMPDEST PUSH2 0x1719 DUP1 PUSH3 0x312 PUSH1 0x0 CODECOPY PUSH1 0x0 RETURN INVALID PUSH1 0x80 PUSH1 0x40 MSTORE CALLVALUE DUP1 ISZERO PUSH2 0x10 JUMPI PUSH1 0x0 DUP1 REVERT JUMPDEST POP PUSH1 0x4 CALLDATASIZE LT PUSH2 0x88 JUMPI PUSH1 0x0 CALLDATALOAD PUSH1 0xE0 SHR DUP1 PUSH4 0x715018A6 GT PUSH2 0x5B JUMPI DUP1 PUSH4 0x715018A6 EQ PUSH2 0x12A JUMPI DUP1 PUSH4 0x7BFF0A01 EQ PUSH2 0x134 JUMPI DUP1 PUSH4 0x8DA5CB5B EQ PUSH2 0x150 JUMPI DUP1 PUSH4 0xF2FDE38B EQ PUSH2 0x16E JUMPI PUSH2 0x88 JUMP JUMPDEST DUP1 PUSH4 0x17A7F4CC EQ PUSH2 0x8D JUMPI DUP1 PUSH4 0x2052465E EQ PUSH2 0xA9 JUMPI DUP1 PUSH4 0x528B7B8F EQ PUSH2 0xDE JUMPI DUP1 PUSH4 0x5F4623F1 EQ PUSH2 0x10E JUMPI JUMPDEST PUSH1 0x0 DUP1 REVERT JUMPDEST PUSH2 0xA7 PUSH1 0x4 DUP1 CALLDATASIZE SUB DUP2 ADD SWAP1 PUSH2 0xA2 SWAP2 SWAP1 PUSH2 0xB94 JUMP JUMPDEST PUSH2 0x18A JUMP JUMPDEST STOP JUMPDEST PUSH2 0xC3 PUSH1 0x4 DUP1 CALLDATASIZE SUB DUP2 ADD SWAP1 PUSH2 0xBE SWAP2 SWAP1 PUSH2 0xBD4 JUMP JUMPDEST PUSH2 0x2A8 JUMP JUMPDEST PUSH1 0x40 MLOAD PUSH2 0xD5 SWAP7 SWAP6 SWAP5 SWAP4 SWAP3 SWAP2 SWAP1 PUSH2 0xCDC JUMP JUMPDEST PUSH1 0x40 MLOAD DUP1 SWAP2 SUB SWAP1 RETURN JUMPDEST PUSH2 0xF8 PUSH1 0x4 DUP1 CALLDATASIZE SUB DUP2 ADD SWAP1 PUSH2 0xF3 SWAP2 SWAP1 PUSH2 0xBD4 JUMP JUMPDEST PUSH2 0x3B8 JUMP JUMPDEST PUSH1 0x40 MLOAD PUSH2 0x105 SWAP2 SWAP1 PUSH2 0xD85 JUMP JUMPDEST PUSH1 0x40 MLOAD DUP1 SWAP2 SUB SWAP1 RETURN JUMPDEST PUSH2 0x128 PUSH1 0x4 DUP1 CALLDATASIZE SUB DUP2 ADD SWAP1 PUSH2 0x123 SWAP2 SWAP1 PUSH2 0xDCC JUMP JUMPDEST PUSH2 0x3EB JUMP JUMPDEST STOP JUMPDEST PUSH2 0x132 PUSH2 0x437 JUMP JUMPDEST STOP JUMPDEST PUSH2 0x14E PUSH1 0x4 DUP1 CALLDATASIZE SUB DUP2 ADD SWAP1 PUSH2 0x149 SWAP2 SWAP1 PUSH2 0xF2E JUMP JUMPDEST PUSH2 0x44B JUMP JUMPDEST STOP JUMPDEST PUSH2 0x158 PUSH2 0x4CC JUMP JUMPDEST PUSH1 0x40 MLOAD PUSH2 0x165 SWAP2 SWAP1 PUSH2 0xD85 JUMP JUMPDEST PUSH1 0x40 MLOAD DUP1 SWAP2 SUB SWAP1 RETURN JUMPDEST PUSH2 0x188 PUSH1 0x4 DUP1 CALLDATASIZE SUB DUP2 ADD SWAP1 PUSH2 0x183 SWAP2 SWAP1 PUSH2 0xDCC JUMP JUMPDEST PUSH2 0x4F5 JUMP JUMPDEST STOP JUMPDEST PUSH1 0x0 PUSH1 0x7 PUSH1 0x0 SWAP1 SLOAD SWAP1 PUSH2 0x100 EXP SWAP1 DIV PUSH20 0xFFFFFFFFFFFFFFFFFFFFFFFFFFFFFFFFFFFFFFFF AND PUSH20 0xFFFFFFFFFFFFFFFFFFFFFFFFFFFFFFFFFFFFFFFF AND PUSH4 0xE98B7F4D DUP4 PUSH1 0x40 MLOAD DUP3 PUSH4 0xFFFFFFFF AND PUSH1 0xE0 SHL DUP2 MSTORE PUSH1 0x4 ADD PUSH2 0x1E7 SWAP2 SWAP1 PUSH2 0xF77 JUMP JUMPDEST PUSH2 0x140 PUSH1 0x40 MLOAD DUP1 DUP4 SUB DUP2 DUP7 GAS STATICCALL ISZERO DUP1 ISZERO PUSH2 0x205 JUMPI RETURNDATASIZE PUSH1 0x0 DUP1 RETURNDATACOPY RETURNDATASIZE PUSH1 0x0 REVERT JUMPDEST POP POP POP POP PUSH1 0x40 MLOAD RETURNDATASIZE PUSH1 0x1F NOT PUSH1 0x1F DUP3 ADD AND DUP3 ADD DUP1 PUSH1 0x40 MSTORE POP DUP2 ADD SWAP1 PUSH2 0x229 SWAP2 SWAP1 PUSH2 0xFDF JUMP JUMPDEST SWAP1 SWAP2 SWAP3 SWAP4 SWAP5 SWAP6 SWAP7 SWAP8 SWAP9 POP SWAP1 SWAP2 SWAP3 SWAP4 SWAP5 SWAP6 SWAP7 SWAP8 POP SWAP1 SWAP2 SWAP3 SWAP4 SWAP5 SWAP6 SWAP7 POP SWAP1 SWAP2 SWAP3 SWAP4 SWAP5 SWAP6 POP SWAP1 SWAP2 SWAP3 SWAP4 SWAP5 POP SWAP1 SWAP2 SWAP3 SWAP4 POP SWAP1 SWAP2 SWAP3 POP SWAP1 SWAP2 POP SWAP1 POP DUP1 SWAP2 POP POP PUSH2 0x2A3 DUP4 DUP3 PUSH1 0x40 MLOAD DUP1 PUSH1 0x40 ADD PUSH1 0x40 MSTORE DUP1 PUSH1 0x5 DUP2 MSTORE PUSH1 0x20 ADD PUSH32 0x6B69747479000000000000000000000000000000000000000000000000000000 DUP2 MSTORE POP PUSH2 0x578 JUMP JUMPDEST POP POP POP JUMP JUMPDEST PUSH1 0x4 DUP2 DUP2 SLOAD DUP2 LT PUSH2 0x2B8 JUMPI PUSH1 0x0 DUP1 REVERT JUMPDEST SWAP1 PUSH1 0x0 MSTORE PUSH1 0x20 PUSH1 0x0 KECCAK256 SWAP1 PUSH1 0x3 MUL ADD PUSH1 0x0 SWAP2 POP SWAP1 POP DUP1 PUSH1 0x0 ADD DUP1 SLOAD PUSH2 0x2DB SWAP1 PUSH2 0x10ED JUMP JUMPDEST DUP1 PUSH1 0x1F ADD PUSH1 0x20 DUP1 SWAP2 DIV MUL PUSH1 0x20 ADD PUSH1 0x40 MLOAD SWAP1 DUP2 ADD PUSH1 0x40 MSTORE DUP1 SWAP3 SWAP2 SWAP1 DUP2 DUP2 MSTORE PUSH1 0x20 ADD DUP3 DUP1 SLOAD PUSH2 0x307 SWAP1 PUSH2 0x10ED JUMP JUMPDEST DUP1 ISZERO PUSH2 0x354 JUMPI DUP1 PUSH1 0x1F LT PUSH2 0x329 JUMPI PUSH2 0x100 DUP1 DUP4 SLOAD DIV MUL DUP4 MSTORE SWAP2 PUSH1 0x20 ADD SWAP2 PUSH2 0x354 JUMP JUMPDEST DUP3 ADD SWAP2 SWAP1 PUSH1 0x0 MSTORE PUSH1 0x20 PUSH1 0x0 KECCAK256 SWAP1 JUMPDEST DUP2 SLOAD DUP2 MSTORE SWAP1 PUSH1 0x1 ADD SWAP1 PUSH1 0x20 ADD DUP1 DUP4 GT PUSH2 0x337 JUMPI DUP3 SWAP1 SUB PUSH1 0x1F AND DUP3 ADD SWAP2 JUMPDEST POP POP POP POP POP SWAP1 DUP1 PUSH1 0x1 ADD SLOAD SWAP1 DUP1 PUSH1 0x2 ADD PUSH1 0x0 SWAP1 SLOAD SWAP1 PUSH2 0x100 EXP SWAP1 DIV PUSH4 0xFFFFFFFF AND SWAP1 DUP1 PUSH1 0x2 ADD PUSH1 0x4 SWAP1 SLOAD SWAP1 PUSH2 0x100 EXP SWAP1 DIV PUSH4 0xFFFFFFFF AND SWAP1 DUP1 PUSH1 0x2 ADD PUSH1 0x8 SWAP1 SLOAD SWAP1 PUSH2 0x100 EXP SWAP1 DIV PUSH2 0xFFFF AND SWAP1 DUP1 PUSH1 0x2 ADD PUSH1 0xA SWAP1 SLOAD SWAP1 PUSH2 0x100 EXP SWAP1 DIV PUSH2 0xFFFF AND SWAP1 POP DUP7 JUMP JUMPDEST PUSH1 0x5 PUSH1 0x20 MSTORE DUP1 PUSH1 0x0 MSTORE PUSH1 0x40 PUSH1 0x0 KECCAK256 PUSH1 0x0 SWAP2 POP SLOAD SWAP1 PUSH2 0x100 EXP SWAP1 DIV PUSH20 0xFFFFFFFFFFFFFFFFFFFFFFFFFFFFFFFFFFFFFFFF AND DUP2 JUMP JUMPDEST PUSH2 0x3F3 PUSH2 0x702 JUMP JUMPDEST DUP1 PUSH1 0x7 PUSH1 0x0 PUSH2 0x100 EXP DUP2 SLOAD DUP2 PUSH20 0xFFFFFFFFFFFFFFFFFFFFFFFFFFFFFFFFFFFFFFFF MUL NOT AND SWAP1 DUP4 PUSH20 0xFFFFFFFFFFFFFFFFFFFFFFFFFFFFFFFFFFFFFFFF AND MUL OR SWAP1 SSTORE POP POP JUMP JUMPDEST PUSH2 0x43F PUSH2 0x702 JUMP JUMPDEST PUSH2 0x449 PUSH1 0x0 PUSH2 0x780 JUMP JUMPDEST JUMP JUMPDEST PUSH1 0x0 PUSH1 0x6 PUSH1 0x0 CALLER PUSH20 0xFFFFFFFFFFFFFFFFFFFFFFFFFFFFFFFFFFFFFFFF AND PUSH20 0xFFFFFFFFFFFFFFFFFFFFFFFFFFFFFFFFFFFFFFFF AND DUP2 MSTORE PUSH1 0x20 ADD SWAP1 DUP2 MSTORE PUSH1 0x20 ADD PUSH1 0x0 KECCAK256 SLOAD EQ PUSH2 0x497 JUMPI PUSH1 0x0 DUP1 REVERT JUMPDEST PUSH1 0x0 PUSH2 0x4A2 DUP3 PUSH2 0x844 JUMP JUMPDEST SWAP1 POP PUSH1 0x64 DUP2 PUSH2 0x4B1 SWAP2 SWAP1 PUSH2 0x114D JUMP JUMPDEST DUP2 PUSH2 0x4BC SWAP2 SWAP1 PUSH2 0x11AD JUMP JUMPDEST SWAP1 POP PUSH2 0x4C8 DUP3 DUP3 PUSH2 0x889 JUMP JUMPDEST POP POP JUMP JUMPDEST PUSH1 0x0 DUP1 PUSH1 0x0 SWAP1 SLOAD SWAP1 PUSH2 0x100 EXP SWAP1 DIV PUSH20 0xFFFFFFFFFFFFFFFFFFFFFFFFFFFFFFFFFFFFFFFF AND SWAP1 POP SWAP1 JUMP JUMPDEST PUSH2 0x4FD PUSH2 0x702 JUMP JUMPDEST PUSH1 0x0 PUSH20 0xFFFFFFFFFFFFFFFFFFFFFFFFFFFFFFFFFFFFFFFF AND DUP2 PUSH20 0xFFFFFFFFFFFFFFFFFFFFFFFFFFFFFFFFFFFFFFFF AND SUB PUSH2 0x56C JUMPI PUSH1 0x40 MLOAD PUSH32 0x8C379A000000000000000000000000000000000000000000000000000000000 DUP2 MSTORE PUSH1 0x4 ADD PUSH2 0x563 SWAP1 PUSH2 0x1253 JUMP JUMPDEST PUSH1 0x40 MLOAD DUP1 SWAP2 SUB SWAP1 REVERT JUMPDEST PUSH2 0x575 DUP2 PUSH2 0x780 JUMP JUMPDEST POP JUMP JUMPDEST DUP3 PUSH1 0x5 PUSH1 0x0 DUP3 DUP2 MSTORE PUSH1 0x20 ADD SWAP1 DUP2 MSTORE PUSH1 0x20 ADD PUSH1 0x0 KECCAK256 PUSH1 0x0 SWAP1 SLOAD SWAP1 PUSH2 0x100 EXP SWAP1 DIV PUSH20 0xFFFFFFFFFFFFFFFFFFFFFFFFFFFFFFFFFFFFFFFF AND PUSH20 0xFFFFFFFFFFFFFFFFFFFFFFFFFFFFFFFFFFFFFFFF AND CALLER PUSH20 0xFFFFFFFFFFFFFFFFFFFFFFFFFFFFFFFFFFFFFFFF AND EQ PUSH2 0x5E4 JUMPI PUSH1 0x0 DUP1 REVERT JUMPDEST PUSH1 0x0 PUSH1 0x4 DUP6 DUP2 SLOAD DUP2 LT PUSH2 0x5FA JUMPI PUSH2 0x5F9 PUSH2 0x1273 JUMP JUMPDEST JUMPDEST SWAP1 PUSH1 0x0 MSTORE PUSH1 0x20 PUSH1 0x0 KECCAK256 SWAP1 PUSH1 0x3 MUL ADD SWAP1 POP PUSH1 0x2 SLOAD DUP5 PUSH2 0x618 SWAP2 SWAP1 PUSH2 0x114D JUMP JUMPDEST SWAP4 POP PUSH1 0x0 PUSH1 0x2 DUP6 DUP4 PUSH1 0x1 ADD SLOAD PUSH2 0x62E SWAP2 SWAP1 PUSH2 0x12A2 JUMP JUMPDEST PUSH2 0x638 SWAP2 SWAP1 PUSH2 0x12D6 JUMP JUMPDEST SWAP1 POP PUSH1 0x40 MLOAD PUSH1 0x20 ADD PUSH2 0x649 SWAP1 PUSH2 0x135E JUMP JUMPDEST PUSH1 0x40 MLOAD PUSH1 0x20 DUP2 DUP4 SUB SUB DUP2 MSTORE SWAP1 PUSH1 0x40 MSTORE DUP1 MLOAD SWAP1 PUSH1 0x20 ADD KECCAK256 DUP5 PUSH1 0x40 MLOAD PUSH1 0x20 ADD PUSH2 0x670 SWAP2 SWAP1 PUSH2 0x13A4 JUMP JUMPDEST PUSH1 0x40 MLOAD PUSH1 0x20 DUP2 DUP4 SUB SUB DUP2 MSTORE SWAP1 PUSH1 0x40 MSTORE DUP1 MLOAD SWAP1 PUSH1 0x20 ADD KECCAK256 SUB PUSH2 0x6B2 JUMPI PUSH1 0x63 PUSH1 0x64 DUP3 PUSH2 0x69A SWAP2 SWAP1 PUSH2 0x114D JUMP JUMPDEST DUP3 PUSH2 0x6A5 SWAP2 SWAP1 PUSH2 0x11AD JUMP JUMPDEST PUSH2 0x6AF SWAP2 SWAP1 PUSH2 0x12A2 JUMP JUMPDEST SWAP1 POP JUMPDEST PUSH2 0x6F1 PUSH1 0x40 MLOAD DUP1 PUSH1 0x40 ADD PUSH1 0x40 MSTORE DUP1 PUSH1 0x6 DUP2 MSTORE PUSH1 0x20 ADD PUSH32 0x4E6F4E616D650000000000000000000000000000000000000000000000000000 DUP2 MSTORE POP DUP3 PUSH2 0x889 JUMP JUMPDEST PUSH2 0x6FA DUP3 PUSH2 0xAF9 JUMP JUMPDEST POP POP POP POP POP POP JUMP JUMPDEST PUSH2 0x70A PUSH2 0xB2C JUMP JUMPDEST PUSH20 0xFFFFFFFFFFFFFFFFFFFFFFFFFFFFFFFFFFFFFFFF AND PUSH2 0x728 PUSH2 0x4CC JUMP JUMPDEST PUSH20 0xFFFFFFFFFFFFFFFFFFFFFFFFFFFFFFFFFFFFFFFF AND EQ PUSH2 0x77E JUMPI PUSH1 0x40 MLOAD PUSH32 0x8C379A000000000000000000000000000000000000000000000000000000000 DUP2 MSTORE PUSH1 0x4 ADD PUSH2 0x775 SWAP1 PUSH2 0x1407 JUMP JUMPDEST PUSH1 0x40 MLOAD DUP1 SWAP2 SUB SWAP1 REVERT JUMPDEST JUMP JUMPDEST PUSH1 0x0 DUP1 PUSH1 0x0 SWAP1 SLOAD SWAP1 PUSH2 0x100 EXP SWAP1 DIV PUSH20 0xFFFFFFFFFFFFFFFFFFFFFFFFFFFFFFFFFFFFFFFF AND SWAP1 POP DUP2 PUSH1 0x0 DUP1 PUSH2 0x100 EXP DUP2 SLOAD DUP2 PUSH20 0xFFFFFFFFFFFFFFFFFFFFFFFFFFFFFFFFFFFFFFFF MUL NOT AND SWAP1 DUP4 PUSH20 0xFFFFFFFFFFFFFFFFFFFFFFFFFFFFFFFFFFFFFFFF AND MUL OR SWAP1 SSTORE POP DUP2 PUSH20 0xFFFFFFFFFFFFFFFFFFFFFFFFFFFFFFFFFFFFFFFF AND DUP2 PUSH20 0xFFFFFFFFFFFFFFFFFFFFFFFFFFFFFFFFFFFFFFFF AND PUSH32 0x8BE0079C531659141344CD1FD0A4F28419497F9722A3DAAFE3B4186F6B6457E0 PUSH1 0x40 MLOAD PUSH1 0x40 MLOAD DUP1 SWAP2 SUB SWAP1 LOG3 POP POP JUMP JUMPDEST PUSH1 0x0 DUP1 DUP3 PUSH1 0x40 MLOAD PUSH1 0x20 ADD PUSH2 0x858 SWAP2 SWAP1 PUSH2 0x13A4 JUMP JUMPDEST PUSH1 0x40 MLOAD PUSH1 0x20 DUP2 DUP4 SUB SUB DUP2 MSTORE SWAP1 PUSH1 0x40 MSTORE DUP1 MLOAD SWAP1 PUSH1 0x20 ADD KECCAK256 PUSH1 0x0 SHR SWAP1 POP PUSH1 0x2 SLOAD DUP2 PUSH2 0x881 SWAP2 SWAP1 PUSH2 0x114D JUMP JUMPDEST SWAP2 POP POP SWAP2 SWAP1 POP JUMP JUMPDEST PUSH1 0x4 PUSH1 0x40 MLOAD DUP1 PUSH1 0xC0 ADD PUSH1 0x40 MSTORE DUP1 DUP5 DUP2 MSTORE PUSH1 0x20 ADD DUP4 DUP2 MSTORE PUSH1 0x20 ADD PUSH1 0x1 PUSH4 0xFFFFFFFF AND DUP2 MSTORE PUSH1 0x20 ADD PUSH1 0x3 SLOAD TIMESTAMP PUSH2 0x8BD SWAP2 SWAP1 PUSH2 0x12A2 JUMP JUMPDEST PUSH4 0xFFFFFFFF AND DUP2 MSTORE PUSH1 0x20 ADD PUSH1 0x0 PUSH2 0xFFFF AND DUP2 MSTORE PUSH1 0x20 ADD PUSH1 0x0 PUSH2 0xFFFF AND DUP2 MSTORE POP SWAP1 DUP1 PUSH1 0x1 DUP2 SLOAD ADD DUP1 DUP3 SSTORE DUP1 SWAP2 POP POP PUSH1 0x1 SWAP1 SUB SWAP1 PUSH1 0x0 MSTORE PUSH1 0x20 PUSH1 0x0 KECCAK256 SWAP1 PUSH1 0x3 MUL ADD PUSH1 0x0 SWAP1 SWAP2 SWAP1 SWAP2 SWAP1 SWAP2 POP PUSH1 0x0 DUP3 ADD MLOAD DUP2 PUSH1 0x0 ADD SWAP1 DUP2 PUSH2 0x91A SWAP2 SWAP1 PUSH2 0x15D3 JUMP JUMPDEST POP PUSH1 0x20 DUP3 ADD MLOAD DUP2 PUSH1 0x1 ADD SSTORE PUSH1 0x40 DUP3 ADD MLOAD DUP2 PUSH1 0x2 ADD PUSH1 0x0 PUSH2 0x100 EXP DUP2 SLOAD DUP2 PUSH4 0xFFFFFFFF MUL NOT AND SWAP1 DUP4 PUSH4 0xFFFFFFFF AND MUL OR SWAP1 SSTORE POP PUSH1 0x60 DUP3 ADD MLOAD DUP2 PUSH1 0x2 ADD PUSH1 0x4 PUSH2 0x100 EXP DUP2 SLOAD DUP2 PUSH4 0xFFFFFFFF MUL NOT AND SWAP1 DUP4 PUSH4 0xFFFFFFFF AND MUL OR SWAP1 SSTORE POP PUSH1 0x80 DUP3 ADD MLOAD DUP2 PUSH1 0x2 ADD PUSH1 0x8 PUSH2 0x100 EXP DUP2 SLOAD DUP2 PUSH2 0xFFFF MUL NOT AND SWAP1 DUP4 PUSH2 0xFFFF AND MUL OR SWAP1 SSTORE POP PUSH1 0xA0 DUP3 ADD MLOAD DUP2 PUSH1 0x2 ADD PUSH1 0xA PUSH2 0x100 EXP DUP2 SLOAD DUP2 PUSH2 0xFFFF MUL NOT AND SWAP1 DUP4 PUSH2 0xFFFF AND MUL OR SWAP1 SSTORE POP POP POP PUSH1 0x0 PUSH1 0x1 PUSH1 0x4 DUP1 SLOAD SWAP1 POP PUSH2 0x9CF SWAP2 SWAP1 PUSH2 0x11AD JUMP JUMPDEST SWAP1 POP CALLER PUSH1 0x5 PUSH1 0x0 DUP4 DUP2 MSTORE PUSH1 0x20 ADD SWAP1 DUP2 MSTORE PUSH1 0x20 ADD PUSH1 0x0 KECCAK256 PUSH1 0x0 PUSH2 0x100 EXP DUP2 SLOAD DUP2 PUSH20 0xFFFFFFFFFFFFFFFFFFFFFFFFFFFFFFFFFFFFFFFF MUL NOT AND SWAP1 DUP4 PUSH20 0xFFFFFFFFFFFFFFFFFFFFFFFFFFFFFFFFFFFFFFFF AND MUL OR SWAP1 SSTORE POP PUSH2 0xA76 PUSH1 0x1 PUSH1 0x6 PUSH1 0x0 CALLER PUSH20 0xFFFFFFFFFFFFFFFFFFFFFFFFFFFFFFFFFFFFFFFF AND PUSH20 0xFFFFFFFFFFFFFFFFFFFFFFFFFFFFFFFFFFFFFFFF AND DUP2 MSTORE PUSH1 0x20 ADD SWAP1 DUP2 MSTORE PUSH1 0x20 ADD PUSH1 0x0 KECCAK256 SLOAD PUSH2 0xB34 SWAP1 SWAP2 SWAP1 PUSH4 0xFFFFFFFF AND JUMP JUMPDEST PUSH1 0x6 PUSH1 0x0 CALLER PUSH20 0xFFFFFFFFFFFFFFFFFFFFFFFFFFFFFFFFFFFFFFFF AND PUSH20 0xFFFFFFFFFFFFFFFFFFFFFFFFFFFFFFFFFFFFFFFF AND DUP2 MSTORE PUSH1 0x20 ADD SWAP1 DUP2 MSTORE PUSH1 0x20 ADD PUSH1 0x0 KECCAK256 DUP2 SWAP1 SSTORE POP PUSH32 0x88F026AACBBECC90C18411DF4B1185FD8D9BE2470F1962F192BF84A27D0704B7 DUP2 DUP5 DUP5 PUSH1 0x40 MLOAD PUSH2 0xAEC SWAP4 SWAP3 SWAP2 SWAP1 PUSH2 0x16A5 JUMP JUMPDEST PUSH1 0x40 MLOAD DUP1 SWAP2 SUB SWAP1 LOG1 POP POP POP JUMP JUMPDEST PUSH1 0x3 SLOAD TIMESTAMP PUSH2 0xB07 SWAP2 SWAP1 PUSH2 0x12A2 JUMP JUMPDEST DUP2 PUSH1 0x2 ADD PUSH1 0x4 PUSH2 0x100 EXP DUP2 SLOAD DUP2 PUSH4 0xFFFFFFFF MUL NOT AND SWAP1 DUP4 PUSH4 0xFFFFFFFF AND MUL OR SWAP1 SSTORE POP POP JUMP JUMPDEST PUSH1 0x0 CALLER SWAP1 POP SWAP1 JUMP JUMPDEST PUSH1 0x0 DUP2 DUP4 PUSH2 0xB42 SWAP2 SWAP1 PUSH2 0x12A2 JUMP JUMPDEST SWAP1 POP SWAP3 SWAP2 POP POP JUMP JUMPDEST PUSH1 0x0 PUSH1 0x40 MLOAD SWAP1 POP SWAP1 JUMP JUMPDEST PUSH1 0x0 DUP1 REVERT JUMPDEST PUSH1 0x0 DUP1 REVERT JUMPDEST PUSH1 0x0 DUP2 SWAP1 POP SWAP2 SWAP1 POP JUMP JUMPDEST PUSH2 0xB71 DUP2 PUSH2 0xB5E JUMP JUMPDEST DUP2 EQ PUSH2 0xB7C JUMPI PUSH1 0x0 DUP1 REVERT JUMPDEST POP JUMP JUMPDEST PUSH1 0x0 DUP2 CALLDATALOAD SWAP1 POP PUSH2 0xB8E DUP2 PUSH2 0xB68 JUMP JUMPDEST SWAP3 SWAP2 POP POP JUMP JUMPDEST PUSH1 0x0 DUP1 PUSH1 0x40 DUP4 DUP6 SUB SLT ISZERO PUSH2 0xBAB JUMPI PUSH2 0xBAA PUSH2 0xB54 JUMP JUMPDEST JUMPDEST PUSH1 0x0 PUSH2 0xBB9 DUP6 DUP3 DUP7 ADD PUSH2 0xB7F JUMP JUMPDEST SWAP3 POP POP PUSH1 0x20 PUSH2 0xBCA DUP6 DUP3 DUP7 ADD PUSH2 0xB7F JUMP JUMPDEST SWAP2 POP POP SWAP3 POP SWAP3 SWAP1 POP JUMP JUMPDEST PUSH1 0x0 PUSH1 0x20 DUP3 DUP5 SUB SLT ISZERO PUSH2 0xBEA JUMPI PUSH2 0xBE9 PUSH2 0xB54 JUMP JUMPDEST JUMPDEST PUSH1 0x0 PUSH2 0xBF8 DUP5 DUP3 DUP6 ADD PUSH2 0xB7F JUMP JUMPDEST SWAP2 POP POP SWAP3 SWAP2 POP POP JUMP JUMPDEST PUSH1 0x0 DUP2 MLOAD SWAP1 POP SWAP2 SWAP1 POP JUMP JUMPDEST PUSH1 0x0 DUP3 DUP3 MSTORE PUSH1 0x20 DUP3 ADD SWAP1 POP SWAP3 SWAP2 POP POP JUMP JUMPDEST PUSH1 0x0 JUMPDEST DUP4 DUP2 LT ISZERO PUSH2 0xC3B JUMPI DUP1 DUP3 ADD MLOAD DUP2 DUP5 ADD MSTORE PUSH1 0x20 DUP2 ADD SWAP1 POP PUSH2 0xC20 JUMP JUMPDEST PUSH1 0x0 DUP5 DUP5 ADD MSTORE POP POP POP POP JUMP JUMPDEST PUSH1 0x0 PUSH1 0x1F NOT PUSH1 0x1F DUP4 ADD AND SWAP1 POP SWAP2 SWAP1 POP JUMP JUMPDEST PUSH1 0x0 PUSH2 0xC63 DUP3 PUSH2 0xC01 JUMP JUMPDEST PUSH2 0xC6D DUP2 DUP6 PUSH2 0xC0C JUMP JUMPDEST SWAP4 POP PUSH2 0xC7D DUP2 DUP6 PUSH1 0x20 DUP7 ADD PUSH2 0xC1D JUMP JUMPDEST PUSH2 0xC86 DUP2 PUSH2 0xC47 JUMP JUMPDEST DUP5 ADD SWAP2 POP POP SWAP3 SWAP2 POP POP JUMP JUMPDEST PUSH2 0xC9A DUP2 PUSH2 0xB5E JUMP JUMPDEST DUP3 MSTORE POP POP JUMP JUMPDEST PUSH1 0x0 PUSH4 0xFFFFFFFF DUP3 AND SWAP1 POP SWAP2 SWAP1 POP JUMP JUMPDEST PUSH2 0xCB9 DUP2 PUSH2 0xCA0 JUMP JUMPDEST DUP3 MSTORE POP POP JUMP JUMPDEST PUSH1 0x0 PUSH2 0xFFFF DUP3 AND SWAP1 POP SWAP2 SWAP1 POP JUMP JUMPDEST PUSH2 0xCD6 DUP2 PUSH2 0xCBF JUMP JUMPDEST DUP3 MSTORE POP POP JUMP JUMPDEST PUSH1 0x0 PUSH1 0xC0 DUP3 ADD SWAP1 POP DUP2 DUP2 SUB PUSH1 0x0 DUP4 ADD MSTORE PUSH2 0xCF6 DUP2 DUP10 PUSH2 0xC58 JUMP JUMPDEST SWAP1 POP PUSH2 0xD05 PUSH1 0x20 DUP4 ADD DUP9 PUSH2 0xC91 JUMP JUMPDEST PUSH2 0xD12 PUSH1 0x40 DUP4 ADD DUP8 PUSH2 0xCB0 JUMP JUMPDEST PUSH2 0xD1F PUSH1 0x60 DUP4 ADD DUP7 PUSH2 0xCB0 JUMP JUMPDEST PUSH2 0xD2C PUSH1 0x80 DUP4 ADD DUP6 PUSH2 0xCCD JUMP JUMPDEST PUSH2 0xD39 PUSH1 0xA0 DUP4 ADD DUP5 PUSH2 0xCCD JUMP JUMPDEST SWAP8 SWAP7 POP POP POP POP POP POP POP JUMP JUMPDEST PUSH1 0x0 PUSH20 0xFFFFFFFFFFFFFFFFFFFFFFFFFFFFFFFFFFFFFFFF DUP3 AND SWAP1 POP SWAP2 SWAP1 POP JUMP JUMPDEST PUSH1 0x0 PUSH2 0xD6F DUP3 PUSH2 0xD44 JUMP JUMPDEST SWAP1 POP SWAP2 SWAP1 POP JUMP JUMPDEST PUSH2 0xD7F DUP2 PUSH2 0xD64 JUMP JUMPDEST DUP3 MSTORE POP POP JUMP JUMPDEST PUSH1 0x0 PUSH1 0x20 DUP3 ADD SWAP1 POP PUSH2 0xD9A PUSH1 0x0 DUP4 ADD DUP5 PUSH2 0xD76 JUMP JUMPDEST SWAP3 SWAP2 POP POP JUMP JUMPDEST PUSH2 0xDA9 DUP2 PUSH2 0xD64 JUMP JUMPDEST DUP2 EQ PUSH2 0xDB4 JUMPI PUSH1 0x0 DUP1 REVERT JUMPDEST POP JUMP JUMPDEST PUSH1 0x0 DUP2 CALLDATALOAD SWAP1 POP PUSH2 0xDC6 DUP2 PUSH2 0xDA0 JUMP JUMPDEST SWAP3 SWAP2 POP POP JUMP JUMPDEST PUSH1 0x0 PUSH1 0x20 DUP3 DUP5 SUB SLT ISZERO PUSH2 0xDE2 JUMPI PUSH2 0xDE1 PUSH2 0xB54 JUMP JUMPDEST JUMPDEST PUSH1 0x0 PUSH2 0xDF0 DUP5 DUP3 DUP6 ADD PUSH2 0xDB7 JUMP JUMPDEST SWAP2 POP POP SWAP3 SWAP2 POP POP JUMP JUMPDEST PUSH1 0x0 DUP1 REVERT JUMPDEST PUSH1 0x0 DUP1 REVERT JUMPDEST PUSH32 0x4E487B7100000000000000000000000000000000000000000000000000000000 PUSH1 0x0 MSTORE PUSH1 0x41 PUSH1 0x4 MSTORE PUSH1 0x24 PUSH1 0x0 REVERT JUMPDEST PUSH2 0xE3B DUP3 PUSH2 0xC47 JUMP JUMPDEST DUP2 ADD DUP2 DUP2 LT PUSH8 0xFFFFFFFFFFFFFFFF DUP3 GT OR ISZERO PUSH2 0xE5A JUMPI PUSH2 0xE59 PUSH2 0xE03 JUMP JUMPDEST JUMPDEST DUP1 PUSH1 0x40 MSTORE POP POP POP JUMP JUMPDEST PUSH1 0x0 PUSH2 0xE6D PUSH2 0xB4A JUMP JUMPDEST SWAP1 POP PUSH2 0xE79 DUP3 DUP3 PUSH2 0xE32 JUMP JUMPDEST SWAP2 SWAP1 POP JUMP JUMPDEST PUSH1 0x0 PUSH8 0xFFFFFFFFFFFFFFFF DUP3 GT ISZERO PUSH2 0xE99 JUMPI PUSH2 0xE98 PUSH2 0xE03 JUMP JUMPDEST JUMPDEST PUSH2 0xEA2 DUP3 PUSH2 0xC47 JUMP JUMPDEST SWAP1 POP PUSH1 0x20 DUP2 ADD SWAP1 POP SWAP2 SWAP1 POP JUMP JUMPDEST DUP3 DUP2 DUP4 CALLDATACOPY PUSH1 0x0 DUP4 DUP4 ADD MSTORE POP POP POP JUMP JUMPDEST PUSH1 0x0 PUSH2 0xED1 PUSH2 0xECC DUP5 PUSH2 0xE7E JUMP JUMPDEST PUSH2 0xE63 JUMP JUMPDEST SWAP1 POP DUP3 DUP2 MSTORE PUSH1 0x20 DUP2 ADD DUP5 DUP5 DUP5 ADD GT ISZERO PUSH2 0xEED JUMPI PUSH2 0xEEC PUSH2 0xDFE JUMP JUMPDEST JUMPDEST PUSH2 0xEF8 DUP5 DUP3 DUP6 PUSH2 0xEAF JUMP JUMPDEST POP SWAP4 SWAP3 POP POP POP JUMP JUMPDEST PUSH1 0x0 DUP3 PUSH1 0x1F DUP4 ADD SLT PUSH2 0xF15 JUMPI PUSH2 0xF14 PUSH2 0xDF9 JUMP JUMPDEST JUMPDEST DUP2 CALLDATALOAD PUSH2 0xF25 DUP5 DUP3 PUSH1 0x20 DUP7 ADD PUSH2 0xEBE JUMP JUMPDEST SWAP2 POP POP SWAP3 SWAP2 POP POP JUMP JUMPDEST PUSH1 0x0 PUSH1 0x20 DUP3 DUP5 SUB SLT ISZERO PUSH2 0xF44 JUMPI PUSH2 0xF43 PUSH2 0xB54 JUMP JUMPDEST JUMPDEST PUSH1 0x0 DUP3 ADD CALLDATALOAD PUSH8 0xFFFFFFFFFFFFFFFF DUP2 GT ISZERO PUSH2 0xF62 JUMPI PUSH2 0xF61 PUSH2 0xB59 JUMP JUMPDEST JUMPDEST PUSH2 0xF6E DUP5 DUP3 DUP6 ADD PUSH2 0xF00 JUMP JUMPDEST SWAP2 POP POP SWAP3 SWAP2 POP POP JUMP JUMPDEST PUSH1 0x0 PUSH1 0x20 DUP3 ADD SWAP1 POP PUSH2 0xF8C PUSH1 0x0 DUP4 ADD DUP5 PUSH2 0xC91 JUMP JUMPDEST SWAP3 SWAP2 POP POP JUMP JUMPDEST PUSH1 0x0 DUP2 ISZERO ISZERO SWAP1 POP SWAP2 SWAP1 POP JUMP JUMPDEST PUSH2 0xFA7 DUP2 PUSH2 0xF92 JUMP JUMPDEST DUP2 EQ PUSH2 0xFB2 JUMPI PUSH1 0x0 DUP1 REVERT JUMPDEST POP JUMP JUMPDEST PUSH1 0x0 DUP2 MLOAD SWAP1 POP PUSH2 0xFC4 DUP2 PUSH2 0xF9E JUMP JUMPDEST SWAP3 SWAP2 POP POP JUMP JUMPDEST PUSH1 0x0 DUP2 MLOAD SWAP1 POP PUSH2 0xFD9 DUP2 PUSH2 0xB68 JUMP JUMPDEST SWAP3 SWAP2 POP POP JUMP JUMPDEST PUSH1 0x0 DUP1 PUSH1 0x0 DUP1 PUSH1 0x0 DUP1 PUSH1 0x0 DUP1 PUSH1 0x0 DUP1 PUSH2 0x140 DUP12 DUP14 SUB SLT ISZERO PUSH2 0x1003 JUMPI PUSH2 0x1002 PUSH2 0xB54 JUMP JUMPDEST JUMPDEST PUSH1 0x0 PUSH2 0x1011 DUP14 DUP3 DUP15 ADD PUSH2 0xFB5 JUMP JUMPDEST SWAP11 POP POP PUSH1 0x20 PUSH2 0x1022 DUP14 DUP3 DUP15 ADD PUSH2 0xFB5 JUMP JUMPDEST SWAP10 POP POP PUSH1 0x40 PUSH2 0x1033 DUP14 DUP3 DUP15 ADD PUSH2 0xFCA JUMP JUMPDEST SWAP9 POP POP PUSH1 0x60 PUSH2 0x1044 DUP14 DUP3 DUP15 ADD PUSH2 0xFCA JUMP JUMPDEST SWAP8 POP POP PUSH1 0x80 PUSH2 0x1055 DUP14 DUP3 DUP15 ADD PUSH2 0xFCA JUMP JUMPDEST SWAP7 POP POP PUSH1 0xA0 PUSH2 0x1066 DUP14 DUP3 DUP15 ADD PUSH2 0xFCA JUMP JUMPDEST SWAP6 POP POP PUSH1 0xC0 PUSH2 0x1077 DUP14 DUP3 DUP15 ADD PUSH2 0xFCA JUMP JUMPDEST SWAP5 POP POP PUSH1 0xE0 PUSH2 0x1088 DUP14 DUP3 DUP15 ADD PUSH2 0xFCA JUMP JUMPDEST SWAP4 POP POP PUSH2 0x100 PUSH2 0x109A DUP14 DUP3 DUP15 ADD PUSH2 0xFCA JUMP JUMPDEST SWAP3 POP POP PUSH2 0x120 PUSH2 0x10AC DUP14 DUP3 DUP15 ADD PUSH2 0xFCA JUMP JUMPDEST SWAP2 POP POP SWAP3 SWAP6 SWAP9 SWAP12 SWAP2 SWAP5 SWAP8 SWAP11 POP SWAP3 SWAP6 SWAP9 POP JUMP JUMPDEST PUSH32 0x4E487B7100000000000000000000000000000000000000000000000000000000 PUSH1 0x0 MSTORE PUSH1 0x22 PUSH1 0x4 MSTORE PUSH1 0x24 PUSH1 0x0 REVERT JUMPDEST PUSH1 0x0 PUSH1 0x2 DUP3 DIV SWAP1 POP PUSH1 0x1 DUP3 AND DUP1 PUSH2 0x1105 JUMPI PUSH1 0x7F DUP3 AND SWAP2 POP JUMPDEST PUSH1 0x20 DUP3 LT DUP2 SUB PUSH2 0x1118 JUMPI PUSH2 0x1117 PUSH2 0x10BE JUMP JUMPDEST JUMPDEST POP SWAP2 SWAP1 POP JUMP JUMPDEST PUSH32 0x4E487B7100000000000000000000000000000000000000000000000000000000 PUSH1 0x0 MSTORE PUSH1 0x12 PUSH1 0x4 MSTORE PUSH1 0x24 PUSH1 0x0 REVERT JUMPDEST PUSH1 0x0 PUSH2 0x1158 DUP3 PUSH2 0xB5E JUMP JUMPDEST SWAP2 POP PUSH2 0x1163 DUP4 PUSH2 0xB5E JUMP JUMPDEST SWAP3 POP DUP3 PUSH2 0x1173 JUMPI PUSH2 0x1172 PUSH2 0x111E JUMP JUMPDEST JUMPDEST DUP3 DUP3 MOD SWAP1 POP SWAP3 SWAP2 POP POP JUMP JUMPDEST PUSH32 0x4E487B7100000000000000000000000000000000000000000000000000000000 PUSH1 0x0 MSTORE PUSH1 0x11 PUSH1 0x4 MSTORE PUSH1 0x24 PUSH1 0x0 REVERT JUMPDEST PUSH1 0x0 PUSH2 0x11B8 DUP3 PUSH2 0xB5E JUMP JUMPDEST SWAP2 POP PUSH2 0x11C3 DUP4 PUSH2 0xB5E JUMP JUMPDEST SWAP3 POP DUP3 DUP3 SUB SWAP1 POP DUP2 DUP2 GT ISZERO PUSH2 0x11DB JUMPI PUSH2 0x11DA PUSH2 0x117E JUMP JUMPDEST JUMPDEST SWAP3 SWAP2 POP POP JUMP JUMPDEST PUSH32 0x4F776E61626C653A206E6577206F776E657220697320746865207A65726F2061 PUSH1 0x0 DUP3 ADD MSTORE PUSH32 0x6464726573730000000000000000000000000000000000000000000000000000 PUSH1 0x20 DUP3 ADD MSTORE POP JUMP JUMPDEST PUSH1 0x0 PUSH2 0x123D PUSH1 0x26 DUP4 PUSH2 0xC0C JUMP JUMPDEST SWAP2 POP PUSH2 0x1248 DUP3 PUSH2 0x11E1 JUMP JUMPDEST PUSH1 0x40 DUP3 ADD SWAP1 POP SWAP2 SWAP1 POP JUMP JUMPDEST PUSH1 0x0 PUSH1 0x20 DUP3 ADD SWAP1 POP DUP2 DUP2 SUB PUSH1 0x0 DUP4 ADD MSTORE PUSH2 0x126C DUP2 PUSH2 0x1230 JUMP JUMPDEST SWAP1 POP SWAP2 SWAP1 POP JUMP JUMPDEST PUSH32 0x4E487B7100000000000000000000000000000000000000000000000000000000 PUSH1 0x0 MSTORE PUSH1 0x32 PUSH1 0x4 MSTORE PUSH1 0x24 PUSH1 0x0 REVERT JUMPDEST PUSH1 0x0 PUSH2 0x12AD DUP3 PUSH2 0xB5E JUMP JUMPDEST SWAP2 POP PUSH2 0x12B8 DUP4 PUSH2 0xB5E JUMP JUMPDEST SWAP3 POP DUP3 DUP3 ADD SWAP1 POP DUP1 DUP3 GT ISZERO PUSH2 0x12D0 JUMPI PUSH2 0x12CF PUSH2 0x117E JUMP JUMPDEST JUMPDEST SWAP3 SWAP2 POP POP JUMP JUMPDEST PUSH1 0x0 PUSH2 0x12E1 DUP3 PUSH2 0xB5E JUMP JUMPDEST SWAP2 POP PUSH2 0x12EC DUP4 PUSH2 0xB5E JUMP JUMPDEST SWAP3 POP DUP3 PUSH2 0x12FC JUMPI PUSH2 0x12FB PUSH2 0x111E JUMP JUMPDEST JUMPDEST DUP3 DUP3 DIV SWAP1 POP SWAP3 SWAP2 POP POP JUMP JUMPDEST PUSH1 0x0 DUP2 SWAP1 POP SWAP3 SWAP2 POP POP JUMP JUMPDEST PUSH32 0x6B69747479000000000000000000000000000000000000000000000000000000 PUSH1 0x0 DUP3 ADD MSTORE POP JUMP JUMPDEST PUSH1 0x0 PUSH2 0x1348 PUSH1 0x5 DUP4 PUSH2 0x1307 JUMP JUMPDEST SWAP2 POP PUSH2 0x1353 DUP3 PUSH2 0x1312 JUMP JUMPDEST PUSH1 0x5 DUP3 ADD SWAP1 POP SWAP2 SWAP1 POP JUMP JUMPDEST PUSH1 0x0 PUSH2 0x1369 DUP3 PUSH2 0x133B JUMP JUMPDEST SWAP2 POP DUP2 SWAP1 POP SWAP2 SWAP1 POP JUMP JUMPDEST PUSH1 0x0 PUSH2 0x137E DUP3 PUSH2 0xC01 JUMP JUMPDEST PUSH2 0x1388 DUP2 DUP6 PUSH2 0x1307 JUMP JUMPDEST SWAP4 POP PUSH2 0x1398 DUP2 DUP6 PUSH1 0x20 DUP7 ADD PUSH2 0xC1D JUMP JUMPDEST DUP1 DUP5 ADD SWAP2 POP POP SWAP3 SWAP2 POP POP JUMP JUMPDEST PUSH1 0x0 PUSH2 0x13B0 DUP3 DUP5 PUSH2 0x1373 JUMP JUMPDEST SWAP2 POP DUP2 SWAP1 POP SWAP3 SWAP2 POP POP JUMP JUMPDEST PUSH32 0x4F776E61626C653A2063616C6C6572206973206E6F7420746865206F776E6572 PUSH1 0x0 DUP3 ADD MSTORE POP JUMP JUMPDEST PUSH1 0x0 PUSH2 0x13F1 PUSH1 0x20 DUP4 PUSH2 0xC0C JUMP JUMPDEST SWAP2 POP PUSH2 0x13FC DUP3 PUSH2 0x13BB JUMP JUMPDEST PUSH1 0x20 DUP3 ADD SWAP1 POP SWAP2 SWAP1 POP JUMP JUMPDEST PUSH1 0x0 PUSH1 0x20 DUP3 ADD SWAP1 POP DUP2 DUP2 SUB PUSH1 0x0 DUP4 ADD MSTORE PUSH2 0x1420 DUP2 PUSH2 0x13E4 JUMP JUMPDEST SWAP1 POP SWAP2 SWAP1 POP JUMP JUMPDEST PUSH1 0x0 DUP2 SWAP1 POP DUP2 PUSH1 0x0 MSTORE PUSH1 0x20 PUSH1 0x0 KECCAK256 SWAP1 POP SWAP2 SWAP1 POP JUMP JUMPDEST PUSH1 0x0 PUSH1 0x20 PUSH1 0x1F DUP4 ADD DIV SWAP1 POP SWAP2 SWAP1 POP JUMP JUMPDEST PUSH1 0x0 DUP3 DUP3 SHL SWAP1 POP SWAP3 SWAP2 POP POP JUMP JUMPDEST PUSH1 0x0 PUSH1 0x8 DUP4 MUL PUSH2 0x1489 PUSH32 0xFFFFFFFFFFFFFFFFFFFFFFFFFFFFFFFFFFFFFFFFFFFFFFFFFFFFFFFFFFFFFFFF DUP3 PUSH2 0x144C JUMP JUMPDEST PUSH2 0x1493 DUP7 DUP4 PUSH2 0x144C JUMP JUMPDEST SWAP6 POP DUP1 NOT DUP5 AND SWAP4 POP DUP1 DUP7 AND DUP5 OR SWAP3 POP POP POP SWAP4 SWAP3 POP POP POP JUMP JUMPDEST PUSH1 0x0 DUP2 SWAP1 POP SWAP2 SWAP1 POP JUMP JUMPDEST PUSH1 0x0 PUSH2 0x14D0 PUSH2 0x14CB PUSH2 0x14C6 DUP5 PUSH2 0xB5E JUMP JUMPDEST PUSH2 0x14AB JUMP JUMPDEST PUSH2 0xB5E JUMP JUMPDEST SWAP1 POP SWAP2 SWAP1 POP JUMP JUMPDEST PUSH1 0x0 DUP2 SWAP1 POP SWAP2 SWAP1 POP JUMP JUMPDEST PUSH2 0x14EA DUP4 PUSH2 0x14B5 JUMP JUMPDEST PUSH2 0x14FE PUSH2 0x14F6 DUP3 PUSH2 0x14D7 JUMP JUMPDEST DUP5 DUP5 SLOAD PUSH2 0x1459 JUMP JUMPDEST DUP3 SSTORE POP POP POP POP JUMP JUMPDEST PUSH1 0x0 SWAP1 JUMP JUMPDEST PUSH2 0x1513 PUSH2 0x1506 JUMP JUMPDEST PUSH2 0x151E DUP2 DUP5 DUP5 PUSH2 0x14E1 JUMP JUMPDEST POP POP POP JUMP JUMPDEST JUMPDEST DUP2 DUP2 LT ISZERO PUSH2 0x1542 JUMPI PUSH2 0x1537 PUSH1 0x0 DUP3 PUSH2 0x150B JUMP JUMPDEST PUSH1 0x1 DUP2 ADD SWAP1 POP PUSH2 0x1524 JUMP JUMPDEST POP POP JUMP JUMPDEST PUSH1 0x1F DUP3 GT ISZERO PUSH2 0x1587 JUMPI PUSH2 0x1558 DUP2 PUSH2 0x1427 JUMP JUMPDEST PUSH2 0x1561 DUP5 PUSH2 0x143C JUMP JUMPDEST DUP2 ADD PUSH1 0x20 DUP6 LT ISZERO PUSH2 0x1570 JUMPI DUP2 SWAP1 POP JUMPDEST PUSH2 0x1584 PUSH2 0x157C DUP6 PUSH2 0x143C JUMP JUMPDEST DUP4 ADD DUP3 PUSH2 0x1523 JUMP JUMPDEST POP POP JUMPDEST POP POP POP JUMP JUMPDEST PUSH1 0x0 DUP3 DUP3 SHR SWAP1 POP SWAP3 SWAP2 POP POP JUMP JUMPDEST PUSH1 0x0 PUSH2 0x15AA PUSH1 0x0 NOT DUP5 PUSH1 0x8 MUL PUSH2 0x158C JUMP JUMPDEST NOT DUP1 DUP4 AND SWAP2 POP POP SWAP3 SWAP2 POP POP JUMP JUMPDEST PUSH1 0x0 PUSH2 0x15C3 DUP4 DUP4 PUSH2 0x1599 JUMP JUMPDEST SWAP2 POP DUP3 PUSH1 0x2 MUL DUP3 OR SWAP1 POP SWAP3 SWAP2 POP POP JUMP JUMPDEST PUSH2 0x15DC DUP3 PUSH2 0xC01 JUMP JUMPDEST PUSH8 0xFFFFFFFFFFFFFFFF DUP2 GT ISZERO PUSH2 0x15F5 JUMPI PUSH2 0x15F4 PUSH2 0xE03 JUMP JUMPDEST JUMPDEST PUSH2 0x15FF DUP3 SLOAD PUSH2 0x10ED JUMP JUMPDEST PUSH2 0x160A DUP3 DUP3 DUP6 PUSH2 0x1546 JUMP JUMPDEST PUSH1 0x0 PUSH1 0x20 SWAP1 POP PUSH1 0x1F DUP4 GT PUSH1 0x1 DUP2 EQ PUSH2 0x163D JUMPI PUSH1 0x0 DUP5 ISZERO PUSH2 0x162B JUMPI DUP3 DUP8 ADD MLOAD SWAP1 POP JUMPDEST PUSH2 0x1635 DUP6 DUP3 PUSH2 0x15B7 JUMP JUMPDEST DUP7 SSTORE POP PUSH2 0x169D JUMP JUMPDEST PUSH1 0x1F NOT DUP5 AND PUSH2 0x164B DUP7 PUSH2 0x1427 JUMP JUMPDEST PUSH1 0x0 JUMPDEST DUP3 DUP2 LT ISZERO PUSH2 0x1673 JUMPI DUP5 DUP10 ADD MLOAD DUP3 SSTORE PUSH1 0x1 DUP3 ADD SWAP2 POP PUSH1 0x20 DUP6 ADD SWAP5 POP PUSH1 0x20 DUP2 ADD SWAP1 POP PUSH2 0x164E JUMP JUMPDEST DUP7 DUP4 LT ISZERO PUSH2 0x1690 JUMPI DUP5 DUP10 ADD MLOAD PUSH2 0x168C PUSH1 0x1F DUP10 AND DUP3 PUSH2 0x1599 JUMP JUMPDEST DUP4 SSTORE POP JUMPDEST PUSH1 0x1 PUSH1 0x2 DUP9 MUL ADD DUP9 SSTORE POP POP POP JUMPDEST POP POP POP POP POP POP JUMP JUMPDEST PUSH1 0x0 PUSH1 0x60 DUP3 ADD SWAP1 POP PUSH2 0x16BA PUSH1 0x0 DUP4 ADD DUP7 PUSH2 0xC91 JUMP JUMPDEST DUP2 DUP2 SUB PUSH1 0x20 DUP4 ADD MSTORE PUSH2 0x16CC DUP2 DUP6 PUSH2 0xC58 JUMP JUMPDEST SWAP1 POP PUSH2 0x16DB PUSH1 0x40 DUP4 ADD DUP5 PUSH2 0xC91 JUMP JUMPDEST SWAP5 SWAP4 POP POP POP POP JUMP INVALID LOG2 PUSH5 0x6970667358 0x22 SLT KECCAK256 0xA9 SWAP5 0xC4 EXTCODEHASH MULMOD CALLCODE 0x4F 0xD1 0xAB 0xFC STOP 0xAD DUP5 BLOCKHASH DUP13 0xE3 0x4C PUSH5 0x50E4EF695B 0xF 0x21 LOG1 BYTE PUSH10 0x4BB0B99E64736F6C6343 STOP ADDMOD GT STOP CALLER "
		},
		"gasEstimates": {
			"creation": {
				"codeDepositCost": "1182600",
				"executionCost": "infinite",
				"totalCost": "infinite"
			},
			"external": {
				"createRandomZombie(string)": "infinite",
				"feedOnKitty(uint256,uint256)": "infinite",
				"owner()": "2566",
				"renounceOwnership()": "30398",
				"setKittyContractAddress(address)": "27053",
				"transferOwnership(address)": "30810",
				"zombieToOwner(uint256)": "2884",
				"zombies(uint256)": "infinite"
			},
			"internal": {
				"_triggerCooldown(struct ZombieFactory.Zombie storage pointer)": "infinite",
				"feedAndMultiply(uint256,uint256,string memory)": "infinite"
			}
		},
		"methodIdentifiers": {
			"createRandomZombie(string)": "7bff0a01",
			"feedOnKitty(uint256,uint256)": "17a7f4cc",
			"owner()": "8da5cb5b",
			"renounceOwnership()": "715018a6",
			"setKittyContractAddress(address)": "5f4623f1",
			"transferOwnership(address)": "f2fde38b",
			"zombieToOwner(uint256)": "528b7b8f",
			"zombies(uint256)": "2052465e"
		}
	},
	"abi": [
		{
			"anonymous": false,
			"inputs": [
				{
					"indexed": false,
					"internalType": "uint256",
					"name": "zombieId",
					"type": "uint256"
				},
				{
					"indexed": false,
					"internalType": "string",
					"name": "name",
					"type": "string"
				},
				{
					"indexed": false,
					"internalType": "uint256",
					"name": "dna",
					"type": "uint256"
				}
			],
			"name": "NewZombie",
			"type": "event"
		},
		{
			"anonymous": false,
			"inputs": [
				{
					"indexed": true,
					"internalType": "address",
					"name": "previousOwner",
					"type": "address"
				},
				{
					"indexed": true,
					"internalType": "address",
					"name": "newOwner",
					"type": "address"
				}
			],
			"name": "OwnershipTransferred",
			"type": "event"
		},
		{
			"inputs": [
				{
					"internalType": "string",
					"name": "_name",
					"type": "string"
				}
			],
			"name": "createRandomZombie",
			"outputs": [],
			"stateMutability": "nonpayable",
			"type": "function"
		},
		{
			"inputs": [
				{
					"internalType": "uint256",
					"name": "_zombieId",
					"type": "uint256"
				},
				{
					"internalType": "uint256",
					"name": "_kittyId",
					"type": "uint256"
				}
			],
			"name": "feedOnKitty",
			"outputs": [],
			"stateMutability": "nonpayable",
			"type": "function"
		},
		{
			"inputs": [],
			"name": "owner",
			"outputs": [
				{
					"internalType": "address",
					"name": "",
					"type": "address"
				}
			],
			"stateMutability": "view",
			"type": "function"
		},
		{
			"inputs": [],
			"name": "renounceOwnership",
			"outputs": [],
			"stateMutability": "nonpayable",
			"type": "function"
		},
		{
			"inputs": [
				{
					"internalType": "address",
					"name": "_address",
					"type": "address"
				}
			],
			"name": "setKittyContractAddress",
			"outputs": [],
			"stateMutability": "nonpayable",
			"type": "function"
		},
		{
			"inputs": [
				{
					"internalType": "address",
					"name": "newOwner",
					"type": "address"
				}
			],
			"name": "transferOwnership",
			"outputs": [],
			"stateMutability": "nonpayable",
			"type": "function"
		},
		{
			"inputs": [
				{
					"internalType": "uint256",
					"name": "",
					"type": "uint256"
				}
			],
			"name": "zombieToOwner",
			"outputs": [
				{
					"internalType": "address",
					"name": "",
					"type": "address"
				}
			],
			"stateMutability": "view",
			"type": "function"
		},
		{
			"inputs": [
				{
					"internalType": "uint256",
					"name": "",
					"type": "uint256"
				}
			],
			"name": "zombies",
			"outputs": [
				{
					"internalType": "string",
					"name": "name",
					"type": "string"
				},
				{
					"internalType": "uint256",
					"name": "dna",
					"type": "uint256"
				},
				{
					"internalType": "uint32",
					"name": "level",
					"type": "uint32"
				},
				{
					"internalType": "uint32",
					"name": "readyTime",
					"type": "uint32"
				},
				{
					"internalType": "uint16",
					"name": "winCount",
					"type": "uint16"
				},
				{
					"internalType": "uint16",
					"name": "lossCount",
					"type": "uint16"
				}
			],
			"stateMutability": "view",
			"type": "function"
		}
	]
}