{
	"data": {
		"bytecode": {
			"linkReferences": {},
			"object": "60806040526010600155600154600a6200001a9190620002c6565b6002556201518060035566038d7ea4c6800060085560006009556046600a553480156200004657600080fd5b50620000676200005b6200006d60201b60201c565b6200007560201b60201c565b62000317565b600033905090565b60008060009054906101000a900473ffffffffffffffffffffffffffffffffffffffff169050816000806101000a81548173ffffffffffffffffffffffffffffffffffffffff021916908373ffffffffffffffffffffffffffffffffffffffff1602179055508173ffffffffffffffffffffffffffffffffffffffff168173ffffffffffffffffffffffffffffffffffffffff167f8be0079c531659141344cd1fd0a4f28419497f9722a3daafe3b4186f6b6457e060405160405180910390a35050565b7f4e487b7100000000000000000000000000000000000000000000000000000000600052601160045260246000fd5b60008160011c9050919050565b6000808291508390505b6001851115620001c7578086048111156200019f576200019e62000139565b5b6001851615620001af5780820291505b8081029050620001bf8562000168565b94506200017f565b94509492505050565b600082620001e25760019050620002b5565b81620001f25760009050620002b5565b81600181146200020b576002811462000216576200024c565b6001915050620002b5565b60ff8411156200022b576200022a62000139565b5b8360020a91508482111562000245576200024462000139565b5b50620002b5565b5060208310610133831016604e8410600b8410161715620002865782820a90508381111562000280576200027f62000139565b5b620002b5565b62000295848484600162000175565b92509050818404811115620002af57620002ae62000139565b5b81810290505b9392505050565b6000819050919050565b6000620002d382620002bc565b9150620002e083620002bc565b92506200030f7fffffffffffffffffffffffffffffffffffffffffffffffffffffffffffffffff8484620001d0565b905092915050565b6123a180620003276000396000f3fe6080604052600436106100e85760003560e01c80635faf28801161008a578063c39cbef111610059578063c39cbef1146102c2578063ccf670f8146102eb578063e1fa763814610314578063f2fde38b1461033d576100e8565b80635faf28801461022e578063715018a6146102575780637bff0a011461026e5780638da5cb5b14610297576100e8565b80633ccfd60b116100c65780633ccfd60b146101745780634412e1041461018b578063528b7b8f146101c85780635f4623f114610205576100e8565b80630ce90ec2146100ed57806317a7f4cc146101095780632052465e14610132575b600080fd5b610107600480360381019061010291906114b3565b610366565b005b34801561011557600080fd5b50610130600480360381019061012b91906114e0565b610409565b005b34801561013e57600080fd5b50610159600480360381019061015491906114b3565b610527565b60405161016b969594939291906115fb565b60405180910390f35b34801561018057600080fd5b50610189610637565b005b34801561019757600080fd5b506101b260048036038101906101ad91906116c1565b610695565b6040516101bf91906117ac565b60405180910390f35b3480156101d457600080fd5b506101ef60048036038101906101ea91906114b3565b6107ef565b6040516101fc91906117dd565b60405180910390f35b34801561021157600080fd5b5061022c600480360381019061022791906116c1565b610822565b005b34801561023a57600080fd5b50610255600480360381019061025091906114e0565b61086e565b005b34801561026357600080fd5b5061026c610956565b005b34801561027a57600080fd5b506102956004803603810190610290919061192d565b61096a565b005b3480156102a357600080fd5b506102ac6109eb565b6040516102b991906117dd565b60405180910390f35b3480156102ce57600080fd5b506102e960048036038101906102e491906119d6565b610a14565b005b3480156102f757600080fd5b50610312600480360381019061030d91906114b3565b610b08565b005b34801561032057600080fd5b5061033b600480360381019061033691906114e0565b610b1a565b005b34801561034957600080fd5b50610364600480360381019061035f91906116c1565b610db4565b005b600854341461037457600080fd5b6103c360016004838154811061038d5761038c611a36565b5b906000526020600020906003020160020160009054906101000a900463ffffffff1663ffffffff16610e3790919063ffffffff16565b600482815481106103d7576103d6611a36565b5b906000526020600020906003020160020160006101000a81548163ffffffff021916908363ffffffff16021790555050565b6000600760009054906101000a900473ffffffffffffffffffffffffffffffffffffffff1673ffffffffffffffffffffffffffffffffffffffff1663e98b7f4d836040518263ffffffff1660e01b81526004016104669190611a65565b61014060405180830381865afa158015610484573d6000803e3d6000fd5b505050506040513d601f19601f820116820180604052508101906104a89190611acd565b9091929394959697985090919293949596975090919293949596509091929394955090919293945090919293509091925090915090508091505061052283826040518060400160405280600581526020017f6b69747479000000000000000000000000000000000000000000000000000000815250610e4d565b505050565b6004818154811061053757600080fd5b906000526020600020906003020160009150905080600001805461055a90611bdb565b80601f016020809104026020016040519081016040528092919081815260200182805461058690611bdb565b80156105d35780601f106105a8576101008083540402835291602001916105d3565b820191906000526020600020905b8154815290600101906020018083116105b657829003601f168201915b5050505050908060010154908060020160009054906101000a900463ffffffff16908060020160049054906101000a900463ffffffff16908060020160089054906101000a900461ffff169080600201600a9054906101000a900461ffff16905086565b61063f610fd7565b60006106496109eb565b90508073ffffffffffffffffffffffffffffffffffffffff166108fc479081150290604051600060405180830381858888f19350505050158015610691573d6000803e3d6000fd5b5050565b60606000600660008473ffffffffffffffffffffffffffffffffffffffff1673ffffffffffffffffffffffffffffffffffffffff1681526020019081526020016000205467ffffffffffffffff8111156106f2576106f1611802565b5b6040519080825280602002602001820160405280156107205781602001602082028036833780820191505090505b5090506000805b6004805490508110156107e4578473ffffffffffffffffffffffffffffffffffffffff166005600083815260200190815260200160002060009054906101000a900473ffffffffffffffffffffffffffffffffffffffff1673ffffffffffffffffffffffffffffffffffffffff16036107d157808383815181106107ae576107ad611a36565b5b6020026020010181815250506107ce600183610e3790919063ffffffff16565b91505b80806107dc90611c3b565b915050610727565b508192505050919050565b60056020528060005260406000206000915054906101000a900473ffffffffffffffffffffffffffffffffffffffff1681565b61082a610fd7565b80600760006101000a81548173ffffffffffffffffffffffffffffffffffffffff021916908373ffffffffffffffffffffffffffffffffffffffff16021790555050565b601482816004828154811061088657610885611a36565b5b906000526020600020906003020160020160009054906101000a900463ffffffff1663ffffffff1610156108b957600080fd5b836005600082815260200190815260200160002060009054906101000a900473ffffffffffffffffffffffffffffffffffffffff1673ffffffffffffffffffffffffffffffffffffffff163373ffffffffffffffffffffffffffffffffffffffff161461092557600080fd5b836004868154811061093a57610939611a36565b5b9060005260206000209060030201600101819055505050505050565b61095e610fd7565b6109686000611055565b565b6000600660003373ffffffffffffffffffffffffffffffffffffffff1673ffffffffffffffffffffffffffffffffffffffff16815260200190815260200160002054146109b657600080fd5b60006109c182611119565b90506064816109d09190611cb2565b816109db9190611ce3565b90506109e7828261115e565b5050565b60008060009054906101000a900473ffffffffffffffffffffffffffffffffffffffff16905090565b6002838160048281548110610a2c57610a2b611a36565b5b906000526020600020906003020160020160009054906101000a900463ffffffff1663ffffffff161015610a5f57600080fd5b846005600082815260200190815260200160002060009054906101000a900473ffffffffffffffffffffffffffffffffffffffff1673ffffffffffffffffffffffffffffffffffffffff163373ffffffffffffffffffffffffffffffffffffffff1614610acb57600080fd5b848460048881548110610ae157610ae0611a36565b5b90600052602060002090600302016000019182610aff929190611ece565b50505050505050565b610b10610fd7565b8060088190555050565b816005600082815260200190815260200160002060009054906101000a900473ffffffffffffffffffffffffffffffffffffffff1673ffffffffffffffffffffffffffffffffffffffff163373ffffffffffffffffffffffffffffffffffffffff1614610b8657600080fd5b600060048481548110610b9c57610b9b611a36565b5b90600052602060002090600302019050600060048481548110610bc257610bc1611a36565b5b906000526020600020906003020190506000610bde60646113ce565b9050600a548111610d1257610c1360018460020160089054906101000a900461ffff1661ffff16610e3790919063ffffffff16565b8360020160086101000a81548161ffff021916908361ffff160217905550610c5f60018460020160009054906101000a900463ffffffff1663ffffffff16610e3790919063ffffffff16565b8360020160006101000a81548163ffffffff021916908363ffffffff160217905550610cab600183600201600a9054906101000a900461ffff1661ffff16610e3790919063ffffffff16565b82600201600a6101000a81548161ffff021916908361ffff160217905550610d0d8683600101546040518060400160405280600681526020017f7a6f6d6269650000000000000000000000000000000000000000000000000000815250610e4d565b610dac565b610d3c600184600201600a9054906101000a900461ffff1661ffff16610e3790919063ffffffff16565b83600201600a6101000a81548161ffff021916908361ffff160217905550610d8460018360020160089054906101000a900461ffff1661ffff16610e3790919063ffffffff16565b8260020160086101000a81548161ffff021916908361ffff160217905550610dab8361142e565b5b505050505050565b610dbc610fd7565b600073ffffffffffffffffffffffffffffffffffffffff168173ffffffffffffffffffffffffffffffffffffffff1603610e2b576040517f08c379a0000000000000000000000000000000000000000000000000000000008152600401610e2290612010565b60405180910390fd5b610e3481611055565b50565b60008183610e459190612030565b905092915050565b826005600082815260200190815260200160002060009054906101000a900473ffffffffffffffffffffffffffffffffffffffff1673ffffffffffffffffffffffffffffffffffffffff163373ffffffffffffffffffffffffffffffffffffffff1614610eb957600080fd5b600060048581548110610ecf57610ece611a36565b5b9060005260206000209060030201905060025484610eed9190611cb2565b935060006002858360010154610f039190612030565b610f0d9190612064565b9050604051602001610f1e906120ec565b6040516020818303038152906040528051906020012084604051602001610f459190612132565b6040516020818303038152906040528051906020012003610f87576063606482610f6f9190611cb2565b82610f7a9190611ce3565b610f849190612030565b90505b610fc66040518060400160405280600681526020017f4e6f4e616d6500000000000000000000000000000000000000000000000000008152508261115e565b610fcf8261142e565b505050505050565b610fdf611461565b73ffffffffffffffffffffffffffffffffffffffff16610ffd6109eb565b73ffffffffffffffffffffffffffffffffffffffff1614611053576040517f08c379a000000000000000000000000000000000000000000000000000000000815260040161104a90612195565b60405180910390fd5b565b60008060009054906101000a900473ffffffffffffffffffffffffffffffffffffffff169050816000806101000a81548173ffffffffffffffffffffffffffffffffffffffff021916908373ffffffffffffffffffffffffffffffffffffffff1602179055508173ffffffffffffffffffffffffffffffffffffffff168173ffffffffffffffffffffffffffffffffffffffff167f8be0079c531659141344cd1fd0a4f28419497f9722a3daafe3b4186f6b6457e060405160405180910390a35050565b6000808260405160200161112d9190612132565b6040516020818303038152906040528051906020012060001c9050600254816111569190611cb2565b915050919050565b60046040518060c00160405280848152602001838152602001600163ffffffff168152602001600354426111929190612030565b63ffffffff168152602001600061ffff168152602001600061ffff16815250908060018154018082558091505060019003906000526020600020906003020160009091909190915060008201518160000190816111ef91906121b5565b506020820151816001015560408201518160020160006101000a81548163ffffffff021916908363ffffffff16021790555060608201518160020160046101000a81548163ffffffff021916908363ffffffff16021790555060808201518160020160086101000a81548161ffff021916908361ffff16021790555060a082015181600201600a6101000a81548161ffff021916908361ffff1602179055505050600060016004805490506112a49190611ce3565b9050336005600083815260200190815260200160002060006101000a81548173ffffffffffffffffffffffffffffffffffffffff021916908373ffffffffffffffffffffffffffffffffffffffff16021790555061134b6001600660003373ffffffffffffffffffffffffffffffffffffffff1673ffffffffffffffffffffffffffffffffffffffff16815260200190815260200160002054610e3790919063ffffffff16565b600660003373ffffffffffffffffffffffffffffffffffffffff1673ffffffffffffffffffffffffffffffffffffffff168152602001908152602001600020819055507f88f026aacbbecc90c18411df4b1185fd8d9be2470f1962f192bf84a27d0704b78184846040516113c193929190612287565b60405180910390a1505050565b60006113e66001600954610e3790919063ffffffff16565b6009819055508142336009546040516020016114049392919061232e565b6040516020818303038152906040528051906020012060001c6114279190611cb2565b9050919050565b6003544261143c9190612030565b8160020160046101000a81548163ffffffff021916908363ffffffff16021790555050565b600033905090565b6000604051905090565b600080fd5b600080fd5b6000819050919050565b6114908161147d565b811461149b57600080fd5b50565b6000813590506114ad81611487565b92915050565b6000602082840312156114c9576114c8611473565b5b60006114d78482850161149e565b91505092915050565b600080604083850312156114f7576114f6611473565b5b60006115058582860161149e565b92505060206115168582860161149e565b9150509250929050565b600081519050919050565b600082825260208201905092915050565b60005b8381101561155a57808201518184015260208101905061153f565b60008484015250505050565b6000601f19601f8301169050919050565b600061158282611520565b61158c818561152b565b935061159c81856020860161153c565b6115a581611566565b840191505092915050565b6115b98161147d565b82525050565b600063ffffffff82169050919050565b6115d8816115bf565b82525050565b600061ffff82169050919050565b6115f5816115de565b82525050565b600060c08201905081810360008301526116158189611577565b905061162460208301886115b0565b61163160408301876115cf565b61163e60608301866115cf565b61164b60808301856115ec565b61165860a08301846115ec565b979650505050505050565b600073ffffffffffffffffffffffffffffffffffffffff82169050919050565b600061168e82611663565b9050919050565b61169e81611683565b81146116a957600080fd5b50565b6000813590506116bb81611695565b92915050565b6000602082840312156116d7576116d6611473565b5b60006116e5848285016116ac565b91505092915050565b600081519050919050565b600082825260208201905092915050565b6000819050602082019050919050565b6117238161147d565b82525050565b6000611735838361171a565b60208301905092915050565b6000602082019050919050565b6000611759826116ee565b61176381856116f9565b935061176e8361170a565b8060005b8381101561179f5781516117868882611729565b975061179183611741565b925050600181019050611772565b5085935050505092915050565b600060208201905081810360008301526117c6818461174e565b905092915050565b6117d781611683565b82525050565b60006020820190506117f260008301846117ce565b92915050565b600080fd5b600080fd5b7f4e487b7100000000000000000000000000000000000000000000000000000000600052604160045260246000fd5b61183a82611566565b810181811067ffffffffffffffff8211171561185957611858611802565b5b80604052505050565b600061186c611469565b90506118788282611831565b919050565b600067ffffffffffffffff82111561189857611897611802565b5b6118a182611566565b9050602081019050919050565b82818337600083830152505050565b60006118d06118cb8461187d565b611862565b9050828152602081018484840111156118ec576118eb6117fd565b5b6118f78482856118ae565b509392505050565b600082601f830112611914576119136117f8565b5b81356119248482602086016118bd565b91505092915050565b60006020828403121561194357611942611473565b5b600082013567ffffffffffffffff81111561196157611960611478565b5b61196d848285016118ff565b91505092915050565b600080fd5b600080fd5b60008083601f840112611996576119956117f8565b5b8235905067ffffffffffffffff8111156119b3576119b2611976565b5b6020830191508360018202830111156119cf576119ce61197b565b5b9250929050565b6000806000604084860312156119ef576119ee611473565b5b60006119fd8682870161149e565b935050602084013567ffffffffffffffff811115611a1e57611a1d611478565b5b611a2a86828701611980565b92509250509250925092565b7f4e487b7100000000000000000000000000000000000000000000000000000000600052603260045260246000fd5b6000602082019050611a7a60008301846115b0565b92915050565b60008115159050919050565b611a9581611a80565b8114611aa057600080fd5b50565b600081519050611ab281611a8c565b92915050565b600081519050611ac781611487565b92915050565b6000806000806000806000806000806101408b8d031215611af157611af0611473565b5b6000611aff8d828e01611aa3565b9a50506020611b108d828e01611aa3565b9950506040611b218d828e01611ab8565b9850506060611b328d828e01611ab8565b9750506080611b438d828e01611ab8565b96505060a0611b548d828e01611ab8565b95505060c0611b658d828e01611ab8565b94505060e0611b768d828e01611ab8565b935050610100611b888d828e01611ab8565b925050610120611b9a8d828e01611ab8565b9150509295989b9194979a5092959850565b7f4e487b7100000000000000000000000000000000000000000000000000000000600052602260045260246000fd5b60006002820490506001821680611bf357607f821691505b602082108103611c0657611c05611bac565b5b50919050565b7f4e487b7100000000000000000000000000000000000000000000000000000000600052601160045260246000fd5b6000611c468261147d565b91507fffffffffffffffffffffffffffffffffffffffffffffffffffffffffffffffff8203611c7857611c77611c0c565b5b600182019050919050565b7f4e487b7100000000000000000000000000000000000000000000000000000000600052601260045260246000fd5b6000611cbd8261147d565b9150611cc88361147d565b925082611cd857611cd7611c83565b5b828206905092915050565b6000611cee8261147d565b9150611cf98361147d565b9250828203905081811115611d1157611d10611c0c565b5b92915050565b600082905092915050565b60008190508160005260206000209050919050565b60006020601f8301049050919050565b600082821b905092915050565b600060088302611d847fffffffffffffffffffffffffffffffffffffffffffffffffffffffffffffffff82611d47565b611d8e8683611d47565b95508019841693508086168417925050509392505050565b6000819050919050565b6000611dcb611dc6611dc18461147d565b611da6565b61147d565b9050919050565b6000819050919050565b611de583611db0565b611df9611df182611dd2565b848454611d54565b825550505050565b600090565b611e0e611e01565b611e19818484611ddc565b505050565b5b81811015611e3d57611e32600082611e06565b600181019050611e1f565b5050565b601f821115611e8257611e5381611d22565b611e5c84611d37565b81016020851015611e6b578190505b611e7f611e7785611d37565b830182611e1e565b50505b505050565b600082821c905092915050565b6000611ea560001984600802611e87565b1980831691505092915050565b6000611ebe8383611e94565b9150826002028217905092915050565b611ed88383611d17565b67ffffffffffffffff811115611ef157611ef0611802565b5b611efb8254611bdb565b611f06828285611e41565b6000601f831160018114611f355760008415611f23578287013590505b611f2d8582611eb2565b865550611f95565b601f198416611f4386611d22565b60005b82811015611f6b57848901358255600182019150602085019450602081019050611f46565b86831015611f885784890135611f84601f891682611e94565b8355505b6001600288020188555050505b50505050505050565b7f4f776e61626c653a206e6577206f776e657220697320746865207a65726f206160008201527f6464726573730000000000000000000000000000000000000000000000000000602082015250565b6000611ffa60268361152b565b915061200582611f9e565b604082019050919050565b6000602082019050818103600083015261202981611fed565b9050919050565b600061203b8261147d565b91506120468361147d565b925082820190508082111561205e5761205d611c0c565b5b92915050565b600061206f8261147d565b915061207a8361147d565b92508261208a57612089611c83565b5b828204905092915050565b600081905092915050565b7f6b69747479000000000000000000000000000000000000000000000000000000600082015250565b60006120d6600583612095565b91506120e1826120a0565b600582019050919050565b60006120f7826120c9565b9150819050919050565b600061210c82611520565b6121168185612095565b935061212681856020860161153c565b80840191505092915050565b600061213e8284612101565b915081905092915050565b7f4f776e61626c653a2063616c6c6572206973206e6f7420746865206f776e6572600082015250565b600061217f60208361152b565b915061218a82612149565b602082019050919050565b600060208201905081810360008301526121ae81612172565b9050919050565b6121be82611520565b67ffffffffffffffff8111156121d7576121d6611802565b5b6121e18254611bdb565b6121ec828285611e41565b600060209050601f83116001811461221f576000841561220d578287015190505b6122178582611eb2565b86555061227f565b601f19841661222d86611d22565b60005b8281101561225557848901518255600182019150602085019450602081019050612230565b86831015612272578489015161226e601f891682611e94565b8355505b6001600288020188555050505b505050505050565b600060608201905061229c60008301866115b0565b81810360208301526122ae8185611577565b90506122bd60408301846115b0565b949350505050565b6000819050919050565b6122e06122db8261147d565b6122c5565b82525050565b60008160601b9050919050565b60006122fe826122e6565b9050919050565b6000612310826122f3565b9050919050565b61232861232382611683565b612305565b82525050565b600061233a82866122cf565b60208201915061234a8285612317565b60148201915061235a82846122cf565b60208201915081905094935050505056fea264697066735822122017c683a580eb3c1ad8b7926d957f1c3e0f933aa35cc56c37b7befc012394659564736f6c63430008110033",
			"opcodes": "PUSH1 0x80 PUSH1 0x40 MSTORE PUSH1 0x10 PUSH1 0x1 SSTORE PUSH1 0x1 SLOAD PUSH1 0xA PUSH3 0x1A SWAP2 SWAP1 PUSH3 0x2C6 JUMP JUMPDEST PUSH1 0x2 SSTORE PUSH3 0x15180 PUSH1 0x3 SSTORE PUSH7 0x38D7EA4C68000 PUSH1 0x8 SSTORE PUSH1 0x0 PUSH1 0x9 SSTORE PUSH1 0x46 PUSH1 0xA SSTORE CALLVALUE DUP1 ISZERO PUSH3 0x46 JUMPI PUSH1 0x0 DUP1 REVERT JUMPDEST POP PUSH3 0x67 PUSH3 0x5B PUSH3 0x6D PUSH1 0x20 SHL PUSH1 0x20 SHR JUMP JUMPDEST PUSH3 0x75 PUSH1 0x20 SHL PUSH1 0x20 SHR JUMP JUMPDEST PUSH3 0x317 JUMP JUMPDEST PUSH1 0x0 CALLER SWAP1 POP SWAP1 JUMP JUMPDEST PUSH1 0x0 DUP1 PUSH1 0x0 SWAP1 SLOAD SWAP1 PUSH2 0x100 EXP SWAP1 DIV PUSH20 0xFFFFFFFFFFFFFFFFFFFFFFFFFFFFFFFFFFFFFFFF AND SWAP1 POP DUP2 PUSH1 0x0 DUP1 PUSH2 0x100 EXP DUP2 SLOAD DUP2 PUSH20 0xFFFFFFFFFFFFFFFFFFFFFFFFFFFFFFFFFFFFFFFF MUL NOT AND SWAP1 DUP4 PUSH20 0xFFFFFFFFFFFFFFFFFFFFFFFFFFFFFFFFFFFFFFFF AND MUL OR SWAP1 SSTORE POP DUP2 PUSH20 0xFFFFFFFFFFFFFFFFFFFFFFFFFFFFFFFFFFFFFFFF AND DUP2 PUSH20 0xFFFFFFFFFFFFFFFFFFFFFFFFFFFFFFFFFFFFFFFF AND PUSH32 0x8BE0079C531659141344CD1FD0A4F28419497F9722A3DAAFE3B4186F6B6457E0 PUSH1 0x40 MLOAD PUSH1 0x40 MLOAD DUP1 SWAP2 SUB SWAP1 LOG3 POP POP JUMP JUMPDEST PUSH32 0x4E487B7100000000000000000000000000000000000000000000000000000000 PUSH1 0x0 MSTORE PUSH1 0x11 PUSH1 0x4 MSTORE PUSH1 0x24 PUSH1 0x0 REVERT JUMPDEST PUSH1 0x0 DUP2 PUSH1 0x1 SHR SWAP1 POP SWAP2 SWAP1 POP JUMP JUMPDEST PUSH1 0x0 DUP1 DUP3 SWAP2 POP DUP4 SWAP1 POP JUMPDEST PUSH1 0x1 DUP6 GT ISZERO PUSH3 0x1C7 JUMPI DUP1 DUP7 DIV DUP2 GT ISZERO PUSH3 0x19F JUMPI PUSH3 0x19E PUSH3 0x139 JUMP JUMPDEST JUMPDEST PUSH1 0x1 DUP6 AND ISZERO PUSH3 0x1AF JUMPI DUP1 DUP3 MUL SWAP2 POP JUMPDEST DUP1 DUP2 MUL SWAP1 POP PUSH3 0x1BF DUP6 PUSH3 0x168 JUMP JUMPDEST SWAP5 POP PUSH3 0x17F JUMP JUMPDEST SWAP5 POP SWAP5 SWAP3 POP POP POP JUMP JUMPDEST PUSH1 0x0 DUP3 PUSH3 0x1E2 JUMPI PUSH1 0x1 SWAP1 POP PUSH3 0x2B5 JUMP JUMPDEST DUP2 PUSH3 0x1F2 JUMPI PUSH1 0x0 SWAP1 POP PUSH3 0x2B5 JUMP JUMPDEST DUP2 PUSH1 0x1 DUP2 EQ PUSH3 0x20B JUMPI PUSH1 0x2 DUP2 EQ PUSH3 0x216 JUMPI PUSH3 0x24C JUMP JUMPDEST PUSH1 0x1 SWAP2 POP POP PUSH3 0x2B5 JUMP JUMPDEST PUSH1 0xFF DUP5 GT ISZERO PUSH3 0x22B JUMPI PUSH3 0x22A PUSH3 0x139 JUMP JUMPDEST JUMPDEST DUP4 PUSH1 0x2 EXP SWAP2 POP DUP5 DUP3 GT ISZERO PUSH3 0x245 JUMPI PUSH3 0x244 PUSH3 0x139 JUMP JUMPDEST JUMPDEST POP PUSH3 0x2B5 JUMP JUMPDEST POP PUSH1 0x20 DUP4 LT PUSH2 0x133 DUP4 LT AND PUSH1 0x4E DUP5 LT PUSH1 0xB DUP5 LT AND OR ISZERO PUSH3 0x286 JUMPI DUP3 DUP3 EXP SWAP1 POP DUP4 DUP2 GT ISZERO PUSH3 0x280 JUMPI PUSH3 0x27F PUSH3 0x139 JUMP JUMPDEST JUMPDEST PUSH3 0x2B5 JUMP JUMPDEST PUSH3 0x295 DUP5 DUP5 DUP5 PUSH1 0x1 PUSH3 0x175 JUMP JUMPDEST SWAP3 POP SWAP1 POP DUP2 DUP5 DIV DUP2 GT ISZERO PUSH3 0x2AF JUMPI PUSH3 0x2AE PUSH3 0x139 JUMP JUMPDEST JUMPDEST DUP2 DUP2 MUL SWAP1 POP JUMPDEST SWAP4 SWAP3 POP POP POP JUMP JUMPDEST PUSH1 0x0 DUP2 SWAP1 POP SWAP2 SWAP1 POP JUMP JUMPDEST PUSH1 0x0 PUSH3 0x2D3 DUP3 PUSH3 0x2BC JUMP JUMPDEST SWAP2 POP PUSH3 0x2E0 DUP4 PUSH3 0x2BC JUMP JUMPDEST SWAP3 POP PUSH3 0x30F PUSH32 0xFFFFFFFFFFFFFFFFFFFFFFFFFFFFFFFFFFFFFFFFFFFFFFFFFFFFFFFFFFFFFFFF DUP5 DUP5 PUSH3 0x1D0 JUMP JUMPDEST SWAP1 POP SWAP3 SWAP2 POP POP JUMP JUMPDEST PUSH2 0x23A1 DUP1 PUSH3 0x327 PUSH1 0x0 CODECOPY PUSH1 0x0 RETURN INVALID PUSH1 0x80 PUSH1 0x40 MSTORE PUSH1 0x4 CALLDATASIZE LT PUSH2 0xE8 JUMPI PUSH1 0x0 CALLDATALOAD PUSH1 0xE0 SHR DUP1 PUSH4 0x5FAF2880 GT PUSH2 0x8A JUMPI DUP1 PUSH4 0xC39CBEF1 GT PUSH2 0x59 JUMPI DUP1 PUSH4 0xC39CBEF1 EQ PUSH2 0x2C2 JUMPI DUP1 PUSH4 0xCCF670F8 EQ PUSH2 0x2EB JUMPI DUP1 PUSH4 0xE1FA7638 EQ PUSH2 0x314 JUMPI DUP1 PUSH4 0xF2FDE38B EQ PUSH2 0x33D JUMPI PUSH2 0xE8 JUMP JUMPDEST DUP1 PUSH4 0x5FAF2880 EQ PUSH2 0x22E JUMPI DUP1 PUSH4 0x715018A6 EQ PUSH2 0x257 JUMPI DUP1 PUSH4 0x7BFF0A01 EQ PUSH2 0x26E JUMPI DUP1 PUSH4 0x8DA5CB5B EQ PUSH2 0x297 JUMPI PUSH2 0xE8 JUMP JUMPDEST DUP1 PUSH4 0x3CCFD60B GT PUSH2 0xC6 JUMPI DUP1 PUSH4 0x3CCFD60B EQ PUSH2 0x174 JUMPI DUP1 PUSH4 0x4412E104 EQ PUSH2 0x18B JUMPI DUP1 PUSH4 0x528B7B8F EQ PUSH2 0x1C8 JUMPI DUP1 PUSH4 0x5F4623F1 EQ PUSH2 0x205 JUMPI PUSH2 0xE8 JUMP JUMPDEST DUP1 PUSH4 0xCE90EC2 EQ PUSH2 0xED JUMPI DUP1 PUSH4 0x17A7F4CC EQ PUSH2 0x109 JUMPI DUP1 PUSH4 0x2052465E EQ PUSH2 0x132 JUMPI JUMPDEST PUSH1 0x0 DUP1 REVERT JUMPDEST PUSH2 0x107 PUSH1 0x4 DUP1 CALLDATASIZE SUB DUP2 ADD SWAP1 PUSH2 0x102 SWAP2 SWAP1 PUSH2 0x14B3 JUMP JUMPDEST PUSH2 0x366 JUMP JUMPDEST STOP JUMPDEST CALLVALUE DUP1 ISZERO PUSH2 0x115 JUMPI PUSH1 0x0 DUP1 REVERT JUMPDEST POP PUSH2 0x130 PUSH1 0x4 DUP1 CALLDATASIZE SUB DUP2 ADD SWAP1 PUSH2 0x12B SWAP2 SWAP1 PUSH2 0x14E0 JUMP JUMPDEST PUSH2 0x409 JUMP JUMPDEST STOP JUMPDEST CALLVALUE DUP1 ISZERO PUSH2 0x13E JUMPI PUSH1 0x0 DUP1 REVERT JUMPDEST POP PUSH2 0x159 PUSH1 0x4 DUP1 CALLDATASIZE SUB DUP2 ADD SWAP1 PUSH2 0x154 SWAP2 SWAP1 PUSH2 0x14B3 JUMP JUMPDEST PUSH2 0x527 JUMP JUMPDEST PUSH1 0x40 MLOAD PUSH2 0x16B SWAP7 SWAP6 SWAP5 SWAP4 SWAP3 SWAP2 SWAP1 PUSH2 0x15FB JUMP JUMPDEST PUSH1 0x40 MLOAD DUP1 SWAP2 SUB SWAP1 RETURN JUMPDEST CALLVALUE DUP1 ISZERO PUSH2 0x180 JUMPI PUSH1 0x0 DUP1 REVERT JUMPDEST POP PUSH2 0x189 PUSH2 0x637 JUMP JUMPDEST STOP JUMPDEST CALLVALUE DUP1 ISZERO PUSH2 0x197 JUMPI PUSH1 0x0 DUP1 REVERT JUMPDEST POP PUSH2 0x1B2 PUSH1 0x4 DUP1 CALLDATASIZE SUB DUP2 ADD SWAP1 PUSH2 0x1AD SWAP2 SWAP1 PUSH2 0x16C1 JUMP JUMPDEST PUSH2 0x695 JUMP JUMPDEST PUSH1 0x40 MLOAD PUSH2 0x1BF SWAP2 SWAP1 PUSH2 0x17AC JUMP JUMPDEST PUSH1 0x40 MLOAD DUP1 SWAP2 SUB SWAP1 RETURN JUMPDEST CALLVALUE DUP1 ISZERO PUSH2 0x1D4 JUMPI PUSH1 0x0 DUP1 REVERT JUMPDEST POP PUSH2 0x1EF PUSH1 0x4 DUP1 CALLDATASIZE SUB DUP2 ADD SWAP1 PUSH2 0x1EA SWAP2 SWAP1 PUSH2 0x14B3 JUMP JUMPDEST PUSH2 0x7EF JUMP JUMPDEST PUSH1 0x40 MLOAD PUSH2 0x1FC SWAP2 SWAP1 PUSH2 0x17DD JUMP JUMPDEST PUSH1 0x40 MLOAD DUP1 SWAP2 SUB SWAP1 RETURN JUMPDEST CALLVALUE DUP1 ISZERO PUSH2 0x211 JUMPI PUSH1 0x0 DUP1 REVERT JUMPDEST POP PUSH2 0x22C PUSH1 0x4 DUP1 CALLDATASIZE SUB DUP2 ADD SWAP1 PUSH2 0x227 SWAP2 SWAP1 PUSH2 0x16C1 JUMP JUMPDEST PUSH2 0x822 JUMP JUMPDEST STOP JUMPDEST CALLVALUE DUP1 ISZERO PUSH2 0x23A JUMPI PUSH1 0x0 DUP1 REVERT JUMPDEST POP PUSH2 0x255 PUSH1 0x4 DUP1 CALLDATASIZE SUB DUP2 ADD SWAP1 PUSH2 0x250 SWAP2 SWAP1 PUSH2 0x14E0 JUMP JUMPDEST PUSH2 0x86E JUMP JUMPDEST STOP JUMPDEST CALLVALUE DUP1 ISZERO PUSH2 0x263 JUMPI PUSH1 0x0 DUP1 REVERT JUMPDEST POP PUSH2 0x26C PUSH2 0x956 JUMP JUMPDEST STOP JUMPDEST CALLVALUE DUP1 ISZERO PUSH2 0x27A JUMPI PUSH1 0x0 DUP1 REVERT JUMPDEST POP PUSH2 0x295 PUSH1 0x4 DUP1 CALLDATASIZE SUB DUP2 ADD SWAP1 PUSH2 0x290 SWAP2 SWAP1 PUSH2 0x192D JUMP JUMPDEST PUSH2 0x96A JUMP JUMPDEST STOP JUMPDEST CALLVALUE DUP1 ISZERO PUSH2 0x2A3 JUMPI PUSH1 0x0 DUP1 REVERT JUMPDEST POP PUSH2 0x2AC PUSH2 0x9EB JUMP JUMPDEST PUSH1 0x40 MLOAD PUSH2 0x2B9 SWAP2 SWAP1 PUSH2 0x17DD JUMP JUMPDEST PUSH1 0x40 MLOAD DUP1 SWAP2 SUB SWAP1 RETURN JUMPDEST CALLVALUE DUP1 ISZERO PUSH2 0x2CE JUMPI PUSH1 0x0 DUP1 REVERT JUMPDEST POP PUSH2 0x2E9 PUSH1 0x4 DUP1 CALLDATASIZE SUB DUP2 ADD SWAP1 PUSH2 0x2E4 SWAP2 SWAP1 PUSH2 0x19D6 JUMP JUMPDEST PUSH2 0xA14 JUMP JUMPDEST STOP JUMPDEST CALLVALUE DUP1 ISZERO PUSH2 0x2F7 JUMPI PUSH1 0x0 DUP1 REVERT JUMPDEST POP PUSH2 0x312 PUSH1 0x4 DUP1 CALLDATASIZE SUB DUP2 ADD SWAP1 PUSH2 0x30D SWAP2 SWAP1 PUSH2 0x14B3 JUMP JUMPDEST PUSH2 0xB08 JUMP JUMPDEST STOP JUMPDEST CALLVALUE DUP1 ISZERO PUSH2 0x320 JUMPI PUSH1 0x0 DUP1 REVERT JUMPDEST POP PUSH2 0x33B PUSH1 0x4 DUP1 CALLDATASIZE SUB DUP2 ADD SWAP1 PUSH2 0x336 SWAP2 SWAP1 PUSH2 0x14E0 JUMP JUMPDEST PUSH2 0xB1A JUMP JUMPDEST STOP JUMPDEST CALLVALUE DUP1 ISZERO PUSH2 0x349 JUMPI PUSH1 0x0 DUP1 REVERT JUMPDEST POP PUSH2 0x364 PUSH1 0x4 DUP1 CALLDATASIZE SUB DUP2 ADD SWAP1 PUSH2 0x35F SWAP2 SWAP1 PUSH2 0x16C1 JUMP JUMPDEST PUSH2 0xDB4 JUMP JUMPDEST STOP JUMPDEST PUSH1 0x8 SLOAD CALLVALUE EQ PUSH2 0x374 JUMPI PUSH1 0x0 DUP1 REVERT JUMPDEST PUSH2 0x3C3 PUSH1 0x1 PUSH1 0x4 DUP4 DUP2 SLOAD DUP2 LT PUSH2 0x38D JUMPI PUSH2 0x38C PUSH2 0x1A36 JUMP JUMPDEST JUMPDEST SWAP1 PUSH1 0x0 MSTORE PUSH1 0x20 PUSH1 0x0 KECCAK256 SWAP1 PUSH1 0x3 MUL ADD PUSH1 0x2 ADD PUSH1 0x0 SWAP1 SLOAD SWAP1 PUSH2 0x100 EXP SWAP1 DIV PUSH4 0xFFFFFFFF AND PUSH4 0xFFFFFFFF AND PUSH2 0xE37 SWAP1 SWAP2 SWAP1 PUSH4 0xFFFFFFFF AND JUMP JUMPDEST PUSH1 0x4 DUP3 DUP2 SLOAD DUP2 LT PUSH2 0x3D7 JUMPI PUSH2 0x3D6 PUSH2 0x1A36 JUMP JUMPDEST JUMPDEST SWAP1 PUSH1 0x0 MSTORE PUSH1 0x20 PUSH1 0x0 KECCAK256 SWAP1 PUSH1 0x3 MUL ADD PUSH1 0x2 ADD PUSH1 0x0 PUSH2 0x100 EXP DUP2 SLOAD DUP2 PUSH4 0xFFFFFFFF MUL NOT AND SWAP1 DUP4 PUSH4 0xFFFFFFFF AND MUL OR SWAP1 SSTORE POP POP JUMP JUMPDEST PUSH1 0x0 PUSH1 0x7 PUSH1 0x0 SWAP1 SLOAD SWAP1 PUSH2 0x100 EXP SWAP1 DIV PUSH20 0xFFFFFFFFFFFFFFFFFFFFFFFFFFFFFFFFFFFFFFFF AND PUSH20 0xFFFFFFFFFFFFFFFFFFFFFFFFFFFFFFFFFFFFFFFF AND PUSH4 0xE98B7F4D DUP4 PUSH1 0x40 MLOAD DUP3 PUSH4 0xFFFFFFFF AND PUSH1 0xE0 SHL DUP2 MSTORE PUSH1 0x4 ADD PUSH2 0x466 SWAP2 SWAP1 PUSH2 0x1A65 JUMP JUMPDEST PUSH2 0x140 PUSH1 0x40 MLOAD DUP1 DUP4 SUB DUP2 DUP7 GAS STATICCALL ISZERO DUP1 ISZERO PUSH2 0x484 JUMPI RETURNDATASIZE PUSH1 0x0 DUP1 RETURNDATACOPY RETURNDATASIZE PUSH1 0x0 REVERT JUMPDEST POP POP POP POP PUSH1 0x40 MLOAD RETURNDATASIZE PUSH1 0x1F NOT PUSH1 0x1F DUP3 ADD AND DUP3 ADD DUP1 PUSH1 0x40 MSTORE POP DUP2 ADD SWAP1 PUSH2 0x4A8 SWAP2 SWAP1 PUSH2 0x1ACD JUMP JUMPDEST SWAP1 SWAP2 SWAP3 SWAP4 SWAP5 SWAP6 SWAP7 SWAP8 SWAP9 POP SWAP1 SWAP2 SWAP3 SWAP4 SWAP5 SWAP6 SWAP7 SWAP8 POP SWAP1 SWAP2 SWAP3 SWAP4 SWAP5 SWAP6 SWAP7 POP SWAP1 SWAP2 SWAP3 SWAP4 SWAP5 SWAP6 POP SWAP1 SWAP2 SWAP3 SWAP4 SWAP5 POP SWAP1 SWAP2 SWAP3 SWAP4 POP SWAP1 SWAP2 SWAP3 POP SWAP1 SWAP2 POP SWAP1 POP DUP1 SWAP2 POP POP PUSH2 0x522 DUP4 DUP3 PUSH1 0x40 MLOAD DUP1 PUSH1 0x40 ADD PUSH1 0x40 MSTORE DUP1 PUSH1 0x5 DUP2 MSTORE PUSH1 0x20 ADD PUSH32 0x6B69747479000000000000000000000000000000000000000000000000000000 DUP2 MSTORE POP PUSH2 0xE4D JUMP JUMPDEST POP POP POP JUMP JUMPDEST PUSH1 0x4 DUP2 DUP2 SLOAD DUP2 LT PUSH2 0x537 JUMPI PUSH1 0x0 DUP1 REVERT JUMPDEST SWAP1 PUSH1 0x0 MSTORE PUSH1 0x20 PUSH1 0x0 KECCAK256 SWAP1 PUSH1 0x3 MUL ADD PUSH1 0x0 SWAP2 POP SWAP1 POP DUP1 PUSH1 0x0 ADD DUP1 SLOAD PUSH2 0x55A SWAP1 PUSH2 0x1BDB JUMP JUMPDEST DUP1 PUSH1 0x1F ADD PUSH1 0x20 DUP1 SWAP2 DIV MUL PUSH1 0x20 ADD PUSH1 0x40 MLOAD SWAP1 DUP2 ADD PUSH1 0x40 MSTORE DUP1 SWAP3 SWAP2 SWAP1 DUP2 DUP2 MSTORE PUSH1 0x20 ADD DUP3 DUP1 SLOAD PUSH2 0x586 SWAP1 PUSH2 0x1BDB JUMP JUMPDEST DUP1 ISZERO PUSH2 0x5D3 JUMPI DUP1 PUSH1 0x1F LT PUSH2 0x5A8 JUMPI PUSH2 0x100 DUP1 DUP4 SLOAD DIV MUL DUP4 MSTORE SWAP2 PUSH1 0x20 ADD SWAP2 PUSH2 0x5D3 JUMP JUMPDEST DUP3 ADD SWAP2 SWAP1 PUSH1 0x0 MSTORE PUSH1 0x20 PUSH1 0x0 KECCAK256 SWAP1 JUMPDEST DUP2 SLOAD DUP2 MSTORE SWAP1 PUSH1 0x1 ADD SWAP1 PUSH1 0x20 ADD DUP1 DUP4 GT PUSH2 0x5B6 JUMPI DUP3 SWAP1 SUB PUSH1 0x1F AND DUP3 ADD SWAP2 JUMPDEST POP POP POP POP POP SWAP1 DUP1 PUSH1 0x1 ADD SLOAD SWAP1 DUP1 PUSH1 0x2 ADD PUSH1 0x0 SWAP1 SLOAD SWAP1 PUSH2 0x100 EXP SWAP1 DIV PUSH4 0xFFFFFFFF AND SWAP1 DUP1 PUSH1 0x2 ADD PUSH1 0x4 SWAP1 SLOAD SWAP1 PUSH2 0x100 EXP SWAP1 DIV PUSH4 0xFFFFFFFF AND SWAP1 DUP1 PUSH1 0x2 ADD PUSH1 0x8 SWAP1 SLOAD SWAP1 PUSH2 0x100 EXP SWAP1 DIV PUSH2 0xFFFF AND SWAP1 DUP1 PUSH1 0x2 ADD PUSH1 0xA SWAP1 SLOAD SWAP1 PUSH2 0x100 EXP SWAP1 DIV PUSH2 0xFFFF AND SWAP1 POP DUP7 JUMP JUMPDEST PUSH2 0x63F PUSH2 0xFD7 JUMP JUMPDEST PUSH1 0x0 PUSH2 0x649 PUSH2 0x9EB JUMP JUMPDEST SWAP1 POP DUP1 PUSH20 0xFFFFFFFFFFFFFFFFFFFFFFFFFFFFFFFFFFFFFFFF AND PUSH2 0x8FC SELFBALANCE SWAP1 DUP2 ISZERO MUL SWAP1 PUSH1 0x40 MLOAD PUSH1 0x0 PUSH1 0x40 MLOAD DUP1 DUP4 SUB DUP2 DUP6 DUP9 DUP9 CALL SWAP4 POP POP POP POP ISZERO DUP1 ISZERO PUSH2 0x691 JUMPI RETURNDATASIZE PUSH1 0x0 DUP1 RETURNDATACOPY RETURNDATASIZE PUSH1 0x0 REVERT JUMPDEST POP POP JUMP JUMPDEST PUSH1 0x60 PUSH1 0x0 PUSH1 0x6 PUSH1 0x0 DUP5 PUSH20 0xFFFFFFFFFFFFFFFFFFFFFFFFFFFFFFFFFFFFFFFF AND PUSH20 0xFFFFFFFFFFFFFFFFFFFFFFFFFFFFFFFFFFFFFFFF AND DUP2 MSTORE PUSH1 0x20 ADD SWAP1 DUP2 MSTORE PUSH1 0x20 ADD PUSH1 0x0 KECCAK256 SLOAD PUSH8 0xFFFFFFFFFFFFFFFF DUP2 GT ISZERO PUSH2 0x6F2 JUMPI PUSH2 0x6F1 PUSH2 0x1802 JUMP JUMPDEST JUMPDEST PUSH1 0x40 MLOAD SWAP1 DUP1 DUP3 MSTORE DUP1 PUSH1 0x20 MUL PUSH1 0x20 ADD DUP3 ADD PUSH1 0x40 MSTORE DUP1 ISZERO PUSH2 0x720 JUMPI DUP2 PUSH1 0x20 ADD PUSH1 0x20 DUP3 MUL DUP1 CALLDATASIZE DUP4 CALLDATACOPY DUP1 DUP3 ADD SWAP2 POP POP SWAP1 POP JUMPDEST POP SWAP1 POP PUSH1 0x0 DUP1 JUMPDEST PUSH1 0x4 DUP1 SLOAD SWAP1 POP DUP2 LT ISZERO PUSH2 0x7E4 JUMPI DUP5 PUSH20 0xFFFFFFFFFFFFFFFFFFFFFFFFFFFFFFFFFFFFFFFF AND PUSH1 0x5 PUSH1 0x0 DUP4 DUP2 MSTORE PUSH1 0x20 ADD SWAP1 DUP2 MSTORE PUSH1 0x20 ADD PUSH1 0x0 KECCAK256 PUSH1 0x0 SWAP1 SLOAD SWAP1 PUSH2 0x100 EXP SWAP1 DIV PUSH20 0xFFFFFFFFFFFFFFFFFFFFFFFFFFFFFFFFFFFFFFFF AND PUSH20 0xFFFFFFFFFFFFFFFFFFFFFFFFFFFFFFFFFFFFFFFF AND SUB PUSH2 0x7D1 JUMPI DUP1 DUP4 DUP4 DUP2 MLOAD DUP2 LT PUSH2 0x7AE JUMPI PUSH2 0x7AD PUSH2 0x1A36 JUMP JUMPDEST JUMPDEST PUSH1 0x20 MUL PUSH1 0x20 ADD ADD DUP2 DUP2 MSTORE POP POP PUSH2 0x7CE PUSH1 0x1 DUP4 PUSH2 0xE37 SWAP1 SWAP2 SWAP1 PUSH4 0xFFFFFFFF AND JUMP JUMPDEST SWAP2 POP JUMPDEST DUP1 DUP1 PUSH2 0x7DC SWAP1 PUSH2 0x1C3B JUMP JUMPDEST SWAP2 POP POP PUSH2 0x727 JUMP JUMPDEST POP DUP2 SWAP3 POP POP POP SWAP2 SWAP1 POP JUMP JUMPDEST PUSH1 0x5 PUSH1 0x20 MSTORE DUP1 PUSH1 0x0 MSTORE PUSH1 0x40 PUSH1 0x0 KECCAK256 PUSH1 0x0 SWAP2 POP SLOAD SWAP1 PUSH2 0x100 EXP SWAP1 DIV PUSH20 0xFFFFFFFFFFFFFFFFFFFFFFFFFFFFFFFFFFFFFFFF AND DUP2 JUMP JUMPDEST PUSH2 0x82A PUSH2 0xFD7 JUMP JUMPDEST DUP1 PUSH1 0x7 PUSH1 0x0 PUSH2 0x100 EXP DUP2 SLOAD DUP2 PUSH20 0xFFFFFFFFFFFFFFFFFFFFFFFFFFFFFFFFFFFFFFFF MUL NOT AND SWAP1 DUP4 PUSH20 0xFFFFFFFFFFFFFFFFFFFFFFFFFFFFFFFFFFFFFFFF AND MUL OR SWAP1 SSTORE POP POP JUMP JUMPDEST PUSH1 0x14 DUP3 DUP2 PUSH1 0x4 DUP3 DUP2 SLOAD DUP2 LT PUSH2 0x886 JUMPI PUSH2 0x885 PUSH2 0x1A36 JUMP JUMPDEST JUMPDEST SWAP1 PUSH1 0x0 MSTORE PUSH1 0x20 PUSH1 0x0 KECCAK256 SWAP1 PUSH1 0x3 MUL ADD PUSH1 0x2 ADD PUSH1 0x0 SWAP1 SLOAD SWAP1 PUSH2 0x100 EXP SWAP1 DIV PUSH4 0xFFFFFFFF AND PUSH4 0xFFFFFFFF AND LT ISZERO PUSH2 0x8B9 JUMPI PUSH1 0x0 DUP1 REVERT JUMPDEST DUP4 PUSH1 0x5 PUSH1 0x0 DUP3 DUP2 MSTORE PUSH1 0x20 ADD SWAP1 DUP2 MSTORE PUSH1 0x20 ADD PUSH1 0x0 KECCAK256 PUSH1 0x0 SWAP1 SLOAD SWAP1 PUSH2 0x100 EXP SWAP1 DIV PUSH20 0xFFFFFFFFFFFFFFFFFFFFFFFFFFFFFFFFFFFFFFFF AND PUSH20 0xFFFFFFFFFFFFFFFFFFFFFFFFFFFFFFFFFFFFFFFF AND CALLER PUSH20 0xFFFFFFFFFFFFFFFFFFFFFFFFFFFFFFFFFFFFFFFF AND EQ PUSH2 0x925 JUMPI PUSH1 0x0 DUP1 REVERT JUMPDEST DUP4 PUSH1 0x4 DUP7 DUP2 SLOAD DUP2 LT PUSH2 0x93A JUMPI PUSH2 0x939 PUSH2 0x1A36 JUMP JUMPDEST JUMPDEST SWAP1 PUSH1 0x0 MSTORE PUSH1 0x20 PUSH1 0x0 KECCAK256 SWAP1 PUSH1 0x3 MUL ADD PUSH1 0x1 ADD DUP2 SWAP1 SSTORE POP POP POP POP POP POP JUMP JUMPDEST PUSH2 0x95E PUSH2 0xFD7 JUMP JUMPDEST PUSH2 0x968 PUSH1 0x0 PUSH2 0x1055 JUMP JUMPDEST JUMP JUMPDEST PUSH1 0x0 PUSH1 0x6 PUSH1 0x0 CALLER PUSH20 0xFFFFFFFFFFFFFFFFFFFFFFFFFFFFFFFFFFFFFFFF AND PUSH20 0xFFFFFFFFFFFFFFFFFFFFFFFFFFFFFFFFFFFFFFFF AND DUP2 MSTORE PUSH1 0x20 ADD SWAP1 DUP2 MSTORE PUSH1 0x20 ADD PUSH1 0x0 KECCAK256 SLOAD EQ PUSH2 0x9B6 JUMPI PUSH1 0x0 DUP1 REVERT JUMPDEST PUSH1 0x0 PUSH2 0x9C1 DUP3 PUSH2 0x1119 JUMP JUMPDEST SWAP1 POP PUSH1 0x64 DUP2 PUSH2 0x9D0 SWAP2 SWAP1 PUSH2 0x1CB2 JUMP JUMPDEST DUP2 PUSH2 0x9DB SWAP2 SWAP1 PUSH2 0x1CE3 JUMP JUMPDEST SWAP1 POP PUSH2 0x9E7 DUP3 DUP3 PUSH2 0x115E JUMP JUMPDEST POP POP JUMP JUMPDEST PUSH1 0x0 DUP1 PUSH1 0x0 SWAP1 SLOAD SWAP1 PUSH2 0x100 EXP SWAP1 DIV PUSH20 0xFFFFFFFFFFFFFFFFFFFFFFFFFFFFFFFFFFFFFFFF AND SWAP1 POP SWAP1 JUMP JUMPDEST PUSH1 0x2 DUP4 DUP2 PUSH1 0x4 DUP3 DUP2 SLOAD DUP2 LT PUSH2 0xA2C JUMPI PUSH2 0xA2B PUSH2 0x1A36 JUMP JUMPDEST JUMPDEST SWAP1 PUSH1 0x0 MSTORE PUSH1 0x20 PUSH1 0x0 KECCAK256 SWAP1 PUSH1 0x3 MUL ADD PUSH1 0x2 ADD PUSH1 0x0 SWAP1 SLOAD SWAP1 PUSH2 0x100 EXP SWAP1 DIV PUSH4 0xFFFFFFFF AND PUSH4 0xFFFFFFFF AND LT ISZERO PUSH2 0xA5F JUMPI PUSH1 0x0 DUP1 REVERT JUMPDEST DUP5 PUSH1 0x5 PUSH1 0x0 DUP3 DUP2 MSTORE PUSH1 0x20 ADD SWAP1 DUP2 MSTORE PUSH1 0x20 ADD PUSH1 0x0 KECCAK256 PUSH1 0x0 SWAP1 SLOAD SWAP1 PUSH2 0x100 EXP SWAP1 DIV PUSH20 0xFFFFFFFFFFFFFFFFFFFFFFFFFFFFFFFFFFFFFFFF AND PUSH20 0xFFFFFFFFFFFFFFFFFFFFFFFFFFFFFFFFFFFFFFFF AND CALLER PUSH20 0xFFFFFFFFFFFFFFFFFFFFFFFFFFFFFFFFFFFFFFFF AND EQ PUSH2 0xACB JUMPI PUSH1 0x0 DUP1 REVERT JUMPDEST DUP5 DUP5 PUSH1 0x4 DUP9 DUP2 SLOAD DUP2 LT PUSH2 0xAE1 JUMPI PUSH2 0xAE0 PUSH2 0x1A36 JUMP JUMPDEST JUMPDEST SWAP1 PUSH1 0x0 MSTORE PUSH1 0x20 PUSH1 0x0 KECCAK256 SWAP1 PUSH1 0x3 MUL ADD PUSH1 0x0 ADD SWAP2 DUP3 PUSH2 0xAFF SWAP3 SWAP2 SWAP1 PUSH2 0x1ECE JUMP JUMPDEST POP POP POP POP POP POP POP JUMP JUMPDEST PUSH2 0xB10 PUSH2 0xFD7 JUMP JUMPDEST DUP1 PUSH1 0x8 DUP2 SWAP1 SSTORE POP POP JUMP JUMPDEST DUP2 PUSH1 0x5 PUSH1 0x0 DUP3 DUP2 MSTORE PUSH1 0x20 ADD SWAP1 DUP2 MSTORE PUSH1 0x20 ADD PUSH1 0x0 KECCAK256 PUSH1 0x0 SWAP1 SLOAD SWAP1 PUSH2 0x100 EXP SWAP1 DIV PUSH20 0xFFFFFFFFFFFFFFFFFFFFFFFFFFFFFFFFFFFFFFFF AND PUSH20 0xFFFFFFFFFFFFFFFFFFFFFFFFFFFFFFFFFFFFFFFF AND CALLER PUSH20 0xFFFFFFFFFFFFFFFFFFFFFFFFFFFFFFFFFFFFFFFF AND EQ PUSH2 0xB86 JUMPI PUSH1 0x0 DUP1 REVERT JUMPDEST PUSH1 0x0 PUSH1 0x4 DUP5 DUP2 SLOAD DUP2 LT PUSH2 0xB9C JUMPI PUSH2 0xB9B PUSH2 0x1A36 JUMP JUMPDEST JUMPDEST SWAP1 PUSH1 0x0 MSTORE PUSH1 0x20 PUSH1 0x0 KECCAK256 SWAP1 PUSH1 0x3 MUL ADD SWAP1 POP PUSH1 0x0 PUSH1 0x4 DUP5 DUP2 SLOAD DUP2 LT PUSH2 0xBC2 JUMPI PUSH2 0xBC1 PUSH2 0x1A36 JUMP JUMPDEST JUMPDEST SWAP1 PUSH1 0x0 MSTORE PUSH1 0x20 PUSH1 0x0 KECCAK256 SWAP1 PUSH1 0x3 MUL ADD SWAP1 POP PUSH1 0x0 PUSH2 0xBDE PUSH1 0x64 PUSH2 0x13CE JUMP JUMPDEST SWAP1 POP PUSH1 0xA SLOAD DUP2 GT PUSH2 0xD12 JUMPI PUSH2 0xC13 PUSH1 0x1 DUP5 PUSH1 0x2 ADD PUSH1 0x8 SWAP1 SLOAD SWAP1 PUSH2 0x100 EXP SWAP1 DIV PUSH2 0xFFFF AND PUSH2 0xFFFF AND PUSH2 0xE37 SWAP1 SWAP2 SWAP1 PUSH4 0xFFFFFFFF AND JUMP JUMPDEST DUP4 PUSH1 0x2 ADD PUSH1 0x8 PUSH2 0x100 EXP DUP2 SLOAD DUP2 PUSH2 0xFFFF MUL NOT AND SWAP1 DUP4 PUSH2 0xFFFF AND MUL OR SWAP1 SSTORE POP PUSH2 0xC5F PUSH1 0x1 DUP5 PUSH1 0x2 ADD PUSH1 0x0 SWAP1 SLOAD SWAP1 PUSH2 0x100 EXP SWAP1 DIV PUSH4 0xFFFFFFFF AND PUSH4 0xFFFFFFFF AND PUSH2 0xE37 SWAP1 SWAP2 SWAP1 PUSH4 0xFFFFFFFF AND JUMP JUMPDEST DUP4 PUSH1 0x2 ADD PUSH1 0x0 PUSH2 0x100 EXP DUP2 SLOAD DUP2 PUSH4 0xFFFFFFFF MUL NOT AND SWAP1 DUP4 PUSH4 0xFFFFFFFF AND MUL OR SWAP1 SSTORE POP PUSH2 0xCAB PUSH1 0x1 DUP4 PUSH1 0x2 ADD PUSH1 0xA SWAP1 SLOAD SWAP1 PUSH2 0x100 EXP SWAP1 DIV PUSH2 0xFFFF AND PUSH2 0xFFFF AND PUSH2 0xE37 SWAP1 SWAP2 SWAP1 PUSH4 0xFFFFFFFF AND JUMP JUMPDEST DUP3 PUSH1 0x2 ADD PUSH1 0xA PUSH2 0x100 EXP DUP2 SLOAD DUP2 PUSH2 0xFFFF MUL NOT AND SWAP1 DUP4 PUSH2 0xFFFF AND MUL OR SWAP1 SSTORE POP PUSH2 0xD0D DUP7 DUP4 PUSH1 0x1 ADD SLOAD PUSH1 0x40 MLOAD DUP1 PUSH1 0x40 ADD PUSH1 0x40 MSTORE DUP1 PUSH1 0x6 DUP2 MSTORE PUSH1 0x20 ADD PUSH32 0x7A6F6D6269650000000000000000000000000000000000000000000000000000 DUP2 MSTORE POP PUSH2 0xE4D JUMP JUMPDEST PUSH2 0xDAC JUMP JUMPDEST PUSH2 0xD3C PUSH1 0x1 DUP5 PUSH1 0x2 ADD PUSH1 0xA SWAP1 SLOAD SWAP1 PUSH2 0x100 EXP SWAP1 DIV PUSH2 0xFFFF AND PUSH2 0xFFFF AND PUSH2 0xE37 SWAP1 SWAP2 SWAP1 PUSH4 0xFFFFFFFF AND JUMP JUMPDEST DUP4 PUSH1 0x2 ADD PUSH1 0xA PUSH2 0x100 EXP DUP2 SLOAD DUP2 PUSH2 0xFFFF MUL NOT AND SWAP1 DUP4 PUSH2 0xFFFF AND MUL OR SWAP1 SSTORE POP PUSH2 0xD84 PUSH1 0x1 DUP4 PUSH1 0x2 ADD PUSH1 0x8 SWAP1 SLOAD SWAP1 PUSH2 0x100 EXP SWAP1 DIV PUSH2 0xFFFF AND PUSH2 0xFFFF AND PUSH2 0xE37 SWAP1 SWAP2 SWAP1 PUSH4 0xFFFFFFFF AND JUMP JUMPDEST DUP3 PUSH1 0x2 ADD PUSH1 0x8 PUSH2 0x100 EXP DUP2 SLOAD DUP2 PUSH2 0xFFFF MUL NOT AND SWAP1 DUP4 PUSH2 0xFFFF AND MUL OR SWAP1 SSTORE POP PUSH2 0xDAB DUP4 PUSH2 0x142E JUMP JUMPDEST JUMPDEST POP POP POP POP POP POP JUMP JUMPDEST PUSH2 0xDBC PUSH2 0xFD7 JUMP JUMPDEST PUSH1 0x0 PUSH20 0xFFFFFFFFFFFFFFFFFFFFFFFFFFFFFFFFFFFFFFFF AND DUP2 PUSH20 0xFFFFFFFFFFFFFFFFFFFFFFFFFFFFFFFFFFFFFFFF AND SUB PUSH2 0xE2B JUMPI PUSH1 0x40 MLOAD PUSH32 0x8C379A000000000000000000000000000000000000000000000000000000000 DUP2 MSTORE PUSH1 0x4 ADD PUSH2 0xE22 SWAP1 PUSH2 0x2010 JUMP JUMPDEST PUSH1 0x40 MLOAD DUP1 SWAP2 SUB SWAP1 REVERT JUMPDEST PUSH2 0xE34 DUP2 PUSH2 0x1055 JUMP JUMPDEST POP JUMP JUMPDEST PUSH1 0x0 DUP2 DUP4 PUSH2 0xE45 SWAP2 SWAP1 PUSH2 0x2030 JUMP JUMPDEST SWAP1 POP SWAP3 SWAP2 POP POP JUMP JUMPDEST DUP3 PUSH1 0x5 PUSH1 0x0 DUP3 DUP2 MSTORE PUSH1 0x20 ADD SWAP1 DUP2 MSTORE PUSH1 0x20 ADD PUSH1 0x0 KECCAK256 PUSH1 0x0 SWAP1 SLOAD SWAP1 PUSH2 0x100 EXP SWAP1 DIV PUSH20 0xFFFFFFFFFFFFFFFFFFFFFFFFFFFFFFFFFFFFFFFF AND PUSH20 0xFFFFFFFFFFFFFFFFFFFFFFFFFFFFFFFFFFFFFFFF AND CALLER PUSH20 0xFFFFFFFFFFFFFFFFFFFFFFFFFFFFFFFFFFFFFFFF AND EQ PUSH2 0xEB9 JUMPI PUSH1 0x0 DUP1 REVERT JUMPDEST PUSH1 0x0 PUSH1 0x4 DUP6 DUP2 SLOAD DUP2 LT PUSH2 0xECF JUMPI PUSH2 0xECE PUSH2 0x1A36 JUMP JUMPDEST JUMPDEST SWAP1 PUSH1 0x0 MSTORE PUSH1 0x20 PUSH1 0x0 KECCAK256 SWAP1 PUSH1 0x3 MUL ADD SWAP1 POP PUSH1 0x2 SLOAD DUP5 PUSH2 0xEED SWAP2 SWAP1 PUSH2 0x1CB2 JUMP JUMPDEST SWAP4 POP PUSH1 0x0 PUSH1 0x2 DUP6 DUP4 PUSH1 0x1 ADD SLOAD PUSH2 0xF03 SWAP2 SWAP1 PUSH2 0x2030 JUMP JUMPDEST PUSH2 0xF0D SWAP2 SWAP1 PUSH2 0x2064 JUMP JUMPDEST SWAP1 POP PUSH1 0x40 MLOAD PUSH1 0x20 ADD PUSH2 0xF1E SWAP1 PUSH2 0x20EC JUMP JUMPDEST PUSH1 0x40 MLOAD PUSH1 0x20 DUP2 DUP4 SUB SUB DUP2 MSTORE SWAP1 PUSH1 0x40 MSTORE DUP1 MLOAD SWAP1 PUSH1 0x20 ADD KECCAK256 DUP5 PUSH1 0x40 MLOAD PUSH1 0x20 ADD PUSH2 0xF45 SWAP2 SWAP1 PUSH2 0x2132 JUMP JUMPDEST PUSH1 0x40 MLOAD PUSH1 0x20 DUP2 DUP4 SUB SUB DUP2 MSTORE SWAP1 PUSH1 0x40 MSTORE DUP1 MLOAD SWAP1 PUSH1 0x20 ADD KECCAK256 SUB PUSH2 0xF87 JUMPI PUSH1 0x63 PUSH1 0x64 DUP3 PUSH2 0xF6F SWAP2 SWAP1 PUSH2 0x1CB2 JUMP JUMPDEST DUP3 PUSH2 0xF7A SWAP2 SWAP1 PUSH2 0x1CE3 JUMP JUMPDEST PUSH2 0xF84 SWAP2 SWAP1 PUSH2 0x2030 JUMP JUMPDEST SWAP1 POP JUMPDEST PUSH2 0xFC6 PUSH1 0x40 MLOAD DUP1 PUSH1 0x40 ADD PUSH1 0x40 MSTORE DUP1 PUSH1 0x6 DUP2 MSTORE PUSH1 0x20 ADD PUSH32 0x4E6F4E616D650000000000000000000000000000000000000000000000000000 DUP2 MSTORE POP DUP3 PUSH2 0x115E JUMP JUMPDEST PUSH2 0xFCF DUP3 PUSH2 0x142E JUMP JUMPDEST POP POP POP POP POP POP JUMP JUMPDEST PUSH2 0xFDF PUSH2 0x1461 JUMP JUMPDEST PUSH20 0xFFFFFFFFFFFFFFFFFFFFFFFFFFFFFFFFFFFFFFFF AND PUSH2 0xFFD PUSH2 0x9EB JUMP JUMPDEST PUSH20 0xFFFFFFFFFFFFFFFFFFFFFFFFFFFFFFFFFFFFFFFF AND EQ PUSH2 0x1053 JUMPI PUSH1 0x40 MLOAD PUSH32 0x8C379A000000000000000000000000000000000000000000000000000000000 DUP2 MSTORE PUSH1 0x4 ADD PUSH2 0x104A SWAP1 PUSH2 0x2195 JUMP JUMPDEST PUSH1 0x40 MLOAD DUP1 SWAP2 SUB SWAP1 REVERT JUMPDEST JUMP JUMPDEST PUSH1 0x0 DUP1 PUSH1 0x0 SWAP1 SLOAD SWAP1 PUSH2 0x100 EXP SWAP1 DIV PUSH20 0xFFFFFFFFFFFFFFFFFFFFFFFFFFFFFFFFFFFFFFFF AND SWAP1 POP DUP2 PUSH1 0x0 DUP1 PUSH2 0x100 EXP DUP2 SLOAD DUP2 PUSH20 0xFFFFFFFFFFFFFFFFFFFFFFFFFFFFFFFFFFFFFFFF MUL NOT AND SWAP1 DUP4 PUSH20 0xFFFFFFFFFFFFFFFFFFFFFFFFFFFFFFFFFFFFFFFF AND MUL OR SWAP1 SSTORE POP DUP2 PUSH20 0xFFFFFFFFFFFFFFFFFFFFFFFFFFFFFFFFFFFFFFFF AND DUP2 PUSH20 0xFFFFFFFFFFFFFFFFFFFFFFFFFFFFFFFFFFFFFFFF AND PUSH32 0x8BE0079C531659141344CD1FD0A4F28419497F9722A3DAAFE3B4186F6B6457E0 PUSH1 0x40 MLOAD PUSH1 0x40 MLOAD DUP1 SWAP2 SUB SWAP1 LOG3 POP POP JUMP JUMPDEST PUSH1 0x0 DUP1 DUP3 PUSH1 0x40 MLOAD PUSH1 0x20 ADD PUSH2 0x112D SWAP2 SWAP1 PUSH2 0x2132 JUMP JUMPDEST PUSH1 0x40 MLOAD PUSH1 0x20 DUP2 DUP4 SUB SUB DUP2 MSTORE SWAP1 PUSH1 0x40 MSTORE DUP1 MLOAD SWAP1 PUSH1 0x20 ADD KECCAK256 PUSH1 0x0 SHR SWAP1 POP PUSH1 0x2 SLOAD DUP2 PUSH2 0x1156 SWAP2 SWAP1 PUSH2 0x1CB2 JUMP JUMPDEST SWAP2 POP POP SWAP2 SWAP1 POP JUMP JUMPDEST PUSH1 0x4 PUSH1 0x40 MLOAD DUP1 PUSH1 0xC0 ADD PUSH1 0x40 MSTORE DUP1 DUP5 DUP2 MSTORE PUSH1 0x20 ADD DUP4 DUP2 MSTORE PUSH1 0x20 ADD PUSH1 0x1 PUSH4 0xFFFFFFFF AND DUP2 MSTORE PUSH1 0x20 ADD PUSH1 0x3 SLOAD TIMESTAMP PUSH2 0x1192 SWAP2 SWAP1 PUSH2 0x2030 JUMP JUMPDEST PUSH4 0xFFFFFFFF AND DUP2 MSTORE PUSH1 0x20 ADD PUSH1 0x0 PUSH2 0xFFFF AND DUP2 MSTORE PUSH1 0x20 ADD PUSH1 0x0 PUSH2 0xFFFF AND DUP2 MSTORE POP SWAP1 DUP1 PUSH1 0x1 DUP2 SLOAD ADD DUP1 DUP3 SSTORE DUP1 SWAP2 POP POP PUSH1 0x1 SWAP1 SUB SWAP1 PUSH1 0x0 MSTORE PUSH1 0x20 PUSH1 0x0 KECCAK256 SWAP1 PUSH1 0x3 MUL ADD PUSH1 0x0 SWAP1 SWAP2 SWAP1 SWAP2 SWAP1 SWAP2 POP PUSH1 0x0 DUP3 ADD MLOAD DUP2 PUSH1 0x0 ADD SWAP1 DUP2 PUSH2 0x11EF SWAP2 SWAP1 PUSH2 0x21B5 JUMP JUMPDEST POP PUSH1 0x20 DUP3 ADD MLOAD DUP2 PUSH1 0x1 ADD SSTORE PUSH1 0x40 DUP3 ADD MLOAD DUP2 PUSH1 0x2 ADD PUSH1 0x0 PUSH2 0x100 EXP DUP2 SLOAD DUP2 PUSH4 0xFFFFFFFF MUL NOT AND SWAP1 DUP4 PUSH4 0xFFFFFFFF AND MUL OR SWAP1 SSTORE POP PUSH1 0x60 DUP3 ADD MLOAD DUP2 PUSH1 0x2 ADD PUSH1 0x4 PUSH2 0x100 EXP DUP2 SLOAD DUP2 PUSH4 0xFFFFFFFF MUL NOT AND SWAP1 DUP4 PUSH4 0xFFFFFFFF AND MUL OR SWAP1 SSTORE POP PUSH1 0x80 DUP3 ADD MLOAD DUP2 PUSH1 0x2 ADD PUSH1 0x8 PUSH2 0x100 EXP DUP2 SLOAD DUP2 PUSH2 0xFFFF MUL NOT AND SWAP1 DUP4 PUSH2 0xFFFF AND MUL OR SWAP1 SSTORE POP PUSH1 0xA0 DUP3 ADD MLOAD DUP2 PUSH1 0x2 ADD PUSH1 0xA PUSH2 0x100 EXP DUP2 SLOAD DUP2 PUSH2 0xFFFF MUL NOT AND SWAP1 DUP4 PUSH2 0xFFFF AND MUL OR SWAP1 SSTORE POP POP POP PUSH1 0x0 PUSH1 0x1 PUSH1 0x4 DUP1 SLOAD SWAP1 POP PUSH2 0x12A4 SWAP2 SWAP1 PUSH2 0x1CE3 JUMP JUMPDEST SWAP1 POP CALLER PUSH1 0x5 PUSH1 0x0 DUP4 DUP2 MSTORE PUSH1 0x20 ADD SWAP1 DUP2 MSTORE PUSH1 0x20 ADD PUSH1 0x0 KECCAK256 PUSH1 0x0 PUSH2 0x100 EXP DUP2 SLOAD DUP2 PUSH20 0xFFFFFFFFFFFFFFFFFFFFFFFFFFFFFFFFFFFFFFFF MUL NOT AND SWAP1 DUP4 PUSH20 0xFFFFFFFFFFFFFFFFFFFFFFFFFFFFFFFFFFFFFFFF AND MUL OR SWAP1 SSTORE POP PUSH2 0x134B PUSH1 0x1 PUSH1 0x6 PUSH1 0x0 CALLER PUSH20 0xFFFFFFFFFFFFFFFFFFFFFFFFFFFFFFFFFFFFFFFF AND PUSH20 0xFFFFFFFFFFFFFFFFFFFFFFFFFFFFFFFFFFFFFFFF AND DUP2 MSTORE PUSH1 0x20 ADD SWAP1 DUP2 MSTORE PUSH1 0x20 ADD PUSH1 0x0 KECCAK256 SLOAD PUSH2 0xE37 SWAP1 SWAP2 SWAP1 PUSH4 0xFFFFFFFF AND JUMP JUMPDEST PUSH1 0x6 PUSH1 0x0 CALLER PUSH20 0xFFFFFFFFFFFFFFFFFFFFFFFFFFFFFFFFFFFFFFFF AND PUSH20 0xFFFFFFFFFFFFFFFFFFFFFFFFFFFFFFFFFFFFFFFF AND DUP2 MSTORE PUSH1 0x20 ADD SWAP1 DUP2 MSTORE PUSH1 0x20 ADD PUSH1 0x0 KECCAK256 DUP2 SWAP1 SSTORE POP PUSH32 0x88F026AACBBECC90C18411DF4B1185FD8D9BE2470F1962F192BF84A27D0704B7 DUP2 DUP5 DUP5 PUSH1 0x40 MLOAD PUSH2 0x13C1 SWAP4 SWAP3 SWAP2 SWAP1 PUSH2 0x2287 JUMP JUMPDEST PUSH1 0x40 MLOAD DUP1 SWAP2 SUB SWAP1 LOG1 POP POP POP JUMP JUMPDEST PUSH1 0x0 PUSH2 0x13E6 PUSH1 0x1 PUSH1 0x9 SLOAD PUSH2 0xE37 SWAP1 SWAP2 SWAP1 PUSH4 0xFFFFFFFF AND JUMP JUMPDEST PUSH1 0x9 DUP2 SWAP1 SSTORE POP DUP2 TIMESTAMP CALLER PUSH1 0x9 SLOAD PUSH1 0x40 MLOAD PUSH1 0x20 ADD PUSH2 0x1404 SWAP4 SWAP3 SWAP2 SWAP1 PUSH2 0x232E JUMP JUMPDEST PUSH1 0x40 MLOAD PUSH1 0x20 DUP2 DUP4 SUB SUB DUP2 MSTORE SWAP1 PUSH1 0x40 MSTORE DUP1 MLOAD SWAP1 PUSH1 0x20 ADD KECCAK256 PUSH1 0x0 SHR PUSH2 0x1427 SWAP2 SWAP1 PUSH2 0x1CB2 JUMP JUMPDEST SWAP1 POP SWAP2 SWAP1 POP JUMP JUMPDEST PUSH1 0x3 SLOAD TIMESTAMP PUSH2 0x143C SWAP2 SWAP1 PUSH2 0x2030 JUMP JUMPDEST DUP2 PUSH1 0x2 ADD PUSH1 0x4 PUSH2 0x100 EXP DUP2 SLOAD DUP2 PUSH4 0xFFFFFFFF MUL NOT AND SWAP1 DUP4 PUSH4 0xFFFFFFFF AND MUL OR SWAP1 SSTORE POP POP JUMP JUMPDEST PUSH1 0x0 CALLER SWAP1 POP SWAP1 JUMP JUMPDEST PUSH1 0x0 PUSH1 0x40 MLOAD SWAP1 POP SWAP1 JUMP JUMPDEST PUSH1 0x0 DUP1 REVERT JUMPDEST PUSH1 0x0 DUP1 REVERT JUMPDEST PUSH1 0x0 DUP2 SWAP1 POP SWAP2 SWAP1 POP JUMP JUMPDEST PUSH2 0x1490 DUP2 PUSH2 0x147D JUMP JUMPDEST DUP2 EQ PUSH2 0x149B JUMPI PUSH1 0x0 DUP1 REVERT JUMPDEST POP JUMP JUMPDEST PUSH1 0x0 DUP2 CALLDATALOAD SWAP1 POP PUSH2 0x14AD DUP2 PUSH2 0x1487 JUMP JUMPDEST SWAP3 SWAP2 POP POP JUMP JUMPDEST PUSH1 0x0 PUSH1 0x20 DUP3 DUP5 SUB SLT ISZERO PUSH2 0x14C9 JUMPI PUSH2 0x14C8 PUSH2 0x1473 JUMP JUMPDEST JUMPDEST PUSH1 0x0 PUSH2 0x14D7 DUP5 DUP3 DUP6 ADD PUSH2 0x149E JUMP JUMPDEST SWAP2 POP POP SWAP3 SWAP2 POP POP JUMP JUMPDEST PUSH1 0x0 DUP1 PUSH1 0x40 DUP4 DUP6 SUB SLT ISZERO PUSH2 0x14F7 JUMPI PUSH2 0x14F6 PUSH2 0x1473 JUMP JUMPDEST JUMPDEST PUSH1 0x0 PUSH2 0x1505 DUP6 DUP3 DUP7 ADD PUSH2 0x149E JUMP JUMPDEST SWAP3 POP POP PUSH1 0x20 PUSH2 0x1516 DUP6 DUP3 DUP7 ADD PUSH2 0x149E JUMP JUMPDEST SWAP2 POP POP SWAP3 POP SWAP3 SWAP1 POP JUMP JUMPDEST PUSH1 0x0 DUP2 MLOAD SWAP1 POP SWAP2 SWAP1 POP JUMP JUMPDEST PUSH1 0x0 DUP3 DUP3 MSTORE PUSH1 0x20 DUP3 ADD SWAP1 POP SWAP3 SWAP2 POP POP JUMP JUMPDEST PUSH1 0x0 JUMPDEST DUP4 DUP2 LT ISZERO PUSH2 0x155A JUMPI DUP1 DUP3 ADD MLOAD DUP2 DUP5 ADD MSTORE PUSH1 0x20 DUP2 ADD SWAP1 POP PUSH2 0x153F JUMP JUMPDEST PUSH1 0x0 DUP5 DUP5 ADD MSTORE POP POP POP POP JUMP JUMPDEST PUSH1 0x0 PUSH1 0x1F NOT PUSH1 0x1F DUP4 ADD AND SWAP1 POP SWAP2 SWAP1 POP JUMP JUMPDEST PUSH1 0x0 PUSH2 0x1582 DUP3 PUSH2 0x1520 JUMP JUMPDEST PUSH2 0x158C DUP2 DUP6 PUSH2 0x152B JUMP JUMPDEST SWAP4 POP PUSH2 0x159C DUP2 DUP6 PUSH1 0x20 DUP7 ADD PUSH2 0x153C JUMP JUMPDEST PUSH2 0x15A5 DUP2 PUSH2 0x1566 JUMP JUMPDEST DUP5 ADD SWAP2 POP POP SWAP3 SWAP2 POP POP JUMP JUMPDEST PUSH2 0x15B9 DUP2 PUSH2 0x147D JUMP JUMPDEST DUP3 MSTORE POP POP JUMP JUMPDEST PUSH1 0x0 PUSH4 0xFFFFFFFF DUP3 AND SWAP1 POP SWAP2 SWAP1 POP JUMP JUMPDEST PUSH2 0x15D8 DUP2 PUSH2 0x15BF JUMP JUMPDEST DUP3 MSTORE POP POP JUMP JUMPDEST PUSH1 0x0 PUSH2 0xFFFF DUP3 AND SWAP1 POP SWAP2 SWAP1 POP JUMP JUMPDEST PUSH2 0x15F5 DUP2 PUSH2 0x15DE JUMP JUMPDEST DUP3 MSTORE POP POP JUMP JUMPDEST PUSH1 0x0 PUSH1 0xC0 DUP3 ADD SWAP1 POP DUP2 DUP2 SUB PUSH1 0x0 DUP4 ADD MSTORE PUSH2 0x1615 DUP2 DUP10 PUSH2 0x1577 JUMP JUMPDEST SWAP1 POP PUSH2 0x1624 PUSH1 0x20 DUP4 ADD DUP9 PUSH2 0x15B0 JUMP JUMPDEST PUSH2 0x1631 PUSH1 0x40 DUP4 ADD DUP8 PUSH2 0x15CF JUMP JUMPDEST PUSH2 0x163E PUSH1 0x60 DUP4 ADD DUP7 PUSH2 0x15CF JUMP JUMPDEST PUSH2 0x164B PUSH1 0x80 DUP4 ADD DUP6 PUSH2 0x15EC JUMP JUMPDEST PUSH2 0x1658 PUSH1 0xA0 DUP4 ADD DUP5 PUSH2 0x15EC JUMP JUMPDEST SWAP8 SWAP7 POP POP POP POP POP POP POP JUMP JUMPDEST PUSH1 0x0 PUSH20 0xFFFFFFFFFFFFFFFFFFFFFFFFFFFFFFFFFFFFFFFF DUP3 AND SWAP1 POP SWAP2 SWAP1 POP JUMP JUMPDEST PUSH1 0x0 PUSH2 0x168E DUP3 PUSH2 0x1663 JUMP JUMPDEST SWAP1 POP SWAP2 SWAP1 POP JUMP JUMPDEST PUSH2 0x169E DUP2 PUSH2 0x1683 JUMP JUMPDEST DUP2 EQ PUSH2 0x16A9 JUMPI PUSH1 0x0 DUP1 REVERT JUMPDEST POP JUMP JUMPDEST PUSH1 0x0 DUP2 CALLDATALOAD SWAP1 POP PUSH2 0x16BB DUP2 PUSH2 0x1695 JUMP JUMPDEST SWAP3 SWAP2 POP POP JUMP JUMPDEST PUSH1 0x0 PUSH1 0x20 DUP3 DUP5 SUB SLT ISZERO PUSH2 0x16D7 JUMPI PUSH2 0x16D6 PUSH2 0x1473 JUMP JUMPDEST JUMPDEST PUSH1 0x0 PUSH2 0x16E5 DUP5 DUP3 DUP6 ADD PUSH2 0x16AC JUMP JUMPDEST SWAP2 POP POP SWAP3 SWAP2 POP POP JUMP JUMPDEST PUSH1 0x0 DUP2 MLOAD SWAP1 POP SWAP2 SWAP1 POP JUMP JUMPDEST PUSH1 0x0 DUP3 DUP3 MSTORE PUSH1 0x20 DUP3 ADD SWAP1 POP SWAP3 SWAP2 POP POP JUMP JUMPDEST PUSH1 0x0 DUP2 SWAP1 POP PUSH1 0x20 DUP3 ADD SWAP1 POP SWAP2 SWAP1 POP JUMP JUMPDEST PUSH2 0x1723 DUP2 PUSH2 0x147D JUMP JUMPDEST DUP3 MSTORE POP POP JUMP JUMPDEST PUSH1 0x0 PUSH2 0x1735 DUP4 DUP4 PUSH2 0x171A JUMP JUMPDEST PUSH1 0x20 DUP4 ADD SWAP1 POP SWAP3 SWAP2 POP POP JUMP JUMPDEST PUSH1 0x0 PUSH1 0x20 DUP3 ADD SWAP1 POP SWAP2 SWAP1 POP JUMP JUMPDEST PUSH1 0x0 PUSH2 0x1759 DUP3 PUSH2 0x16EE JUMP JUMPDEST PUSH2 0x1763 DUP2 DUP6 PUSH2 0x16F9 JUMP JUMPDEST SWAP4 POP PUSH2 0x176E DUP4 PUSH2 0x170A JUMP JUMPDEST DUP1 PUSH1 0x0 JUMPDEST DUP4 DUP2 LT ISZERO PUSH2 0x179F JUMPI DUP2 MLOAD PUSH2 0x1786 DUP9 DUP3 PUSH2 0x1729 JUMP JUMPDEST SWAP8 POP PUSH2 0x1791 DUP4 PUSH2 0x1741 JUMP JUMPDEST SWAP3 POP POP PUSH1 0x1 DUP2 ADD SWAP1 POP PUSH2 0x1772 JUMP JUMPDEST POP DUP6 SWAP4 POP POP POP POP SWAP3 SWAP2 POP POP JUMP JUMPDEST PUSH1 0x0 PUSH1 0x20 DUP3 ADD SWAP1 POP DUP2 DUP2 SUB PUSH1 0x0 DUP4 ADD MSTORE PUSH2 0x17C6 DUP2 DUP5 PUSH2 0x174E JUMP JUMPDEST SWAP1 POP SWAP3 SWAP2 POP POP JUMP JUMPDEST PUSH2 0x17D7 DUP2 PUSH2 0x1683 JUMP JUMPDEST DUP3 MSTORE POP POP JUMP JUMPDEST PUSH1 0x0 PUSH1 0x20 DUP3 ADD SWAP1 POP PUSH2 0x17F2 PUSH1 0x0 DUP4 ADD DUP5 PUSH2 0x17CE JUMP JUMPDEST SWAP3 SWAP2 POP POP JUMP JUMPDEST PUSH1 0x0 DUP1 REVERT JUMPDEST PUSH1 0x0 DUP1 REVERT JUMPDEST PUSH32 0x4E487B7100000000000000000000000000000000000000000000000000000000 PUSH1 0x0 MSTORE PUSH1 0x41 PUSH1 0x4 MSTORE PUSH1 0x24 PUSH1 0x0 REVERT JUMPDEST PUSH2 0x183A DUP3 PUSH2 0x1566 JUMP JUMPDEST DUP2 ADD DUP2 DUP2 LT PUSH8 0xFFFFFFFFFFFFFFFF DUP3 GT OR ISZERO PUSH2 0x1859 JUMPI PUSH2 0x1858 PUSH2 0x1802 JUMP JUMPDEST JUMPDEST DUP1 PUSH1 0x40 MSTORE POP POP POP JUMP JUMPDEST PUSH1 0x0 PUSH2 0x186C PUSH2 0x1469 JUMP JUMPDEST SWAP1 POP PUSH2 0x1878 DUP3 DUP3 PUSH2 0x1831 JUMP JUMPDEST SWAP2 SWAP1 POP JUMP JUMPDEST PUSH1 0x0 PUSH8 0xFFFFFFFFFFFFFFFF DUP3 GT ISZERO PUSH2 0x1898 JUMPI PUSH2 0x1897 PUSH2 0x1802 JUMP JUMPDEST JUMPDEST PUSH2 0x18A1 DUP3 PUSH2 0x1566 JUMP JUMPDEST SWAP1 POP PUSH1 0x20 DUP2 ADD SWAP1 POP SWAP2 SWAP1 POP JUMP JUMPDEST DUP3 DUP2 DUP4 CALLDATACOPY PUSH1 0x0 DUP4 DUP4 ADD MSTORE POP POP POP JUMP JUMPDEST PUSH1 0x0 PUSH2 0x18D0 PUSH2 0x18CB DUP5 PUSH2 0x187D JUMP JUMPDEST PUSH2 0x1862 JUMP JUMPDEST SWAP1 POP DUP3 DUP2 MSTORE PUSH1 0x20 DUP2 ADD DUP5 DUP5 DUP5 ADD GT ISZERO PUSH2 0x18EC JUMPI PUSH2 0x18EB PUSH2 0x17FD JUMP JUMPDEST JUMPDEST PUSH2 0x18F7 DUP5 DUP3 DUP6 PUSH2 0x18AE JUMP JUMPDEST POP SWAP4 SWAP3 POP POP POP JUMP JUMPDEST PUSH1 0x0 DUP3 PUSH1 0x1F DUP4 ADD SLT PUSH2 0x1914 JUMPI PUSH2 0x1913 PUSH2 0x17F8 JUMP JUMPDEST JUMPDEST DUP2 CALLDATALOAD PUSH2 0x1924 DUP5 DUP3 PUSH1 0x20 DUP7 ADD PUSH2 0x18BD JUMP JUMPDEST SWAP2 POP POP SWAP3 SWAP2 POP POP JUMP JUMPDEST PUSH1 0x0 PUSH1 0x20 DUP3 DUP5 SUB SLT ISZERO PUSH2 0x1943 JUMPI PUSH2 0x1942 PUSH2 0x1473 JUMP JUMPDEST JUMPDEST PUSH1 0x0 DUP3 ADD CALLDATALOAD PUSH8 0xFFFFFFFFFFFFFFFF DUP2 GT ISZERO PUSH2 0x1961 JUMPI PUSH2 0x1960 PUSH2 0x1478 JUMP JUMPDEST JUMPDEST PUSH2 0x196D DUP5 DUP3 DUP6 ADD PUSH2 0x18FF JUMP JUMPDEST SWAP2 POP POP SWAP3 SWAP2 POP POP JUMP JUMPDEST PUSH1 0x0 DUP1 REVERT JUMPDEST PUSH1 0x0 DUP1 REVERT JUMPDEST PUSH1 0x0 DUP1 DUP4 PUSH1 0x1F DUP5 ADD SLT PUSH2 0x1996 JUMPI PUSH2 0x1995 PUSH2 0x17F8 JUMP JUMPDEST JUMPDEST DUP3 CALLDATALOAD SWAP1 POP PUSH8 0xFFFFFFFFFFFFFFFF DUP2 GT ISZERO PUSH2 0x19B3 JUMPI PUSH2 0x19B2 PUSH2 0x1976 JUMP JUMPDEST JUMPDEST PUSH1 0x20 DUP4 ADD SWAP2 POP DUP4 PUSH1 0x1 DUP3 MUL DUP4 ADD GT ISZERO PUSH2 0x19CF JUMPI PUSH2 0x19CE PUSH2 0x197B JUMP JUMPDEST JUMPDEST SWAP3 POP SWAP3 SWAP1 POP JUMP JUMPDEST PUSH1 0x0 DUP1 PUSH1 0x0 PUSH1 0x40 DUP5 DUP7 SUB SLT ISZERO PUSH2 0x19EF JUMPI PUSH2 0x19EE PUSH2 0x1473 JUMP JUMPDEST JUMPDEST PUSH1 0x0 PUSH2 0x19FD DUP7 DUP3 DUP8 ADD PUSH2 0x149E JUMP JUMPDEST SWAP4 POP POP PUSH1 0x20 DUP5 ADD CALLDATALOAD PUSH8 0xFFFFFFFFFFFFFFFF DUP2 GT ISZERO PUSH2 0x1A1E JUMPI PUSH2 0x1A1D PUSH2 0x1478 JUMP JUMPDEST JUMPDEST PUSH2 0x1A2A DUP7 DUP3 DUP8 ADD PUSH2 0x1980 JUMP JUMPDEST SWAP3 POP SWAP3 POP POP SWAP3 POP SWAP3 POP SWAP3 JUMP JUMPDEST PUSH32 0x4E487B7100000000000000000000000000000000000000000000000000000000 PUSH1 0x0 MSTORE PUSH1 0x32 PUSH1 0x4 MSTORE PUSH1 0x24 PUSH1 0x0 REVERT JUMPDEST PUSH1 0x0 PUSH1 0x20 DUP3 ADD SWAP1 POP PUSH2 0x1A7A PUSH1 0x0 DUP4 ADD DUP5 PUSH2 0x15B0 JUMP JUMPDEST SWAP3 SWAP2 POP POP JUMP JUMPDEST PUSH1 0x0 DUP2 ISZERO ISZERO SWAP1 POP SWAP2 SWAP1 POP JUMP JUMPDEST PUSH2 0x1A95 DUP2 PUSH2 0x1A80 JUMP JUMPDEST DUP2 EQ PUSH2 0x1AA0 JUMPI PUSH1 0x0 DUP1 REVERT JUMPDEST POP JUMP JUMPDEST PUSH1 0x0 DUP2 MLOAD SWAP1 POP PUSH2 0x1AB2 DUP2 PUSH2 0x1A8C JUMP JUMPDEST SWAP3 SWAP2 POP POP JUMP JUMPDEST PUSH1 0x0 DUP2 MLOAD SWAP1 POP PUSH2 0x1AC7 DUP2 PUSH2 0x1487 JUMP JUMPDEST SWAP3 SWAP2 POP POP JUMP JUMPDEST PUSH1 0x0 DUP1 PUSH1 0x0 DUP1 PUSH1 0x0 DUP1 PUSH1 0x0 DUP1 PUSH1 0x0 DUP1 PUSH2 0x140 DUP12 DUP14 SUB SLT ISZERO PUSH2 0x1AF1 JUMPI PUSH2 0x1AF0 PUSH2 0x1473 JUMP JUMPDEST JUMPDEST PUSH1 0x0 PUSH2 0x1AFF DUP14 DUP3 DUP15 ADD PUSH2 0x1AA3 JUMP JUMPDEST SWAP11 POP POP PUSH1 0x20 PUSH2 0x1B10 DUP14 DUP3 DUP15 ADD PUSH2 0x1AA3 JUMP JUMPDEST SWAP10 POP POP PUSH1 0x40 PUSH2 0x1B21 DUP14 DUP3 DUP15 ADD PUSH2 0x1AB8 JUMP JUMPDEST SWAP9 POP POP PUSH1 0x60 PUSH2 0x1B32 DUP14 DUP3 DUP15 ADD PUSH2 0x1AB8 JUMP JUMPDEST SWAP8 POP POP PUSH1 0x80 PUSH2 0x1B43 DUP14 DUP3 DUP15 ADD PUSH2 0x1AB8 JUMP JUMPDEST SWAP7 POP POP PUSH1 0xA0 PUSH2 0x1B54 DUP14 DUP3 DUP15 ADD PUSH2 0x1AB8 JUMP JUMPDEST SWAP6 POP POP PUSH1 0xC0 PUSH2 0x1B65 DUP14 DUP3 DUP15 ADD PUSH2 0x1AB8 JUMP JUMPDEST SWAP5 POP POP PUSH1 0xE0 PUSH2 0x1B76 DUP14 DUP3 DUP15 ADD PUSH2 0x1AB8 JUMP JUMPDEST SWAP4 POP POP PUSH2 0x100 PUSH2 0x1B88 DUP14 DUP3 DUP15 ADD PUSH2 0x1AB8 JUMP JUMPDEST SWAP3 POP POP PUSH2 0x120 PUSH2 0x1B9A DUP14 DUP3 DUP15 ADD PUSH2 0x1AB8 JUMP JUMPDEST SWAP2 POP POP SWAP3 SWAP6 SWAP9 SWAP12 SWAP2 SWAP5 SWAP8 SWAP11 POP SWAP3 SWAP6 SWAP9 POP JUMP JUMPDEST PUSH32 0x4E487B7100000000000000000000000000000000000000000000000000000000 PUSH1 0x0 MSTORE PUSH1 0x22 PUSH1 0x4 MSTORE PUSH1 0x24 PUSH1 0x0 REVERT JUMPDEST PUSH1 0x0 PUSH1 0x2 DUP3 DIV SWAP1 POP PUSH1 0x1 DUP3 AND DUP1 PUSH2 0x1BF3 JUMPI PUSH1 0x7F DUP3 AND SWAP2 POP JUMPDEST PUSH1 0x20 DUP3 LT DUP2 SUB PUSH2 0x1C06 JUMPI PUSH2 0x1C05 PUSH2 0x1BAC JUMP JUMPDEST JUMPDEST POP SWAP2 SWAP1 POP JUMP JUMPDEST PUSH32 0x4E487B7100000000000000000000000000000000000000000000000000000000 PUSH1 0x0 MSTORE PUSH1 0x11 PUSH1 0x4 MSTORE PUSH1 0x24 PUSH1 0x0 REVERT JUMPDEST PUSH1 0x0 PUSH2 0x1C46 DUP3 PUSH2 0x147D JUMP JUMPDEST SWAP2 POP PUSH32 0xFFFFFFFFFFFFFFFFFFFFFFFFFFFFFFFFFFFFFFFFFFFFFFFFFFFFFFFFFFFFFFFF DUP3 SUB PUSH2 0x1C78 JUMPI PUSH2 0x1C77 PUSH2 0x1C0C JUMP JUMPDEST JUMPDEST PUSH1 0x1 DUP3 ADD SWAP1 POP SWAP2 SWAP1 POP JUMP JUMPDEST PUSH32 0x4E487B7100000000000000000000000000000000000000000000000000000000 PUSH1 0x0 MSTORE PUSH1 0x12 PUSH1 0x4 MSTORE PUSH1 0x24 PUSH1 0x0 REVERT JUMPDEST PUSH1 0x0 PUSH2 0x1CBD DUP3 PUSH2 0x147D JUMP JUMPDEST SWAP2 POP PUSH2 0x1CC8 DUP4 PUSH2 0x147D JUMP JUMPDEST SWAP3 POP DUP3 PUSH2 0x1CD8 JUMPI PUSH2 0x1CD7 PUSH2 0x1C83 JUMP JUMPDEST JUMPDEST DUP3 DUP3 MOD SWAP1 POP SWAP3 SWAP2 POP POP JUMP JUMPDEST PUSH1 0x0 PUSH2 0x1CEE DUP3 PUSH2 0x147D JUMP JUMPDEST SWAP2 POP PUSH2 0x1CF9 DUP4 PUSH2 0x147D JUMP JUMPDEST SWAP3 POP DUP3 DUP3 SUB SWAP1 POP DUP2 DUP2 GT ISZERO PUSH2 0x1D11 JUMPI PUSH2 0x1D10 PUSH2 0x1C0C JUMP JUMPDEST JUMPDEST SWAP3 SWAP2 POP POP JUMP JUMPDEST PUSH1 0x0 DUP3 SWAP1 POP SWAP3 SWAP2 POP POP JUMP JUMPDEST PUSH1 0x0 DUP2 SWAP1 POP DUP2 PUSH1 0x0 MSTORE PUSH1 0x20 PUSH1 0x0 KECCAK256 SWAP1 POP SWAP2 SWAP1 POP JUMP JUMPDEST PUSH1 0x0 PUSH1 0x20 PUSH1 0x1F DUP4 ADD DIV SWAP1 POP SWAP2 SWAP1 POP JUMP JUMPDEST PUSH1 0x0 DUP3 DUP3 SHL SWAP1 POP SWAP3 SWAP2 POP POP JUMP JUMPDEST PUSH1 0x0 PUSH1 0x8 DUP4 MUL PUSH2 0x1D84 PUSH32 0xFFFFFFFFFFFFFFFFFFFFFFFFFFFFFFFFFFFFFFFFFFFFFFFFFFFFFFFFFFFFFFFF DUP3 PUSH2 0x1D47 JUMP JUMPDEST PUSH2 0x1D8E DUP7 DUP4 PUSH2 0x1D47 JUMP JUMPDEST SWAP6 POP DUP1 NOT DUP5 AND SWAP4 POP DUP1 DUP7 AND DUP5 OR SWAP3 POP POP POP SWAP4 SWAP3 POP POP POP JUMP JUMPDEST PUSH1 0x0 DUP2 SWAP1 POP SWAP2 SWAP1 POP JUMP JUMPDEST PUSH1 0x0 PUSH2 0x1DCB PUSH2 0x1DC6 PUSH2 0x1DC1 DUP5 PUSH2 0x147D JUMP JUMPDEST PUSH2 0x1DA6 JUMP JUMPDEST PUSH2 0x147D JUMP JUMPDEST SWAP1 POP SWAP2 SWAP1 POP JUMP JUMPDEST PUSH1 0x0 DUP2 SWAP1 POP SWAP2 SWAP1 POP JUMP JUMPDEST PUSH2 0x1DE5 DUP4 PUSH2 0x1DB0 JUMP JUMPDEST PUSH2 0x1DF9 PUSH2 0x1DF1 DUP3 PUSH2 0x1DD2 JUMP JUMPDEST DUP5 DUP5 SLOAD PUSH2 0x1D54 JUMP JUMPDEST DUP3 SSTORE POP POP POP POP JUMP JUMPDEST PUSH1 0x0 SWAP1 JUMP JUMPDEST PUSH2 0x1E0E PUSH2 0x1E01 JUMP JUMPDEST PUSH2 0x1E19 DUP2 DUP5 DUP5 PUSH2 0x1DDC JUMP JUMPDEST POP POP POP JUMP JUMPDEST JUMPDEST DUP2 DUP2 LT ISZERO PUSH2 0x1E3D JUMPI PUSH2 0x1E32 PUSH1 0x0 DUP3 PUSH2 0x1E06 JUMP JUMPDEST PUSH1 0x1 DUP2 ADD SWAP1 POP PUSH2 0x1E1F JUMP JUMPDEST POP POP JUMP JUMPDEST PUSH1 0x1F DUP3 GT ISZERO PUSH2 0x1E82 JUMPI PUSH2 0x1E53 DUP2 PUSH2 0x1D22 JUMP JUMPDEST PUSH2 0x1E5C DUP5 PUSH2 0x1D37 JUMP JUMPDEST DUP2 ADD PUSH1 0x20 DUP6 LT ISZERO PUSH2 0x1E6B JUMPI DUP2 SWAP1 POP JUMPDEST PUSH2 0x1E7F PUSH2 0x1E77 DUP6 PUSH2 0x1D37 JUMP JUMPDEST DUP4 ADD DUP3 PUSH2 0x1E1E JUMP JUMPDEST POP POP JUMPDEST POP POP POP JUMP JUMPDEST PUSH1 0x0 DUP3 DUP3 SHR SWAP1 POP SWAP3 SWAP2 POP POP JUMP JUMPDEST PUSH1 0x0 PUSH2 0x1EA5 PUSH1 0x0 NOT DUP5 PUSH1 0x8 MUL PUSH2 0x1E87 JUMP JUMPDEST NOT DUP1 DUP4 AND SWAP2 POP POP SWAP3 SWAP2 POP POP JUMP JUMPDEST PUSH1 0x0 PUSH2 0x1EBE DUP4 DUP4 PUSH2 0x1E94 JUMP JUMPDEST SWAP2 POP DUP3 PUSH1 0x2 MUL DUP3 OR SWAP1 POP SWAP3 SWAP2 POP POP JUMP JUMPDEST PUSH2 0x1ED8 DUP4 DUP4 PUSH2 0x1D17 JUMP JUMPDEST PUSH8 0xFFFFFFFFFFFFFFFF DUP2 GT ISZERO PUSH2 0x1EF1 JUMPI PUSH2 0x1EF0 PUSH2 0x1802 JUMP JUMPDEST JUMPDEST PUSH2 0x1EFB DUP3 SLOAD PUSH2 0x1BDB JUMP JUMPDEST PUSH2 0x1F06 DUP3 DUP3 DUP6 PUSH2 0x1E41 JUMP JUMPDEST PUSH1 0x0 PUSH1 0x1F DUP4 GT PUSH1 0x1 DUP2 EQ PUSH2 0x1F35 JUMPI PUSH1 0x0 DUP5 ISZERO PUSH2 0x1F23 JUMPI DUP3 DUP8 ADD CALLDATALOAD SWAP1 POP JUMPDEST PUSH2 0x1F2D DUP6 DUP3 PUSH2 0x1EB2 JUMP JUMPDEST DUP7 SSTORE POP PUSH2 0x1F95 JUMP JUMPDEST PUSH1 0x1F NOT DUP5 AND PUSH2 0x1F43 DUP7 PUSH2 0x1D22 JUMP JUMPDEST PUSH1 0x0 JUMPDEST DUP3 DUP2 LT ISZERO PUSH2 0x1F6B JUMPI DUP5 DUP10 ADD CALLDATALOAD DUP3 SSTORE PUSH1 0x1 DUP3 ADD SWAP2 POP PUSH1 0x20 DUP6 ADD SWAP5 POP PUSH1 0x20 DUP2 ADD SWAP1 POP PUSH2 0x1F46 JUMP JUMPDEST DUP7 DUP4 LT ISZERO PUSH2 0x1F88 JUMPI DUP5 DUP10 ADD CALLDATALOAD PUSH2 0x1F84 PUSH1 0x1F DUP10 AND DUP3 PUSH2 0x1E94 JUMP JUMPDEST DUP4 SSTORE POP JUMPDEST PUSH1 0x1 PUSH1 0x2 DUP9 MUL ADD DUP9 SSTORE POP POP POP JUMPDEST POP POP POP POP POP POP POP JUMP JUMPDEST PUSH32 0x4F776E61626C653A206E6577206F776E657220697320746865207A65726F2061 PUSH1 0x0 DUP3 ADD MSTORE PUSH32 0x6464726573730000000000000000000000000000000000000000000000000000 PUSH1 0x20 DUP3 ADD MSTORE POP JUMP JUMPDEST PUSH1 0x0 PUSH2 0x1FFA PUSH1 0x26 DUP4 PUSH2 0x152B JUMP JUMPDEST SWAP2 POP PUSH2 0x2005 DUP3 PUSH2 0x1F9E JUMP JUMPDEST PUSH1 0x40 DUP3 ADD SWAP1 POP SWAP2 SWAP1 POP JUMP JUMPDEST PUSH1 0x0 PUSH1 0x20 DUP3 ADD SWAP1 POP DUP2 DUP2 SUB PUSH1 0x0 DUP4 ADD MSTORE PUSH2 0x2029 DUP2 PUSH2 0x1FED JUMP JUMPDEST SWAP1 POP SWAP2 SWAP1 POP JUMP JUMPDEST PUSH1 0x0 PUSH2 0x203B DUP3 PUSH2 0x147D JUMP JUMPDEST SWAP2 POP PUSH2 0x2046 DUP4 PUSH2 0x147D JUMP JUMPDEST SWAP3 POP DUP3 DUP3 ADD SWAP1 POP DUP1 DUP3 GT ISZERO PUSH2 0x205E JUMPI PUSH2 0x205D PUSH2 0x1C0C JUMP JUMPDEST JUMPDEST SWAP3 SWAP2 POP POP JUMP JUMPDEST PUSH1 0x0 PUSH2 0x206F DUP3 PUSH2 0x147D JUMP JUMPDEST SWAP2 POP PUSH2 0x207A DUP4 PUSH2 0x147D JUMP JUMPDEST SWAP3 POP DUP3 PUSH2 0x208A JUMPI PUSH2 0x2089 PUSH2 0x1C83 JUMP JUMPDEST JUMPDEST DUP3 DUP3 DIV SWAP1 POP SWAP3 SWAP2 POP POP JUMP JUMPDEST PUSH1 0x0 DUP2 SWAP1 POP SWAP3 SWAP2 POP POP JUMP JUMPDEST PUSH32 0x6B69747479000000000000000000000000000000000000000000000000000000 PUSH1 0x0 DUP3 ADD MSTORE POP JUMP JUMPDEST PUSH1 0x0 PUSH2 0x20D6 PUSH1 0x5 DUP4 PUSH2 0x2095 JUMP JUMPDEST SWAP2 POP PUSH2 0x20E1 DUP3 PUSH2 0x20A0 JUMP JUMPDEST PUSH1 0x5 DUP3 ADD SWAP1 POP SWAP2 SWAP1 POP JUMP JUMPDEST PUSH1 0x0 PUSH2 0x20F7 DUP3 PUSH2 0x20C9 JUMP JUMPDEST SWAP2 POP DUP2 SWAP1 POP SWAP2 SWAP1 POP JUMP JUMPDEST PUSH1 0x0 PUSH2 0x210C DUP3 PUSH2 0x1520 JUMP JUMPDEST PUSH2 0x2116 DUP2 DUP6 PUSH2 0x2095 JUMP JUMPDEST SWAP4 POP PUSH2 0x2126 DUP2 DUP6 PUSH1 0x20 DUP7 ADD PUSH2 0x153C JUMP JUMPDEST DUP1 DUP5 ADD SWAP2 POP POP SWAP3 SWAP2 POP POP JUMP JUMPDEST PUSH1 0x0 PUSH2 0x213E DUP3 DUP5 PUSH2 0x2101 JUMP JUMPDEST SWAP2 POP DUP2 SWAP1 POP SWAP3 SWAP2 POP POP JUMP JUMPDEST PUSH32 0x4F776E61626C653A2063616C6C6572206973206E6F7420746865206F776E6572 PUSH1 0x0 DUP3 ADD MSTORE POP JUMP JUMPDEST PUSH1 0x0 PUSH2 0x217F PUSH1 0x20 DUP4 PUSH2 0x152B JUMP JUMPDEST SWAP2 POP PUSH2 0x218A DUP3 PUSH2 0x2149 JUMP JUMPDEST PUSH1 0x20 DUP3 ADD SWAP1 POP SWAP2 SWAP1 POP JUMP JUMPDEST PUSH1 0x0 PUSH1 0x20 DUP3 ADD SWAP1 POP DUP2 DUP2 SUB PUSH1 0x0 DUP4 ADD MSTORE PUSH2 0x21AE DUP2 PUSH2 0x2172 JUMP JUMPDEST SWAP1 POP SWAP2 SWAP1 POP JUMP JUMPDEST PUSH2 0x21BE DUP3 PUSH2 0x1520 JUMP JUMPDEST PUSH8 0xFFFFFFFFFFFFFFFF DUP2 GT ISZERO PUSH2 0x21D7 JUMPI PUSH2 0x21D6 PUSH2 0x1802 JUMP JUMPDEST JUMPDEST PUSH2 0x21E1 DUP3 SLOAD PUSH2 0x1BDB JUMP JUMPDEST PUSH2 0x21EC DUP3 DUP3 DUP6 PUSH2 0x1E41 JUMP JUMPDEST PUSH1 0x0 PUSH1 0x20 SWAP1 POP PUSH1 0x1F DUP4 GT PUSH1 0x1 DUP2 EQ PUSH2 0x221F JUMPI PUSH1 0x0 DUP5 ISZERO PUSH2 0x220D JUMPI DUP3 DUP8 ADD MLOAD SWAP1 POP JUMPDEST PUSH2 0x2217 DUP6 DUP3 PUSH2 0x1EB2 JUMP JUMPDEST DUP7 SSTORE POP PUSH2 0x227F JUMP JUMPDEST PUSH1 0x1F NOT DUP5 AND PUSH2 0x222D DUP7 PUSH2 0x1D22 JUMP JUMPDEST PUSH1 0x0 JUMPDEST DUP3 DUP2 LT ISZERO PUSH2 0x2255 JUMPI DUP5 DUP10 ADD MLOAD DUP3 SSTORE PUSH1 0x1 DUP3 ADD SWAP2 POP PUSH1 0x20 DUP6 ADD SWAP5 POP PUSH1 0x20 DUP2 ADD SWAP1 POP PUSH2 0x2230 JUMP JUMPDEST DUP7 DUP4 LT ISZERO PUSH2 0x2272 JUMPI DUP5 DUP10 ADD MLOAD PUSH2 0x226E PUSH1 0x1F DUP10 AND DUP3 PUSH2 0x1E94 JUMP JUMPDEST DUP4 SSTORE POP JUMPDEST PUSH1 0x1 PUSH1 0x2 DUP9 MUL ADD DUP9 SSTORE POP POP POP JUMPDEST POP POP POP POP POP POP JUMP JUMPDEST PUSH1 0x0 PUSH1 0x60 DUP3 ADD SWAP1 POP PUSH2 0x229C PUSH1 0x0 DUP4 ADD DUP7 PUSH2 0x15B0 JUMP JUMPDEST DUP2 DUP2 SUB PUSH1 0x20 DUP4 ADD MSTORE PUSH2 0x22AE DUP2 DUP6 PUSH2 0x1577 JUMP JUMPDEST SWAP1 POP PUSH2 0x22BD PUSH1 0x40 DUP4 ADD DUP5 PUSH2 0x15B0 JUMP JUMPDEST SWAP5 SWAP4 POP POP POP POP JUMP JUMPDEST PUSH1 0x0 DUP2 SWAP1 POP SWAP2 SWAP1 POP JUMP JUMPDEST PUSH2 0x22E0 PUSH2 0x22DB DUP3 PUSH2 0x147D JUMP JUMPDEST PUSH2 0x22C5 JUMP JUMPDEST DUP3 MSTORE POP POP JUMP JUMPDEST PUSH1 0x0 DUP2 PUSH1 0x60 SHL SWAP1 POP SWAP2 SWAP1 POP JUMP JUMPDEST PUSH1 0x0 PUSH2 0x22FE DUP3 PUSH2 0x22E6 JUMP JUMPDEST SWAP1 POP SWAP2 SWAP1 POP JUMP JUMPDEST PUSH1 0x0 PUSH2 0x2310 DUP3 PUSH2 0x22F3 JUMP JUMPDEST SWAP1 POP SWAP2 SWAP1 POP JUMP JUMPDEST PUSH2 0x2328 PUSH2 0x2323 DUP3 PUSH2 0x1683 JUMP JUMPDEST PUSH2 0x2305 JUMP JUMPDEST DUP3 MSTORE POP POP JUMP JUMPDEST PUSH1 0x0 PUSH2 0x233A DUP3 DUP7 PUSH2 0x22CF JUMP JUMPDEST PUSH1 0x20 DUP3 ADD SWAP2 POP PUSH2 0x234A DUP3 DUP6 PUSH2 0x2317 JUMP JUMPDEST PUSH1 0x14 DUP3 ADD SWAP2 POP PUSH2 0x235A DUP3 DUP5 PUSH2 0x22CF JUMP JUMPDEST PUSH1 0x20 DUP3 ADD SWAP2 POP DUP2 SWAP1 POP SWAP5 SWAP4 POP POP POP POP JUMP INVALID LOG2 PUSH5 0x6970667358 0x22 SLT KECCAK256 OR 0xC6 DUP4 0xA5 DUP1 0xEB EXTCODECOPY BYTE 0xD8 0xB7 SWAP3 PUSH14 0x957F1C3E0F933AA35CC56C37B7BE 0xFC ADD 0x23 SWAP5 PUSH6 0x9564736F6C63 NUMBER STOP ADDMOD GT STOP CALLER "
		},
		"gasEstimates": {
			"creation": {
				"codeDepositCost": "1824200",
				"executionCost": "infinite",
				"totalCost": "infinite"
			},
			"external": {
				"attack(uint256,uint256)": "infinite",
				"changeDna(uint256,uint256)": "infinite",
				"changeName(uint256,string)": "infinite",
				"createRandomZombie(string)": "infinite",
				"feedOnKitty(uint256,uint256)": "infinite",
				"getZombiesByOwner(address)": "infinite",
				"levelUp(uint256)": "infinite",
				"owner()": "2611",
				"renounceOwnership()": "30443",
				"setKittyContractAddress(address)": "27075",
				"setLevelUpFee(uint256)": "24828",
				"transferOwnership(address)": "30832",
				"withdraw()": "infinite",
				"zombieToOwner(uint256)": "2906",
				"zombies(uint256)": "infinite"
			},
			"internal": {
				"randMod(uint256)": "infinite"
			}
		},
		"methodIdentifiers": {
			"attack(uint256,uint256)": "e1fa7638",
			"changeDna(uint256,uint256)": "5faf2880",
			"changeName(uint256,string)": "c39cbef1",
			"createRandomZombie(string)": "7bff0a01",
			"feedOnKitty(uint256,uint256)": "17a7f4cc",
			"getZombiesByOwner(address)": "4412e104",
			"levelUp(uint256)": "0ce90ec2",
			"owner()": "8da5cb5b",
			"renounceOwnership()": "715018a6",
			"setKittyContractAddress(address)": "5f4623f1",
			"setLevelUpFee(uint256)": "ccf670f8",
			"transferOwnership(address)": "f2fde38b",
			"withdraw()": "3ccfd60b",
			"zombieToOwner(uint256)": "528b7b8f",
			"zombies(uint256)": "2052465e"
		}
	},
	"abi": [
		{
			"anonymous": false,
			"inputs": [
				{
					"indexed": false,
					"internalType": "uint256",
					"name": "zombieId",
					"type": "uint256"
				},
				{
					"indexed": false,
					"internalType": "string",
					"name": "name",
					"type": "string"
				},
				{
					"indexed": false,
					"internalType": "uint256",
					"name": "dna",
					"type": "uint256"
				}
			],
			"name": "NewZombie",
			"type": "event"
		},
		{
			"anonymous": false,
			"inputs": [
				{
					"indexed": true,
					"internalType": "address",
					"name": "previousOwner",
					"type": "address"
				},
				{
					"indexed": true,
					"internalType": "address",
					"name": "newOwner",
					"type": "address"
				}
			],
			"name": "OwnershipTransferred",
			"type": "event"
		},
		{
			"inputs": [
				{
					"internalType": "uint256",
					"name": "_zombieId",
					"type": "uint256"
				},
				{
					"internalType": "uint256",
					"name": "_targetId",
					"type": "uint256"
				}
			],
			"name": "attack",
			"outputs": [],
			"stateMutability": "nonpayable",
			"type": "function"
		},
		{
			"inputs": [
				{
					"internalType": "uint256",
					"name": "_zombieId",
					"type": "uint256"
				},
				{
					"internalType": "uint256",
					"name": "_newDna",
					"type": "uint256"
				}
			],
			"name": "changeDna",
			"outputs": [],
			"stateMutability": "nonpayable",
			"type": "function"
		},
		{
			"inputs": [
				{
					"internalType": "uint256",
					"name": "_zombieId",
					"type": "uint256"
				},
				{
					"internalType": "string",
					"name": "_newName",
					"type": "string"
				}
			],
			"name": "changeName",
			"outputs": [],
			"stateMutability": "nonpayable",
			"type": "function"
		},
		{
			"inputs": [
				{
					"internalType": "string",
					"name": "_name",
					"type": "string"
				}
			],
			"name": "createRandomZombie",
			"outputs": [],
			"stateMutability": "nonpayable",
			"type": "function"
		},
		{
			"inputs": [
				{
					"internalType": "uint256",
					"name": "_zombieId",
					"type": "uint256"
				},
				{
					"internalType": "uint256",
					"name": "_kittyId",
					"type": "uint256"
				}
			],
			"name": "feedOnKitty",
			"outputs": [],
			"stateMutability": "nonpayable",
			"type": "function"
		},
		{
			"inputs": [
				{
					"internalType": "address",
					"name": "_owner",
					"type": "address"
				}
			],
			"name": "getZombiesByOwner",
			"outputs": [
				{
					"internalType": "uint256[]",
					"name": "",
					"type": "uint256[]"
				}
			],
			"stateMutability": "view",
			"type": "function"
		},
		{
			"inputs": [
				{
					"internalType": "uint256",
					"name": "_zombieId",
					"type": "uint256"
				}
			],
			"name": "levelUp",
			"outputs": [],
			"stateMutability": "payable",
			"type": "function"
		},
		{
			"inputs": [],
			"name": "owner",
			"outputs": [
				{
					"internalType": "address",
					"name": "",
					"type": "address"
				}
			],
			"stateMutability": "view",
			"type": "function"
		},
		{
			"inputs": [],
			"name": "renounceOwnership",
			"outputs": [],
			"stateMutability": "nonpayable",
			"type": "function"
		},
		{
			"inputs": [
				{
					"internalType": "address",
					"name": "_address",
					"type": "address"
				}
			],
			"name": "setKittyContractAddress",
			"outputs": [],
			"stateMutability": "nonpayable",
			"type": "function"
		},
		{
			"inputs": [
				{
					"internalType": "uint256",
					"name": "_fee",
					"type": "uint256"
				}
			],
			"name": "setLevelUpFee",
			"outputs": [],
			"stateMutability": "nonpayable",
			"type": "function"
		},
		{
			"inputs": [
				{
					"internalType": "address",
					"name": "newOwner",
					"type": "address"
				}
			],
			"name": "transferOwnership",
			"outputs": [],
			"stateMutability": "nonpayable",
			"type": "function"
		},
		{
			"inputs": [],
			"name": "withdraw",
			"outputs": [],
			"stateMutability": "nonpayable",
			"type": "function"
		},
		{
			"inputs": [
				{
					"internalType": "uint256",
					"name": "",
					"type": "uint256"
				}
			],
			"name": "zombieToOwner",
			"outputs": [
				{
					"internalType": "address",
					"name": "",
					"type": "address"
				}
			],
			"stateMutability": "view",
			"type": "function"
		},
		{
			"inputs": [
				{
					"internalType": "uint256",
					"name": "",
					"type": "uint256"
				}
			],
			"name": "zombies",
			"outputs": [
				{
					"internalType": "string",
					"name": "name",
					"type": "string"
				},
				{
					"internalType": "uint256",
					"name": "dna",
					"type": "uint256"
				},
				{
					"internalType": "uint32",
					"name": "level",
					"type": "uint32"
				},
				{
					"internalType": "uint32",
					"name": "readyTime",
					"type": "uint32"
				},
				{
					"internalType": "uint16",
					"name": "winCount",
					"type": "uint16"
				},
				{
					"internalType": "uint16",
					"name": "lossCount",
					"type": "uint16"
				}
			],
			"stateMutability": "view",
			"type": "function"
		}
	]
}